{
  "_format": "hh-sol-artifact-1",
  "contractName": "Staking",
  "sourceName": "contracts/contract/Staking.sol",
  "abi": [
    {
      "inputs": [
        {
          "internalType": "contract Storage",
          "name": "storageAddress",
          "type": "address"
        },
        {
          "internalType": "contract ERC20",
          "name": "ggp_",
          "type": "address"
        }
      ],
      "stateMutability": "nonpayable",
      "type": "constructor"
    },
    {
      "inputs": [],
      "name": "CannotWithdrawUnder150CollateralizationRatio",
      "type": "error"
    },
    {
      "inputs": [],
      "name": "ContractPaused",
      "type": "error"
    },
    {
      "inputs": [],
      "name": "InsufficientBalance",
      "type": "error"
    },
    {
      "inputs": [],
      "name": "InvalidOrOutdatedContract",
      "type": "error"
    },
    {
      "inputs": [],
      "name": "MustBeGuardian",
      "type": "error"
    },
    {
      "inputs": [],
      "name": "MustBeMultisig",
      "type": "error"
    },
    {
      "inputs": [],
      "name": "StakerNotFound",
      "type": "error"
    },
    {
      "inputs": [],
      "name": "TransferFailed",
      "type": "error"
    },
    {
      "anonymous": false,
      "inputs": [
        {
          "indexed": true,
          "internalType": "address",
          "name": "from",
          "type": "address"
        },
        {
          "indexed": false,
          "internalType": "uint256",
          "name": "amount",
          "type": "uint256"
        }
      ],
      "name": "GGPStaked",
      "type": "event"
    },
    {
      "anonymous": false,
      "inputs": [
        {
          "indexed": true,
          "internalType": "address",
          "name": "to",
          "type": "address"
        },
        {
          "indexed": false,
          "internalType": "uint256",
          "name": "amount",
          "type": "uint256"
        }
      ],
      "name": "GGPWithdrawn",
      "type": "event"
    },
    {
      "inputs": [
        {
          "internalType": "address",
          "name": "stakerAddr",
          "type": "address"
        },
        {
          "internalType": "uint256",
          "name": "amount",
          "type": "uint256"
        }
      ],
      "name": "decreaseAVAXAssigned",
      "outputs": [],
      "stateMutability": "nonpayable",
      "type": "function"
    },
    {
      "inputs": [
        {
          "internalType": "address",
          "name": "stakerAddr",
          "type": "address"
        },
        {
          "internalType": "uint256",
          "name": "amount",
          "type": "uint256"
        }
      ],
      "name": "decreaseAVAXStake",
      "outputs": [],
      "stateMutability": "nonpayable",
      "type": "function"
    },
    {
      "inputs": [
        {
          "internalType": "address",
          "name": "stakerAddr",
          "type": "address"
        },
        {
          "internalType": "uint256",
          "name": "amount",
          "type": "uint256"
        }
      ],
      "name": "decreaseGGPRewards",
      "outputs": [],
      "stateMutability": "nonpayable",
      "type": "function"
    },
    {
      "inputs": [
        {
          "internalType": "address",
          "name": "stakerAddr",
          "type": "address"
        }
      ],
      "name": "decreaseMinipoolCount",
      "outputs": [],
      "stateMutability": "nonpayable",
      "type": "function"
    },
    {
      "inputs": [
        {
          "internalType": "address",
          "name": "stakerAddr",
          "type": "address"
        }
      ],
      "name": "getAVAXAssigned",
      "outputs": [
        {
          "internalType": "uint256",
          "name": "",
          "type": "uint256"
        }
      ],
      "stateMutability": "view",
      "type": "function"
    },
    {
      "inputs": [
        {
          "internalType": "address",
          "name": "stakerAddr",
          "type": "address"
        }
      ],
      "name": "getAVAXStake",
      "outputs": [
        {
          "internalType": "uint256",
          "name": "",
          "type": "uint256"
        }
      ],
      "stateMutability": "view",
      "type": "function"
    },
    {
      "inputs": [
        {
          "internalType": "address",
          "name": "stakerAddr",
          "type": "address"
        }
      ],
      "name": "getCollateralizationRatio",
      "outputs": [
        {
          "internalType": "uint256",
          "name": "",
          "type": "uint256"
        }
      ],
      "stateMutability": "view",
      "type": "function"
    },
    {
      "inputs": [
        {
          "internalType": "string",
          "name": "_contractName",
          "type": "string"
        }
      ],
      "name": "getContractAddress",
      "outputs": [
        {
          "internalType": "address",
          "name": "",
          "type": "address"
        }
      ],
      "stateMutability": "view",
      "type": "function"
    },
    {
      "inputs": [
        {
          "internalType": "address",
          "name": "ownerAddress",
          "type": "address"
        }
      ],
      "name": "getEffectiveGGPStaked",
      "outputs": [
        {
          "internalType": "uint256",
          "name": "",
          "type": "uint256"
        }
      ],
      "stateMutability": "view",
      "type": "function"
    },
    {
      "inputs": [
        {
          "internalType": "address",
          "name": "stakerAddr",
          "type": "address"
        }
      ],
      "name": "getGGPRewards",
      "outputs": [
        {
          "internalType": "uint256",
          "name": "",
          "type": "uint256"
        }
      ],
      "stateMutability": "view",
      "type": "function"
    },
    {
      "inputs": [
        {
          "internalType": "address",
          "name": "stakerAddr",
          "type": "address"
        }
      ],
      "name": "getGGPStake",
      "outputs": [
        {
          "internalType": "uint256",
          "name": "",
          "type": "uint256"
        }
      ],
      "stateMutability": "view",
      "type": "function"
    },
    {
      "inputs": [
        {
          "internalType": "address",
          "name": "stakerAddr",
          "type": "address"
        }
      ],
      "name": "getIndexOf",
      "outputs": [
        {
          "internalType": "int256",
          "name": "",
          "type": "int256"
        }
      ],
      "stateMutability": "view",
      "type": "function"
    },
    {
      "inputs": [
        {
          "internalType": "address",
          "name": "stakerAddr",
          "type": "address"
        }
      ],
      "name": "getMinimumGGPStake",
      "outputs": [
        {
          "internalType": "uint256",
          "name": "",
          "type": "uint256"
        }
      ],
      "stateMutability": "view",
      "type": "function"
    },
    {
      "inputs": [
        {
          "internalType": "address",
          "name": "stakerAddr",
          "type": "address"
        }
      ],
      "name": "getMinipoolCount",
      "outputs": [
        {
          "internalType": "uint256",
          "name": "",
          "type": "uint256"
        }
      ],
      "stateMutability": "view",
      "type": "function"
    },
    {
      "inputs": [
        {
          "internalType": "address",
          "name": "stakerAddr",
          "type": "address"
        }
      ],
      "name": "getRewardsStartTime",
      "outputs": [
        {
          "internalType": "uint256",
          "name": "",
          "type": "uint256"
        }
      ],
      "stateMutability": "view",
      "type": "function"
    },
    {
      "inputs": [
        {
          "internalType": "int256",
          "name": "stakerIndex",
          "type": "int256"
        }
      ],
      "name": "getStaker",
      "outputs": [
        {
          "components": [
            {
              "internalType": "address",
              "name": "stakerAddr",
              "type": "address"
            },
            {
              "internalType": "uint256",
              "name": "ggpStaked",
              "type": "uint256"
            },
            {
              "internalType": "uint256",
              "name": "avaxStaked",
              "type": "uint256"
            },
            {
              "internalType": "uint256",
              "name": "avaxAssigned",
              "type": "uint256"
            },
            {
              "internalType": "uint256",
              "name": "minipoolCount",
              "type": "uint256"
            },
            {
              "internalType": "uint256",
              "name": "rewardsStartTime",
              "type": "uint256"
            },
            {
              "internalType": "uint256",
              "name": "ggpRewards",
              "type": "uint256"
            }
          ],
          "internalType": "struct Staking.Staker",
          "name": "staker",
          "type": "tuple"
        }
      ],
      "stateMutability": "view",
      "type": "function"
    },
    {
      "inputs": [],
      "name": "getStakerCount",
      "outputs": [
        {
          "internalType": "uint256",
          "name": "",
          "type": "uint256"
        }
      ],
      "stateMutability": "view",
      "type": "function"
    },
    {
      "inputs": [
        {
          "internalType": "uint256",
          "name": "offset",
          "type": "uint256"
        },
        {
          "internalType": "uint256",
          "name": "limit",
          "type": "uint256"
        }
      ],
      "name": "getStakers",
      "outputs": [
        {
          "components": [
            {
              "internalType": "address",
              "name": "stakerAddr",
              "type": "address"
            },
            {
              "internalType": "uint256",
              "name": "ggpStaked",
              "type": "uint256"
            },
            {
              "internalType": "uint256",
              "name": "avaxStaked",
              "type": "uint256"
            },
            {
              "internalType": "uint256",
              "name": "avaxAssigned",
              "type": "uint256"
            },
            {
              "internalType": "uint256",
              "name": "minipoolCount",
              "type": "uint256"
            },
            {
              "internalType": "uint256",
              "name": "rewardsStartTime",
              "type": "uint256"
            },
            {
              "internalType": "uint256",
              "name": "ggpRewards",
              "type": "uint256"
            }
          ],
          "internalType": "struct Staking.Staker[]",
          "name": "stakers",
          "type": "tuple[]"
        }
      ],
      "stateMutability": "view",
      "type": "function"
    },
    {
      "inputs": [],
      "name": "getTotalGGPStake",
      "outputs": [
        {
          "internalType": "uint256",
          "name": "",
          "type": "uint256"
        }
      ],
      "stateMutability": "view",
      "type": "function"
    },
    {
      "inputs": [],
      "name": "ggp",
      "outputs": [
        {
          "internalType": "contract ERC20",
          "name": "",
          "type": "address"
        }
      ],
      "stateMutability": "view",
      "type": "function"
    },
    {
      "inputs": [
        {
          "internalType": "address",
          "name": "stakerAddr",
          "type": "address"
        },
        {
          "internalType": "uint256",
          "name": "amount",
          "type": "uint256"
        }
      ],
      "name": "increaseAVAXAssigned",
      "outputs": [],
      "stateMutability": "nonpayable",
      "type": "function"
    },
    {
      "inputs": [
        {
          "internalType": "address",
          "name": "stakerAddr",
          "type": "address"
        },
        {
          "internalType": "uint256",
          "name": "amount",
          "type": "uint256"
        }
      ],
      "name": "increaseAVAXStake",
      "outputs": [],
      "stateMutability": "nonpayable",
      "type": "function"
    },
    {
      "inputs": [
        {
          "internalType": "address",
          "name": "stakerAddr",
          "type": "address"
        },
        {
          "internalType": "uint256",
          "name": "amount",
          "type": "uint256"
        }
      ],
      "name": "increaseGGPRewards",
      "outputs": [],
      "stateMutability": "nonpayable",
      "type": "function"
    },
    {
      "inputs": [
        {
          "internalType": "address",
          "name": "stakerAddr",
          "type": "address"
        }
      ],
      "name": "increaseMinipoolCount",
      "outputs": [],
      "stateMutability": "nonpayable",
      "type": "function"
    },
    {
      "inputs": [
        {
          "internalType": "address",
          "name": "stakerAddr",
          "type": "address"
        }
      ],
      "name": "requireValidStaker",
      "outputs": [
        {
          "internalType": "int256",
          "name": "",
          "type": "int256"
        }
      ],
      "stateMutability": "view",
      "type": "function"
    },
    {
      "inputs": [
        {
          "internalType": "address",
          "name": "stakerAddress",
          "type": "address"
        },
        {
          "internalType": "uint256",
          "name": "amount",
          "type": "uint256"
        }
      ],
      "name": "restakeGGP",
      "outputs": [],
      "stateMutability": "nonpayable",
      "type": "function"
    },
    {
      "inputs": [
        {
          "internalType": "address",
          "name": "stakerAddr",
          "type": "address"
        },
        {
          "internalType": "uint256",
          "name": "time",
          "type": "uint256"
        }
      ],
      "name": "setRewardsStartTime",
      "outputs": [],
      "stateMutability": "nonpayable",
      "type": "function"
    },
    {
      "inputs": [
        {
          "internalType": "address",
          "name": "stakerAddr",
          "type": "address"
        },
        {
          "internalType": "uint256",
          "name": "ggpAmt",
          "type": "uint256"
        }
      ],
      "name": "slashGGP",
      "outputs": [],
      "stateMutability": "nonpayable",
      "type": "function"
    },
    {
      "inputs": [
        {
          "internalType": "uint256",
          "name": "amount",
          "type": "uint256"
        }
      ],
      "name": "stakeGGP",
      "outputs": [],
      "stateMutability": "nonpayable",
      "type": "function"
    },
    {
      "inputs": [],
      "name": "version",
      "outputs": [
        {
          "internalType": "uint8",
          "name": "",
          "type": "uint8"
        }
      ],
      "stateMutability": "view",
      "type": "function"
    },
    {
      "inputs": [
        {
          "internalType": "uint256",
          "name": "amount",
          "type": "uint256"
        }
      ],
      "name": "withdrawGGP",
      "outputs": [],
      "stateMutability": "nonpayable",
      "type": "function"
    }
  ],
  "bytecode": "0x60a06040523480156200001157600080fd5b506040516200265b3803806200265b833981016040819052620000349162000080565b6000805460ff196001600160a01b0394851661010002166001600160a81b031990911617600117905516608052620000bf565b6001600160a01b03811681146200007d57600080fd5b50565b600080604083850312156200009457600080fd5b8251620000a18162000067565b6020840151909250620000b48162000067565b809150509250929050565b608051612556620001056000396000818161045301528181610a2601528181610cc7015281816113900152818161159d01528181611a120152611aa601526125566000f3fe608060405234801561001057600080fd5b50600436106101e55760003560e01c80637736b4d41161010f578063b268ee14116100a2578063e60716d711610071578063e60716d714610428578063ed54ff221461043b578063f321df491461044e578063fc87bc361461047557600080fd5b8063b268ee14146103e7578063b8c4f612146103fa578063bf79cbf61461040d578063c03f09b01461041557600080fd5b80639517d256116100de5780639517d2561461038e578063a0b2c3e5146103a1578063a1bb68a5146103b4578063ad71bd36146103c757600080fd5b80637736b4d414610342578063799c515d14610355578063877d9e9e146103685780638823169c1461037b57600080fd5b80632f64fd521161018757806354fd4d501161015657806354fd4d50146102dd5780635a585185146102fc57806368a239e91461031c5780636e3339671461032f57600080fd5b80632f64fd5214610291578063465887b3146102a45780634ce08478146102b75780634f3d2e6f146102ca57600080fd5b806309e203a5116101c357806309e203a5146102505780631319649d146102635780631cbce7af1461026b57806323ca17bd1461027e57600080fd5b8063017df522146101ea57806304433bbc14610210578063065fe0a31461023b575b600080fd5b6101fd6101f8366004611e3a565b610488565b6040519081526020015b60405180910390f35b61022361021e366004611ec6565b6104cb565b6040516001600160a01b039091168152602001610207565b61024e610249366004611f46565b61054e565b005b6101fd61025e366004611e3a565b6105cc565b6101fd6105f5565b6101fd610279366004611e3a565b610625565b61024e61028c366004611e3a565b610779565b61024e61029f366004611f46565b610825565b61024e6102b2366004611e3a565b6108d7565b61024e6102c5366004611f46565b61099d565b61024e6102d8366004611f46565b610aa6565b6000546102ea9060ff1681565b60405160ff9091168152602001610207565b61030f61030a366004611f72565b610b35565b6040516102079190611fd5565b61024e61032a366004611f72565b610c03565b6101fd61033d366004611e3a565b610d4b565b6101fd610350366004611e3a565b610d6d565b6101fd610363366004611e3a565b610f51565b61024e610376366004611f46565b610f73565b6101fd610389366004611e3a565b611011565b6101fd61039c366004611e3a565b611033565b6101fd6103af366004611e3a565b611069565b61024e6103c2366004611f46565b61108b565b6103da6103d5366004611fe3565b611136565b6040516102079190612005565b61024e6103f5366004611f46565b611229565b61024e610408366004611f46565b6112b1565b6101fd611340565b61024e610423366004611f72565b6113ff565b6101fd610436366004611e3a565b611648565b6101fd610449366004611e3a565b61166a565b6102237f000000000000000000000000000000000000000000000000000000000000000081565b61024e610483366004611f46565b611744565b600060016104bb836040516020016104a09190612053565b604051602081830303815290604052805190602001206117cc565b6104c59190612096565b92915050565b6000806104fd836040516020016104e29190612101565b6040516020818303038152906040528051906020012061183e565b90506001600160a01b0381166104c55760405162461bcd60e51b815260206004820152601260248201527110dbdb9d1c9858dd081b9bdd08199bdd5b9960721b604482015260640160405180910390fd5b6040518060400160405280600f81526020016e26b4b734b837b7b626b0b730b3b2b960891b8152503361058b826040516020016104e29190612101565b6001600160a01b0316816001600160a01b0316146105bc57604051631eee95db60e11b815260040160405180910390fd5b6105c684846118b0565b50505050565b6000806105d883611033565b90506105ee816040516020016104a09190612139565b9392505050565b60006106207f39288d47a4783f81134d34e7a6b9067048ac0cc8b25c6f52593a7e3d7b76165b6117cc565b905090565b6000806106546040518060400160405280600b81526020016a50726f746f636f6c44414f60a81b8152506104cb565b9050600061067f604051806040016040528060068152602001654f7261636c6560d01b8152506104cb565b90506000816001600160a01b031663bece349b6040518163ffffffff1660e01b81526004016040805180830381865afa1580156106c0573d6000803e3d6000fd5b505050506040513d601f19601f820116820180604052508101906106e4919061216c565b50905060006106f286610f51565b9050600061070082846118ed565b905061076e856001600160a01b0316632a90c63a6040518163ffffffff1660e01b8152600401602060405180830381865afa158015610743573d6000803e3d6000fd5b505050506040513d601f19601f820116820180604052508101906107679190612190565b8290611902565b979650505050505050565b6040518060400160405280600f81526020016e26b4b734b837b7b626b0b730b3b2b960891b815250336107b6826040516020016104e29190612101565b6001600160a01b0316816001600160a01b0316146107e757604051631eee95db60e11b815260040160405180910390fd5b60006107f284611033565b90506105c68160405160200161080891906121a9565b604051602081830303815290604052805190602001206001611917565b6040518060400160405280600f81526020016e26b4b734b837b7b626b0b730b3b2b960891b81525033610862826040516020016104e29190612101565b6001600160a01b0316816001600160a01b03161461089357604051631eee95db60e11b815260040160405180910390fd5b600061089e85611033565b90506108d0816040516020016108b491906121df565b6040516020818303038152906040528051906020012085611985565b5050505050565b6040518060400160405280600f81526020016e26b4b734b837b7b626b0b730b3b2b960891b81525033610914826040516020016104e29190612101565b6001600160a01b0316816001600160a01b03161461094557604051631eee95db60e11b815260040160405180910390fd5b61094e83611069565b60000361095f5761095f8342610f73565b600061096a84611033565b90506105c68160405160200161098091906121a9565b604051602081830303815290604052805190602001206001611985565b604051806040016040528060088152602001674e4f50436c61696d60c01b815250336109d3826040516020016104e29190612101565b6001600160a01b0316816001600160a01b031614610a0457604051631eee95db60e11b815260040160405180910390fd5b6040516323b872dd60e01b8152336004820152306024820152604481018490527f00000000000000000000000000000000000000000000000000000000000000006001600160a01b0316906323b872dd906064016020604051808303816000875af1158015610a77573d6000803e3d6000fd5b505050506040513d601f19601f82011682018060405250810190610a9b9190612214565b506105c684846119c1565b6040518060400160405280600f81526020016e26b4b734b837b7b626b0b730b3b2b960891b81525033610ae3826040516020016104e29190612101565b6001600160a01b0316816001600160a01b031614610b1457604051631eee95db60e11b815260040160405180910390fd5b6000610b1f85611033565b90506108d0816040516020016108b49190612139565b610b3d611ddc565b610b51826040516020016104a09190612236565b816020018181525050610b6e826040516020016104a091906121df565b6060820152604051610b88906104a0908490602001612139565b816040018181525050610ba5826040516020016104e29190612268565b6001600160a01b03168152604051610bc5906104a09084906020016121a9565b6080820152604051610bdf906104a090849060200161229b565b60a0820152604051610bf9906104a09084906020016122d4565b60c0820152919050565b6000610c3430604051602001610c199190612307565b60405160208183030381529060405280519060200120611c1c565b90508051600003610c5857604051631eee95db60e11b815260040160405180910390fd5b610c8781604051602001610c6c9190612335565b60405160208183030381529060405280519060200120611c93565b15610ca55760405163ab35696f60e01b815260040160405180910390fd5b6040516323b872dd60e01b8152336004820152306024820152604481018390527f00000000000000000000000000000000000000000000000000000000000000006001600160a01b0316906323b872dd906064016020604051808303816000875af1158015610d18573d6000803e3d6000fd5b505050506040513d601f19601f82011682018060405250810190610d3c9190612214565b50610d4733836119c1565b5050565b600080610d5783611033565b90506105ee816040516020016104a0919061229b565b600080610d9c6040518060400160405280600b81526020016a50726f746f636f6c44414f60a81b8152506104cb565b90506000610da984611011565b90506000610db68561166a565b9050826001600160a01b031663780ba7866040518163ffffffff1660e01b8152600401602060405180830381865afa158015610df6573d6000803e3d6000fd5b505050506040513d601f19601f82011682018060405250810190610e1a9190612190565b811115610f49576000610e4a604051806040016040528060068152602001654f7261636c6560d01b8152506104cb565b90506000816001600160a01b031663bece349b6040518163ffffffff1660e01b81526004016040805180830381865afa158015610e8b573d6000803e3d6000fd5b505050506040513d601f19601f82011682018060405250810190610eaf919061216c565b5090506000610ebd88610f51565b90506000610f2d876001600160a01b031663780ba7866040518163ffffffff1660e01b8152600401602060405180830381865afa158015610f02573d6000803e3d6000fd5b505050506040513d601f19601f82011682018060405250810190610f269190612190565b8390611902565b90506000610f3b82856118ed565b9a9950505050505050505050565b509392505050565b600080610f5d83611033565b90506105ee816040516020016104a091906121df565b6040516e636f6e74726163742e65786973747360881b60208201526001600160601b03193360601b16602f820152610fad90604301610c6c565b1515600003610fcf57604051631eee95db60e11b815260040160405180910390fd5b6000610fda83611033565b905061100c81604051602001610ff0919061229b565b6040516020818303038152906040528051906020012083611d05565b505050565b60008061101d83611033565b90506105ee816040516020016104a09190612236565b60008061103f83610488565b905080600019146110505792915050565b60405163e6215fab60e01b815260040160405180910390fd5b60008061107583611033565b90506105ee816040516020016104a091906121a9565b6040518060400160405280600f81526020016e26b4b734b837b7b626b0b730b3b2b960891b815250336110c8826040516020016104e29190612101565b6001600160a01b0316816001600160a01b0316146110f957604051631eee95db60e11b815260040160405180910390fd5b600061110485611033565b90506108d08160405160200161111a9190612139565b6040516020818303038152906040528051906020012085611917565b606060006111426105f5565b90506000611150848661236c565b90508181118061115e575083155b156111665750805b6111708582612384565b67ffffffffffffffff81111561118857611188611e57565b6040519080825280602002602001820160405280156111c157816020015b6111ae611ddc565b8152602001906001900390816111a65790505b5092506000855b8281101561121d5760006111db82610b35565b9050808684815181106111f0576111f061239b565b60200260200101819052508280611206906123b1565b935050508080611215906123b1565b9150506111c8565b50835250909392505050565b604051806040016040528060088152602001674e4f50436c61696d60c01b8152503361125f826040516020016104e29190612101565b6001600160a01b0316816001600160a01b03161461129057604051631eee95db60e11b815260040160405180910390fd5b600061129b85611033565b90506108d08160405160200161111a91906122d4565b6040518060400160405280600f81526020016e26b4b734b837b7b626b0b730b3b2b960891b815250336112ee826040516020016104e29190612101565b6001600160a01b0316816001600160a01b03161461131f57604051631eee95db60e11b815260040160405180910390fd5b600061132a85611033565b90506108d08160405160200161111a91906121df565b6000806113696040518060400160405280600581526020016415985d5b1d60da1b8152506104cb565b6040516376677ffb60e11b81529091506001600160a01b0382169063eccefff6906113b8907f0000000000000000000000000000000000000000000000000000000000000000906004016123ca565b602060405180830381865afa1580156113d5573d6000803e3d6000fd5b505050506040513d601f19601f820116820180604052508101906113f99190612190565b91505090565b600061141530604051602001610c199190612307565b9050805160000361143957604051631eee95db60e11b815260040160405180910390fd5b61144d81604051602001610c6c9190612335565b1561146b5760405163ab35696f60e01b815260040160405180910390fd5b60006114996040518060400160405280600b81526020016a50726f746f636f6c44414f60a81b8152506104cb565b90506114a433611011565b8311156114c457604051631e9acf1760e31b815260040160405180910390fd5b6114ce33846118b0565b806001600160a01b031663780ba7866040518163ffffffff1660e01b8152600401602060405180830381865afa15801561150c573d6000803e3d6000fd5b505050506040513d601f19601f820116820180604052508101906115309190612190565b6115393361166a565b10156115585760405163954e323d60e01b815260040160405180910390fd5b60006115806040518060400160405280600581526020016415985d5b1d60da1b8152506104cb565b6040516301e3366760e01b81523360048201526001600160a01b037f00000000000000000000000000000000000000000000000000000000000000008116602483015260448201879052919250908216906301e3366790606401600060405180830381600087803b1580156115f457600080fd5b505af1158015611608573d6000803e3d6000fd5b50506040518681523392507f24231562008debd875e9a0c93d43fda03c49a4578215067a1d7024b97dd15d2491506020015b60405180910390a250505050565b60008061165483611033565b90506105ee816040516020016104a091906122d4565b600080611694604051806040016040528060068152602001654f7261636c6560d01b8152506104cb565b90506000816001600160a01b031663bece349b6040518163ffffffff1660e01b81526004016040805180830381865afa1580156116d5573d6000803e3d6000fd5b505050506040513d601f19601f820116820180604052508101906116f9919061216c565b509050600061170785611011565b905060006117158284611902565b9050600061172287610f51565b90508060000361173a57506000199695505050505050565b61076e82826118ed565b604051806040016040528060088152602001674e4f50436c61696d60c01b8152503361177a826040516020016104e29190612101565b6001600160a01b0316816001600160a01b0316146117ab57604051631eee95db60e11b815260040160405180910390fd5b60006117b685611033565b90506108d0816040516020016108b491906122d4565b6000805460405163bd02d0f560e01b8152600481018490526101009091046001600160a01b03169063bd02d0f590602401602060405180830381865afa15801561181a573d6000803e3d6000fd5b505050506040513d601f19601f820116820180604052508101906104c59190612190565b600080546040516321f8a72160e01b8152600481018490526101009091046001600160a01b0316906321f8a72190602401602060405180830381865afa15801561188c573d6000803e3d6000fd5b505050506040513d601f19601f820116820180604052508101906104c5919061240b565b60006118bb83611033565b905061100c816040516020016118d19190612236565b6040516020818303038152906040528051906020012083611917565b60006105ee83670de0b6b3a764000084611d41565b60006105ee8383670de0b6b3a7640000611d41565b60005460405163ebb9d8c960e01b815260048101849052602481018390526101009091046001600160a01b03169063ebb9d8c9906044015b600060405180830381600087803b15801561196957600080fd5b505af115801561197d573d6000803e3d6000fd5b505050505050565b600054604051632b6cd4f760e21b815260048101849052602481018390526101009091046001600160a01b03169063adb353dc9060440161194f565b60006119e96040518060400160405280600581526020016415985d5b1d60da1b8152506104cb565b60405163095ea7b360e01b81526001600160a01b038083166004830152602482018590529192507f00000000000000000000000000000000000000000000000000000000000000009091169063095ea7b3906044016020604051808303816000875af1158015611a5d573d6000803e3d6000fd5b505050506040513d601f19601f82011682018060405250810190611a819190612214565b50604051631e88852b60e31b81526001600160a01b0382169063f444295890611ad0907f0000000000000000000000000000000000000000000000000000000000000000908690600401612428565b600060405180830381600087803b158015611aea57600080fd5b505af1158015611afe573d6000803e3d6000fd5b505050506000611b0d84610488565b90508019611bd757611b3e7f39288d47a4783f81134d34e7a6b9067048ac0cc8b25c6f52593a7e3d7b76165b6117cc565b9050611b6b7f39288d47a4783f81134d34e7a6b9067048ac0cc8b25c6f52593a7e3d7b76165b6001611985565b611ba784604051602001611b7f9190612053565b60405160208183030381529060405280519060200120826001611ba29190612468565b611d05565b611bd781604051602001611bbb9190612268565b6040516020818303038152906040528051906020012085611d60565b611be18484611d9f565b836001600160a01b03167f3cd32fbc628a7c1c5a309e823125e5a4b8d98b9b31ad71d8338cc5f05829b1998460405161163a91815260200190565b600054604051634c373c8d60e11b81526004810183905260609161010090046001600160a01b03169063986e791a90602401600060405180830381865afa158015611c6b573d6000803e3d6000fd5b505050506040513d6000823e601f3d908101601f191682016040526104c591908101906124a9565b60008054604051633d70e7e560e11b8152600481018490526101009091046001600160a01b031690637ae1cfca90602401602060405180830381865afa158015611ce1573d6000803e3d6000fd5b505050506040513d601f19601f820116820180604052508101906104c59190612214565b600054604051637152429d60e11b815260048101849052602481018390526101009091046001600160a01b03169063e2a4853a9060440161194f565b828202811515841585830485141716611d5957600080fd5b0492915050565b60005460405163ca446dd960e01b8152600481018490526001600160a01b0383811660248301526101009092049091169063ca446dd99060440161194f565b6000611daa83611033565b905061100c81604051602001611dc09190612236565b6040516020818303038152906040528051906020012083611985565b6040518060e0016040528060006001600160a01b031681526020016000815260200160008152602001600081526020016000815260200160008152602001600081525090565b6001600160a01b0381168114611e3757600080fd5b50565b600060208284031215611e4c57600080fd5b81356105ee81611e22565b634e487b7160e01b600052604160045260246000fd5b604051601f8201601f1916810167ffffffffffffffff81118282101715611e9657611e96611e57565b604052919050565b600067ffffffffffffffff821115611eb857611eb8611e57565b50601f01601f191660200190565b600060208284031215611ed857600080fd5b813567ffffffffffffffff811115611eef57600080fd5b8201601f81018413611f0057600080fd5b8035611f13611f0e82611e9e565b611e6d565b818152856020838501011115611f2857600080fd5b81602084016020830137600091810160200191909152949350505050565b60008060408385031215611f5957600080fd5b8235611f6481611e22565b946020939093013593505050565b600060208284031215611f8457600080fd5b5035919050565b80516001600160a01b031682526020808201519083015260408082015190830152606080820151908301526080808201519083015260a0818101519083015260c090810151910152565b60e081016104c58284611f8b565b60008060408385031215611ff657600080fd5b50508035926020909101359150565b6020808252825182820181905260009190848201906040850190845b8181101561204757612034838551611f8b565b9284019260e09290920191600101612021565b50909695505050505050565b6b0e6e8c2d6cae45cd2dcc8caf60a31b815260609190911b6001600160601b031916600c82015260200190565b634e487b7160e01b600052601160045260246000fd5b60008083128015600160ff1b8501841216156120b4576120b4612080565b6001600160ff1b03840183138116156120cf576120cf612080565b50500390565b60005b838110156120f05781810151838201526020016120d8565b838111156105c65750506000910152565b6f636f6e74726163742e6164647265737360801b81526000825161212c8160108501602087016120d5565b9190910160100192915050565b6a7374616b65722e6974656d60a81b8152600b8101919091526a0b985d985e14dd185ad95960aa1b602b82015260360190565b6000806040838503121561217f57600080fd5b505080516020909101519092909150565b6000602082840312156121a257600080fd5b5051919050565b6a7374616b65722e6974656d60a81b8152600b8101919091526d0b9b5a5b9a5c1bdbdb10dbdd5b9d60921b602b82015260390190565b6a7374616b65722e6974656d60a81b8152600b8101919091526c0b985d985e105cdcda59db9959609a1b602b82015260380190565b60006020828403121561222657600080fd5b815180151581146105ee57600080fd5b6a7374616b65722e6974656d60a81b8152600b810191909152690b99d9dc14dd185ad95960b21b602b82015260350190565b6a7374616b65722e6974656d60a81b8152600b8101919091526a1739ba30b5b2b920b2323960a91b602b82015260360190565b6a7374616b65722e6974656d60a81b8152600b810191909152702e72657761726473537461727454696d6560781b602b820152603c0190565b6a7374616b65722e6974656d60a81b8152600b8101919091526a2e6767705265776172647360a81b602b82015260360190565b6c636f6e74726163742e6e616d6560981b815260609190911b6001600160601b031916600d82015260210190565b6e18dbdb9d1c9858dd0b9c185d5cd959608a1b81526000825161235f81600f8501602087016120d5565b91909101600f0192915050565b6000821982111561237f5761237f612080565b500190565b60008282101561239657612396612080565b500390565b634e487b7160e01b600052603260045260246000fd5b6000600182016123c3576123c3612080565b5060010190565b6040815260006123f16040830160078152665374616b696e6760c81b602082015260400190565b6001600160a01b0393909316602092909201919091525090565b60006020828403121561241d57600080fd5b81516105ee81611e22565b60608152600061244f6060830160078152665374616b696e6760c81b602082015260400190565b6001600160a01b03949094166020830152506040015290565b600080821280156001600160ff1b038490038513161561248a5761248a612080565b600160ff1b83900384128116156124a3576124a3612080565b50500190565b6000602082840312156124bb57600080fd5b815167ffffffffffffffff8111156124d257600080fd5b8201601f810184136124e357600080fd5b80516124f1611f0e82611e9e565b81815285602083850101111561250657600080fd5b6125178260208301602086016120d5565b9594505050505056fea2646970667358221220d1e7498218af78dc3c13fc60598ba546e5f44aa010b6614cc13c4a6b6fe2e54a64736f6c634300080d0033",
  "linkReferences": {},
  "deployedLinkReferences": {}
}