{
  "_format": "hh-sol-artifact-1",
  "contractName": "Staking",
  "sourceName": "contracts/contract/Staking.sol",
  "abi": [
    {
      "inputs": [
        {
          "internalType": "contract Storage",
          "name": "storageAddress",
          "type": "address"
        },
        {
          "internalType": "contract ERC20",
          "name": "ggp_",
          "type": "address"
        }
      ],
      "stateMutability": "nonpayable",
      "type": "constructor"
    },
    {
      "inputs": [],
      "name": "CannotWithdrawUnder150CollateralizationRatio",
      "type": "error"
    },
    {
      "inputs": [],
      "name": "InsufficientBalance",
      "type": "error"
    },
    {
      "inputs": [],
      "name": "StakerNotFound",
      "type": "error"
    },
    {
      "inputs": [],
      "name": "TransferFailed",
      "type": "error"
    },
    {
      "anonymous": false,
      "inputs": [
        {
          "indexed": true,
          "internalType": "address",
          "name": "from",
          "type": "address"
        },
        {
          "indexed": false,
          "internalType": "uint256",
          "name": "amount",
          "type": "uint256"
        }
      ],
      "name": "GGPStaked",
      "type": "event"
    },
    {
      "anonymous": false,
      "inputs": [
        {
          "indexed": true,
          "internalType": "address",
          "name": "to",
          "type": "address"
        },
        {
          "indexed": false,
          "internalType": "uint256",
          "name": "amount",
          "type": "uint256"
        }
      ],
      "name": "GGPWithdrawn",
      "type": "event"
    },
    {
      "inputs": [
        {
          "internalType": "address",
          "name": "stakerAddr",
          "type": "address"
        },
        {
          "internalType": "uint256",
          "name": "amount",
          "type": "uint256"
        }
      ],
      "name": "decreaseAVAXAssigned",
      "outputs": [],
      "stateMutability": "nonpayable",
      "type": "function"
    },
    {
      "inputs": [
        {
          "internalType": "address",
          "name": "stakerAddr",
          "type": "address"
        },
        {
          "internalType": "uint256",
          "name": "amount",
          "type": "uint256"
        }
      ],
      "name": "decreaseAVAXStake",
      "outputs": [],
      "stateMutability": "nonpayable",
      "type": "function"
    },
    {
      "inputs": [
        {
          "internalType": "address",
          "name": "stakerAddr",
          "type": "address"
        },
        {
          "internalType": "uint256",
          "name": "amount",
          "type": "uint256"
        }
      ],
      "name": "decreaseGGPRewards",
      "outputs": [],
      "stateMutability": "nonpayable",
      "type": "function"
    },
    {
      "inputs": [
        {
          "internalType": "address",
          "name": "stakerAddr",
          "type": "address"
        },
        {
          "internalType": "uint256",
          "name": "amount",
          "type": "uint256"
        }
      ],
      "name": "decreaseGGPStake",
      "outputs": [],
      "stateMutability": "nonpayable",
      "type": "function"
    },
    {
      "inputs": [
        {
          "internalType": "address",
          "name": "stakerAddr",
          "type": "address"
        }
      ],
      "name": "decreaseMinipoolCount",
      "outputs": [],
      "stateMutability": "nonpayable",
      "type": "function"
    },
    {
      "inputs": [
        {
          "internalType": "address",
          "name": "stakerAddr",
          "type": "address"
        }
      ],
      "name": "getAVAXAssigned",
      "outputs": [
        {
          "internalType": "uint256",
          "name": "",
          "type": "uint256"
        }
      ],
      "stateMutability": "view",
      "type": "function"
    },
    {
      "inputs": [
        {
          "internalType": "address",
          "name": "stakerAddr",
          "type": "address"
        }
      ],
      "name": "getAVAXStake",
      "outputs": [
        {
          "internalType": "uint256",
          "name": "",
          "type": "uint256"
        }
      ],
      "stateMutability": "view",
      "type": "function"
    },
    {
      "inputs": [
        {
          "internalType": "address",
          "name": "stakerAddr",
          "type": "address"
        }
      ],
      "name": "getCollateralizationRatio",
      "outputs": [
        {
          "internalType": "uint256",
          "name": "",
          "type": "uint256"
        }
      ],
      "stateMutability": "view",
      "type": "function"
    },
    {
      "inputs": [
        {
          "internalType": "string",
          "name": "_contractName",
          "type": "string"
        }
      ],
      "name": "getContractAddress",
      "outputs": [
        {
          "internalType": "address",
          "name": "",
          "type": "address"
        }
      ],
      "stateMutability": "view",
      "type": "function"
    },
    {
      "inputs": [
        {
          "internalType": "address",
          "name": "ownerAddress",
          "type": "address"
        }
      ],
      "name": "getEffectiveGGPStaked",
      "outputs": [
        {
          "internalType": "uint256",
          "name": "",
          "type": "uint256"
        }
      ],
      "stateMutability": "view",
      "type": "function"
    },
    {
      "inputs": [
        {
          "internalType": "address",
          "name": "stakerAddr",
          "type": "address"
        }
      ],
      "name": "getGGPRewards",
      "outputs": [
        {
          "internalType": "uint256",
          "name": "",
          "type": "uint256"
        }
      ],
      "stateMutability": "view",
      "type": "function"
    },
    {
      "inputs": [
        {
          "internalType": "address",
          "name": "stakerAddr",
          "type": "address"
        }
      ],
      "name": "getGGPStake",
      "outputs": [
        {
          "internalType": "uint256",
          "name": "",
          "type": "uint256"
        }
      ],
      "stateMutability": "view",
      "type": "function"
    },
    {
      "inputs": [
        {
          "internalType": "address",
          "name": "stakerAddr",
          "type": "address"
        }
      ],
      "name": "getIndexOf",
      "outputs": [
        {
          "internalType": "int256",
          "name": "",
          "type": "int256"
        }
      ],
      "stateMutability": "view",
      "type": "function"
    },
    {
      "inputs": [
        {
          "internalType": "address",
          "name": "stakerAddr",
          "type": "address"
        }
      ],
      "name": "getMinimumGGPStake",
      "outputs": [
        {
          "internalType": "uint256",
          "name": "",
          "type": "uint256"
        }
      ],
      "stateMutability": "view",
      "type": "function"
    },
    {
      "inputs": [
        {
          "internalType": "address",
          "name": "stakerAddr",
          "type": "address"
        }
      ],
      "name": "getMinipoolCount",
      "outputs": [
        {
          "internalType": "uint256",
          "name": "",
          "type": "uint256"
        }
      ],
      "stateMutability": "view",
      "type": "function"
    },
    {
      "inputs": [
        {
          "internalType": "address",
          "name": "stakerAddr",
          "type": "address"
        }
      ],
      "name": "getRewardsStartTime",
      "outputs": [
        {
          "internalType": "uint256",
          "name": "",
          "type": "uint256"
        }
      ],
      "stateMutability": "view",
      "type": "function"
    },
    {
      "inputs": [
        {
          "internalType": "bytes32",
          "name": "settingNameSpace",
          "type": "bytes32"
        },
        {
          "internalType": "string",
          "name": "_settingPath",
          "type": "string"
        }
      ],
      "name": "getSettingAddress",
      "outputs": [
        {
          "internalType": "address",
          "name": "",
          "type": "address"
        }
      ],
      "stateMutability": "view",
      "type": "function"
    },
    {
      "inputs": [
        {
          "internalType": "bytes32",
          "name": "settingNameSpace",
          "type": "bytes32"
        },
        {
          "internalType": "string",
          "name": "_settingPath",
          "type": "string"
        }
      ],
      "name": "getSettingBool",
      "outputs": [
        {
          "internalType": "bool",
          "name": "",
          "type": "bool"
        }
      ],
      "stateMutability": "view",
      "type": "function"
    },
    {
      "inputs": [
        {
          "internalType": "bytes32",
          "name": "settingNameSpace",
          "type": "bytes32"
        },
        {
          "internalType": "string",
          "name": "_settingPath",
          "type": "string"
        }
      ],
      "name": "getSettingUint",
      "outputs": [
        {
          "internalType": "uint256",
          "name": "",
          "type": "uint256"
        }
      ],
      "stateMutability": "view",
      "type": "function"
    },
    {
      "inputs": [
        {
          "internalType": "int256",
          "name": "index",
          "type": "int256"
        }
      ],
      "name": "getStaker",
      "outputs": [
        {
          "components": [
            {
              "internalType": "address",
              "name": "stakerAddr",
              "type": "address"
            },
            {
              "internalType": "uint256",
              "name": "ggpStaked",
              "type": "uint256"
            },
            {
              "internalType": "uint256",
              "name": "avaxStaked",
              "type": "uint256"
            },
            {
              "internalType": "uint256",
              "name": "avaxAssigned",
              "type": "uint256"
            },
            {
              "internalType": "uint256",
              "name": "minipoolCount",
              "type": "uint256"
            },
            {
              "internalType": "uint256",
              "name": "rewardsStartTime",
              "type": "uint256"
            },
            {
              "internalType": "uint256",
              "name": "ggpRewards",
              "type": "uint256"
            }
          ],
          "internalType": "struct Staking.Staker",
          "name": "staker",
          "type": "tuple"
        }
      ],
      "stateMutability": "view",
      "type": "function"
    },
    {
      "inputs": [],
      "name": "getStakerCount",
      "outputs": [
        {
          "internalType": "uint256",
          "name": "",
          "type": "uint256"
        }
      ],
      "stateMutability": "view",
      "type": "function"
    },
    {
      "inputs": [
        {
          "internalType": "uint256",
          "name": "offset",
          "type": "uint256"
        },
        {
          "internalType": "uint256",
          "name": "limit",
          "type": "uint256"
        }
      ],
      "name": "getStakers",
      "outputs": [
        {
          "components": [
            {
              "internalType": "address",
              "name": "stakerAddr",
              "type": "address"
            },
            {
              "internalType": "uint256",
              "name": "ggpStaked",
              "type": "uint256"
            },
            {
              "internalType": "uint256",
              "name": "avaxStaked",
              "type": "uint256"
            },
            {
              "internalType": "uint256",
              "name": "avaxAssigned",
              "type": "uint256"
            },
            {
              "internalType": "uint256",
              "name": "minipoolCount",
              "type": "uint256"
            },
            {
              "internalType": "uint256",
              "name": "rewardsStartTime",
              "type": "uint256"
            },
            {
              "internalType": "uint256",
              "name": "ggpRewards",
              "type": "uint256"
            }
          ],
          "internalType": "struct Staking.Staker[]",
          "name": "stakers",
          "type": "tuple[]"
        }
      ],
      "stateMutability": "view",
      "type": "function"
    },
    {
      "inputs": [],
      "name": "getTotalGGPStake",
      "outputs": [
        {
          "internalType": "uint256",
          "name": "",
          "type": "uint256"
        }
      ],
      "stateMutability": "view",
      "type": "function"
    },
    {
      "inputs": [],
      "name": "ggp",
      "outputs": [
        {
          "internalType": "contract ERC20",
          "name": "",
          "type": "address"
        }
      ],
      "stateMutability": "view",
      "type": "function"
    },
    {
      "inputs": [
        {
          "internalType": "address",
          "name": "stakerAddr",
          "type": "address"
        },
        {
          "internalType": "uint256",
          "name": "amount",
          "type": "uint256"
        }
      ],
      "name": "increaseAVAXAssigned",
      "outputs": [],
      "stateMutability": "nonpayable",
      "type": "function"
    },
    {
      "inputs": [
        {
          "internalType": "address",
          "name": "stakerAddr",
          "type": "address"
        },
        {
          "internalType": "uint256",
          "name": "amount",
          "type": "uint256"
        }
      ],
      "name": "increaseAVAXStake",
      "outputs": [],
      "stateMutability": "nonpayable",
      "type": "function"
    },
    {
      "inputs": [
        {
          "internalType": "address",
          "name": "stakerAddr",
          "type": "address"
        },
        {
          "internalType": "uint256",
          "name": "amount",
          "type": "uint256"
        }
      ],
      "name": "increaseGGPRewards",
      "outputs": [],
      "stateMutability": "nonpayable",
      "type": "function"
    },
    {
      "inputs": [
        {
          "internalType": "address",
          "name": "stakerAddr",
          "type": "address"
        },
        {
          "internalType": "uint256",
          "name": "amount",
          "type": "uint256"
        }
      ],
      "name": "increaseGGPStake",
      "outputs": [],
      "stateMutability": "nonpayable",
      "type": "function"
    },
    {
      "inputs": [
        {
          "internalType": "address",
          "name": "stakerAddr",
          "type": "address"
        }
      ],
      "name": "increaseMinipoolCount",
      "outputs": [],
      "stateMutability": "nonpayable",
      "type": "function"
    },
    {
      "inputs": [
        {
          "internalType": "address",
          "name": "stakerAddr",
          "type": "address"
        }
      ],
      "name": "requireValidStaker",
      "outputs": [
        {
          "internalType": "int256",
          "name": "",
          "type": "int256"
        }
      ],
      "stateMutability": "view",
      "type": "function"
    },
    {
      "inputs": [
        {
          "internalType": "address",
          "name": "stakerAddress",
          "type": "address"
        },
        {
          "internalType": "uint256",
          "name": "amount",
          "type": "uint256"
        }
      ],
      "name": "restakeGGP",
      "outputs": [],
      "stateMutability": "nonpayable",
      "type": "function"
    },
    {
      "inputs": [
        {
          "internalType": "address",
          "name": "stakerAddr",
          "type": "address"
        },
        {
          "internalType": "uint256",
          "name": "time",
          "type": "uint256"
        }
      ],
      "name": "setRewardsStartTime",
      "outputs": [],
      "stateMutability": "nonpayable",
      "type": "function"
    },
    {
      "inputs": [
        {
          "internalType": "address",
          "name": "stakerAddr",
          "type": "address"
        },
        {
          "internalType": "uint256",
          "name": "ggpAmt",
          "type": "uint256"
        }
      ],
      "name": "slashGGP",
      "outputs": [],
      "stateMutability": "nonpayable",
      "type": "function"
    },
    {
      "inputs": [
        {
          "internalType": "uint256",
          "name": "amount",
          "type": "uint256"
        }
      ],
      "name": "stakeGGP",
      "outputs": [],
      "stateMutability": "nonpayable",
      "type": "function"
    },
    {
      "inputs": [],
      "name": "version",
      "outputs": [
        {
          "internalType": "uint8",
          "name": "",
          "type": "uint8"
        }
      ],
      "stateMutability": "view",
      "type": "function"
    },
    {
      "inputs": [
        {
          "internalType": "uint256",
          "name": "amount",
          "type": "uint256"
        }
      ],
      "name": "withdrawGGP",
      "outputs": [],
      "stateMutability": "nonpayable",
      "type": "function"
    }
  ],
  "bytecode": "0x60a06040523480156200001157600080fd5b506040516200208238038062002082833981016040819052620000349162000080565b6000805460ff196001600160a01b0394851661010002166001600160a81b031990911617600117905516608052620000bf565b6001600160a01b03811681146200007d57600080fd5b50565b600080604083850312156200009457600080fd5b8251620000a18162000067565b6020840151909250620000b48162000067565b809150509250929050565b608051611f7d62000105600039600081816104e6015281816108f401528181610a8501528181610fa90152818161114a015281816115e501526116790152611f7d6000f3fe608060405234801561001057600080fd5b506004361061021c5760003560e01c8063799c515d11610125578063bf79cbf6116100ad578063e60716d71161007c578063e60716d7146104bb578063ed54ff22146104ce578063f321df49146104e1578063f4d70e7814610508578063fc87bc361461051b57600080fd5b8063bf79cbf61461047a578063c03f09b014610482578063d40a78c914610495578063e09f845d146104a857600080fd5b8063a0b2c3e5116100f4578063a0b2c3e51461040e578063a1bb68a514610421578063ad71bd3614610434578063b268ee1414610454578063b8c4f6121461046757600080fd5b8063799c515d146103c2578063877d9e9e146103d55780638823169c146103e85780639517d256146103fb57600080fd5b80632f64fd52116101a857806354fd4d501161017757806354fd4d501461034a5780635a5851851461036957806368a239e9146103895780636e3339671461039c5780637736b4d4146103af57600080fd5b80632f64fd52146102fe578063465887b3146103115780634ce08478146103245780634f3d2e6f1461033757600080fd5b806309e203a5116101ef57806309e203a51461029a5780631319649d146102ad5780631cbce7af146102b5578063232de716146102c857806323ca17bd146102eb57600080fd5b8063017df5221461022157806304433bbc14610247578063065fe0a31461027257806306eaa68b14610287575b600080fd5b61023461022f3660046118f2565b61052e565b6040519081526020015b60405180910390f35b61025a6102553660046119b2565b610571565b6040516001600160a01b03909116815260200161023e565b6102856102803660046119ef565b6105f4565b005b61025a610295366004611a1b565b610602565b6102346102a83660046118f2565b610621565b610234610643565b6102346102c33660046118f2565b610673565b6102db6102d6366004611a1b565b6107c7565b604051901515815260200161023e565b6102856102f93660046118f2565b6107fa565b61028561030c3660046119ef565b610838565b61028561031f3660046118f2565b61087a565b6102856103323660046119ef565b6108d2565b6102856103453660046119ef565b610974565b6000546103579060ff1681565b60405160ff909116815260200161023e565b61037c610377366004611a62565b610995565b60405161023e9190611ac5565b610285610397366004611a62565b610a63565b6102346103aa3660046118f2565b610b08565b6102346103bd3660046118f2565b610b2a565b6102346103d03660046118f2565b610d0e565b6102856103e33660046119ef565b610d30565b6102346103f63660046118f2565b610d6d565b6102346104093660046118f2565b610d8f565b61023461041c3660046118f2565b610dc5565b61028561042f3660046119ef565b610de7565b610447610442366004611ad3565b610e24565b60405161023e9190611af5565b6102856104623660046119ef565b610f17565b6102856104753660046119ef565b610f38565b610234610f59565b610285610490366004611a62565b611018565b6102856104a33660046119ef565b6111f3565b6102856104b63660046119ef565b611214565b6102346104c93660046118f2565b611235565b6102346104dc3660046118f2565b611257565b61025a7f000000000000000000000000000000000000000000000000000000000000000081565b610234610516366004611a1b565b611331565b6102856105293660046119ef565b611349565b60006001610561836040516020016105469190611b43565b6040516020818303038152906040528051906020012061136a565b61056b9190611b8b565b92915050565b6000806105a3836040516020016105889190611c05565b604051602081830303815290604052805190602001206113dc565b90506001600160a01b03811661056b5760405162461bcd60e51b815260206004820152601260248201527110dbdb9d1c9858dd081b9bdd08199bdd5b9960721b604482015260640160405180910390fd5b6105fe82826111f3565b5050565b600061061a8383604051602001610588929190611c2a565b9392505050565b60008061062d83610d8f565b905061061a816040516020016105469190611c3c565b600061066e7f39288d47a4783f81134d34e7a6b9067048ac0cc8b25c6f52593a7e3d7b76165b61136a565b905090565b6000806106a26040518060400160405280600b81526020016a50726f746f636f6c44414f60a81b815250610571565b905060006106cd604051806040016040528060068152602001654f7261636c6560d01b815250610571565b90506000816001600160a01b031663bece349b6040518163ffffffff1660e01b81526004016040805180830381865afa15801561070e573d6000803e3d6000fd5b505050506040513d601f19601f820116820180604052508101906107329190611c6f565b509050600061074086610d0e565b9050600061074e828461144e565b90506107bc856001600160a01b0316632a90c63a6040518163ffffffff1660e01b8152600401602060405180830381865afa158015610791573d6000803e3d6000fd5b505050506040513d601f19601f820116820180604052508101906107b59190611c93565b8290611463565b979650505050505050565b600061061a83836040516020016107df929190611c2a565b60405160208183030381529060405280519060200120611478565b600061080582610d8f565b90506105fe8160405160200161081b9190611cac565b6040516020818303038152906040528051906020012060016114ea565b600061084383610d8f565b9050610875816040516020016108599190611ce2565b6040516020818303038152906040528051906020012083611558565b505050565b61088381610dc5565b600003610894576108948142610d30565b600061089f82610d8f565b90506105fe816040516020016108b59190611cac565b604051602081830303815290604052805190602001206001611558565b6040516323b872dd60e01b8152336004820152306024820152604481018290527f00000000000000000000000000000000000000000000000000000000000000006001600160a01b0316906323b872dd906064016020604051808303816000875af1158015610945573d6000803e3d6000fd5b505050506040513d601f19601f820116820180604052508101906109699190611d17565b506105fe8282611594565b600061097f83610d8f565b9050610875816040516020016108599190611c3c565b61099d611897565b6109b1826040516020016105469190611d39565b8160200181815250506109ce826040516020016105469190611ce2565b60608201526040516109e890610546908490602001611c3c565b816040018181525050610a05826040516020016105889190611d6b565b6001600160a01b03168152604051610a2590610546908490602001611cac565b6080820152604051610a3f90610546908490602001611d9e565b60a0820152604051610a5990610546908490602001611dd7565b60c0820152919050565b6040516323b872dd60e01b8152336004820152306024820152604481018290527f00000000000000000000000000000000000000000000000000000000000000006001600160a01b0316906323b872dd906064016020604051808303816000875af1158015610ad6573d6000803e3d6000fd5b505050506040513d601f19601f82011682018060405250810190610afa9190611d17565b50610b053382611594565b50565b600080610b1483610d8f565b905061061a816040516020016105469190611d9e565b600080610b596040518060400160405280600b81526020016a50726f746f636f6c44414f60a81b815250610571565b90506000610b6684610d6d565b90506000610b7385611257565b9050826001600160a01b031663780ba7866040518163ffffffff1660e01b8152600401602060405180830381865afa158015610bb3573d6000803e3d6000fd5b505050506040513d601f19601f82011682018060405250810190610bd79190611c93565b811115610d06576000610c07604051806040016040528060068152602001654f7261636c6560d01b815250610571565b90506000816001600160a01b031663bece349b6040518163ffffffff1660e01b81526004016040805180830381865afa158015610c48573d6000803e3d6000fd5b505050506040513d601f19601f82011682018060405250810190610c6c9190611c6f565b5090506000610c7a88610d0e565b90506000610cea876001600160a01b031663780ba7866040518163ffffffff1660e01b8152600401602060405180830381865afa158015610cbf573d6000803e3d6000fd5b505050506040513d601f19601f82011682018060405250810190610ce39190611c93565b8390611463565b90506000610cf8828561144e565b9a9950505050505050505050565b509392505050565b600080610d1a83610d8f565b905061061a816040516020016105469190611ce2565b6000610d3b83610d8f565b905061087581604051602001610d519190611d9e565b60405160208183030381529060405280519060200120836117fd565b600080610d7983610d8f565b905061061a816040516020016105469190611d39565b600080610d9b8361052e565b90508060001914610dac5792915050565b60405163e6215fab60e01b815260040160405180910390fd5b600080610dd183610d8f565b905061061a816040516020016105469190611cac565b6000610df283610d8f565b905061087581604051602001610e089190611c3c565b60405160208183030381529060405280519060200120836114ea565b60606000610e30610643565b90506000610e3e8486611e0a565b905081811180610e4c575083155b15610e545750805b610e5e8582611e22565b67ffffffffffffffff811115610e7657610e7661190f565b604051908082528060200260200182016040528015610eaf57816020015b610e9c611897565b815260200190600190039081610e945790505b5092506000855b82811015610f0b576000610ec982610995565b905080868481518110610ede57610ede611e39565b60200260200101819052508280610ef490611e4f565b935050508080610f0390611e4f565b915050610eb6565b50835250909392505050565b6000610f2283610d8f565b905061087581604051602001610e089190611dd7565b6000610f4383610d8f565b905061087581604051602001610e089190611ce2565b600080610f826040518060400160405280600581526020016415985d5b1d60da1b815250610571565b6040516376677ffb60e11b81529091506001600160a01b0382169063eccefff690610fd1907f000000000000000000000000000000000000000000000000000000000000000090600401611e68565b602060405180830381865afa158015610fee573d6000803e3d6000fd5b505050506040513d601f19601f820116820180604052508101906110129190611c93565b91505090565b60006110466040518060400160405280600b81526020016a50726f746f636f6c44414f60a81b815250610571565b905061105133610d6d565b82111561107157604051631e9acf1760e31b815260040160405180910390fd5b61107b33836111f3565b806001600160a01b031663780ba7866040518163ffffffff1660e01b8152600401602060405180830381865afa1580156110b9573d6000803e3d6000fd5b505050506040513d601f19601f820116820180604052508101906110dd9190611c93565b6110e633611257565b10156111055760405163954e323d60e01b815260040160405180910390fd5b600061112d6040518060400160405280600581526020016415985d5b1d60da1b815250610571565b6040516301e3366760e01b81523360048201526001600160a01b037f00000000000000000000000000000000000000000000000000000000000000008116602483015260448201869052919250908216906301e3366790606401600060405180830381600087803b1580156111a157600080fd5b505af11580156111b5573d6000803e3d6000fd5b50506040518581523392507f24231562008debd875e9a0c93d43fda03c49a4578215067a1d7024b97dd15d24915060200160405180910390a2505050565b60006111fe83610d8f565b905061087581604051602001610e089190611d39565b600061121f83610d8f565b9050610875816040516020016108599190611d39565b60008061124183610d8f565b905061061a816040516020016105469190611dd7565b600080611281604051806040016040528060068152602001654f7261636c6560d01b815250610571565b90506000816001600160a01b031663bece349b6040518163ffffffff1660e01b81526004016040805180830381865afa1580156112c2573d6000803e3d6000fd5b505050506040513d601f19601f820116820180604052508101906112e69190611c6f565b50905060006112f485610d6d565b905060006113028284611463565b9050600061130f87610d0e565b90508060000361132757506000199695505050505050565b6107bc828261144e565b600061061a8383604051602001610546929190611c2a565b600061135483610d8f565b9050610875816040516020016108599190611dd7565b6000805460405163bd02d0f560e01b8152600481018490526101009091046001600160a01b03169063bd02d0f590602401602060405180830381865afa1580156113b8573d6000803e3d6000fd5b505050506040513d601f19601f8201168201806040525081019061056b9190611c93565b600080546040516321f8a72160e01b8152600481018490526101009091046001600160a01b0316906321f8a72190602401602060405180830381865afa15801561142a573d6000803e3d6000fd5b505050506040513d601f19601f8201168201806040525081019061056b9190611ea9565b600061061a83670de0b6b3a764000084611839565b600061061a8383670de0b6b3a7640000611839565b60008054604051633d70e7e560e11b8152600481018490526101009091046001600160a01b031690637ae1cfca90602401602060405180830381865afa1580156114c6573d6000803e3d6000fd5b505050506040513d601f19601f8201168201806040525081019061056b9190611d17565b60005460405163ebb9d8c960e01b815260048101849052602481018390526101009091046001600160a01b03169063ebb9d8c9906044015b600060405180830381600087803b15801561153c57600080fd5b505af1158015611550573d6000803e3d6000fd5b505050505050565b600054604051632b6cd4f760e21b815260048101849052602481018390526101009091046001600160a01b03169063adb353dc90604401611522565b60006115bc6040518060400160405280600581526020016415985d5b1d60da1b815250610571565b60405163095ea7b360e01b81526001600160a01b038083166004830152602482018590529192507f00000000000000000000000000000000000000000000000000000000000000009091169063095ea7b3906044016020604051808303816000875af1158015611630573d6000803e3d6000fd5b505050506040513d601f19601f820116820180604052508101906116549190611d17565b50604051631e88852b60e31b81526001600160a01b0382169063f4442958906116a3907f0000000000000000000000000000000000000000000000000000000000000000908690600401611ec6565b600060405180830381600087803b1580156116bd57600080fd5b505af11580156116d1573d6000803e3d6000fd5b5050505060006116e08461052e565b905080196117aa576117117f39288d47a4783f81134d34e7a6b9067048ac0cc8b25c6f52593a7e3d7b76165b61136a565b905061173e7f39288d47a4783f81134d34e7a6b9067048ac0cc8b25c6f52593a7e3d7b76165b6001611558565b61177a846040516020016117529190611b43565b604051602081830303815290604052805190602001208260016117759190611f06565b6117fd565b6117aa8160405160200161178e9190611d6b565b6040516020818303038152906040528051906020012085611858565b6117b48484611214565b836001600160a01b03167f3cd32fbc628a7c1c5a309e823125e5a4b8d98b9b31ad71d8338cc5f05829b199846040516117ef91815260200190565b60405180910390a250505050565b600054604051637152429d60e11b815260048101849052602481018390526101009091046001600160a01b03169063e2a4853a90604401611522565b82820281151584158583048514171661185157600080fd5b0492915050565b60005460405163ca446dd960e01b8152600481018490526001600160a01b0383811660248301526101009092049091169063ca446dd990604401611522565b6040518060e0016040528060006001600160a01b031681526020016000815260200160008152602001600081526020016000815260200160008152602001600081525090565b6001600160a01b0381168114610b0557600080fd5b60006020828403121561190457600080fd5b813561061a816118dd565b634e487b7160e01b600052604160045260246000fd5b600082601f83011261193657600080fd5b813567ffffffffffffffff808211156119515761195161190f565b604051601f8301601f19908116603f011681019082821181831017156119795761197961190f565b8160405283815286602085880101111561199257600080fd5b836020870160208301376000602085830101528094505050505092915050565b6000602082840312156119c457600080fd5b813567ffffffffffffffff8111156119db57600080fd5b6119e784828501611925565b949350505050565b60008060408385031215611a0257600080fd5b8235611a0d816118dd565b946020939093013593505050565b60008060408385031215611a2e57600080fd5b82359150602083013567ffffffffffffffff811115611a4c57600080fd5b611a5885828601611925565b9150509250929050565b600060208284031215611a7457600080fd5b5035919050565b80516001600160a01b031682526020808201519083015260408082015190830152606080820151908301526080808201519083015260a0818101519083015260c090810151910152565b60e0810161056b8284611a7b565b60008060408385031215611ae657600080fd5b50508035926020909101359150565b6020808252825182820181905260009190848201906040850190845b81811015611b3757611b24838551611a7b565b9284019260e09290920191600101611b11565b50909695505050505050565b6b0e6e8c2d6cae45cd2dcc8caf60a31b815260609190911b6bffffffffffffffffffffffff1916600c82015260200190565b634e487b7160e01b600052601160045260246000fd5b60008083128015600160ff1b850184121615611ba957611ba9611b75565b6001600160ff1b0384018313811615611bc457611bc4611b75565b50500390565b6000815160005b81811015611beb5760208185018101518683015201611bd1565b81811115611bfa576000828601525b509290920192915050565b6f636f6e74726163742e6164647265737360801b8152600061061a6010830184611bca565b82815260006119e76020830184611bca565b6a7374616b65722e6974656d60a81b8152600b8101919091526a0b985d985e14dd185ad95960aa1b602b82015260360190565b60008060408385031215611c8257600080fd5b505080516020909101519092909150565b600060208284031215611ca557600080fd5b5051919050565b6a7374616b65722e6974656d60a81b8152600b8101919091526d0b9b5a5b9a5c1bdbdb10dbdd5b9d60921b602b82015260390190565b6a7374616b65722e6974656d60a81b8152600b8101919091526c0b985d985e105cdcda59db9959609a1b602b82015260380190565b600060208284031215611d2957600080fd5b8151801515811461061a57600080fd5b6a7374616b65722e6974656d60a81b8152600b810191909152690b99d9dc14dd185ad95960b21b602b82015260350190565b6a7374616b65722e6974656d60a81b8152600b8101919091526a1739ba30b5b2b920b2323960a91b602b82015260360190565b6a7374616b65722e6974656d60a81b8152600b810191909152702e72657761726473537461727454696d6560781b602b820152603c0190565b6a7374616b65722e6974656d60a81b8152600b8101919091526a2e6767705265776172647360a81b602b82015260360190565b60008219821115611e1d57611e1d611b75565b500190565b600082821015611e3457611e34611b75565b500390565b634e487b7160e01b600052603260045260246000fd5b600060018201611e6157611e61611b75565b5060010190565b604081526000611e8f6040830160078152665374616b696e6760c81b602082015260400190565b6001600160a01b0393909316602092909201919091525090565b600060208284031215611ebb57600080fd5b815161061a816118dd565b606081526000611eed6060830160078152665374616b696e6760c81b602082015260400190565b6001600160a01b03949094166020830152506040015290565b600080821280156001600160ff1b0384900385131615611f2857611f28611b75565b600160ff1b8390038412811615611f4157611f41611b75565b5050019056fea26469706673582212200311795f8d1902038c17ef9e8d71376790d9f9fc0e5ca9aa90bd7760765db9ce64736f6c634300080d0033",
  "linkReferences": {},
  "deployedLinkReferences": {}
}