{
  "_format": "hh-sol-artifact-1",
  "contractName": "Staking",
  "sourceName": "contracts/contract/Staking.sol",
  "abi": [
    {
      "inputs": [
        {
          "internalType": "contract Storage",
          "name": "storageAddress",
          "type": "address"
        },
        {
          "internalType": "contract ERC20",
          "name": "ggp_",
          "type": "address"
        }
      ],
      "stateMutability": "nonpayable",
      "type": "constructor"
    },
    {
      "inputs": [],
      "name": "CannotWithdrawUnder150CollateralizationRatio",
      "type": "error"
    },
    {
      "inputs": [],
      "name": "ContractNotFound",
      "type": "error"
    },
    {
      "inputs": [],
      "name": "ContractPaused",
      "type": "error"
    },
    {
      "inputs": [],
      "name": "InsufficientBalance",
      "type": "error"
    },
    {
      "inputs": [],
      "name": "InvalidOrOutdatedContract",
      "type": "error"
    },
    {
      "inputs": [],
      "name": "MustBeGuardian",
      "type": "error"
    },
    {
      "inputs": [],
      "name": "MustBeGuardianOrValidContract",
      "type": "error"
    },
    {
      "inputs": [],
      "name": "MustBeMultisig",
      "type": "error"
    },
    {
      "inputs": [],
      "name": "StakerNotFound",
      "type": "error"
    },
    {
      "anonymous": false,
      "inputs": [
        {
          "indexed": true,
          "internalType": "address",
          "name": "from",
          "type": "address"
        },
        {
          "indexed": false,
          "internalType": "uint256",
          "name": "amount",
          "type": "uint256"
        }
      ],
      "name": "GGPStaked",
      "type": "event"
    },
    {
      "anonymous": false,
      "inputs": [
        {
          "indexed": true,
          "internalType": "address",
          "name": "to",
          "type": "address"
        },
        {
          "indexed": false,
          "internalType": "uint256",
          "name": "amount",
          "type": "uint256"
        }
      ],
      "name": "GGPWithdrawn",
      "type": "event"
    },
    {
      "inputs": [
        {
          "internalType": "address",
          "name": "stakerAddr",
          "type": "address"
        },
        {
          "internalType": "uint256",
          "name": "amount",
          "type": "uint256"
        }
      ],
      "name": "decreaseAVAXAssigned",
      "outputs": [],
      "stateMutability": "nonpayable",
      "type": "function"
    },
    {
      "inputs": [
        {
          "internalType": "address",
          "name": "stakerAddr",
          "type": "address"
        },
        {
          "internalType": "uint256",
          "name": "amount",
          "type": "uint256"
        }
      ],
      "name": "decreaseAVAXStake",
      "outputs": [],
      "stateMutability": "nonpayable",
      "type": "function"
    },
    {
      "inputs": [
        {
          "internalType": "address",
          "name": "stakerAddr",
          "type": "address"
        },
        {
          "internalType": "uint256",
          "name": "amount",
          "type": "uint256"
        }
      ],
      "name": "decreaseGGPRewards",
      "outputs": [],
      "stateMutability": "nonpayable",
      "type": "function"
    },
    {
      "inputs": [
        {
          "internalType": "address",
          "name": "stakerAddr",
          "type": "address"
        }
      ],
      "name": "decreaseMinipoolCount",
      "outputs": [],
      "stateMutability": "nonpayable",
      "type": "function"
    },
    {
      "inputs": [
        {
          "internalType": "address",
          "name": "stakerAddr",
          "type": "address"
        }
      ],
      "name": "getAVAXAssigned",
      "outputs": [
        {
          "internalType": "uint256",
          "name": "",
          "type": "uint256"
        }
      ],
      "stateMutability": "view",
      "type": "function"
    },
    {
      "inputs": [
        {
          "internalType": "address",
          "name": "stakerAddr",
          "type": "address"
        }
      ],
      "name": "getAVAXAssignedHighWater",
      "outputs": [
        {
          "internalType": "uint256",
          "name": "",
          "type": "uint256"
        }
      ],
      "stateMutability": "view",
      "type": "function"
    },
    {
      "inputs": [
        {
          "internalType": "address",
          "name": "stakerAddr",
          "type": "address"
        }
      ],
      "name": "getAVAXStake",
      "outputs": [
        {
          "internalType": "uint256",
          "name": "",
          "type": "uint256"
        }
      ],
      "stateMutability": "view",
      "type": "function"
    },
    {
      "inputs": [
        {
          "internalType": "address",
          "name": "stakerAddr",
          "type": "address"
        }
      ],
      "name": "getCollateralizationRatio",
      "outputs": [
        {
          "internalType": "uint256",
          "name": "",
          "type": "uint256"
        }
      ],
      "stateMutability": "view",
      "type": "function"
    },
    {
      "inputs": [
        {
          "internalType": "string",
          "name": "contractName",
          "type": "string"
        }
      ],
      "name": "getContractAddress",
      "outputs": [
        {
          "internalType": "address",
          "name": "",
          "type": "address"
        }
      ],
      "stateMutability": "view",
      "type": "function"
    },
    {
      "inputs": [
        {
          "internalType": "address",
          "name": "stakerAddr",
          "type": "address"
        }
      ],
      "name": "getEffectiveGGPStaked",
      "outputs": [
        {
          "internalType": "uint256",
          "name": "",
          "type": "uint256"
        }
      ],
      "stateMutability": "view",
      "type": "function"
    },
    {
      "inputs": [
        {
          "internalType": "address",
          "name": "stakerAddr",
          "type": "address"
        }
      ],
      "name": "getEffectiveRewardsRatio",
      "outputs": [
        {
          "internalType": "uint256",
          "name": "",
          "type": "uint256"
        }
      ],
      "stateMutability": "view",
      "type": "function"
    },
    {
      "inputs": [
        {
          "internalType": "address",
          "name": "stakerAddr",
          "type": "address"
        }
      ],
      "name": "getGGPRewards",
      "outputs": [
        {
          "internalType": "uint256",
          "name": "",
          "type": "uint256"
        }
      ],
      "stateMutability": "view",
      "type": "function"
    },
    {
      "inputs": [
        {
          "internalType": "address",
          "name": "stakerAddr",
          "type": "address"
        }
      ],
      "name": "getGGPStake",
      "outputs": [
        {
          "internalType": "uint256",
          "name": "",
          "type": "uint256"
        }
      ],
      "stateMutability": "view",
      "type": "function"
    },
    {
      "inputs": [
        {
          "internalType": "address",
          "name": "stakerAddr",
          "type": "address"
        }
      ],
      "name": "getIndexOf",
      "outputs": [
        {
          "internalType": "int256",
          "name": "",
          "type": "int256"
        }
      ],
      "stateMutability": "view",
      "type": "function"
    },
    {
      "inputs": [
        {
          "internalType": "address",
          "name": "stakerAddr",
          "type": "address"
        }
      ],
      "name": "getMinimumGGPStake",
      "outputs": [
        {
          "internalType": "uint256",
          "name": "",
          "type": "uint256"
        }
      ],
      "stateMutability": "view",
      "type": "function"
    },
    {
      "inputs": [
        {
          "internalType": "address",
          "name": "stakerAddr",
          "type": "address"
        }
      ],
      "name": "getMinipoolCount",
      "outputs": [
        {
          "internalType": "uint256",
          "name": "",
          "type": "uint256"
        }
      ],
      "stateMutability": "view",
      "type": "function"
    },
    {
      "inputs": [
        {
          "internalType": "address",
          "name": "stakerAddr",
          "type": "address"
        }
      ],
      "name": "getRewardsStartTime",
      "outputs": [
        {
          "internalType": "uint256",
          "name": "",
          "type": "uint256"
        }
      ],
      "stateMutability": "view",
      "type": "function"
    },
    {
      "inputs": [
        {
          "internalType": "int256",
          "name": "stakerIndex",
          "type": "int256"
        }
      ],
      "name": "getStaker",
      "outputs": [
        {
          "components": [
            {
              "internalType": "address",
              "name": "stakerAddr",
              "type": "address"
            },
            {
              "internalType": "uint256",
              "name": "ggpStaked",
              "type": "uint256"
            },
            {
              "internalType": "uint256",
              "name": "avaxStaked",
              "type": "uint256"
            },
            {
              "internalType": "uint256",
              "name": "avaxAssigned",
              "type": "uint256"
            },
            {
              "internalType": "uint256",
              "name": "avaxAssignedHighWater",
              "type": "uint256"
            },
            {
              "internalType": "uint256",
              "name": "minipoolCount",
              "type": "uint256"
            },
            {
              "internalType": "uint256",
              "name": "rewardsStartTime",
              "type": "uint256"
            },
            {
              "internalType": "uint256",
              "name": "ggpRewards",
              "type": "uint256"
            }
          ],
          "internalType": "struct Staking.Staker",
          "name": "staker",
          "type": "tuple"
        }
      ],
      "stateMutability": "view",
      "type": "function"
    },
    {
      "inputs": [],
      "name": "getStakerCount",
      "outputs": [
        {
          "internalType": "uint256",
          "name": "",
          "type": "uint256"
        }
      ],
      "stateMutability": "view",
      "type": "function"
    },
    {
      "inputs": [
        {
          "internalType": "uint256",
          "name": "offset",
          "type": "uint256"
        },
        {
          "internalType": "uint256",
          "name": "limit",
          "type": "uint256"
        }
      ],
      "name": "getStakers",
      "outputs": [
        {
          "components": [
            {
              "internalType": "address",
              "name": "stakerAddr",
              "type": "address"
            },
            {
              "internalType": "uint256",
              "name": "ggpStaked",
              "type": "uint256"
            },
            {
              "internalType": "uint256",
              "name": "avaxStaked",
              "type": "uint256"
            },
            {
              "internalType": "uint256",
              "name": "avaxAssigned",
              "type": "uint256"
            },
            {
              "internalType": "uint256",
              "name": "avaxAssignedHighWater",
              "type": "uint256"
            },
            {
              "internalType": "uint256",
              "name": "minipoolCount",
              "type": "uint256"
            },
            {
              "internalType": "uint256",
              "name": "rewardsStartTime",
              "type": "uint256"
            },
            {
              "internalType": "uint256",
              "name": "ggpRewards",
              "type": "uint256"
            }
          ],
          "internalType": "struct Staking.Staker[]",
          "name": "stakers",
          "type": "tuple[]"
        }
      ],
      "stateMutability": "view",
      "type": "function"
    },
    {
      "inputs": [],
      "name": "getTotalGGPStake",
      "outputs": [
        {
          "internalType": "uint256",
          "name": "",
          "type": "uint256"
        }
      ],
      "stateMutability": "view",
      "type": "function"
    },
    {
      "inputs": [],
      "name": "ggp",
      "outputs": [
        {
          "internalType": "contract ERC20",
          "name": "",
          "type": "address"
        }
      ],
      "stateMutability": "view",
      "type": "function"
    },
    {
      "inputs": [
        {
          "internalType": "address",
          "name": "stakerAddr",
          "type": "address"
        },
        {
          "internalType": "uint256",
          "name": "amount",
          "type": "uint256"
        }
      ],
      "name": "increaseAVAXAssigned",
      "outputs": [],
      "stateMutability": "nonpayable",
      "type": "function"
    },
    {
      "inputs": [
        {
          "internalType": "address",
          "name": "stakerAddr",
          "type": "address"
        },
        {
          "internalType": "uint256",
          "name": "amount",
          "type": "uint256"
        }
      ],
      "name": "increaseAVAXStake",
      "outputs": [],
      "stateMutability": "nonpayable",
      "type": "function"
    },
    {
      "inputs": [
        {
          "internalType": "address",
          "name": "stakerAddr",
          "type": "address"
        },
        {
          "internalType": "uint256",
          "name": "amount",
          "type": "uint256"
        }
      ],
      "name": "increaseGGPRewards",
      "outputs": [],
      "stateMutability": "nonpayable",
      "type": "function"
    },
    {
      "inputs": [
        {
          "internalType": "address",
          "name": "stakerAddr",
          "type": "address"
        }
      ],
      "name": "increaseMinipoolCount",
      "outputs": [],
      "stateMutability": "nonpayable",
      "type": "function"
    },
    {
      "inputs": [
        {
          "internalType": "address",
          "name": "stakerAddr",
          "type": "address"
        }
      ],
      "name": "requireValidStaker",
      "outputs": [
        {
          "internalType": "int256",
          "name": "",
          "type": "int256"
        }
      ],
      "stateMutability": "view",
      "type": "function"
    },
    {
      "inputs": [
        {
          "internalType": "address",
          "name": "stakerAddr",
          "type": "address"
        }
      ],
      "name": "resetAVAXAssignedHighWater",
      "outputs": [],
      "stateMutability": "nonpayable",
      "type": "function"
    },
    {
      "inputs": [
        {
          "internalType": "address",
          "name": "stakerAddress",
          "type": "address"
        },
        {
          "internalType": "uint256",
          "name": "amount",
          "type": "uint256"
        }
      ],
      "name": "restakeGGP",
      "outputs": [],
      "stateMutability": "nonpayable",
      "type": "function"
    },
    {
      "inputs": [
        {
          "internalType": "address",
          "name": "stakerAddr",
          "type": "address"
        },
        {
          "internalType": "uint256",
          "name": "time",
          "type": "uint256"
        }
      ],
      "name": "setRewardsStartTime",
      "outputs": [],
      "stateMutability": "nonpayable",
      "type": "function"
    },
    {
      "inputs": [
        {
          "internalType": "address",
          "name": "stakerAddr",
          "type": "address"
        },
        {
          "internalType": "uint256",
          "name": "ggpAmt",
          "type": "uint256"
        }
      ],
      "name": "slashGGP",
      "outputs": [],
      "stateMutability": "nonpayable",
      "type": "function"
    },
    {
      "inputs": [
        {
          "internalType": "uint256",
          "name": "amount",
          "type": "uint256"
        }
      ],
      "name": "stakeGGP",
      "outputs": [],
      "stateMutability": "nonpayable",
      "type": "function"
    },
    {
      "inputs": [],
      "name": "version",
      "outputs": [
        {
          "internalType": "uint8",
          "name": "",
          "type": "uint8"
        }
      ],
      "stateMutability": "view",
      "type": "function"
    },
    {
      "inputs": [
        {
          "internalType": "uint256",
          "name": "amount",
          "type": "uint256"
        }
      ],
      "name": "withdrawGGP",
      "outputs": [],
      "stateMutability": "nonpayable",
      "type": "function"
    }
  ],
  "bytecode": "0x60a06040523480156200001157600080fd5b5060405162002cd238038062002cd2833981016040819052620000349162000080565b6000805460ff196001600160a01b0394851661010002166001600160a81b031990911617600117905516608052620000bf565b6001600160a01b03811681146200007d57600080fd5b50565b600080604083850312156200009457600080fd5b8251620000a18162000067565b6020840151909250620000b48162000067565b809150509250929050565b608051612bcd62000105600039600081816104cd01528181610c2c01528181611084015281816117e5015281816119fa015281816121dd01526122710152612bcd6000f3fe608060405234801561001057600080fd5b50600436106102265760003560e01c8063799c515d1161012a578063b8c4f612116100bd578063dcd1f23e1161008c578063ed54ff2211610071578063ed54ff22146104b5578063f321df49146104c8578063fc87bc36146104ef57600080fd5b8063dcd1f23e1461048f578063e60716d7146104a257600080fd5b8063b8c4f6121461044e578063bf79cbf614610461578063c03f09b014610469578063db865f881461047c57600080fd5b8063a0b2c3e5116100f9578063a0b2c3e5146103f5578063a1bb68a514610408578063ad71bd361461041b578063b268ee141461043b57600080fd5b8063799c515d146103a9578063877d9e9e146103bc5780638823169c146103cf5780639517d256146103e257600080fd5b8063465887b3116101bd57806354fd4d501161018c57806368a239e91161017157806368a239e9146103705780636e333967146103835780637736b4d41461039657600080fd5b806354fd4d50146103315780635a5851851461035057600080fd5b8063465887b3146102e55780634ce08478146102f85780634ce3d5721461030b5780634f3d2e6f1461031e57600080fd5b80631319649d116101f95780631319649d146102a45780631cbce7af146102ac57806323ca17bd146102bf5780632f64fd52146102d257600080fd5b8063017df5221461022b57806304433bbc14610251578063065fe0a31461027c57806309e203a514610291575b600080fd5b61023e610239366004612649565b610502565b6040519081526020015b60405180910390f35b61026461025f3660046126d5565b61056b565b6040516001600160a01b039091168152602001610248565b61028f61028a366004612755565b6105c6565b005b61023e61029f366004612649565b610644565b61023e610698565b61023e6102ba366004612649565b6106c8565b61028f6102cd366004612649565b61081c565b61028f6102e0366004612755565b6108f1565b61028f6102f3366004612649565b610acb565b61028f610306366004612755565b610ba0565b61023e610319366004612649565b610cac565b61028f61032c366004612755565b610d04565b60005461033e9060ff1681565b60405160ff9091168152602001610248565b61036361035e366004612781565b610dc5565b604051610248919061279a565b61028f61037e366004612781565b611008565b61023e610391366004612649565b611108565b61023e6103a4366004612649565b61115b565b61023e6103b7366004612649565b611225565b61028f6103ca366004612755565b611274565b61023e6103dd366004612649565b611343565b61023e6103f0366004612649565b61138f565b61023e610403366004612649565b6113c5565b61028f610416366004612755565b611415565b61042e6104293660046127fb565b6114e7565b604051610248919061281d565b61028f610449366004612755565b611623565b61028f61045c366004612755565b6116d9565b61023e611795565b61028f610477366004612781565b611854565b61023e61048a366004612649565b611a6f565b61028f61049d366004612649565b611c1c565b61023e6104b0366004612649565b611d1a565b61023e6104c3366004612649565b611d67565b6102647f000000000000000000000000000000000000000000000000000000000000000081565b61028f6104fd366004612755565b611e3d565b604080516b0e6e8c2d6cae45cd2dcc8caf60a31b60208201526bffffffffffffffffffffffff19606084901b16602c82015260009160019161055b91015b60405160208183030381529060405280519060200120611ef3565b61056591906128d4565b92915050565b60008061059d83604051602001610582919061291f565b60405160208183030381529060405280519060200120611f65565b90506001600160a01b03811661056557604051633b56498960e21b815260040160405180910390fd5b6040518060400160405280600f81526020016e26b4b734b837b7b626b0b730b3b2b960891b8152503361060382604051602001610582919061291f565b6001600160a01b0316816001600160a01b03161461063457604051631eee95db60e11b815260040160405180910390fd5b61063e8484611fd7565b50505050565b6000806106508361138f565b6040516a7374616b65722e6974656d60a81b6020820152602b81018290526a0b985d985e14dd185ad95960aa1b604b82015290915061069190605601610540565b9392505050565b60006106c37f39288d47a4783f81134d34e7a6b9067048ac0cc8b25c6f52593a7e3d7b76165b611ef3565b905090565b6000806106f76040518060400160405280600b81526020016a50726f746f636f6c44414f60a81b81525061056b565b90506000610722604051806040016040528060068152602001654f7261636c6560d01b81525061056b565b90506000816001600160a01b03166378e865fe6040518163ffffffff1660e01b81526004016040805180830381865afa158015610763573d6000803e3d6000fd5b505050506040513d601f19601f820116820180604052508101906107879190612964565b509050600061079586611225565b905060006107a38284612039565b9050610811856001600160a01b0316632a90c63a6040518163ffffffff1660e01b8152600401602060405180830381865afa1580156107e6573d6000803e3d6000fd5b505050506040513d601f19601f8201168201806040525081019061080a9190612988565b829061204e565b979650505050505050565b6040518060400160405280600f81526020016e26b4b734b837b7b626b0b730b3b2b960891b8152503361085982604051602001610582919061291f565b6001600160a01b0316816001600160a01b03161461088a57604051631eee95db60e11b815260040160405180910390fd5b60006108958461138f565b6040516a7374616b65722e6974656d60a81b6020820152602b81018290526d0b9b5a5b9a5c1bdbdb10dbdd5b9d60921b604b82015290915061063e90605901604051602081830303815290604052805190602001206001612063565b6040518060400160405280600f81526020016e26b4b734b837b7b626b0b730b3b2b960891b8152503361092e82604051602001610582919061291f565b6001600160a01b0316816001600160a01b03161461095f57604051631eee95db60e11b815260040160405180910390fd5b600061096a8561138f565b6040516a7374616b65722e6974656d60a81b6020820152602b81018290526c0b985d985e105cdcda59db9959609a1b604b8201529091506109c5906058015b60405160208183030381529060405280519060200120856120d1565b6040516a7374616b65722e6974656d60a81b6020820152602b8101829052751730bb30bc20b9b9b4b3b732b22434b3b42bb0ba32b960511b604b820152600090610a1190606101610540565b6040516a7374616b65722e6974656d60a81b6020820152602b81018490526c0b985d985e105cdcda59db9959609a1b604b820152909150600090610a5790605801610540565b905081811115610ac2576040516a7374616b65722e6974656d60a81b6020820152602b8101849052751730bb30bc20b9b9b4b3b732b22434b3b42bb0ba32b960511b604b820152610ac2906061015b604051602081830303815290604052805190602001208261210d565b50505050505050565b6040518060400160405280600f81526020016e26b4b734b837b7b626b0b730b3b2b960891b81525033610b0882604051602001610582919061291f565b6001600160a01b0316816001600160a01b031614610b3957604051631eee95db60e11b815260040160405180910390fd5b6000610b448461138f565b6040516a7374616b65722e6974656d60a81b6020820152602b81018290526d0b9b5a5b9a5c1bdbdb10dbdd5b9d60921b604b82015290915061063e906059016040516020818303038152906040528051906020012060016120d1565b6040518060400160405280600b81526020016a0436c61696d4e6f64654f760ac1b81525033610bd982604051602001610582919061291f565b6001600160a01b0316816001600160a01b031614610c0a57604051631eee95db60e11b815260040160405180910390fd5b6040516323b872dd60e01b8152336004820152306024820152604481018490527f00000000000000000000000000000000000000000000000000000000000000006001600160a01b0316906323b872dd906064016020604051808303816000875af1158015610c7d573d6000803e3d6000fd5b505050506040513d601f19601f82011682018060405250810190610ca191906129a1565b5061063e8484612149565b600080610cb88361138f565b6040516a7374616b65722e6974656d60a81b6020820152602b8101829052751730bb30bc20b9b9b4b3b732b22434b3b42bb0ba32b960511b604b82015290915061069190606101610540565b6040518060400160405280600f81526020016e26b4b734b837b7b626b0b730b3b2b960891b81525033610d4182604051602001610582919061291f565b6001600160a01b0316816001600160a01b031614610d7257604051631eee95db60e11b815260040160405180910390fd5b6000610d7d8561138f565b6040516a7374616b65722e6974656d60a81b6020820152602b81018290526a0b985d985e14dd185ad95960aa1b604b820152909150610dbe906056016109a9565b5050505050565b610e1660405180610100016040528060006001600160a01b03168152602001600081526020016000815260200160008152602001600081526020016000815260200160008152602001600081525090565b6040516a7374616b65722e6974656d60a81b6020820152602b8101839052690b99d9dc14dd185ad95960b21b604b820152610e5390605501610540565b6020808301919091526040516a7374616b65722e6974656d60a81b91810191909152602b81018390526c0b985d985e105cdcda59db9959609a1b604b820152610e9e90605801610540565b60608201526040516a7374616b65722e6974656d60a81b6020820152602b81018390526a0b985d985e14dd185ad95960aa1b604b820152610ee190605601610540565b604080830191909152516a7374616b65722e6974656d60a81b6020820152602b81018390526a1739ba30b5b2b920b2323960a91b604b820152610f2690605601610582565b6001600160a01b031681526040516a7374616b65722e6974656d60a81b6020820152602b81018390526d0b9b5a5b9a5c1bdbdb10dbdd5b9d60921b604b820152610f7290605901610540565b60a08201526040516a7374616b65722e6974656d60a81b6020820152602b8101839052702e72657761726473537461727454696d6560781b604b820152610fbb90605c01610540565b60c08201526040516a7374616b65722e6974656d60a81b6020820152602b81018390526a2e6767705265776172647360a81b604b820152610ffe90605601610540565b60e0820152919050565b6000611013306123f4565b90506110448160405160200161102991906129c3565b60405160208183030381529060405280519060200120612489565b156110625760405163ab35696f60e01b815260040160405180910390fd5b6040516323b872dd60e01b8152336004820152306024820152604481018390527f00000000000000000000000000000000000000000000000000000000000000006001600160a01b0316906323b872dd906064016020604051808303816000875af11580156110d5573d6000803e3d6000fd5b505050506040513d601f19601f820116820180604052508101906110f991906129a1565b506111043383612149565b5050565b6000806111148361138f565b6040516a7374616b65722e6974656d60a81b6020820152602b8101829052702e72657761726473537461727454696d6560781b604b82015290915061069190605c01610540565b600080611185604051806040016040528060068152602001654f7261636c6560d01b81525061056b565b90506000816001600160a01b03166378e865fe6040518163ffffffff1660e01b81526004016040805180830381865afa1580156111c6573d6000803e3d6000fd5b505050506040513d601f19601f820116820180604052508101906111ea9190612964565b50905060006111f885610cac565b9050600061120586611a6f565b905061121b83611215848461204e565b90612039565b9695505050505050565b6000806112318361138f565b6040516a7374616b65722e6974656d60a81b6020820152602b81018290526c0b985d985e105cdcda59db9959609a1b604b82015290915061069190605801610540565b6040516e636f6e74726163742e65786973747360881b60208201526bffffffffffffffffffffffff193360601b16602f8201526112b390604301611029565b15156000036112d557604051631eee95db60e11b815260040160405180910390fd5b60006112e08361138f565b6040516a7374616b65722e6974656d60a81b6020820152602b8101829052702e72657761726473537461727454696d6560781b604b82015290915061133e90605c01604051602081830303815290604052805190602001208361210d565b505050565b60008061134f8361138f565b6040516a7374616b65722e6974656d60a81b6020820152602b8101829052690b99d9dc14dd185ad95960b21b604b82015290915061069190605501610540565b60008061139b83610502565b905080600019146113ac5792915050565b60405163e6215fab60e01b815260040160405180910390fd5b6000806113d18361138f565b6040516a7374616b65722e6974656d60a81b6020820152602b81018290526d0b9b5a5b9a5c1bdbdb10dbdd5b9d60921b604b82015290915061069190605901610540565b6040518060400160405280600f81526020016e26b4b734b837b7b626b0b730b3b2b960891b8152503361145282604051602001610582919061291f565b6001600160a01b0316816001600160a01b03161461148357604051631eee95db60e11b815260040160405180910390fd5b600061148e8561138f565b6040516a7374616b65722e6974656d60a81b6020820152602b81018290526a0b985d985e14dd185ad95960aa1b604b820152909150610dbe906056015b6040516020818303038152906040528051906020012085612063565b606060006114f3610698565b905060006115018486612a08565b90508181118061150f575083155b156115175750805b6115218582612a1b565b67ffffffffffffffff81111561153957611539612666565b6040519080825280602002602001820160405280156115bb57816020015b6115a860405180610100016040528060006001600160a01b03168152602001600081526020016000815260200160008152602001600081526020016000815260200160008152602001600081525090565b8152602001906001900390816115575790505b5092506000855b828110156116175760006115d582610dc5565b9050808684815181106115ea576115ea612a2e565b6020026020010181905250828061160090612a44565b93505050808061160f90612a44565b9150506115c2565b50835250909392505050565b6040518060400160405280600b81526020016a0436c61696d4e6f64654f760ac1b8152503361165c82604051602001610582919061291f565b6001600160a01b0316816001600160a01b03161461168d57604051631eee95db60e11b815260040160405180910390fd5b60006116988561138f565b6040516a7374616b65722e6974656d60a81b6020820152602b81018290526a2e6767705265776172647360a81b604b820152909150610dbe906056016114cb565b6040518060400160405280600f81526020016e26b4b734b837b7b626b0b730b3b2b960891b8152503361171682604051602001610582919061291f565b6001600160a01b0316816001600160a01b03161461174757604051631eee95db60e11b815260040160405180910390fd5b60006117528561138f565b6040516a7374616b65722e6974656d60a81b6020820152602b81018290526c0b985d985e105cdcda59db9959609a1b604b820152909150610dbe906058016114cb565b6000806117be6040518060400160405280600581526020016415985d5b1d60da1b81525061056b565b6040516376677ffb60e11b81529091506001600160a01b0382169063eccefff69061180d907f000000000000000000000000000000000000000000000000000000000000000090600401612a5d565b602060405180830381865afa15801561182a573d6000803e3d6000fd5b505050506040513d601f19601f8201168201806040525081019061184e9190612988565b91505090565b600061185f306123f4565b90506118758160405160200161102991906129c3565b156118935760405163ab35696f60e01b815260040160405180910390fd5b61189c33611343565b8211156118bc57604051631e9acf1760e31b815260040160405180910390fd5b60405182815233907f24231562008debd875e9a0c93d43fda03c49a4578215067a1d7024b97dd15d249060200160405180910390a26118fb3383611fd7565b60006119296040518060400160405280600b81526020016a50726f746f636f6c44414f60a81b81525061056b565b9050806001600160a01b031663780ba7866040518163ffffffff1660e01b8152600401602060405180830381865afa158015611969573d6000803e3d6000fd5b505050506040513d601f19601f8201168201806040525081019061198d9190612988565b61199633611d67565b10156119b55760405163954e323d60e01b815260040160405180910390fd5b60006119dd6040518060400160405280600581526020016415985d5b1d60da1b81525061056b565b6040516301e3366760e01b81523360048201526001600160a01b037f00000000000000000000000000000000000000000000000000000000000000008116602483015260448201879052919250908216906301e3366790606401600060405180830381600087803b158015611a5157600080fd5b505af1158015611a65573d6000803e3d6000fd5b5050505050505050565b600080611a7b83610cac565b905080600003611a8e5750600092915050565b67016345785d8a0000611aa084611d67565b1015611aaf5750600092915050565b6000611ad8604051806040016040528060068152602001654f7261636c6560d01b81525061056b565b90506000816001600160a01b03166378e865fe6040518163ffffffff1660e01b81526004016040805180830381865afa158015611b19573d6000803e3d6000fd5b505050506040513d601f19601f82011682018060405250810190611b3d9190612964565b5090506000611b4b86611343565b90506000611b59828461204e565b90506000611b678287612039565b90506000611b976040518060400160405280600b81526020016a50726f746f636f6c44414f60a81b81525061056b565b90506000816001600160a01b031663780ba7866040518163ffffffff1660e01b8152600401602060405180830381865afa158015611bd9573d6000803e3d6000fd5b505050506040513d601f19601f82011682018060405250810190611bfd9190612988565b9050808311611c0c5782611c0e565b805b9a9950505050505050505050565b6040516e636f6e74726163742e65786973747360881b60208201526bffffffffffffffffffffffff193360601b16602f820152611c5b90604301611029565b1515600003611c7d57604051631eee95db60e11b815260040160405180910390fd5b6000611c888261138f565b6040516a7374616b65722e6974656d60a81b6020820152602b81018290526c0b985d985e105cdcda59db9959609a1b604b820152909150600090611cce90605801610540565b6040516a7374616b65722e6974656d60a81b6020820152602b8101849052751730bb30bc20b9b9b4b3b732b22434b3b42bb0ba32b960511b604b82015290915061133e90606101610aa6565b600080611d268361138f565b6040516a7374616b65722e6974656d60a81b6020820152602b81018290526a2e6767705265776172647360a81b604b82015290915061069190605601610540565b600080611d7383611225565b905080600003611d87575060001992915050565b6000611db0604051806040016040528060068152602001654f7261636c6560d01b81525061056b565b90506000816001600160a01b03166378e865fe6040518163ffffffff1660e01b81526004016040805180830381865afa158015611df1573d6000803e3d6000fd5b505050506040513d601f19601f82011682018060405250810190611e159190612964565b5090506000611e2386611343565b90506000611e31828461204e565b90506108118186612039565b6040518060400160405280600b81526020016a0436c61696d4e6f64654f760ac1b81525033611e7682604051602001610582919061291f565b6001600160a01b0316816001600160a01b031614611ea757604051631eee95db60e11b815260040160405180910390fd5b6000611eb28561138f565b6040516a7374616b65722e6974656d60a81b6020820152602b81018290526a2e6767705265776172647360a81b604b820152909150610dbe906056016109a9565b6000805460405163bd02d0f560e01b8152600481018490526101009091046001600160a01b03169063bd02d0f590602401602060405180830381865afa158015611f41573d6000803e3d6000fd5b505050506040513d601f19601f820116820180604052508101906105659190612988565b600080546040516321f8a72160e01b8152600481018490526101009091046001600160a01b0316906321f8a72190602401602060405180830381865afa158015611fb3573d6000803e3d6000fd5b505050506040513d601f19601f820116820180604052508101906105659190612a9b565b6000611fe28361138f565b6040516a7374616b65722e6974656d60a81b6020820152602b8101829052690b99d9dc14dd185ad95960b21b604b82015290915061133e906055016040516020818303038152906040528051906020012083612063565b600061069183670de0b6b3a7640000846124fb565b60006106918383670de0b6b3a76400006124fb565b60005460405163ebb9d8c960e01b815260048101849052602481018390526101009091046001600160a01b03169063ebb9d8c9906044015b600060405180830381600087803b1580156120b557600080fd5b505af11580156120c9573d6000803e3d6000fd5b505050505050565b600054604051632b6cd4f760e21b815260048101849052602481018390526101009091046001600160a01b03169063adb353dc9060440161209b565b600054604051637152429d60e11b815260048101849052602481018390526101009091046001600160a01b03169063e2a4853a9060440161209b565b816001600160a01b03167f3cd32fbc628a7c1c5a309e823125e5a4b8d98b9b31ad71d8338cc5f05829b1998260405161218491815260200190565b60405180910390a260006121b46040518060400160405280600581526020016415985d5b1d60da1b81525061056b565b60405163095ea7b360e01b81526001600160a01b038083166004830152602482018590529192507f00000000000000000000000000000000000000000000000000000000000000009091169063095ea7b3906044016020604051808303816000875af1158015612228573d6000803e3d6000fd5b505050506040513d601f19601f8201168201806040525081019061224c91906129a1565b50604051631e88852b60e31b81526001600160a01b0382169063f44429589061229b907f0000000000000000000000000000000000000000000000000000000000000000908690600401612ab8565b600060405180830381600087803b1580156122b557600080fd5b505af11580156122c9573d6000803e3d6000fd5b5050505060006122d884610502565b905080196123ea576123097f39288d47a4783f81134d34e7a6b9067048ac0cc8b25c6f52593a7e3d7b76165b611ef3565b90506123367f39288d47a4783f81134d34e7a6b9067048ac0cc8b25c6f52593a7e3d7b76165b60016120d1565b604080516b0e6e8c2d6cae45cd2dcc8caf60a31b60208201526bffffffffffffffffffffffff19606087901b16602c8201526123959101604051602081830303815290604052805190602001208260016123909190612af8565b61210d565b6040516a7374616b65722e6974656d60a81b6020820152602b81018290526a1739ba30b5b2b920b2323960a91b604b8201526123ea906056016040516020818303038152906040528051906020012085612519565b61063e8484612558565b606060006124658360405160200161244a91907f636f6e74726163742e6e616d6500000000000000000000000000000000000000815260609190911b6bffffffffffffffffffffffff1916600d82015260210190565b604051602081830303815290604052805190602001206125ba565b9050805160000361056557604051633b56498960e21b815260040160405180910390fd5b60008054604051633d70e7e560e11b8152600481018490526101009091046001600160a01b031690637ae1cfca90602401602060405180830381865afa1580156124d7573d6000803e3d6000fd5b505050506040513d601f19601f8201168201806040525081019061056591906129a1565b600082600019048411830215820261251257600080fd5b5091020490565b60005460405163ca446dd960e01b8152600481018490526001600160a01b0383811660248301526101009092049091169063ca446dd99060440161209b565b60006125638361138f565b6040516a7374616b65722e6974656d60a81b6020820152602b8101829052690b99d9dc14dd185ad95960b21b604b82015290915061133e9060550160405160208183030381529060405280519060200120836120d1565b600054604051634c373c8d60e11b81526004810183905260609161010090046001600160a01b03169063986e791a90602401600060405180830381865afa158015612609573d6000803e3d6000fd5b505050506040513d6000823e601f3d908101601f191682016040526105659190810190612b20565b6001600160a01b038116811461264657600080fd5b50565b60006020828403121561265b57600080fd5b813561069181612631565b634e487b7160e01b600052604160045260246000fd5b604051601f8201601f1916810167ffffffffffffffff811182821017156126a5576126a5612666565b604052919050565b600067ffffffffffffffff8211156126c7576126c7612666565b50601f01601f191660200190565b6000602082840312156126e757600080fd5b813567ffffffffffffffff8111156126fe57600080fd5b8201601f8101841361270f57600080fd5b803561272261271d826126ad565b61267c565b81815285602083850101111561273757600080fd5b81602084016020830137600091810160200191909152949350505050565b6000806040838503121561276857600080fd5b823561277381612631565b946020939093013593505050565b60006020828403121561279357600080fd5b5035919050565b610100810161056582846001600160a01b0381511682526020810151602083015260408101516040830152606081015160608301526080810151608083015260a081015160a083015260c081015160c083015260e081015160e08301525050565b6000806040838503121561280e57600080fd5b50508035926020909101359150565b6020808252825182820181905260009190848201906040850190845b818110156128b25761289e8385516001600160a01b0381511682526020810151602083015260408101516040830152606081015160608301526080810151608083015260a081015160a083015260c081015160c083015260e081015160e08301525050565b928401926101009290920191600101612839565b50909695505050505050565b634e487b7160e01b600052601160045260246000fd5b81810360008312801583831316838312821617156128f4576128f46128be565b5092915050565b60005b838110156129165781810151838201526020016128fe565b50506000910152565b7f636f6e74726163742e61646472657373000000000000000000000000000000008152600082516129578160108501602087016128fb565b9190910160100192915050565b6000806040838503121561297757600080fd5b505080516020909101519092909150565b60006020828403121561299a57600080fd5b5051919050565b6000602082840312156129b357600080fd5b8151801515811461069157600080fd5b7f636f6e74726163742e70617573656400000000000000000000000000000000008152600082516129fb81600f8501602087016128fb565b91909101600f0192915050565b80820180821115610565576105656128be565b81810381811115610565576105656128be565b634e487b7160e01b600052603260045260246000fd5b600060018201612a5657612a566128be565b5060010190565b604081526000612a846040830160078152665374616b696e6760c81b602082015260400190565b90506001600160a01b038316602083015292915050565b600060208284031215612aad57600080fd5b815161069181612631565b606081526000612adf6060830160078152665374616b696e6760c81b602082015260400190565b6001600160a01b03949094166020830152506040015290565b8082018281126000831280158216821582161715612b1857612b186128be565b505092915050565b600060208284031215612b3257600080fd5b815167ffffffffffffffff811115612b4957600080fd5b8201601f81018413612b5a57600080fd5b8051612b6861271d826126ad565b818152856020838501011115612b7d57600080fd5b612b8e8260208301602086016128fb565b9594505050505056fea2646970667358221220ef2892132bec6f9b59a81a9e888d55315ccd1a3085840f1891f485a6a866a11964736f6c63430008110033",
  "linkReferences": {},
  "deployedLinkReferences": {}
}