{
  "_format": "hh-sol-artifact-1",
  "contractName": "Vault",
  "sourceName": "contracts/contract/Vault.sol",
  "abi": [
    {
      "inputs": [
        {
          "internalType": "contract Storage",
          "name": "storageAddress",
          "type": "address"
        }
      ],
      "stateMutability": "nonpayable",
      "type": "constructor"
    },
    {
      "inputs": [],
      "name": "InsufficientContractBalance",
      "type": "error"
    },
    {
      "inputs": [],
      "name": "InvalidAmount",
      "type": "error"
    },
    {
      "inputs": [],
      "name": "InvalidNetworkContract",
      "type": "error"
    },
    {
      "inputs": [],
      "name": "TokenTransferFailed",
      "type": "error"
    },
    {
      "inputs": [],
      "name": "VaultTokenWithdrawalFailed",
      "type": "error"
    },
    {
      "anonymous": false,
      "inputs": [
        {
          "indexed": true,
          "internalType": "string",
          "name": "by",
          "type": "string"
        },
        {
          "indexed": false,
          "internalType": "uint256",
          "name": "amount",
          "type": "uint256"
        }
      ],
      "name": "AvaxDeposited",
      "type": "event"
    },
    {
      "anonymous": false,
      "inputs": [
        {
          "indexed": true,
          "internalType": "string",
          "name": "from",
          "type": "string"
        },
        {
          "indexed": true,
          "internalType": "string",
          "name": "to",
          "type": "string"
        },
        {
          "indexed": false,
          "internalType": "uint256",
          "name": "amount",
          "type": "uint256"
        }
      ],
      "name": "AvaxTransfer",
      "type": "event"
    },
    {
      "anonymous": false,
      "inputs": [
        {
          "indexed": true,
          "internalType": "string",
          "name": "by",
          "type": "string"
        },
        {
          "indexed": false,
          "internalType": "uint256",
          "name": "amount",
          "type": "uint256"
        }
      ],
      "name": "AvaxWithdrawn",
      "type": "event"
    },
    {
      "anonymous": false,
      "inputs": [
        {
          "indexed": true,
          "internalType": "bytes32",
          "name": "by",
          "type": "bytes32"
        },
        {
          "indexed": true,
          "internalType": "address",
          "name": "tokenAddress",
          "type": "address"
        },
        {
          "indexed": false,
          "internalType": "uint256",
          "name": "amount",
          "type": "uint256"
        }
      ],
      "name": "TokenBurned",
      "type": "event"
    },
    {
      "anonymous": false,
      "inputs": [
        {
          "indexed": true,
          "internalType": "bytes32",
          "name": "by",
          "type": "bytes32"
        },
        {
          "indexed": true,
          "internalType": "address",
          "name": "tokenAddress",
          "type": "address"
        },
        {
          "indexed": false,
          "internalType": "uint256",
          "name": "amount",
          "type": "uint256"
        }
      ],
      "name": "TokenDeposited",
      "type": "event"
    },
    {
      "anonymous": false,
      "inputs": [
        {
          "indexed": true,
          "internalType": "bytes32",
          "name": "by",
          "type": "bytes32"
        },
        {
          "indexed": true,
          "internalType": "bytes32",
          "name": "to",
          "type": "bytes32"
        },
        {
          "indexed": true,
          "internalType": "address",
          "name": "tokenAddress",
          "type": "address"
        },
        {
          "indexed": false,
          "internalType": "uint256",
          "name": "amount",
          "type": "uint256"
        }
      ],
      "name": "TokenTransfer",
      "type": "event"
    },
    {
      "anonymous": false,
      "inputs": [
        {
          "indexed": true,
          "internalType": "bytes32",
          "name": "by",
          "type": "bytes32"
        },
        {
          "indexed": true,
          "internalType": "address",
          "name": "tokenAddress",
          "type": "address"
        },
        {
          "indexed": false,
          "internalType": "uint256",
          "name": "amount",
          "type": "uint256"
        }
      ],
      "name": "TokenWithdrawn",
      "type": "event"
    },
    {
      "inputs": [
        {
          "internalType": "string",
          "name": "_networkContractName",
          "type": "string"
        }
      ],
      "name": "balanceOf",
      "outputs": [
        {
          "internalType": "uint256",
          "name": "",
          "type": "uint256"
        }
      ],
      "stateMutability": "view",
      "type": "function"
    },
    {
      "inputs": [
        {
          "internalType": "string",
          "name": "_networkContractName",
          "type": "string"
        },
        {
          "internalType": "contract ERC20",
          "name": "_tokenAddress",
          "type": "address"
        }
      ],
      "name": "balanceOfToken",
      "outputs": [
        {
          "internalType": "uint256",
          "name": "",
          "type": "uint256"
        }
      ],
      "stateMutability": "view",
      "type": "function"
    },
    {
      "inputs": [
        {
          "internalType": "contract ERC20Burnable",
          "name": "_tokenAddress",
          "type": "address"
        },
        {
          "internalType": "uint256",
          "name": "_amount",
          "type": "uint256"
        }
      ],
      "name": "burnToken",
      "outputs": [],
      "stateMutability": "nonpayable",
      "type": "function"
    },
    {
      "inputs": [],
      "name": "depositAvax",
      "outputs": [],
      "stateMutability": "payable",
      "type": "function"
    },
    {
      "inputs": [
        {
          "internalType": "string",
          "name": "_networkContractName",
          "type": "string"
        },
        {
          "internalType": "contract ERC20",
          "name": "_tokenContract",
          "type": "address"
        },
        {
          "internalType": "uint256",
          "name": "_amount",
          "type": "uint256"
        }
      ],
      "name": "depositToken",
      "outputs": [],
      "stateMutability": "nonpayable",
      "type": "function"
    },
    {
      "inputs": [
        {
          "internalType": "string",
          "name": "_contractName",
          "type": "string"
        }
      ],
      "name": "getContractAddress",
      "outputs": [
        {
          "internalType": "address",
          "name": "",
          "type": "address"
        }
      ],
      "stateMutability": "view",
      "type": "function"
    },
    {
      "inputs": [
        {
          "internalType": "bytes32",
          "name": "settingNameSpace",
          "type": "bytes32"
        },
        {
          "internalType": "string",
          "name": "_settingPath",
          "type": "string"
        }
      ],
      "name": "getSettingAddress",
      "outputs": [
        {
          "internalType": "address",
          "name": "",
          "type": "address"
        }
      ],
      "stateMutability": "view",
      "type": "function"
    },
    {
      "inputs": [
        {
          "internalType": "bytes32",
          "name": "settingNameSpace",
          "type": "bytes32"
        },
        {
          "internalType": "string",
          "name": "_settingPath",
          "type": "string"
        }
      ],
      "name": "getSettingBool",
      "outputs": [
        {
          "internalType": "bool",
          "name": "",
          "type": "bool"
        }
      ],
      "stateMutability": "view",
      "type": "function"
    },
    {
      "inputs": [
        {
          "internalType": "bytes32",
          "name": "settingNameSpace",
          "type": "bytes32"
        },
        {
          "internalType": "string",
          "name": "_settingPath",
          "type": "string"
        }
      ],
      "name": "getSettingUint",
      "outputs": [
        {
          "internalType": "uint256",
          "name": "",
          "type": "uint256"
        }
      ],
      "stateMutability": "view",
      "type": "function"
    },
    {
      "inputs": [
        {
          "internalType": "string",
          "name": "fromContractName",
          "type": "string"
        },
        {
          "internalType": "string",
          "name": "toContractName",
          "type": "string"
        },
        {
          "internalType": "uint256",
          "name": "amount",
          "type": "uint256"
        }
      ],
      "name": "transferAvax",
      "outputs": [],
      "stateMutability": "nonpayable",
      "type": "function"
    },
    {
      "inputs": [
        {
          "internalType": "string",
          "name": "_networkContractName",
          "type": "string"
        },
        {
          "internalType": "contract ERC20",
          "name": "_tokenAddress",
          "type": "address"
        },
        {
          "internalType": "uint256",
          "name": "_amount",
          "type": "uint256"
        }
      ],
      "name": "transferToken",
      "outputs": [],
      "stateMutability": "nonpayable",
      "type": "function"
    },
    {
      "inputs": [],
      "name": "version",
      "outputs": [
        {
          "internalType": "uint8",
          "name": "",
          "type": "uint8"
        }
      ],
      "stateMutability": "view",
      "type": "function"
    },
    {
      "inputs": [
        {
          "internalType": "uint256",
          "name": "_amount",
          "type": "uint256"
        }
      ],
      "name": "withdrawAvax",
      "outputs": [],
      "stateMutability": "nonpayable",
      "type": "function"
    },
    {
      "inputs": [
        {
          "internalType": "address",
          "name": "_withdrawalAddress",
          "type": "address"
        },
        {
          "internalType": "contract ERC20",
          "name": "_tokenAddress",
          "type": "address"
        },
        {
          "internalType": "uint256",
          "name": "_amount",
          "type": "uint256"
        }
      ],
      "name": "withdrawToken",
      "outputs": [],
      "stateMutability": "nonpayable",
      "type": "function"
    }
  ],
  "bytecode": "0x608060405234801561001057600080fd5b506040516116df3803806116df83398101604081905261002f91610063565b6000805460ff196001600160a01b0390931661010002929092166001600160a81b0319909216919091176001179055610093565b60006020828403121561007557600080fd5b81516001600160a01b038116811461008c57600080fd5b9392505050565b61163d806100a26000396000f3fe6080604052600436106100dd5760003560e01c806335ee5f871161007f578063eccefff611610059578063eccefff614610253578063ee91035e14610273578063f444295814610293578063f4d70e78146102b357600080fd5b806335ee5f87146101d957806354fd4d5014610207578063d1df306c1461023357600080fd5b80630eb8d896116100bb5780630eb8d8961461016157806322f8bf0c14610181578063232de716146101a157806324056867146101d157600080fd5b806301e33667146100e257806304433bbc1461010457806306eaa68b14610141575b600080fd5b3480156100ee57600080fd5b506101026100fd3660046110d9565b6102d3565b005b34801561011057600080fd5b5061012461011f3660046111df565b610488565b6040516001600160a01b0390911681526020015b60405180910390f35b34801561014d57600080fd5b5061012461015c36600461121c565b61050d565b34801561016d57600080fd5b5061010261017c366004611263565b61052c565b34801561018d57600080fd5b5061010261019c36600461127c565b6106bb565b3480156101ad57600080fd5b506101c16101bc36600461121c565b610869565b6040519015158152602001610138565b610102610881565b3480156101e557600080fd5b506101f96101f43660046111df565b610974565b604051908152602001610138565b34801561021357600080fd5b506000546102219060ff1681565b60405160ff9091168152602001610138565b34801561023f57600080fd5b5061010261024e3660046112e9565b61099c565b34801561025f57600080fd5b506101f961026e366004611315565b610ad4565b34801561027f57600080fd5b5061010261028e366004611367565b610b1a565b34801561029f57600080fd5b506101026102ae366004611367565b610ca0565b3480156102bf57600080fd5b506101f96102ce36600461121c565b610e1d565b610302336040516020016102e791906113b0565b60405160208183030381529060405280519060200120610e50565b6103275760405162461bcd60e51b815260040161031e906113e0565b60405180910390fd5b806000036103485760405163162908e360e11b815260040160405180910390fd5b600061035333610ec2565b83604051602001610365929190611447565b60408051601f1981840301815291815281516020928301206000818152600290935291205490915061039890839061148f565b60008281526002602052604090819020919091555163a9059cbb60e01b81526001600160a01b0385811660048301526024820184905284919082169063a9059cbb906044016020604051808303816000875af11580156103fc573d6000803e3d6000fd5b505050506040513d601f19601f8201168201806040525081019061042091906114a6565b61043d57604051630c80f22560e41b815260040160405180910390fd5b836001600160a01b0316827fbec978daaa5ec28b138a0488789dd7e4c8753463019aa5b321e334d958b645178560405161047991815260200190565b60405180910390a35050505050565b6000806104ba8360405160200161049f91906114c8565b60405160208183030381529060405280519060200120610f66565b90506001600160a01b0381166105075760405162461bcd60e51b815260206004820152601260248201527110dbdb9d1c9858dd081b9bdd08199bdd5b9960721b604482015260640161031e565b92915050565b6000610525838360405160200161049f929190611500565b9392505050565b610540336040516020016102e791906113b0565b61055c5760405162461bcd60e51b815260040161031e906113e0565b8060000361057d5760405163162908e360e11b815260040160405180910390fd5b600061058833610ec2565b90508160018260405161059b9190611526565b90815260200160405180910390205410156105c95760405163786e0a9960e01b815260040160405180910390fd5b816001826040516105da9190611526565b9081526020016040518091039020546105f3919061148f565b6001826040516106039190611526565b9081526020016040518091039020819055506000339050806001600160a01b031663ffe09241846040518263ffffffff1660e01b81526004016000604051808303818588803b15801561065557600080fd5b505af1158015610669573d6000803e3d6000fd5b50505050508160405161067c9190611526565b604051908190038120848252907f2f1ea588646afff5d4058d01cfdc77bea6feaa331f035ee84b87632bb6759bc89060200160405180910390a2505050565b6106cf336040516020016102e791906113b0565b6106eb5760405162461bcd60e51b815260040161031e906113e0565b8060000361070c5760405163162908e360e11b815260040160405180910390fd5b600061071784610488565b6001600160a01b03160361073e576040516325a2b7eb60e01b815260040160405180910390fd5b600061074983610488565b6001600160a01b031603610770576040516325a2b7eb60e01b815260040160405180910390fd5b806001846040516107819190611526565b90815260200160405180910390205461079a919061148f565b6001846040516107aa9190611526565b908152602001604051809103902081905550806001836040516107cd9190611526565b9081526020016040518091039020546107e69190611542565b6001836040516107f69190611526565b90815260405190819003602001812091909155610814908390611526565b60405180910390208360405161082a9190611526565b604051908190038120838252907f91c00eab9fee6b1dde0a60c03bf66bf590736cbb7eb3e5960add6fb65e3b24ad9060200160405180910390a3505050565b600061052583836040516020016102e7929190611500565b610895336040516020016102e791906113b0565b6108b15760405162461bcd60e51b815260040161031e906113e0565b346000036108d25760405163162908e360e11b815260040160405180910390fd5b60006108dd33610ec2565b9050346001826040516108f09190611526565b9081526020016040518091039020546109099190611542565b6001826040516109199190611526565b90815260405190819003602001812091909155610937908290611526565b604051908190038120348252907f6cb21626656742525e67ceee553d14bd48c65abcd55d7f80f4eb9147977b158e9060200160405180910390a250565b60006001826040516109869190611526565b9081526020016040518091039020549050919050565b6109b0336040516020016102e791906113b0565b6109cc5760405162461bcd60e51b815260040161031e906113e0565b60006109d733610ec2565b836040516020016109e9929190611447565b60408051601f19818403018152918152815160209283012060008181526002909352912054909150610a1c90839061148f565b600082815260026020526040908190209190915551630852cd8d60e31b81526004810183905283906001600160a01b038216906342966c6890602401600060405180830381600087803b158015610a7257600080fd5b505af1158015610a86573d6000803e3d6000fd5b50505050836001600160a01b0316827fbd2920fafa8424c48832bc0dcc6f9e269baf744c6ac125759976fe80d66ca53c85604051610ac691815260200190565b60405180910390a350505050565b6000600260008484604051602001610aed929190611447565b60405160208183030381529060405280519060200120815260200190815260200160002054905092915050565b610b2e336040516020016102e791906113b0565b610b4a5760405162461bcd60e51b815260040161031e906113e0565b80600003610b6b5760405163162908e360e11b815260040160405180910390fd5b6000610b7684610488565b6001600160a01b031603610b9d576040516325a2b7eb60e01b815260040160405180910390fd5b6000610ba833610ec2565b83604051602001610bba929190611447565b60405160208183030381529060405280519060200120905060008484604051602001610be7929190611447565b60408051601f19818403018152918152815160209283012060008581526002909352912054909150610c1a90849061148f565b600083815260026020526040808220929092558281522054610c3d908490611542565b6002600083815260200190815260200160002081905550836001600160a01b031681837f14ceb9ca73a323b21a98eb54fef9ac599a10db73fd8e5e608bc754c592d25fcc86604051610c9191815260200190565b60405180910390a45050505050565b80600003610cc15760405163162908e360e11b815260040160405180910390fd5b6000610ccc84610488565b6001600160a01b031603610cf3576040516325a2b7eb60e01b815260040160405180910390fd5b60008383604051602001610d08929190611447565b60408051808303601f190181529082905280516020909101206323b872dd60e01b82523360048301523060248301526044820184905291506001600160a01b038416906323b872dd906064016020604051808303816000875af1158015610d73573d6000803e3d6000fd5b505050506040513d601f19601f82011682018060405250810190610d9791906114a6565b610db45760405163022e258160e11b815260040160405180910390fd5b600081815260026020526040902054610dce908390611542565b60008281526002602090815260409182902092909255518381526001600160a01b0385169183917fc4c24354aa86aa3532ebd9da7ff92230de931c78c77fcdf84544f11bf8fae7539101610ac6565b60006105258383604051602001610e35929190611500565b60405160208183030381529060405280519060200120610fd8565b60008054604051633d70e7e560e11b8152600481018490526101009091046001600160a01b031690637ae1cfca90602401602060405180830381865afa158015610e9e573d6000803e3d6000fd5b505050506040513d601f19601f8201168201806040525081019061050791906114a6565b60606000610f1e83604051602001610f0391906c636f6e74726163742e6e616d6560981b815260609190911b6001600160601b031916600d82015260210190565b6040516020818303038152906040528051906020012061104a565b905060008151116105075760405162461bcd60e51b815260206004820152601260248201527110dbdb9d1c9858dd081b9bdd08199bdd5b9960721b604482015260640161031e565b600080546040516321f8a72160e01b8152600481018490526101009091046001600160a01b0316906321f8a72190602401602060405180830381865afa158015610fb4573d6000803e3d6000fd5b505050506040513d601f19601f82011682018060405250810190610507919061155a565b6000805460405163bd02d0f560e01b8152600481018490526101009091046001600160a01b03169063bd02d0f590602401602060405180830381865afa158015611026573d6000803e3d6000fd5b505050506040513d601f19601f820116820180604052508101906105079190611577565b600054604051634c373c8d60e11b81526004810183905260609161010090046001600160a01b03169063986e791a90602401600060405180830381865afa158015611099573d6000803e3d6000fd5b505050506040513d6000823e601f3d908101601f191682016040526105079190810190611590565b6001600160a01b03811681146110d657600080fd5b50565b6000806000606084860312156110ee57600080fd5b83356110f9816110c1565b92506020840135611109816110c1565b929592945050506040919091013590565b634e487b7160e01b600052604160045260246000fd5b604051601f8201601f1916810167ffffffffffffffff811182821017156111595761115961111a565b604052919050565b600067ffffffffffffffff82111561117b5761117b61111a565b50601f01601f191660200190565b600082601f83011261119a57600080fd5b81356111ad6111a882611161565b611130565b8181528460208386010111156111c257600080fd5b816020850160208301376000918101602001919091529392505050565b6000602082840312156111f157600080fd5b813567ffffffffffffffff81111561120857600080fd5b61121484828501611189565b949350505050565b6000806040838503121561122f57600080fd5b82359150602083013567ffffffffffffffff81111561124d57600080fd5b61125985828601611189565b9150509250929050565b60006020828403121561127557600080fd5b5035919050565b60008060006060848603121561129157600080fd5b833567ffffffffffffffff808211156112a957600080fd5b6112b587838801611189565b945060208601359150808211156112cb57600080fd5b506112d886828701611189565b925050604084013590509250925092565b600080604083850312156112fc57600080fd5b8235611307816110c1565b946020939093013593505050565b6000806040838503121561132857600080fd5b823567ffffffffffffffff81111561133f57600080fd5b61134b85828601611189565b925050602083013561135c816110c1565b809150509250929050565b60008060006060848603121561137c57600080fd5b833567ffffffffffffffff81111561139357600080fd5b61139f86828701611189565b9350506020840135611109816110c1565b6e636f6e74726163742e65786973747360881b815260609190911b6001600160601b031916600f82015260230190565b6020808252601c908201527f496e76616c6964206f72206f7574646174656420636f6e747261637400000000604082015260600190565b60005b8381101561143257818101518382015260200161141a565b83811115611441576000848401525b50505050565b60008351611459818460208801611417565b60609390931b6001600160601b0319169190920190815260140192915050565b634e487b7160e01b600052601160045260246000fd5b6000828210156114a1576114a1611479565b500390565b6000602082840312156114b857600080fd5b8151801515811461052557600080fd5b6f636f6e74726163742e6164647265737360801b8152600082516114f3816010850160208701611417565b9190910160100192915050565b82815260008251611518816020850160208701611417565b919091016020019392505050565b60008251611538818460208701611417565b9190910192915050565b6000821982111561155557611555611479565b500190565b60006020828403121561156c57600080fd5b8151610525816110c1565b60006020828403121561158957600080fd5b5051919050565b6000602082840312156115a257600080fd5b815167ffffffffffffffff8111156115b957600080fd5b8201601f810184136115ca57600080fd5b80516115d86111a882611161565b8181528560208385010111156115ed57600080fd5b6115fe826020830160208601611417565b9594505050505056fea26469706673582212208ea1409992586637ff86e288d21138308d5f5b07b69320166df023cf89b6069464736f6c634300080d0033",
  "linkReferences": {},
  "deployedLinkReferences": {}
}