{
  "_format": "hh-sol-artifact-1",
  "contractName": "Vault",
  "sourceName": "contracts/contract/Vault.sol",
  "abi": [
    {
      "inputs": [
        {
          "internalType": "contract Storage",
          "name": "storageAddress",
          "type": "address"
        }
      ],
      "stateMutability": "nonpayable",
      "type": "constructor"
    },
    {
      "inputs": [],
      "name": "ContractNotFound",
      "type": "error"
    },
    {
      "inputs": [],
      "name": "ContractPaused",
      "type": "error"
    },
    {
      "inputs": [],
      "name": "InsufficientContractBalance",
      "type": "error"
    },
    {
      "inputs": [],
      "name": "InvalidAmount",
      "type": "error"
    },
    {
      "inputs": [],
      "name": "InvalidNetworkContract",
      "type": "error"
    },
    {
      "inputs": [],
      "name": "InvalidOrOutdatedContract",
      "type": "error"
    },
    {
      "inputs": [],
      "name": "MustBeGuardian",
      "type": "error"
    },
    {
      "inputs": [],
      "name": "MustBeGuardianOrValidContract",
      "type": "error"
    },
    {
      "inputs": [],
      "name": "MustBeMultisig",
      "type": "error"
    },
    {
      "inputs": [],
      "name": "TokenTransferFailed",
      "type": "error"
    },
    {
      "inputs": [],
      "name": "VaultTokenWithdrawalFailed",
      "type": "error"
    },
    {
      "anonymous": false,
      "inputs": [
        {
          "indexed": true,
          "internalType": "string",
          "name": "by",
          "type": "string"
        },
        {
          "indexed": false,
          "internalType": "uint256",
          "name": "amount",
          "type": "uint256"
        }
      ],
      "name": "AVAXDeposited",
      "type": "event"
    },
    {
      "anonymous": false,
      "inputs": [
        {
          "indexed": true,
          "internalType": "string",
          "name": "from",
          "type": "string"
        },
        {
          "indexed": true,
          "internalType": "string",
          "name": "to",
          "type": "string"
        },
        {
          "indexed": false,
          "internalType": "uint256",
          "name": "amount",
          "type": "uint256"
        }
      ],
      "name": "AVAXTransfer",
      "type": "event"
    },
    {
      "anonymous": false,
      "inputs": [
        {
          "indexed": true,
          "internalType": "string",
          "name": "by",
          "type": "string"
        },
        {
          "indexed": false,
          "internalType": "uint256",
          "name": "amount",
          "type": "uint256"
        }
      ],
      "name": "AVAXWithdrawn",
      "type": "event"
    },
    {
      "anonymous": false,
      "inputs": [
        {
          "indexed": true,
          "internalType": "bytes32",
          "name": "by",
          "type": "bytes32"
        },
        {
          "indexed": true,
          "internalType": "address",
          "name": "tokenAddress",
          "type": "address"
        },
        {
          "indexed": false,
          "internalType": "uint256",
          "name": "amount",
          "type": "uint256"
        }
      ],
      "name": "TokenDeposited",
      "type": "event"
    },
    {
      "anonymous": false,
      "inputs": [
        {
          "indexed": true,
          "internalType": "bytes32",
          "name": "by",
          "type": "bytes32"
        },
        {
          "indexed": true,
          "internalType": "bytes32",
          "name": "to",
          "type": "bytes32"
        },
        {
          "indexed": true,
          "internalType": "address",
          "name": "tokenAddress",
          "type": "address"
        },
        {
          "indexed": false,
          "internalType": "uint256",
          "name": "amount",
          "type": "uint256"
        }
      ],
      "name": "TokenTransfer",
      "type": "event"
    },
    {
      "anonymous": false,
      "inputs": [
        {
          "indexed": true,
          "internalType": "bytes32",
          "name": "by",
          "type": "bytes32"
        },
        {
          "indexed": true,
          "internalType": "address",
          "name": "tokenAddress",
          "type": "address"
        },
        {
          "indexed": false,
          "internalType": "uint256",
          "name": "amount",
          "type": "uint256"
        }
      ],
      "name": "TokenWithdrawn",
      "type": "event"
    },
    {
      "inputs": [
        {
          "internalType": "string",
          "name": "networkContractName",
          "type": "string"
        }
      ],
      "name": "balanceOf",
      "outputs": [
        {
          "internalType": "uint256",
          "name": "",
          "type": "uint256"
        }
      ],
      "stateMutability": "view",
      "type": "function"
    },
    {
      "inputs": [
        {
          "internalType": "string",
          "name": "networkContractName",
          "type": "string"
        },
        {
          "internalType": "contract ERC20",
          "name": "tokenAddress",
          "type": "address"
        }
      ],
      "name": "balanceOfToken",
      "outputs": [
        {
          "internalType": "uint256",
          "name": "",
          "type": "uint256"
        }
      ],
      "stateMutability": "view",
      "type": "function"
    },
    {
      "inputs": [],
      "name": "depositAVAX",
      "outputs": [],
      "stateMutability": "payable",
      "type": "function"
    },
    {
      "inputs": [
        {
          "internalType": "string",
          "name": "networkContractName",
          "type": "string"
        },
        {
          "internalType": "contract ERC20",
          "name": "tokenContract",
          "type": "address"
        },
        {
          "internalType": "uint256",
          "name": "amount",
          "type": "uint256"
        }
      ],
      "name": "depositToken",
      "outputs": [],
      "stateMutability": "nonpayable",
      "type": "function"
    },
    {
      "inputs": [
        {
          "internalType": "string",
          "name": "contractName",
          "type": "string"
        }
      ],
      "name": "getContractAddress",
      "outputs": [
        {
          "internalType": "address",
          "name": "",
          "type": "address"
        }
      ],
      "stateMutability": "view",
      "type": "function"
    },
    {
      "inputs": [
        {
          "internalType": "string",
          "name": "fromContractName",
          "type": "string"
        },
        {
          "internalType": "string",
          "name": "toContractName",
          "type": "string"
        },
        {
          "internalType": "uint256",
          "name": "amount",
          "type": "uint256"
        }
      ],
      "name": "transferAVAX",
      "outputs": [],
      "stateMutability": "nonpayable",
      "type": "function"
    },
    {
      "inputs": [
        {
          "internalType": "string",
          "name": "networkContractName",
          "type": "string"
        },
        {
          "internalType": "contract ERC20",
          "name": "tokenAddress",
          "type": "address"
        },
        {
          "internalType": "uint256",
          "name": "amount",
          "type": "uint256"
        }
      ],
      "name": "transferToken",
      "outputs": [],
      "stateMutability": "nonpayable",
      "type": "function"
    },
    {
      "inputs": [],
      "name": "version",
      "outputs": [
        {
          "internalType": "uint8",
          "name": "",
          "type": "uint8"
        }
      ],
      "stateMutability": "view",
      "type": "function"
    },
    {
      "inputs": [
        {
          "internalType": "uint256",
          "name": "amount",
          "type": "uint256"
        }
      ],
      "name": "withdrawAVAX",
      "outputs": [],
      "stateMutability": "nonpayable",
      "type": "function"
    },
    {
      "inputs": [
        {
          "internalType": "address",
          "name": "withdrawalAddress",
          "type": "address"
        },
        {
          "internalType": "contract ERC20",
          "name": "tokenAddress",
          "type": "address"
        },
        {
          "internalType": "uint256",
          "name": "amount",
          "type": "uint256"
        }
      ],
      "name": "withdrawToken",
      "outputs": [],
      "stateMutability": "nonpayable",
      "type": "function"
    }
  ],
  "bytecode": "0x608060405234801561001057600080fd5b5060405161130f38038061130f83398101604081905261002f91610063565b6000805460ff196001600160a01b0390931661010002929092166001600160a81b0319909216919091176001179055610093565b60006020828403121561007557600080fd5b81516001600160a01b038116811461008c57600080fd5b9392505050565b61126d806100a26000396000f3fe6080604052600436106100b15760003560e01c8063a0d065c311610069578063eccefff61161004e578063eccefff6146101b7578063ee91035e146101d7578063f4442958146101f757600080fd5b8063a0d065c31461018f578063aeb5cd5e1461019757600080fd5b806335ee5f871161009a57806335ee5f871461011557806354fd4d50146101435780635621b9001461016f57600080fd5b806301e33667146100b657806304433bbc146100d8575b600080fd5b3480156100c257600080fd5b506100d66100d1366004610e1e565b610217565b005b3480156100e457600080fd5b506100f86100f3366004610f24565b6103ef565b6040516001600160a01b0390911681526020015b60405180910390f35b34801561012157600080fd5b50610135610130366004610f24565b610450565b60405190815260200161010c565b34801561014f57600080fd5b5060005461015d9060ff1681565b60405160ff909116815260200161010c565b34801561017b57600080fd5b506100d661018a366004610f61565b610478565b6100d6610607565b3480156101a357600080fd5b506100d66101b2366004610fce565b61072b565b3480156101c357600080fd5b506101356101d2366004610fe7565b6108eb565b3480156101e357600080fd5b506100d66101f2366004611039565b610931565b34801561020357600080fd5b506100d6610212366004611039565b610ab7565b6040516e636f6e74726163742e65786973747360881b60208201526bffffffffffffffffffffffff193360601b16602f82015261026d906043015b60405160208183030381529060405280519060200120610c16565b151560000361028f57604051631eee95db60e11b815260040160405180910390fd5b806000036102b05760405163162908e360e11b815260040160405180910390fd5b60006102bb33610c88565b836040516020016102cd9291906110a6565b604051602081830303815290604052805190602001209050826001600160a01b0316817fbec978daaa5ec28b138a0488789dd7e4c8753463019aa5b321e334d958b645178460405161032191815260200190565b60405180910390a36000818152600260205260409020546103439083906110f3565b60008281526002602052604090819020919091555163a9059cbb60e01b81526001600160a01b0385811660048301526024820184905284919082169063a9059cbb906044016020604051808303816000875af11580156103a7573d6000803e3d6000fd5b505050506040513d601f19601f820116820180604052508101906103cb9190611106565b6103e857604051630c80f22560e41b815260040160405180910390fd5b5050505050565b60008061042183604051602001610406919061112f565b60405160208183030381529060405280519060200120610d1d565b90506001600160a01b03811661044a57604051633b56498960e21b815260040160405180910390fd5b92915050565b60006001826040516104629190611174565b9081526020016040518091039020549050919050565b6040516e636f6e74726163742e65786973747360881b60208201526bffffffffffffffffffffffff193360601b16602f8201526104b790604301610252565b15156000036104d957604051631eee95db60e11b815260040160405180910390fd5b806000036104fa5760405163162908e360e11b815260040160405180910390fd5b816040516105089190611174565b60405180910390208360405161051e9190611174565b604051908190038120838252907f153f2294f80110ef683b3018bb0811606615f258387bb4148c3a954523cf57ea9060200160405180910390a3610561836103ef565b5061056b826103ef565b508060018460405161057d9190611174565b90815260200160405180910390205461059691906110f3565b6001846040516105a69190611174565b908152602001604051809103902081905550806001836040516105c99190611174565b9081526020016040518091039020546105e29190611190565b6001836040516105f29190611174565b90815260405190819003602001902055505050565b6040516e636f6e74726163742e65786973747360881b60208201526bffffffffffffffffffffffff193360601b16602f82015261064690604301610252565b151560000361066857604051631eee95db60e11b815260040160405180910390fd5b346000036106895760405163162908e360e11b815260040160405180910390fd5b600061069433610c88565b9050806040516106a49190611174565b604051908190038120348252907fd4502e0d4f9dc8fb9302d686a2b2bff55a6ed89cc5549f55b64490dff5d3e5599060200160405180910390a2346001826040516106ef9190611174565b9081526020016040518091039020546107089190611190565b6001826040516107189190611174565b9081526040519081900360200190205550565b6040516e636f6e74726163742e65786973747360881b60208201526bffffffffffffffffffffffff193360601b16602f82015261076a90604301610252565b151560000361078c57604051631eee95db60e11b815260040160405180910390fd5b806000036107ad5760405163162908e360e11b815260040160405180910390fd5b60006107b833610c88565b9050806040516107c89190611174565b604051908190038120838252907ff2cef7bfb552886daf5034c34174362dca0ce32c5d844a0d384c2d4c41bd06969060200160405180910390a2816001826040516108139190611174565b90815260200160405180910390205410156108415760405163786e0a9960e01b815260040160405180910390fd5b816001826040516108529190611174565b90815260200160405180910390205461086b91906110f3565b60018260405161087b9190611174565b9081526020016040518091039020819055506000339050806001600160a01b031663ffe09241846040518263ffffffff1660e01b81526004016000604051808303818588803b1580156108cd57600080fd5b505af11580156108e1573d6000803e3d6000fd5b5050505050505050565b60006002600084846040516020016109049291906110a6565b60405160208183030381529060405280519060200120815260200190815260200160002054905092915050565b6040516e636f6e74726163742e65786973747360881b60208201526bffffffffffffffffffffffff193360601b16602f82015261097090604301610252565b151560000361099257604051631eee95db60e11b815260040160405180910390fd5b806000036109b35760405163162908e360e11b815260040160405180910390fd5b6109bc836103ef565b5060006109c833610c88565b836040516020016109da9291906110a6565b60405160208183030381529060405280519060200120905060008484604051602001610a079291906110a6565b604051602081830303815290604052805190602001209050836001600160a01b031681837f14ceb9ca73a323b21a98eb54fef9ac599a10db73fd8e5e608bc754c592d25fcc86604051610a5c91815260200190565b60405180910390a4600082815260026020526040902054610a7e9084906110f3565b600083815260026020526040808220929092558281522054610aa1908490611190565b6000918252600260205260409091205550505050565b80600003610ad85760405163162908e360e11b815260040160405180910390fd5b610ae1836103ef565b5060008383604051602001610af79291906110a6565b604051602081830303815290604052805190602001209050826001600160a01b0316817fc4c24354aa86aa3532ebd9da7ff92230de931c78c77fcdf84544f11bf8fae75384604051610b4b91815260200190565b60405180910390a36040516323b872dd60e01b8152336004820152306024820152604481018390526001600160a01b038416906323b872dd906064016020604051808303816000875af1158015610ba6573d6000803e3d6000fd5b505050506040513d601f19601f82011682018060405250810190610bca9190611106565b610be75760405163022e258160e11b815260040160405180910390fd5b600081815260026020526040902054610c01908390611190565b60009182526002602052604090912055505050565b60008054604051633d70e7e560e11b8152600481018490526101009091046001600160a01b031690637ae1cfca90602401602060405180830381865afa158015610c64573d6000803e3d6000fd5b505050506040513d601f19601f8201168201806040525081019061044a9190611106565b60606000610cf983604051602001610cde91907f636f6e74726163742e6e616d6500000000000000000000000000000000000000815260609190911b6bffffffffffffffffffffffff1916600d82015260210190565b60405160208183030381529060405280519060200120610d8f565b9050805160000361044a57604051633b56498960e21b815260040160405180910390fd5b600080546040516321f8a72160e01b8152600481018490526101009091046001600160a01b0316906321f8a72190602401602060405180830381865afa158015610d6b573d6000803e3d6000fd5b505050506040513d601f19601f8201168201806040525081019061044a91906111a3565b600054604051634c373c8d60e11b81526004810183905260609161010090046001600160a01b03169063986e791a90602401600060405180830381865afa158015610dde573d6000803e3d6000fd5b505050506040513d6000823e601f3d908101601f1916820160405261044a91908101906111c0565b6001600160a01b0381168114610e1b57600080fd5b50565b600080600060608486031215610e3357600080fd5b8335610e3e81610e06565b92506020840135610e4e81610e06565b929592945050506040919091013590565b634e487b7160e01b600052604160045260246000fd5b604051601f8201601f1916810167ffffffffffffffff81118282101715610e9e57610e9e610e5f565b604052919050565b600067ffffffffffffffff821115610ec057610ec0610e5f565b50601f01601f191660200190565b600082601f830112610edf57600080fd5b8135610ef2610eed82610ea6565b610e75565b818152846020838601011115610f0757600080fd5b816020850160208301376000918101602001919091529392505050565b600060208284031215610f3657600080fd5b813567ffffffffffffffff811115610f4d57600080fd5b610f5984828501610ece565b949350505050565b600080600060608486031215610f7657600080fd5b833567ffffffffffffffff80821115610f8e57600080fd5b610f9a87838801610ece565b94506020860135915080821115610fb057600080fd5b50610fbd86828701610ece565b925050604084013590509250925092565b600060208284031215610fe057600080fd5b5035919050565b60008060408385031215610ffa57600080fd5b823567ffffffffffffffff81111561101157600080fd5b61101d85828601610ece565b925050602083013561102e81610e06565b809150509250929050565b60008060006060848603121561104e57600080fd5b833567ffffffffffffffff81111561106557600080fd5b61107186828701610ece565b9350506020840135610e4e81610e06565b60005b8381101561109d578181015183820152602001611085565b50506000910152565b600083516110b8818460208801611082565b60609390931b6bffffffffffffffffffffffff19169190920190815260140192915050565b634e487b7160e01b600052601160045260246000fd5b8181038181111561044a5761044a6110dd565b60006020828403121561111857600080fd5b8151801515811461112857600080fd5b9392505050565b7f636f6e74726163742e6164647265737300000000000000000000000000000000815260008251611167816010850160208701611082565b9190910160100192915050565b60008251611186818460208701611082565b9190910192915050565b8082018082111561044a5761044a6110dd565b6000602082840312156111b557600080fd5b815161112881610e06565b6000602082840312156111d257600080fd5b815167ffffffffffffffff8111156111e957600080fd5b8201601f810184136111fa57600080fd5b8051611208610eed82610ea6565b81815285602083850101111561121d57600080fd5b61122e826020830160208601611082565b9594505050505056fea2646970667358221220670d60cf7e7f90a7b75f9da270210a9e5beb08dc1e9fec3d6760d9f7108c637e64736f6c63430008110033",
  "linkReferences": {},
  "deployedLinkReferences": {}
}