{
  "_format": "hh-sol-artifact-1",
  "contractName": "Vault",
  "sourceName": "contracts/contract/Vault.sol",
  "abi": [
    {
      "inputs": [
        {
          "internalType": "contract Storage",
          "name": "storageAddress",
          "type": "address"
        }
      ],
      "stateMutability": "nonpayable",
      "type": "constructor"
    },
    {
      "inputs": [],
      "name": "ContractPaused",
      "type": "error"
    },
    {
      "inputs": [],
      "name": "InsufficientContractBalance",
      "type": "error"
    },
    {
      "inputs": [],
      "name": "InvalidAmount",
      "type": "error"
    },
    {
      "inputs": [],
      "name": "InvalidNetworkContract",
      "type": "error"
    },
    {
      "inputs": [],
      "name": "InvalidOrOutdatedContract",
      "type": "error"
    },
    {
      "inputs": [],
      "name": "MustBeGuardian",
      "type": "error"
    },
    {
      "inputs": [],
      "name": "MustBeMultisig",
      "type": "error"
    },
    {
      "inputs": [],
      "name": "TokenTransferFailed",
      "type": "error"
    },
    {
      "inputs": [],
      "name": "VaultTokenWithdrawalFailed",
      "type": "error"
    },
    {
      "anonymous": false,
      "inputs": [
        {
          "indexed": true,
          "internalType": "string",
          "name": "by",
          "type": "string"
        },
        {
          "indexed": false,
          "internalType": "uint256",
          "name": "amount",
          "type": "uint256"
        }
      ],
      "name": "AVAXDeposited",
      "type": "event"
    },
    {
      "anonymous": false,
      "inputs": [
        {
          "indexed": true,
          "internalType": "string",
          "name": "from",
          "type": "string"
        },
        {
          "indexed": true,
          "internalType": "string",
          "name": "to",
          "type": "string"
        },
        {
          "indexed": false,
          "internalType": "uint256",
          "name": "amount",
          "type": "uint256"
        }
      ],
      "name": "AVAXTransfer",
      "type": "event"
    },
    {
      "anonymous": false,
      "inputs": [
        {
          "indexed": true,
          "internalType": "string",
          "name": "by",
          "type": "string"
        },
        {
          "indexed": false,
          "internalType": "uint256",
          "name": "amount",
          "type": "uint256"
        }
      ],
      "name": "AVAXWithdrawn",
      "type": "event"
    },
    {
      "anonymous": false,
      "inputs": [
        {
          "indexed": true,
          "internalType": "bytes32",
          "name": "by",
          "type": "bytes32"
        },
        {
          "indexed": true,
          "internalType": "address",
          "name": "tokenAddress",
          "type": "address"
        },
        {
          "indexed": false,
          "internalType": "uint256",
          "name": "amount",
          "type": "uint256"
        }
      ],
      "name": "TokenBurned",
      "type": "event"
    },
    {
      "anonymous": false,
      "inputs": [
        {
          "indexed": true,
          "internalType": "bytes32",
          "name": "by",
          "type": "bytes32"
        },
        {
          "indexed": true,
          "internalType": "address",
          "name": "tokenAddress",
          "type": "address"
        },
        {
          "indexed": false,
          "internalType": "uint256",
          "name": "amount",
          "type": "uint256"
        }
      ],
      "name": "TokenDeposited",
      "type": "event"
    },
    {
      "anonymous": false,
      "inputs": [
        {
          "indexed": true,
          "internalType": "bytes32",
          "name": "by",
          "type": "bytes32"
        },
        {
          "indexed": true,
          "internalType": "bytes32",
          "name": "to",
          "type": "bytes32"
        },
        {
          "indexed": true,
          "internalType": "address",
          "name": "tokenAddress",
          "type": "address"
        },
        {
          "indexed": false,
          "internalType": "uint256",
          "name": "amount",
          "type": "uint256"
        }
      ],
      "name": "TokenTransfer",
      "type": "event"
    },
    {
      "anonymous": false,
      "inputs": [
        {
          "indexed": true,
          "internalType": "bytes32",
          "name": "by",
          "type": "bytes32"
        },
        {
          "indexed": true,
          "internalType": "address",
          "name": "tokenAddress",
          "type": "address"
        },
        {
          "indexed": false,
          "internalType": "uint256",
          "name": "amount",
          "type": "uint256"
        }
      ],
      "name": "TokenWithdrawn",
      "type": "event"
    },
    {
      "inputs": [
        {
          "internalType": "string",
          "name": "_networkContractName",
          "type": "string"
        }
      ],
      "name": "balanceOf",
      "outputs": [
        {
          "internalType": "uint256",
          "name": "",
          "type": "uint256"
        }
      ],
      "stateMutability": "view",
      "type": "function"
    },
    {
      "inputs": [
        {
          "internalType": "string",
          "name": "_networkContractName",
          "type": "string"
        },
        {
          "internalType": "contract ERC20",
          "name": "_tokenAddress",
          "type": "address"
        }
      ],
      "name": "balanceOfToken",
      "outputs": [
        {
          "internalType": "uint256",
          "name": "",
          "type": "uint256"
        }
      ],
      "stateMutability": "view",
      "type": "function"
    },
    {
      "inputs": [
        {
          "internalType": "contract ERC20Burnable",
          "name": "_tokenAddress",
          "type": "address"
        },
        {
          "internalType": "uint256",
          "name": "_amount",
          "type": "uint256"
        }
      ],
      "name": "burnToken",
      "outputs": [],
      "stateMutability": "nonpayable",
      "type": "function"
    },
    {
      "inputs": [],
      "name": "depositAVAX",
      "outputs": [],
      "stateMutability": "payable",
      "type": "function"
    },
    {
      "inputs": [
        {
          "internalType": "string",
          "name": "_networkContractName",
          "type": "string"
        },
        {
          "internalType": "contract ERC20",
          "name": "_tokenContract",
          "type": "address"
        },
        {
          "internalType": "uint256",
          "name": "_amount",
          "type": "uint256"
        }
      ],
      "name": "depositToken",
      "outputs": [],
      "stateMutability": "nonpayable",
      "type": "function"
    },
    {
      "inputs": [
        {
          "internalType": "string",
          "name": "_contractName",
          "type": "string"
        }
      ],
      "name": "getContractAddress",
      "outputs": [
        {
          "internalType": "address",
          "name": "",
          "type": "address"
        }
      ],
      "stateMutability": "view",
      "type": "function"
    },
    {
      "inputs": [
        {
          "internalType": "string",
          "name": "fromContractName",
          "type": "string"
        },
        {
          "internalType": "string",
          "name": "toContractName",
          "type": "string"
        },
        {
          "internalType": "uint256",
          "name": "amount",
          "type": "uint256"
        }
      ],
      "name": "transferAVAX",
      "outputs": [],
      "stateMutability": "nonpayable",
      "type": "function"
    },
    {
      "inputs": [
        {
          "internalType": "string",
          "name": "_networkContractName",
          "type": "string"
        },
        {
          "internalType": "contract ERC20",
          "name": "_tokenAddress",
          "type": "address"
        },
        {
          "internalType": "uint256",
          "name": "_amount",
          "type": "uint256"
        }
      ],
      "name": "transferToken",
      "outputs": [],
      "stateMutability": "nonpayable",
      "type": "function"
    },
    {
      "inputs": [],
      "name": "version",
      "outputs": [
        {
          "internalType": "uint8",
          "name": "",
          "type": "uint8"
        }
      ],
      "stateMutability": "view",
      "type": "function"
    },
    {
      "inputs": [
        {
          "internalType": "uint256",
          "name": "amount",
          "type": "uint256"
        }
      ],
      "name": "withdrawAVAX",
      "outputs": [],
      "stateMutability": "nonpayable",
      "type": "function"
    },
    {
      "inputs": [
        {
          "internalType": "address",
          "name": "_withdrawalAddress",
          "type": "address"
        },
        {
          "internalType": "contract ERC20",
          "name": "_tokenAddress",
          "type": "address"
        },
        {
          "internalType": "uint256",
          "name": "_amount",
          "type": "uint256"
        }
      ],
      "name": "withdrawToken",
      "outputs": [],
      "stateMutability": "nonpayable",
      "type": "function"
    }
  ],
  "bytecode": "0x608060405234801561001057600080fd5b506040516114bc3803806114bc83398101604081905261002f91610063565b6000805460ff196001600160a01b0390931661010002929092166001600160a81b0319909216919091176001179055610093565b60006020828403121561007557600080fd5b81516001600160a01b038116811461008c57600080fd5b9392505050565b61141a806100a26000396000f3fe60806040526004361061009c5760003560e01c8063a0d065c311610064578063a0d065c31461017a578063aeb5cd5e14610182578063d1df306c146101a2578063eccefff6146101c2578063ee91035e146101e2578063f44429581461020257600080fd5b806301e33667146100a157806304433bbc146100c357806335ee5f871461010057806354fd4d501461012e5780635621b9001461015a575b600080fd5b3480156100ad57600080fd5b506100c16100bc366004610f6c565b610222565b005b3480156100cf57600080fd5b506100e36100de366004611072565b6103d4565b6040516001600160a01b0390911681526020015b60405180910390f35b34801561010c57600080fd5b5061012061011b366004611072565b61045e565b6040519081526020016100f7565b34801561013a57600080fd5b506000546101489060ff1681565b60405160ff90911681526020016100f7565b34801561016657600080fd5b506100c16101753660046110af565b610486565b6100c161063a565b34801561018e57600080fd5b506100c161019d36600461111c565b610733565b3480156101ae57600080fd5b506100c16101bd366004611135565b6108c8565b3480156101ce57600080fd5b506101206101dd366004611161565b610a06565b3480156101ee57600080fd5b506100c16101fd3660046111b3565b610a4c565b34801561020e57600080fd5b506100c161021d3660046111b3565b610bd8565b6102513360405160200161023691906111fc565b60405160208183030381529060405280519060200120610d55565b151560000361027357604051631eee95db60e11b815260040160405180910390fd5b806000036102945760405163162908e360e11b815260040160405180910390fd5b600061029f33610dc7565b836040516020016102b192919061125c565b60408051601f198184030181529181528151602092830120600081815260029093529120549091506102e49083906112a4565b60008281526002602052604090819020919091555163a9059cbb60e01b81526001600160a01b0385811660048301526024820184905284919082169063a9059cbb906044016020604051808303816000875af1158015610348573d6000803e3d6000fd5b505050506040513d601f19601f8201168201806040525081019061036c91906112bb565b61038957604051630c80f22560e41b815260040160405180910390fd5b836001600160a01b0316827fbec978daaa5ec28b138a0488789dd7e4c8753463019aa5b321e334d958b64517856040516103c591815260200190565b60405180910390a35050505050565b600080610406836040516020016103eb91906112e4565b60405160208183030381529060405280519060200120610e6b565b90506001600160a01b0381166104585760405162461bcd60e51b815260206004820152601260248201527110dbdb9d1c9858dd081b9bdd08199bdd5b9960721b60448201526064015b60405180910390fd5b92915050565b6000600182604051610470919061131c565b9081526020016040518091039020549050919050565b61049a3360405160200161023691906111fc565b15156000036104bc57604051631eee95db60e11b815260040160405180910390fd5b806000036104dd5760405163162908e360e11b815260040160405180910390fd5b60006104e8846103d4565b6001600160a01b03160361050f576040516325a2b7eb60e01b815260040160405180910390fd5b600061051a836103d4565b6001600160a01b031603610541576040516325a2b7eb60e01b815260040160405180910390fd5b80600184604051610552919061131c565b90815260200160405180910390205461056b91906112a4565b60018460405161057b919061131c565b9081526020016040518091039020819055508060018360405161059e919061131c565b9081526020016040518091039020546105b79190611338565b6001836040516105c7919061131c565b908152604051908190036020018120919091556105e590839061131c565b6040518091039020836040516105fb919061131c565b604051908190038120838252907f153f2294f80110ef683b3018bb0811606615f258387bb4148c3a954523cf57ea9060200160405180910390a3505050565b61064e3360405160200161023691906111fc565b151560000361067057604051631eee95db60e11b815260040160405180910390fd5b346000036106915760405163162908e360e11b815260040160405180910390fd5b600061069c33610dc7565b9050346001826040516106af919061131c565b9081526020016040518091039020546106c89190611338565b6001826040516106d8919061131c565b908152604051908190036020018120919091556106f690829061131c565b604051908190038120348252907fd4502e0d4f9dc8fb9302d686a2b2bff55a6ed89cc5549f55b64490dff5d3e5599060200160405180910390a250565b6107473360405160200161023691906111fc565b151560000361076957604051631eee95db60e11b815260040160405180910390fd5b8060000361078a5760405163162908e360e11b815260040160405180910390fd5b600061079533610dc7565b9050816001826040516107a8919061131c565b90815260200160405180910390205410156107d65760405163786e0a9960e01b815260040160405180910390fd5b816001826040516107e7919061131c565b90815260200160405180910390205461080091906112a4565b600182604051610810919061131c565b9081526020016040518091039020819055506000339050806001600160a01b031663ffe09241846040518263ffffffff1660e01b81526004016000604051808303818588803b15801561086257600080fd5b505af1158015610876573d6000803e3d6000fd5b505050505081604051610889919061131c565b604051908190038120848252907ff2cef7bfb552886daf5034c34174362dca0ce32c5d844a0d384c2d4c41bd06969060200160405180910390a2505050565b6108dc3360405160200161023691906111fc565b15156000036108fe57604051631eee95db60e11b815260040160405180910390fd5b600061090933610dc7565b8360405160200161091b92919061125c565b60408051601f1981840301815291815281516020928301206000818152600290935291205490915061094e9083906112a4565b600082815260026020526040908190209190915551630852cd8d60e31b81526004810183905283906001600160a01b038216906342966c6890602401600060405180830381600087803b1580156109a457600080fd5b505af11580156109b8573d6000803e3d6000fd5b50505050836001600160a01b0316827fbd2920fafa8424c48832bc0dcc6f9e269baf744c6ac125759976fe80d66ca53c856040516109f891815260200190565b60405180910390a350505050565b6000600260008484604051602001610a1f92919061125c565b60405160208183030381529060405280519060200120815260200190815260200160002054905092915050565b610a603360405160200161023691906111fc565b1515600003610a8257604051631eee95db60e11b815260040160405180910390fd5b80600003610aa35760405163162908e360e11b815260040160405180910390fd5b6000610aae846103d4565b6001600160a01b031603610ad5576040516325a2b7eb60e01b815260040160405180910390fd5b6000610ae033610dc7565b83604051602001610af292919061125c565b60405160208183030381529060405280519060200120905060008484604051602001610b1f92919061125c565b60408051601f19818403018152918152815160209283012060008581526002909352912054909150610b529084906112a4565b600083815260026020526040808220929092558281522054610b75908490611338565b6002600083815260200190815260200160002081905550836001600160a01b031681837f14ceb9ca73a323b21a98eb54fef9ac599a10db73fd8e5e608bc754c592d25fcc86604051610bc991815260200190565b60405180910390a45050505050565b80600003610bf95760405163162908e360e11b815260040160405180910390fd5b6000610c04846103d4565b6001600160a01b031603610c2b576040516325a2b7eb60e01b815260040160405180910390fd5b60008383604051602001610c4092919061125c565b60408051808303601f190181529082905280516020909101206323b872dd60e01b82523360048301523060248301526044820184905291506001600160a01b038416906323b872dd906064016020604051808303816000875af1158015610cab573d6000803e3d6000fd5b505050506040513d601f19601f82011682018060405250810190610ccf91906112bb565b610cec5760405163022e258160e11b815260040160405180910390fd5b600081815260026020526040902054610d06908390611338565b60008281526002602090815260409182902092909255518381526001600160a01b0385169183917fc4c24354aa86aa3532ebd9da7ff92230de931c78c77fcdf84544f11bf8fae75391016109f8565b60008054604051633d70e7e560e11b8152600481018490526101009091046001600160a01b031690637ae1cfca90602401602060405180830381865afa158015610da3573d6000803e3d6000fd5b505050506040513d601f19601f8201168201806040525081019061045891906112bb565b60606000610e2383604051602001610e0891906c636f6e74726163742e6e616d6560981b815260609190911b6001600160601b031916600d82015260210190565b60405160208183030381529060405280519060200120610edd565b905060008151116104585760405162461bcd60e51b815260206004820152601260248201527110dbdb9d1c9858dd081b9bdd08199bdd5b9960721b604482015260640161044f565b600080546040516321f8a72160e01b8152600481018490526101009091046001600160a01b0316906321f8a72190602401602060405180830381865afa158015610eb9573d6000803e3d6000fd5b505050506040513d601f19601f820116820180604052508101906104589190611350565b600054604051634c373c8d60e11b81526004810183905260609161010090046001600160a01b03169063986e791a90602401600060405180830381865afa158015610f2c573d6000803e3d6000fd5b505050506040513d6000823e601f3d908101601f19168201604052610458919081019061136d565b6001600160a01b0381168114610f6957600080fd5b50565b600080600060608486031215610f8157600080fd5b8335610f8c81610f54565b92506020840135610f9c81610f54565b929592945050506040919091013590565b634e487b7160e01b600052604160045260246000fd5b604051601f8201601f1916810167ffffffffffffffff81118282101715610fec57610fec610fad565b604052919050565b600067ffffffffffffffff82111561100e5761100e610fad565b50601f01601f191660200190565b600082601f83011261102d57600080fd5b813561104061103b82610ff4565b610fc3565b81815284602083860101111561105557600080fd5b816020850160208301376000918101602001919091529392505050565b60006020828403121561108457600080fd5b813567ffffffffffffffff81111561109b57600080fd5b6110a78482850161101c565b949350505050565b6000806000606084860312156110c457600080fd5b833567ffffffffffffffff808211156110dc57600080fd5b6110e88783880161101c565b945060208601359150808211156110fe57600080fd5b5061110b8682870161101c565b925050604084013590509250925092565b60006020828403121561112e57600080fd5b5035919050565b6000806040838503121561114857600080fd5b823561115381610f54565b946020939093013593505050565b6000806040838503121561117457600080fd5b823567ffffffffffffffff81111561118b57600080fd5b6111978582860161101c565b92505060208301356111a881610f54565b809150509250929050565b6000806000606084860312156111c857600080fd5b833567ffffffffffffffff8111156111df57600080fd5b6111eb8682870161101c565b9350506020840135610f9c81610f54565b6e636f6e74726163742e65786973747360881b815260609190911b6001600160601b031916600f82015260230190565b60005b8381101561124757818101518382015260200161122f565b83811115611256576000848401525b50505050565b6000835161126e81846020880161122c565b60609390931b6001600160601b0319169190920190815260140192915050565b634e487b7160e01b600052601160045260246000fd5b6000828210156112b6576112b661128e565b500390565b6000602082840312156112cd57600080fd5b815180151581146112dd57600080fd5b9392505050565b6f636f6e74726163742e6164647265737360801b81526000825161130f81601085016020870161122c565b9190910160100192915050565b6000825161132e81846020870161122c565b9190910192915050565b6000821982111561134b5761134b61128e565b500190565b60006020828403121561136257600080fd5b81516112dd81610f54565b60006020828403121561137f57600080fd5b815167ffffffffffffffff81111561139657600080fd5b8201601f810184136113a757600080fd5b80516113b561103b82610ff4565b8181528560208385010111156113ca57600080fd5b6113db82602083016020860161122c565b9594505050505056fea2646970667358221220e3e4cfa83ae24badb41f08d2034ab205163f6aca383506bab63817804fb2412464736f6c634300080d0033",
  "linkReferences": {},
  "deployedLinkReferences": {}
}