{
  "_format": "hh-sol-artifact-1",
  "contractName": "ProtocolDAO",
  "sourceName": "contracts/contract/ProtocolDAO.sol",
  "abi": [
    {
      "inputs": [
        {
          "internalType": "contract Storage",
          "name": "storageAddress",
          "type": "address"
        }
      ],
      "stateMutability": "nonpayable",
      "type": "constructor"
    },
    {
      "inputs": [],
      "name": "ContractNotFound",
      "type": "error"
    },
    {
      "inputs": [],
      "name": "ContractPaused",
      "type": "error"
    },
    {
      "inputs": [],
      "name": "InvalidOrOutdatedContract",
      "type": "error"
    },
    {
      "inputs": [],
      "name": "MustBeGuardian",
      "type": "error"
    },
    {
      "inputs": [],
      "name": "MustBeGuardianOrValidContract",
      "type": "error"
    },
    {
      "inputs": [],
      "name": "MustBeMultisig",
      "type": "error"
    },
    {
      "inputs": [],
      "name": "NotDAOMember",
      "type": "error"
    },
    {
      "inputs": [
        {
          "internalType": "string",
          "name": "claimingContract",
          "type": "string"
        }
      ],
      "name": "getClaimingContractPct",
      "outputs": [
        {
          "internalType": "uint256",
          "name": "",
          "type": "uint256"
        }
      ],
      "stateMutability": "view",
      "type": "function"
    },
    {
      "inputs": [
        {
          "internalType": "string",
          "name": "contractName",
          "type": "string"
        }
      ],
      "name": "getContractAddress",
      "outputs": [
        {
          "internalType": "address",
          "name": "",
          "type": "address"
        }
      ],
      "stateMutability": "view",
      "type": "function"
    },
    {
      "inputs": [
        {
          "internalType": "string",
          "name": "contractName",
          "type": "string"
        }
      ],
      "name": "getContractPaused",
      "outputs": [
        {
          "internalType": "bool",
          "name": "",
          "type": "bool"
        }
      ],
      "stateMutability": "view",
      "type": "function"
    },
    {
      "inputs": [],
      "name": "getExpectedAVAXRewardsRate",
      "outputs": [
        {
          "internalType": "uint256",
          "name": "",
          "type": "uint256"
        }
      ],
      "stateMutability": "view",
      "type": "function"
    },
    {
      "inputs": [],
      "name": "getInflationIntervalRate",
      "outputs": [
        {
          "internalType": "uint256",
          "name": "",
          "type": "uint256"
        }
      ],
      "stateMutability": "view",
      "type": "function"
    },
    {
      "inputs": [],
      "name": "getInflationIntervalSeconds",
      "outputs": [
        {
          "internalType": "uint256",
          "name": "",
          "type": "uint256"
        }
      ],
      "stateMutability": "view",
      "type": "function"
    },
    {
      "inputs": [],
      "name": "getInflationIntervalStartTime",
      "outputs": [
        {
          "internalType": "uint256",
          "name": "",
          "type": "uint256"
        }
      ],
      "stateMutability": "view",
      "type": "function"
    },
    {
      "inputs": [],
      "name": "getMaxCollateralizationRatio",
      "outputs": [
        {
          "internalType": "uint256",
          "name": "",
          "type": "uint256"
        }
      ],
      "stateMutability": "view",
      "type": "function"
    },
    {
      "inputs": [],
      "name": "getMinCollateralizationRatio",
      "outputs": [
        {
          "internalType": "uint256",
          "name": "",
          "type": "uint256"
        }
      ],
      "stateMutability": "view",
      "type": "function"
    },
    {
      "inputs": [],
      "name": "getMinipoolMaxAVAXAssignment",
      "outputs": [
        {
          "internalType": "uint256",
          "name": "",
          "type": "uint256"
        }
      ],
      "stateMutability": "view",
      "type": "function"
    },
    {
      "inputs": [],
      "name": "getMinipoolMinAVAXAssignment",
      "outputs": [
        {
          "internalType": "uint256",
          "name": "",
          "type": "uint256"
        }
      ],
      "stateMutability": "view",
      "type": "function"
    },
    {
      "inputs": [],
      "name": "getMinipoolMinStakingAmount",
      "outputs": [
        {
          "internalType": "uint256",
          "name": "",
          "type": "uint256"
        }
      ],
      "stateMutability": "view",
      "type": "function"
    },
    {
      "inputs": [],
      "name": "getMinipoolNodeCommissionFeePct",
      "outputs": [
        {
          "internalType": "uint256",
          "name": "",
          "type": "uint256"
        }
      ],
      "stateMutability": "view",
      "type": "function"
    },
    {
      "inputs": [],
      "name": "getRewardsCycleSeconds",
      "outputs": [
        {
          "internalType": "uint256",
          "name": "",
          "type": "uint256"
        }
      ],
      "stateMutability": "view",
      "type": "function"
    },
    {
      "inputs": [],
      "name": "getRewardsEligibilityMinSeconds",
      "outputs": [
        {
          "internalType": "uint256",
          "name": "",
          "type": "uint256"
        }
      ],
      "stateMutability": "view",
      "type": "function"
    },
    {
      "inputs": [],
      "name": "getTargetGGAVAXReserveRate",
      "outputs": [
        {
          "internalType": "uint256",
          "name": "",
          "type": "uint256"
        }
      ],
      "stateMutability": "view",
      "type": "function"
    },
    {
      "inputs": [],
      "name": "getTotalGGPCirculatingSupply",
      "outputs": [
        {
          "internalType": "uint256",
          "name": "",
          "type": "uint256"
        }
      ],
      "stateMutability": "view",
      "type": "function"
    },
    {
      "inputs": [],
      "name": "initialize",
      "outputs": [],
      "stateMutability": "nonpayable",
      "type": "function"
    },
    {
      "inputs": [
        {
          "internalType": "string",
          "name": "contractName",
          "type": "string"
        }
      ],
      "name": "pauseContract",
      "outputs": [],
      "stateMutability": "nonpayable",
      "type": "function"
    },
    {
      "inputs": [
        {
          "internalType": "string",
          "name": "contractName",
          "type": "string"
        }
      ],
      "name": "resumeContract",
      "outputs": [],
      "stateMutability": "nonpayable",
      "type": "function"
    },
    {
      "inputs": [
        {
          "internalType": "string",
          "name": "claimingContract",
          "type": "string"
        },
        {
          "internalType": "uint256",
          "name": "decimal",
          "type": "uint256"
        }
      ],
      "name": "setClaimingContractPct",
      "outputs": [],
      "stateMutability": "nonpayable",
      "type": "function"
    },
    {
      "inputs": [
        {
          "internalType": "uint256",
          "name": "rate",
          "type": "uint256"
        }
      ],
      "name": "setExpectedAVAXRewardsRate",
      "outputs": [],
      "stateMutability": "nonpayable",
      "type": "function"
    },
    {
      "inputs": [
        {
          "internalType": "uint256",
          "name": "amount",
          "type": "uint256"
        }
      ],
      "name": "setTotalGGPCirculatingSupply",
      "outputs": [],
      "stateMutability": "nonpayable",
      "type": "function"
    },
    {
      "inputs": [],
      "name": "version",
      "outputs": [
        {
          "internalType": "uint8",
          "name": "",
          "type": "uint8"
        }
      ],
      "stateMutability": "view",
      "type": "function"
    }
  ],
  "bytecode": "0x608060405234801561001057600080fd5b506040516111cb3803806111cb83398101604081905261002f91610063565b6000805460ff196001600160a01b0390931661010002929092166001600160a81b0319909216919091176001179055610093565b60006020828403121561007557600080fd5b81516001600160a01b038116811461008c57600080fd5b9392505050565b611129806100a26000396000f3fe608060405234801561001057600080fd5b50600436106101985760003560e01c80635f057008116100e3578063b57cc6e31161008c578063ea2a184711610066578063ea2a1847146102e6578063ee96d774146102ee578063f8cafbed146102f657600080fd5b8063b57cc6e3146102ce578063b7b1ea34146102d6578063cddf37d7146102de57600080fd5b8063780ba786116100bd578063780ba786146102b65780638129fc1c146102be57806382b33dab146102c657600080fd5b80635f05700814610293578063672cb02e1461029b57806370b2ecc9146102ae57600080fd5b8063305f55221161014557806354fd4d501161011f57806354fd4d50146102595780635ad174eb146102785780635b706f761461028057600080fd5b8063305f55221461021e578063312fb2be1461023357806333ad94da1461024657600080fd5b8063156128cc11610176578063156128cc146101eb5780632a90c63a1461020e5780632ffc52ee1461021657600080fd5b806304433bbc1461019d5780630534f6db146101cd5780630ef7bfe4146101e3575b600080fd5b6101b06101ab366004610f27565b610309565b6040516001600160a01b0390911681526020015b60405180910390f35b6101d561036a565b6040519081526020016101c4565b6101d561039a565b6101fe6101f9366004610f27565b6103c5565b60405190151581526020016101c4565b6101d56103f6565b6101d5610421565b61023161022c366004610f64565b61044c565b005b610231610241366004610f27565b610479565b610231610254366004610f64565b6104aa565b6000546102669060ff1681565b60405160ff90911681526020016101c4565b6101d5610555565b61023161028e366004610f7d565b610580565b6101d561065c565b6102316102a9366004610f27565b610687565b6101d56106b8565b6101d56106e3565b61023161070e565b6101d5610b28565b6101d5610b53565b6101d5610b7e565b6101d5610ba9565b6101d5610bd4565b6101d5610bff565b6101d5610304366004610f27565b610c52565b60008061033b836040516020016103209190610ff2565b60405160208183030381529060405280519060200120610c83565b90506001600160a01b03811661036457604051633b56498960e21b815260040160405180910390fd5b92915050565b60006103957f01236ec9157e563b4ef0fe8db9f5e64a9b22a7207db7b2bc5f5892cb0298bdbd610cf5565b905090565b60006103957f0dc867b271887c7eec3f5402333408fc3011cdef36536b1a408d1c1f56f542cb610cf5565b6000610364826040516020016103db919061102b565b60405160208183030381529060405280519060200120610d67565b60006103957f7b35b60bd916e534855f85c33202afb264eb58a7ef781e4445a9386a5fbae403610cf5565b60006103957f5ef3341cc2345d159d7a9d36448810b18db2982a355f0fc8ce3f89293ca24930610cf5565b6104767f044038e4c14c368a776f2e68e7e1309212406a8a8a21d869cebd3f334236e34f82610dd9565b50565b6104768160405160200161048d919061102b565b604051602081830303815290604052805190602001206000610e47565b6040518060400160405280600b81526020017f52657761726473506f6f6c000000000000000000000000000000000000000000815250336104f5826040516020016103209190610ff2565b6001600160a01b0316816001600160a01b03161461052657604051631eee95db60e11b815260040160405180910390fd5b6105507f5ef3341cc2345d159d7a9d36448810b18db2982a355f0fc8ce3f89293ca2493084610dd9565b505050565b60006103957fe9c3e5798c6fb1f1728bab98d1c9abeede6f973ad6e8e875a1111762d5f77fc8610cf5565b600060019054906101000a90046001600160a01b03166001600160a01b031663a75b87d26040518163ffffffff1660e01b8152600401602060405180830381865afa1580156105d3573d6000803e3d6000fd5b505050506040513d601f19601f820116820180604052508101906105f7919061105d565b6001600160a01b0316336001600160a01b031614610628576040516301b4790360e31b815260040160405180910390fd5b6106588260405160200161063c9190611086565b6040516020818303038152906040528051906020012082610dd9565b5050565b60006103957f08345aa342b4dfe3b2e6599d5fd542b0dceeed01f13af576ebe8d826ce9e4aff610cf5565b6104768160405160200161069b919061102b565b604051602081830303815290604052805190602001206001610e47565b60006103957f36abfca3397228bb7045d980d82b75762d05263fcc19a5bc66377d6d6b07bbe7610cf5565b60006103957f961b8a5046753060bfd1842ea297c2da690c100c70ba04776b3b30f388918400610cf5565b600060019054906101000a90046001600160a01b03166001600160a01b031663a75b87d26040518163ffffffff1660e01b8152600401602060405180830381865afa158015610761573d6000803e3d6000fd5b505050506040513d601f19601f82011682018060405250810190610785919061105d565b6001600160a01b0316336001600160a01b0316146107b6576040516301b4790360e31b815260040160405180910390fd5b6107df7f78f2ecffe9bb4692db9798f12147e9ee8cfb749c8e687564ded6c82c2effad8c610d67565b610b265761080e7f78f2ecffe9bb4692db9798f12147e9ee8cfb749c8e687564ded6c82c2effad8c6001610e47565b61083b7f36abfca3397228bb7045d980d82b75762d05263fcc19a5bc66377d6d6b07bbe762127500610dd9565b6108687fa79ae78ddc74ee02a9783dee66b773b0bd867d7ec505bf0884223ab26599b31b6224ea00610dd9565b61089d7f5ef3341cc2345d159d7a9d36448810b18db2982a355f0fc8ce3f89293ca249306a0ee3a5f48a68b552000000610dd9565b6108cf7f67fc706363d162ae6776f19f390e869b62a078865d221d1ad8cc6130cdaaa18067016345785d8a0000610dd9565b6109017fb398169ab69ae04e0901655387a411fcceea112138bd06777cfe010d591f5be16709b6e64a8ec60000610dd9565b6109337fb1dd7f0643f55666c659bede205233955190bd8475be00f7bc3ae1a1de66d0216702c68af0bb140000610dd9565b6109607f13a3ac49dc96021c96b7aad3b32ec1ee330a14104d073730acf9f36d8831c36b62015180610dd9565b6109927fd3186c81e428ab275d82b574c58975f2fd5add6555288c34ffa67511f269375d670de130489916479c610dd9565b6109c47fe9c3e5798c6fb1f1728bab98d1c9abeede6f973ad6e8e875a1111762d5f77fc867016345785d8a0000610dd9565b6109f77fa7093f3e7e6dea8a94e860ac17e2e84dfd781be9e0dc85cd1d9bdb7388edaffb686c6b935b8bbd400000610dd9565b610a297fce0f77cf5fa8354e652a3184449d509e226fc06bbf19cfc9fb20c8cf4d4ade4d670214e8348c4f0000610dd9565b610a5d7f08345aa342b4dfe3b2e6599d5fd542b0dceeed01f13af576ebe8d826ce9e4aff69021e19e0c9bab2400000610dd9565b610a907f0dc867b271887c7eec3f5402333408fc3011cdef36536b1a408d1c1f56f542cb683635c9adc5dea00000610dd9565b610ac27f044038e4c14c368a776f2e68e7e1309212406a8a8a21d869cebd3f334236e34f67016345785d8a0000610dd9565b610af47f961b8a5046753060bfd1842ea297c2da690c100c70ba04776b3b30f3889184006714d1120d7b160000610dd9565b610b267f7b35b60bd916e534855f85c33202afb264eb58a7ef781e4445a9386a5fbae40367016345785d8a0000610dd9565b565b60006103957fce0f77cf5fa8354e652a3184449d509e226fc06bbf19cfc9fb20c8cf4d4ade4d610cf5565b60006103957f044038e4c14c368a776f2e68e7e1309212406a8a8a21d869cebd3f334236e34f610cf5565b60006103957f13a3ac49dc96021c96b7aad3b32ec1ee330a14104d073730acf9f36d8831c36b610cf5565b60006103957fa7093f3e7e6dea8a94e860ac17e2e84dfd781be9e0dc85cd1d9bdb7388edaffb610cf5565b60006103957fa79ae78ddc74ee02a9783dee66b773b0bd867d7ec505bf0884223ab26599b31b610cf5565b600080610c2b7fd3186c81e428ab275d82b574c58975f2fd5add6555288c34ffa67511f269375d610cf5565b9050670de0b6b3a76400008110610c425780610c4c565b670de0b6b3a76400005b91505090565b600061036482604051602001610c689190611086565b60405160208183030381529060405280519060200120610cf5565b600080546040516321f8a72160e01b8152600481018490526101009091046001600160a01b0316906321f8a72190602401602060405180830381865afa158015610cd1573d6000803e3d6000fd5b505050506040513d601f19601f82011682018060405250810190610364919061105d565b6000805460405163bd02d0f560e01b8152600481018490526101009091046001600160a01b03169063bd02d0f590602401602060405180830381865afa158015610d43573d6000803e3d6000fd5b505050506040513d601f19601f8201168201806040525081019061036491906110b8565b60008054604051633d70e7e560e11b8152600481018490526101009091046001600160a01b031690637ae1cfca90602401602060405180830381865afa158015610db5573d6000803e3d6000fd5b505050506040513d601f19601f8201168201806040525081019061036491906110d1565b600054604051637152429d60e11b815260048101849052602481018390526101009091046001600160a01b03169063e2a4853a906044015b600060405180830381600087803b158015610e2b57600080fd5b505af1158015610e3f573d6000803e3d6000fd5b505050505050565b60005460405163abfdcced60e01b81526004810184905282151560248201526101009091046001600160a01b03169063abfdcced90604401610e11565b634e487b7160e01b600052604160045260246000fd5b600082601f830112610eab57600080fd5b813567ffffffffffffffff80821115610ec657610ec6610e84565b604051601f8301601f19908116603f01168101908282118183101715610eee57610eee610e84565b81604052838152866020858801011115610f0757600080fd5b836020870160208301376000602085830101528094505050505092915050565b600060208284031215610f3957600080fd5b813567ffffffffffffffff811115610f5057600080fd5b610f5c84828501610e9a565b949350505050565b600060208284031215610f7657600080fd5b5035919050565b60008060408385031215610f9057600080fd5b823567ffffffffffffffff811115610fa757600080fd5b610fb385828601610e9a565b95602094909401359450505050565b6000815160005b81811015610fe35760208185018101518683015201610fc9565b50600093019283525090919050565b7f636f6e74726163742e6164647265737300000000000000000000000000000000815260006110246010830184610fc2565b9392505050565b7f636f6e74726163742e706175736564000000000000000000000000000000000081526000611024600f830184610fc2565b60006020828403121561106f57600080fd5b81516001600160a01b038116811461102457600080fd5b7f50726f746f636f6c44414f2e436c61696d696e67436f6e74726163745063742e815260006110246020830184610fc2565b6000602082840312156110ca57600080fd5b5051919050565b6000602082840312156110e357600080fd5b8151801515811461102457600080fdfea264697066735822122074478b4ba7f866b4e7d3b8d4c455acb06a71a73e6d27b921f4ca613bc662a73664736f6c63430008110033",
  "linkReferences": {},
  "deployedLinkReferences": {}
}