{
  "_format": "hh-sol-artifact-1",
  "contractName": "ProtocolDAO",
  "sourceName": "contracts/contract/dao/ProtocolDAO.sol",
  "abi": [
    {
      "inputs": [
        {
          "internalType": "contract Storage",
          "name": "storageAddress",
          "type": "address"
        }
      ],
      "stateMutability": "nonpayable",
      "type": "constructor"
    },
    {
      "inputs": [
        {
          "internalType": "string",
          "name": "_claimingContract",
          "type": "string"
        }
      ],
      "name": "getClaimingContractPerc",
      "outputs": [
        {
          "internalType": "uint256",
          "name": "",
          "type": "uint256"
        }
      ],
      "stateMutability": "view",
      "type": "function"
    },
    {
      "inputs": [
        {
          "internalType": "string",
          "name": "_contractName",
          "type": "string"
        }
      ],
      "name": "getContractAddress",
      "outputs": [
        {
          "internalType": "address",
          "name": "",
          "type": "address"
        }
      ],
      "stateMutability": "view",
      "type": "function"
    },
    {
      "inputs": [
        {
          "internalType": "string",
          "name": "contractName",
          "type": "string"
        }
      ],
      "name": "getContractEnabled",
      "outputs": [
        {
          "internalType": "bool",
          "name": "",
          "type": "bool"
        }
      ],
      "stateMutability": "view",
      "type": "function"
    },
    {
      "inputs": [],
      "name": "getDelegationDurationLimit",
      "outputs": [
        {
          "internalType": "uint256",
          "name": "",
          "type": "uint256"
        }
      ],
      "stateMutability": "view",
      "type": "function"
    },
    {
      "inputs": [],
      "name": "getExpectedRewardRate",
      "outputs": [
        {
          "internalType": "uint256",
          "name": "",
          "type": "uint256"
        }
      ],
      "stateMutability": "view",
      "type": "function"
    },
    {
      "inputs": [],
      "name": "getGGPRewardCycleLength",
      "outputs": [
        {
          "internalType": "uint256",
          "name": "",
          "type": "uint256"
        }
      ],
      "stateMutability": "view",
      "type": "function"
    },
    {
      "inputs": [],
      "name": "getGGPRewardsEligibilityMinLength",
      "outputs": [
        {
          "internalType": "uint256",
          "name": "",
          "type": "uint256"
        }
      ],
      "stateMutability": "view",
      "type": "function"
    },
    {
      "inputs": [],
      "name": "getInflationInterval",
      "outputs": [
        {
          "internalType": "uint256",
          "name": "",
          "type": "uint256"
        }
      ],
      "stateMutability": "view",
      "type": "function"
    },
    {
      "inputs": [],
      "name": "getInflationIntervalRate",
      "outputs": [
        {
          "internalType": "uint256",
          "name": "",
          "type": "uint256"
        }
      ],
      "stateMutability": "view",
      "type": "function"
    },
    {
      "inputs": [],
      "name": "getInflationIntervalStartTime",
      "outputs": [
        {
          "internalType": "uint256",
          "name": "",
          "type": "uint256"
        }
      ],
      "stateMutability": "view",
      "type": "function"
    },
    {
      "inputs": [],
      "name": "getMaxCollateralizationRatio",
      "outputs": [
        {
          "internalType": "uint256",
          "name": "",
          "type": "uint256"
        }
      ],
      "stateMutability": "view",
      "type": "function"
    },
    {
      "inputs": [],
      "name": "getMinCollateralizationRatio",
      "outputs": [
        {
          "internalType": "uint256",
          "name": "",
          "type": "uint256"
        }
      ],
      "stateMutability": "view",
      "type": "function"
    },
    {
      "inputs": [],
      "name": "getMinipoolAvaxAssignmentMax",
      "outputs": [
        {
          "internalType": "uint256",
          "name": "",
          "type": "uint256"
        }
      ],
      "stateMutability": "view",
      "type": "function"
    },
    {
      "inputs": [],
      "name": "getMinipoolAvaxAssignmentMin",
      "outputs": [
        {
          "internalType": "uint256",
          "name": "",
          "type": "uint256"
        }
      ],
      "stateMutability": "view",
      "type": "function"
    },
    {
      "inputs": [],
      "name": "getMinipoolMinStakingAmount",
      "outputs": [
        {
          "internalType": "uint256",
          "name": "",
          "type": "uint256"
        }
      ],
      "stateMutability": "view",
      "type": "function"
    },
    {
      "inputs": [],
      "name": "getMinipoolNodeCommissionFeePercentage",
      "outputs": [
        {
          "internalType": "uint256",
          "name": "",
          "type": "uint256"
        }
      ],
      "stateMutability": "view",
      "type": "function"
    },
    {
      "inputs": [
        {
          "internalType": "bytes32",
          "name": "settingNameSpace",
          "type": "bytes32"
        },
        {
          "internalType": "string",
          "name": "_settingPath",
          "type": "string"
        }
      ],
      "name": "getSettingAddress",
      "outputs": [
        {
          "internalType": "address",
          "name": "",
          "type": "address"
        }
      ],
      "stateMutability": "view",
      "type": "function"
    },
    {
      "inputs": [
        {
          "internalType": "bytes32",
          "name": "settingNameSpace",
          "type": "bytes32"
        },
        {
          "internalType": "string",
          "name": "_settingPath",
          "type": "string"
        }
      ],
      "name": "getSettingBool",
      "outputs": [
        {
          "internalType": "bool",
          "name": "",
          "type": "bool"
        }
      ],
      "stateMutability": "view",
      "type": "function"
    },
    {
      "inputs": [
        {
          "internalType": "bytes32",
          "name": "settingNameSpace",
          "type": "bytes32"
        },
        {
          "internalType": "string",
          "name": "_settingPath",
          "type": "string"
        }
      ],
      "name": "getSettingUint",
      "outputs": [
        {
          "internalType": "uint256",
          "name": "",
          "type": "uint256"
        }
      ],
      "stateMutability": "view",
      "type": "function"
    },
    {
      "inputs": [],
      "name": "getTargetGGAVAXReserveRate",
      "outputs": [
        {
          "internalType": "uint256",
          "name": "",
          "type": "uint256"
        }
      ],
      "stateMutability": "view",
      "type": "function"
    },
    {
      "inputs": [],
      "name": "getTotalGGPCirculatingSupply",
      "outputs": [
        {
          "internalType": "uint256",
          "name": "",
          "type": "uint256"
        }
      ],
      "stateMutability": "view",
      "type": "function"
    },
    {
      "inputs": [],
      "name": "initialize",
      "outputs": [],
      "stateMutability": "nonpayable",
      "type": "function"
    },
    {
      "inputs": [
        {
          "internalType": "string",
          "name": "_claimingContract",
          "type": "string"
        },
        {
          "internalType": "uint256",
          "name": "decimal",
          "type": "uint256"
        }
      ],
      "name": "setClaimingContractPerc",
      "outputs": [],
      "stateMutability": "nonpayable",
      "type": "function"
    },
    {
      "inputs": [
        {
          "internalType": "uint256",
          "name": "rate",
          "type": "uint256"
        }
      ],
      "name": "setExpectedRewardRate",
      "outputs": [],
      "stateMutability": "nonpayable",
      "type": "function"
    },
    {
      "inputs": [
        {
          "internalType": "uint256",
          "name": "reserveRate",
          "type": "uint256"
        }
      ],
      "name": "setTargetGGAVAXReserveRate",
      "outputs": [],
      "stateMutability": "nonpayable",
      "type": "function"
    },
    {
      "inputs": [
        {
          "internalType": "uint256",
          "name": "amount",
          "type": "uint256"
        }
      ],
      "name": "setTotalGGPCirculatingSupply",
      "outputs": [],
      "stateMutability": "nonpayable",
      "type": "function"
    },
    {
      "inputs": [],
      "name": "version",
      "outputs": [
        {
          "internalType": "uint8",
          "name": "",
          "type": "uint8"
        }
      ],
      "stateMutability": "view",
      "type": "function"
    }
  ],
  "bytecode": "0x608060405234801561001057600080fd5b5060405161129938038061129983398101604081905261002f91610063565b6000805460ff196001600160a01b0390931661010002929092166001600160a81b0319909216919091176001179055610093565b60006020828403121561007557600080fd5b81516001600160a01b038116811461008c57600080fd5b9392505050565b6111f7806100a26000396000f3fe608060405234801561001057600080fd5b50600436106101a95760003560e01c806357965fd4116100f9578063b7e7088111610097578063ee5d42a011610071578063ee5d42a014610307578063ee96d7741461031a578063f4d70e7814610322578063f6a3f6ef1461033557600080fd5b8063b7e70881146102e4578063cddf37d7146102f7578063e7337227146102ff57600080fd5b80636a9cbe61116100d35780636a9cbe61146102b9578063780ba786146102c15780638129fc1c146102c9578063ad8912e7146102d157600080fd5b806357965fd4146102a15780635ad174eb146102a957806362cffd64146102b157600080fd5b806326c887df1161016657806333ad94da1161014057806333ad94da1461025f5780634712a143146102725780634833c6bd1461027a57806354fd4d501461028257600080fd5b806326c887df1461023a5780632a90c63a1461024f5780632ffc52ee1461025757600080fd5b806304433bbc146101ae5780630534f6db146101de57806306eaa68b146101f457806314ab2d47146102075780632323f7381461020f578063232de71614610217575b600080fd5b6101c16101bc366004610f8d565b610348565b6040516001600160a01b0390911681526020015b60405180910390f35b6101e66103d2565b6040519081526020016101d5565b6101c1610202366004610fca565b610402565b6101e6610421565b6101e661044c565b61022a610225366004610fca565b610477565b60405190151581526020016101d5565b61024d610248366004611011565b6104aa565b005b6101e66104de565b6101e6610509565b61024d61026d366004611056565b610534565b6101e6610561565b6101e661058c565b60005461028f9060ff1681565b60405160ff90911681526020016101d5565b6101e66105b7565b6101e66105e2565b6101e661060d565b6101e6610638565b6101e6610663565b61024d61068e565b61024d6102df366004611056565b610bb5565b61022a6102f2366004610f8d565b610bdf565b6101e6610bf5565b6101e6610c20565b61024d610315366004611056565b610c4b565b6101e6610c75565b6101e6610330366004610fca565b610ca0565b6101e6610343366004610f8d565b610cd3565b60008061037a8360405160200161035f91906110aa565b60405160208183030381529060405280519060200120610ce9565b90506001600160a01b0381166103cc5760405162461bcd60e51b815260206004820152601260248201527110dbdb9d1c9858dd081b9bdd08199bdd5b9960721b60448201526064015b60405180910390fd5b92915050565b60006103fd7f92b39b294c62f3b1946d55c0636ad52ec1ab13ad30fb123500b4f8dbd2d39131610d5b565b905090565b600061041a838360405160200161035f9291906110cf565b9392505050565b60006103fd7fa55fc77a8e8f3cbfcd1a3cffb2f560fd98d82744ea1a7ede6ec55e5b076f94a9610d5b565b60006103fd7f0dae242747aeb62cbf6e7b65f970f78fbdff5342ba03b83070ab0b5de3ee544e610d5b565b600061041a838360405160200161048f9291906110cf565b60405160208183030381529060405280519060200120610dcd565b6104da826040516020016104be91906110e1565b6040516020818303038152906040528051906020012082610e3f565b5050565b60006103fd7f2703edc08fcb7828d4dfdc5bc5babd2c1220802e59da863bf3b1ab8b09eafdd8610d5b565b60006103fd7ffb6fab43a221251402624dfaf14d3275b194644adc0a970b25b3d600ffdac0d5610d5b565b61055e7ffb6fab43a221251402624dfaf14d3275b194644adc0a970b25b3d600ffdac0d582610e3f565b50565b60006103fd7f07d398600fd8521a09be7472deb3a25dc4c0d4d91de586cf0196e4c5fbeed763610d5b565b60006103fd7fded526cf7bd86ad09e1bc23d72f0627049e0ffb2e17226ee8660af2af01d2081610d5b565b60006103fd7f8087b44cfe563560a88063cf75528996f7f987d62f0ab801f7c3ca05758a2e14610d5b565b60006103fd7fe44125b065a3e57d5fa167efc14bf21f515c1d6c0724c8f04a122d04d3a36f7b610d5b565b60006103fd7fe7257e5ac0083dabd9e08751e20c70cb3bd77782d15eff831de7e1ae4913ad1f610d5b565b60006103fd7f6fc05a95f29ddf80cc9d7f9358018fb924b6cb0a376014bb7acad437a51aca82610d5b565b60006103fd7f5f6a0a5fd32bbdb6cf2c3db165af69d1ad4cf93ce9ace370ae48f2758bde25cf610d5b565b600060019054906101000a90046001600160a01b03166001600160a01b031663a75b87d26040518163ffffffff1660e01b8152600401602060405180830381865afa1580156106e1573d6000803e3d6000fd5b505050506040513d601f19601f820116820180604052508101906107059190611113565b6001600160a01b0316336001600160a01b0316146107655760405162461bcd60e51b815260206004820152601960248201527f4163636f756e74206973206e6f74206120677561726469616e0000000000000060448201526064016103c3565b61078e7fe972aa7894fb68f3a73c1711ae1b2c666f53b230747e7f9488ee1fd8888c3127610dcd565b610bb3576107bd7fe8de305f6412f41c942a8dcc09612def2576714c7d9c7c29362aaeca99da8ead6001610ead565b6107e87f8087b44cfe563560a88063cf75528996f7f987d62f0ab801f7c3ca05758a2e146000610e3f565b6108137fa8a507129343ca1e1adff6b7ad1939243129bbdf33a18281680e5d37e707495d6001610ead565b61083e7ff85909187a634108e4e858504a8e7273fa223775dd27f92c13f70c2c849daec06001610ead565b6108697fe7257e5ac0083dabd9e08751e20c70cb3bd77782d15eff831de7e1ae4913ad1f60b4610e3f565b61089e7ffb6fab43a221251402624dfaf14d3275b194644adc0a970b25b3d600ffdac0d56a0ee3a5f48a68b552000000610e3f565b6108d07f815991c041894560beaf6ebe9159457486982da79cebfdfceaaf539e7919c34167016345785d8a0000610e3f565b6109027fc6aa8c2f2578e05151714812ef45ea587ce3773dafd8a08738b2ffc4c9160de56709b6e64a8ec60000610e3f565b6109347f87518af168d0a861ca1fc65a593e7af9284054f251299a84b7545737cf73161d6702c68af0bb140000610e3f565b6109667febed982a4b0b3f644cadf5f23d120d5624281c6713cb7cb4b1b3b16055aa7d7a670de130489916479c610e3f565b61099c7f92b39b294c62f3b1946d55c0636ad52ec1ab13ad30fb123500b4f8dbd2d39131610997426201518061113c565b610e3f565b6109c77fded526cf7bd86ad09e1bc23d72f0627049e0ffb2e17226ee8660af2af01d2081603c610e3f565b6109f97fe44125b065a3e57d5fa167efc14bf21f515c1d6c0724c8f04a122d04d3a36f7b67016345785d8a0000610e3f565b610a2c7f27a9e37c591b995eac2ff4efa947d19723617ac4a7325b17a03b6dbe022e51eb686c6b935b8bbd400000610e3f565b610a5e7f77997739908e27d19c4667d9bf8a6ed8fc5dfa141eabac9d27ec73cb831a692c670214e8348c4f0000610e3f565b610a927fa55fc77a8e8f3cbfcd1a3cffb2f560fd98d82744ea1a7ede6ec55e5b076f94a969021e19e0c9bab2400000610e3f565b610ac57f6fc05a95f29ddf80cc9d7f9358018fb924b6cb0a376014bb7acad437a51aca82683635c9adc5dea00000610e3f565b610af77f07d398600fd8521a09be7472deb3a25dc4c0d4d91de586cf0196e4c5fbeed76367016345785d8a0000610e3f565b610b297f5f6a0a5fd32bbdb6cf2c3db165af69d1ad4cf93ce9ace370ae48f2758bde25cf6714d1120d7b160000610e3f565b610b5b7f2703edc08fcb7828d4dfdc5bc5babd2c1220802e59da863bf3b1ab8b09eafdd867016345785d8a0000610e3f565b610b887f0dae242747aeb62cbf6e7b65f970f78fbdff5342ba03b83070ab0b5de3ee544e624dc880610e3f565b610bb37fe972aa7894fb68f3a73c1711ae1b2c666f53b230747e7f9488ee1fd8888c31276001610ead565b565b61055e7fe44125b065a3e57d5fa167efc14bf21f515c1d6c0724c8f04a122d04d3a36f7b82610e3f565b60006103cc8260405160200161048f9190611162565b60006103fd7f27a9e37c591b995eac2ff4efa947d19723617ac4a7325b17a03b6dbe022e51eb610d5b565b60006103fd7f77997739908e27d19c4667d9bf8a6ed8fc5dfa141eabac9d27ec73cb831a692c610d5b565b61055e7f07d398600fd8521a09be7472deb3a25dc4c0d4d91de586cf0196e4c5fbeed76382610e3f565b60006103fd7febed982a4b0b3f644cadf5f23d120d5624281c6713cb7cb4b1b3b16055aa7d7a610d5b565b600061041a8383604051602001610cb89291906110cf565b60405160208183030381529060405280519060200120610d5b565b60006103cc82604051602001610cb891906110e1565b600080546040516321f8a72160e01b8152600481018490526101009091046001600160a01b0316906321f8a72190602401602060405180830381865afa158015610d37573d6000803e3d6000fd5b505050506040513d601f19601f820116820180604052508101906103cc9190611113565b6000805460405163bd02d0f560e01b8152600481018490526101009091046001600160a01b03169063bd02d0f590602401602060405180830381865afa158015610da9573d6000803e3d6000fd5b505050506040513d601f19601f820116820180604052508101906103cc9190611186565b60008054604051633d70e7e560e11b8152600481018490526101009091046001600160a01b031690637ae1cfca90602401602060405180830381865afa158015610e1b573d6000803e3d6000fd5b505050506040513d601f19601f820116820180604052508101906103cc919061119f565b600054604051637152429d60e11b815260048101849052602481018390526101009091046001600160a01b03169063e2a4853a906044015b600060405180830381600087803b158015610e9157600080fd5b505af1158015610ea5573d6000803e3d6000fd5b505050505050565b60005460405163abfdcced60e01b81526004810184905282151560248201526101009091046001600160a01b03169063abfdcced90604401610e77565b634e487b7160e01b600052604160045260246000fd5b600082601f830112610f1157600080fd5b813567ffffffffffffffff80821115610f2c57610f2c610eea565b604051601f8301601f19908116603f01168101908282118183101715610f5457610f54610eea565b81604052838152866020858801011115610f6d57600080fd5b836020870160208301376000602085830101528094505050505092915050565b600060208284031215610f9f57600080fd5b813567ffffffffffffffff811115610fb657600080fd5b610fc284828501610f00565b949350505050565b60008060408385031215610fdd57600080fd5b82359150602083013567ffffffffffffffff811115610ffb57600080fd5b61100785828601610f00565b9150509250929050565b6000806040838503121561102457600080fd5b823567ffffffffffffffff81111561103b57600080fd5b61104785828601610f00565b95602094909401359450505050565b60006020828403121561106857600080fd5b5035919050565b6000815160005b818110156110905760208185018101518683015201611076565b8181111561109f576000828601525b509290920192915050565b6f636f6e74726163742e6164647265737360801b8152600061041a601083018461106f565b8281526000610fc2602083018461106f565b7f6767702e726577617264732e70657263656e746167652e0000000000000000008152600061041a601783018461106f565b60006020828403121561112557600080fd5b81516001600160a01b038116811461041a57600080fd5b6000821982111561115d57634e487b7160e01b600052601160045260246000fd5b500190565b600061116e828461106f565b670b995b98589b195960c21b81526008019392505050565b60006020828403121561119857600080fd5b5051919050565b6000602082840312156111b157600080fd5b8151801515811461041a57600080fdfea26469706673582212200f03c21bc3c252b6af11d14c77f02ab0b323ba0879f1b580c5377a19aff324a264736f6c634300080d0033",
  "linkReferences": {},
  "deployedLinkReferences": {}
}