{
  "_format": "hh-sol-artifact-1",
  "contractName": "ProtocolDAO",
  "sourceName": "contracts/contract/dao/ProtocolDAO.sol",
  "abi": [
    {
      "inputs": [
        {
          "internalType": "contract Storage",
          "name": "storageAddress",
          "type": "address"
        }
      ],
      "stateMutability": "nonpayable",
      "type": "constructor"
    },
    {
      "inputs": [],
      "name": "ContractPaused",
      "type": "error"
    },
    {
      "inputs": [],
      "name": "InvalidOrOutdatedContract",
      "type": "error"
    },
    {
      "inputs": [],
      "name": "MustBeGuardian",
      "type": "error"
    },
    {
      "inputs": [],
      "name": "MustBeMultisig",
      "type": "error"
    },
    {
      "inputs": [
        {
          "internalType": "string",
          "name": "_claimingContract",
          "type": "string"
        }
      ],
      "name": "getClaimingContractPct",
      "outputs": [
        {
          "internalType": "uint256",
          "name": "",
          "type": "uint256"
        }
      ],
      "stateMutability": "view",
      "type": "function"
    },
    {
      "inputs": [
        {
          "internalType": "string",
          "name": "_contractName",
          "type": "string"
        }
      ],
      "name": "getContractAddress",
      "outputs": [
        {
          "internalType": "address",
          "name": "",
          "type": "address"
        }
      ],
      "stateMutability": "view",
      "type": "function"
    },
    {
      "inputs": [],
      "name": "getExpectedAVAXRewardsRate",
      "outputs": [
        {
          "internalType": "uint256",
          "name": "",
          "type": "uint256"
        }
      ],
      "stateMutability": "view",
      "type": "function"
    },
    {
      "inputs": [],
      "name": "getInflationIntervalRate",
      "outputs": [
        {
          "internalType": "uint256",
          "name": "",
          "type": "uint256"
        }
      ],
      "stateMutability": "view",
      "type": "function"
    },
    {
      "inputs": [],
      "name": "getInflationIntervalSeconds",
      "outputs": [
        {
          "internalType": "uint256",
          "name": "",
          "type": "uint256"
        }
      ],
      "stateMutability": "view",
      "type": "function"
    },
    {
      "inputs": [],
      "name": "getInflationIntervalStartTime",
      "outputs": [
        {
          "internalType": "uint256",
          "name": "",
          "type": "uint256"
        }
      ],
      "stateMutability": "view",
      "type": "function"
    },
    {
      "inputs": [],
      "name": "getMaxCollateralizationRatio",
      "outputs": [
        {
          "internalType": "uint256",
          "name": "",
          "type": "uint256"
        }
      ],
      "stateMutability": "view",
      "type": "function"
    },
    {
      "inputs": [],
      "name": "getMinCollateralizationRatio",
      "outputs": [
        {
          "internalType": "uint256",
          "name": "",
          "type": "uint256"
        }
      ],
      "stateMutability": "view",
      "type": "function"
    },
    {
      "inputs": [],
      "name": "getMinipoolMaxAVAXAssignment",
      "outputs": [
        {
          "internalType": "uint256",
          "name": "",
          "type": "uint256"
        }
      ],
      "stateMutability": "view",
      "type": "function"
    },
    {
      "inputs": [],
      "name": "getMinipoolMinAVAXAssignment",
      "outputs": [
        {
          "internalType": "uint256",
          "name": "",
          "type": "uint256"
        }
      ],
      "stateMutability": "view",
      "type": "function"
    },
    {
      "inputs": [],
      "name": "getMinipoolMinStakingAmount",
      "outputs": [
        {
          "internalType": "uint256",
          "name": "",
          "type": "uint256"
        }
      ],
      "stateMutability": "view",
      "type": "function"
    },
    {
      "inputs": [],
      "name": "getMinipoolNodeCommissionFeePct",
      "outputs": [
        {
          "internalType": "uint256",
          "name": "",
          "type": "uint256"
        }
      ],
      "stateMutability": "view",
      "type": "function"
    },
    {
      "inputs": [],
      "name": "getRewardsCycleSeconds",
      "outputs": [
        {
          "internalType": "uint256",
          "name": "",
          "type": "uint256"
        }
      ],
      "stateMutability": "view",
      "type": "function"
    },
    {
      "inputs": [],
      "name": "getRewardsEligibilityMinSeconds",
      "outputs": [
        {
          "internalType": "uint256",
          "name": "",
          "type": "uint256"
        }
      ],
      "stateMutability": "view",
      "type": "function"
    },
    {
      "inputs": [],
      "name": "getTargetGGAVAXReserveRate",
      "outputs": [
        {
          "internalType": "uint256",
          "name": "",
          "type": "uint256"
        }
      ],
      "stateMutability": "view",
      "type": "function"
    },
    {
      "inputs": [],
      "name": "getTotalGGPCirculatingSupply",
      "outputs": [
        {
          "internalType": "uint256",
          "name": "",
          "type": "uint256"
        }
      ],
      "stateMutability": "view",
      "type": "function"
    },
    {
      "inputs": [],
      "name": "initialize",
      "outputs": [],
      "stateMutability": "nonpayable",
      "type": "function"
    },
    {
      "inputs": [
        {
          "internalType": "string",
          "name": "_claimingContract",
          "type": "string"
        },
        {
          "internalType": "uint256",
          "name": "decimal",
          "type": "uint256"
        }
      ],
      "name": "setClaimingContractPct",
      "outputs": [],
      "stateMutability": "nonpayable",
      "type": "function"
    },
    {
      "inputs": [
        {
          "internalType": "uint256",
          "name": "rate",
          "type": "uint256"
        }
      ],
      "name": "setExpectedAVAXRewardsRate",
      "outputs": [],
      "stateMutability": "nonpayable",
      "type": "function"
    },
    {
      "inputs": [
        {
          "internalType": "uint256",
          "name": "amount",
          "type": "uint256"
        }
      ],
      "name": "setTotalGGPCirculatingSupply",
      "outputs": [],
      "stateMutability": "nonpayable",
      "type": "function"
    },
    {
      "inputs": [],
      "name": "version",
      "outputs": [
        {
          "internalType": "uint8",
          "name": "",
          "type": "uint8"
        }
      ],
      "stateMutability": "view",
      "type": "function"
    }
  ],
  "bytecode": "0x608060405234801561001057600080fd5b5060405161106e38038061106e83398101604081905261002f91610063565b6000805460ff196001600160a01b0390931661010002929092166001600160a81b0319909216919091176001179055610093565b60006020828403121561007557600080fd5b81516001600160a01b038116811461008c57600080fd5b9392505050565b610fcc806100a26000396000f3fe608060405234801561001057600080fd5b50600436106101375760003560e01c80635f057008116100b8578063b57cc6e31161007c578063b57cc6e314610224578063b7b1ea341461022c578063cddf37d714610234578063ea2a18471461023c578063ee96d77414610244578063f8cafbed1461024c57600080fd5b80635f057008146101fc57806370b2ecc914610204578063780ba7861461020c5780638129fc1c1461021457806382b33dab1461021c57600080fd5b8063305f5522116100ff578063305f55221461019a57806333ad94da146101af57806354fd4d50146101c25780635ad174eb146101e15780635b706f76146101e957600080fd5b806304433bbc1461013c5780630534f6db1461016c5780630ef7bfe4146101825780632a90c63a1461018a5780632ffc52ee14610192575b600080fd5b61014f61014a366004610dfe565b61025f565b6040516001600160a01b0390911681526020015b60405180910390f35b6101746102e8565b604051908152602001610163565b610174610318565b610174610343565b61017461036e565b6101ad6101a8366004610e3b565b610399565b005b6101ad6101bd366004610e3b565b6103c6565b6000546101cf9060ff1681565b60405160ff9091168152602001610163565b61017461045f565b6101ad6101f7366004610e54565b61048a565b610174610566565b610174610591565b6101746105bc565b6101ad6105e7565b6101746109ff565b610174610a2a565b610174610a55565b610174610a80565b610174610aab565b610174610ad6565b61017461025a366004610dfe565b610b29565b600080610291836040516020016102769190610ed4565b60405160208183030381529060405280519060200120610b5a565b90506001600160a01b0381166102e25760405162461bcd60e51b815260206004820152601260248201527110dbdb9d1c9858dd081b9bdd08199bdd5b9960721b604482015260640160405180910390fd5b92915050565b60006103137f01236ec9157e563b4ef0fe8db9f5e64a9b22a7207db7b2bc5f5892cb0298bdbd610bcc565b905090565b60006103137f0dc867b271887c7eec3f5402333408fc3011cdef36536b1a408d1c1f56f542cb610bcc565b60006103137f7b35b60bd916e534855f85c33202afb264eb58a7ef781e4445a9386a5fbae403610bcc565b60006103137f5ef3341cc2345d159d7a9d36448810b18db2982a355f0fc8ce3f89293ca24930610bcc565b6103c37f044038e4c14c368a776f2e68e7e1309212406a8a8a21d869cebd3f334236e34f82610c3e565b50565b6040518060400160405280600b81526020016a14995dd85c991cd41bdbdb60aa1b815250336103ff826040516020016102769190610ed4565b6001600160a01b0316816001600160a01b03161461043057604051631eee95db60e11b815260040160405180910390fd5b61045a7f5ef3341cc2345d159d7a9d36448810b18db2982a355f0fc8ce3f89293ca2493084610c3e565b505050565b60006103137fe9c3e5798c6fb1f1728bab98d1c9abeede6f973ad6e8e875a1111762d5f77fc8610bcc565b600060019054906101000a90046001600160a01b03166001600160a01b031663a75b87d26040518163ffffffff1660e01b8152600401602060405180830381865afa1580156104dd573d6000803e3d6000fd5b505050506040513d601f19601f820116820180604052508101906105019190610f00565b6001600160a01b0316336001600160a01b031614610532576040516301b4790360e31b815260040160405180910390fd5b610562826040516020016105469190610f29565b6040516020818303038152906040528051906020012082610c3e565b5050565b60006103137f08345aa342b4dfe3b2e6599d5fd542b0dceeed01f13af576ebe8d826ce9e4aff610bcc565b60006103137f36abfca3397228bb7045d980d82b75762d05263fcc19a5bc66377d6d6b07bbe7610bcc565b60006103137f961b8a5046753060bfd1842ea297c2da690c100c70ba04776b3b30f388918400610bcc565b600060019054906101000a90046001600160a01b03166001600160a01b031663a75b87d26040518163ffffffff1660e01b8152600401602060405180830381865afa15801561063a573d6000803e3d6000fd5b505050506040513d601f19601f8201168201806040525081019061065e9190610f00565b6001600160a01b0316336001600160a01b03161461068f576040516301b4790360e31b815260040160405180910390fd5b6106b87f78f2ecffe9bb4692db9798f12147e9ee8cfb749c8e687564ded6c82c2effad8c610cac565b6109fd576106e77f78f2ecffe9bb4692db9798f12147e9ee8cfb749c8e687564ded6c82c2effad8c6001610d1e565b6107127f36abfca3397228bb7045d980d82b75762d05263fcc19a5bc66377d6d6b07bbe76000610c3e565b61073f7fa79ae78ddc74ee02a9783dee66b773b0bd867d7ec505bf0884223ab26599b31b6224ea00610c3e565b6107747f5ef3341cc2345d159d7a9d36448810b18db2982a355f0fc8ce3f89293ca249306a0ee3a5f48a68b552000000610c3e565b6107a67f6637fbc6cf3f7ce2f6c40e72501c2bbfa74f9cd9a54b26d5037493f65016eebf67016345785d8a0000610c3e565b6107d87f782860f45ce04332eac35493a6d6163669b81fb2bf084c5b137d69b2153d5b986709b6e64a8ec60000610c3e565b61080a7fb1dd7f0643f55666c659bede205233955190bd8475be00f7bc3ae1a1de66d0216702c68af0bb140000610c3e565b6108377f13a3ac49dc96021c96b7aad3b32ec1ee330a14104d073730acf9f36d8831c36b62015180610c3e565b6108697fd3186c81e428ab275d82b574c58975f2fd5add6555288c34ffa67511f269375d670de130489916479c610c3e565b61089b7fe9c3e5798c6fb1f1728bab98d1c9abeede6f973ad6e8e875a1111762d5f77fc867016345785d8a0000610c3e565b6108ce7fa7093f3e7e6dea8a94e860ac17e2e84dfd781be9e0dc85cd1d9bdb7388edaffb686c6b935b8bbd400000610c3e565b6109007fce0f77cf5fa8354e652a3184449d509e226fc06bbf19cfc9fb20c8cf4d4ade4d670214e8348c4f0000610c3e565b6109347f08345aa342b4dfe3b2e6599d5fd542b0dceeed01f13af576ebe8d826ce9e4aff69021e19e0c9bab2400000610c3e565b6109677f0dc867b271887c7eec3f5402333408fc3011cdef36536b1a408d1c1f56f542cb683635c9adc5dea00000610c3e565b6109997f044038e4c14c368a776f2e68e7e1309212406a8a8a21d869cebd3f334236e34f67016345785d8a0000610c3e565b6109cb7f961b8a5046753060bfd1842ea297c2da690c100c70ba04776b3b30f3889184006714d1120d7b160000610c3e565b6109fd7f7b35b60bd916e534855f85c33202afb264eb58a7ef781e4445a9386a5fbae40367016345785d8a0000610c3e565b565b60006103137fce0f77cf5fa8354e652a3184449d509e226fc06bbf19cfc9fb20c8cf4d4ade4d610bcc565b60006103137f044038e4c14c368a776f2e68e7e1309212406a8a8a21d869cebd3f334236e34f610bcc565b60006103137f13a3ac49dc96021c96b7aad3b32ec1ee330a14104d073730acf9f36d8831c36b610bcc565b60006103137fa7093f3e7e6dea8a94e860ac17e2e84dfd781be9e0dc85cd1d9bdb7388edaffb610bcc565b60006103137fa79ae78ddc74ee02a9783dee66b773b0bd867d7ec505bf0884223ab26599b31b610bcc565b600080610b027fd3186c81e428ab275d82b574c58975f2fd5add6555288c34ffa67511f269375d610bcc565b9050670de0b6b3a76400008110610b195780610b23565b670de0b6b3a76400005b91505090565b60006102e282604051602001610b3f9190610f29565b60405160208183030381529060405280519060200120610bcc565b600080546040516321f8a72160e01b8152600481018490526101009091046001600160a01b0316906321f8a72190602401602060405180830381865afa158015610ba8573d6000803e3d6000fd5b505050506040513d601f19601f820116820180604052508101906102e29190610f00565b6000805460405163bd02d0f560e01b8152600481018490526101009091046001600160a01b03169063bd02d0f590602401602060405180830381865afa158015610c1a573d6000803e3d6000fd5b505050506040513d601f19601f820116820180604052508101906102e29190610f5b565b600054604051637152429d60e11b815260048101849052602481018390526101009091046001600160a01b03169063e2a4853a906044015b600060405180830381600087803b158015610c9057600080fd5b505af1158015610ca4573d6000803e3d6000fd5b505050505050565b60008054604051633d70e7e560e11b8152600481018490526101009091046001600160a01b031690637ae1cfca90602401602060405180830381865afa158015610cfa573d6000803e3d6000fd5b505050506040513d601f19601f820116820180604052508101906102e29190610f74565b60005460405163abfdcced60e01b81526004810184905282151560248201526101009091046001600160a01b03169063abfdcced90604401610c76565b634e487b7160e01b600052604160045260246000fd5b600082601f830112610d8257600080fd5b813567ffffffffffffffff80821115610d9d57610d9d610d5b565b604051601f8301601f19908116603f01168101908282118183101715610dc557610dc5610d5b565b81604052838152866020858801011115610dde57600080fd5b836020870160208301376000602085830101528094505050505092915050565b600060208284031215610e1057600080fd5b813567ffffffffffffffff811115610e2757600080fd5b610e3384828501610d71565b949350505050565b600060208284031215610e4d57600080fd5b5035919050565b60008060408385031215610e6757600080fd5b823567ffffffffffffffff811115610e7e57600080fd5b610e8a85828601610d71565b95602094909401359450505050565b6000815160005b81811015610eba5760208185018101518683015201610ea0565b81811115610ec9576000828601525b509290920192915050565b6f636f6e74726163742e6164647265737360801b81526000610ef96010830184610e99565b9392505050565b600060208284031215610f1257600080fd5b81516001600160a01b0381168114610ef957600080fd5b7f50726f746f636f6c44414f2e436c61696d696e67436f6e74726163745063742e81526000610ef96020830184610e99565b600060208284031215610f6d57600080fd5b5051919050565b600060208284031215610f8657600080fd5b81518015158114610ef957600080fdfea26469706673582212201c25d9ea7606d49d836aa126c27dcfb06a1d66c86066107eeacd424cad8a899864736f6c634300080d0033",
  "linkReferences": {},
  "deployedLinkReferences": {}
}