{
  "_format": "hh-sol-artifact-1",
  "contractName": "RewardsPool",
  "sourceName": "contracts/contract/rewards/RewardsPool.sol",
  "abi": [
    {
      "inputs": [
        {
          "internalType": "contract Storage",
          "name": "storageAddress",
          "type": "address"
        }
      ],
      "stateMutability": "nonpayable",
      "type": "constructor"
    },
    {
      "inputs": [],
      "name": "ContractPaused",
      "type": "error"
    },
    {
      "inputs": [],
      "name": "IncorrectRewardsDistribution",
      "type": "error"
    },
    {
      "inputs": [],
      "name": "InvalidOrOutdatedContract",
      "type": "error"
    },
    {
      "inputs": [],
      "name": "MustBeGuardian",
      "type": "error"
    },
    {
      "inputs": [],
      "name": "MustBeMultisig",
      "type": "error"
    },
    {
      "inputs": [],
      "name": "UnableToStartRewardsCycle",
      "type": "error"
    },
    {
      "anonymous": false,
      "inputs": [
        {
          "indexed": false,
          "internalType": "address",
          "name": "sender",
          "type": "address"
        },
        {
          "indexed": false,
          "internalType": "uint256",
          "name": "value",
          "type": "uint256"
        },
        {
          "indexed": false,
          "internalType": "uint256",
          "name": "inflationCalcTime",
          "type": "uint256"
        }
      ],
      "name": "GGPInflated",
      "type": "event"
    },
    {
      "anonymous": false,
      "inputs": [
        {
          "indexed": false,
          "internalType": "uint256",
          "name": "value",
          "type": "uint256"
        }
      ],
      "name": "NOPClaimRewardsTransfered",
      "type": "event"
    },
    {
      "anonymous": false,
      "inputs": [
        {
          "indexed": false,
          "internalType": "uint256",
          "name": "totalRewardsAmt",
          "type": "uint256"
        }
      ],
      "name": "NewRewardsCycleStarted",
      "type": "event"
    },
    {
      "anonymous": false,
      "inputs": [
        {
          "indexed": false,
          "internalType": "uint256",
          "name": "value",
          "type": "uint256"
        }
      ],
      "name": "ProtocolDAORewardsTransfered",
      "type": "event"
    },
    {
      "inputs": [],
      "name": "canRewardsCycleStart",
      "outputs": [
        {
          "internalType": "bool",
          "name": "",
          "type": "bool"
        }
      ],
      "stateMutability": "view",
      "type": "function"
    },
    {
      "inputs": [
        {
          "internalType": "string",
          "name": "claimingContract",
          "type": "string"
        }
      ],
      "name": "getClaimingContractDistribution",
      "outputs": [
        {
          "internalType": "uint256",
          "name": "",
          "type": "uint256"
        }
      ],
      "stateMutability": "view",
      "type": "function"
    },
    {
      "inputs": [
        {
          "internalType": "string",
          "name": "_contractName",
          "type": "string"
        }
      ],
      "name": "getContractAddress",
      "outputs": [
        {
          "internalType": "address",
          "name": "",
          "type": "address"
        }
      ],
      "stateMutability": "view",
      "type": "function"
    },
    {
      "inputs": [],
      "name": "getInflationAmt",
      "outputs": [
        {
          "internalType": "uint256",
          "name": "",
          "type": "uint256"
        },
        {
          "internalType": "uint256",
          "name": "",
          "type": "uint256"
        }
      ],
      "stateMutability": "view",
      "type": "function"
    },
    {
      "inputs": [],
      "name": "getInflationIntervalStartTime",
      "outputs": [
        {
          "internalType": "uint256",
          "name": "",
          "type": "uint256"
        }
      ],
      "stateMutability": "view",
      "type": "function"
    },
    {
      "inputs": [],
      "name": "getInflationIntervalsElapsed",
      "outputs": [
        {
          "internalType": "uint256",
          "name": "",
          "type": "uint256"
        }
      ],
      "stateMutability": "view",
      "type": "function"
    },
    {
      "inputs": [],
      "name": "getRewardsCycleStartTime",
      "outputs": [
        {
          "internalType": "uint256",
          "name": "",
          "type": "uint256"
        }
      ],
      "stateMutability": "view",
      "type": "function"
    },
    {
      "inputs": [],
      "name": "getRewardsCycleTotalAmount",
      "outputs": [
        {
          "internalType": "uint256",
          "name": "",
          "type": "uint256"
        }
      ],
      "stateMutability": "view",
      "type": "function"
    },
    {
      "inputs": [],
      "name": "getRewardsCyclesElapsed",
      "outputs": [
        {
          "internalType": "uint256",
          "name": "",
          "type": "uint256"
        }
      ],
      "stateMutability": "view",
      "type": "function"
    },
    {
      "inputs": [],
      "name": "initialize",
      "outputs": [],
      "stateMutability": "nonpayable",
      "type": "function"
    },
    {
      "inputs": [],
      "name": "startRewardsCycle",
      "outputs": [],
      "stateMutability": "nonpayable",
      "type": "function"
    },
    {
      "inputs": [],
      "name": "version",
      "outputs": [
        {
          "internalType": "uint8",
          "name": "",
          "type": "uint8"
        }
      ],
      "stateMutability": "view",
      "type": "function"
    }
  ],
  "bytecode": "0x608060405234801561001057600080fd5b5060405161123538038061123583398101604081905261002f91610063565b6000805460ff196001600160a01b0390931661010002929092166001600160a81b0319909216919091176001179055610093565b60006020828403121561007557600080fd5b81516001600160a01b038116811461008c57600080fd5b9392505050565b611193806100a26000396000f3fe608060405234801561001057600080fd5b50600436106100b45760003560e01c8063726f564b11610071578063726f564b1461014d5780638129fc1c146101555780638d88948a1461015d578063baf3159514610165578063bdbe25441461017d578063c32d0f721461018557600080fd5b806304433bbc146100b95780630534f6db146100e957806332c1ee69146100ff57806354fd4d501461010957806355cc1aaa14610128578063595c5e6d14610130575b600080fd5b6100cc6100c7366004610f0e565b610198565b6040516001600160a01b0390911681526020015b60405180910390f35b6100f1610221565b6040519081526020016100e0565b610107610251565b005b6000546101169060ff1681565b60405160ff90911681526020016100e0565b6100f16105e4565b61013861069e565b604080519283526020830191909152016100e0565b6100f16107e0565b61010761080b565b6100f1610961565b61016d61098c565b60405190151581526020016100e0565b6100f16109af565b6100f1610193366004610f0e565b610a2a565b6000806101ca836040516020016101af9190610fef565b60405160208183030381529060405280519060200120610b04565b90506001600160a01b03811661021b5760405162461bcd60e51b815260206004820152601260248201527110dbdb9d1c9858dd081b9bdd08199bdd5b9960721b604482015260640160405180910390fd5b92915050565b600061024c7f3e8e4a349aca7a6bad14cdd8f05a213c333a7b768bb3a2a568016709f1597f73610b76565b905090565b61025961098c565b61027657604051630927a2b960e11b815260040160405180910390fd5b6102a07ff0b5c6b0de0a06397ccf32c061cd584eb88d549ccf0549c05d0472bffc5743d242610be8565b6102a8610c56565b60006102db6040518060400160405280601081526020016f50726f746f636f6c44414f436c61696d60801b815250610a2a565b90506000610308604051806040016040528060088152602001674e4f50436c61696d60c01b815250610a2a565b9050610312610961565b61031c828461103d565b111561033b57604051630764378760e41b815260040160405180910390fd5b6000610366604051806040016040528060088152602001674e4f50436c61696d60c01b815250610198565b90506000610393604051806040016040528060088152602001670546f6b656e4747560c41b815250610198565b905060006103bd6040518060400160405280600581526020016415985d5b1d60da1b815250610198565b905084156104885760405163774881af60e11b815260606004820152601060648201526f50726f746f636f6c44414f436c61696d60801b60848201526001600160a01b0383811660248301526044820187905282169063ee91035e9060a401600060405180830381600087803b15801561043657600080fd5b505af115801561044a573d6000803e3d6000fd5b505050507f08839a63ce86957af0da1fd5b80ebfffeeb19d123ab6709e765ccae050041b108560405161047f91815260200190565b60405180910390a15b83156105a35760405163774881af60e11b81526060600482015260086064820152674e4f50436c61696d60c01b60848201526001600160a01b0383811660248301526044820186905282169063ee91035e9060a401600060405180830381600087803b1580156104f757600080fd5b505af115801561050b573d6000803e3d6000fd5b505060405163ec23112f60e01b8152600481018790526001600160a01b038616925063ec23112f9150602401600060405180830381600087803b15801561055157600080fd5b505af1158015610565573d6000803e3d6000fd5b505050507f82c02c8f9f42f7ad10a17c2b6dd1d52619ca310cae1c2e9638174fd53217284b8460405161059a91815260200190565b60405180910390a15b7f6b1d3dc5fce42913ead941789ebaa30a3b9d2f7d03eb1b72664ef963af99a4c86105cc610961565b60405190815260200160405180910390a15050505050565b6000806106136040518060400160405280600b81526020016a50726f746f636f6c44414f60a81b815250610198565b9050600061061f6107e0565b9050816001600160a01b031663ea2a18476040518163ffffffff1660e01b8152600401602060405180830381865afa15801561065f573d6000803e3d6000fd5b505050506040513d601f19601f820116820180604052508101906106839190611055565b61068d824261106e565b6106979190611085565b9250505090565b60008060006106cf6040518060400160405280600b81526020016a50726f746f636f6c44414f60a81b815250610198565b90506000816001600160a01b031663ee96d7746040518163ffffffff1660e01b8152600401602060405180830381865afa158015610711573d6000803e3d6000fd5b505050506040513d601f19601f820116820180604052508101906107359190611055565b905060006107416109af565b90506000836001600160a01b0316632ffc52ee6040518163ffffffff1660e01b8152600401602060405180830381865afa158015610783573d6000803e3d6000fd5b505050506040513d601f19601f820116820180604052508101906107a79190611055565b90508060005b838110156107d3576107bf8286610dd2565b9150806107cb816110a7565b9150506107ad565b5090969095509350505050565b600061024c7ff0b5c6b0de0a06397ccf32c061cd584eb88d549ccf0549c05d0472bffc5743d2610b76565b600060019054906101000a90046001600160a01b03166001600160a01b031663a75b87d26040518163ffffffff1660e01b8152600401602060405180830381865afa15801561085e573d6000803e3d6000fd5b505050506040513d601f19601f8201168201806040525081019061088291906110c0565b6001600160a01b0316336001600160a01b0316146108b3576040516301b4790360e31b815260040160405180910390fd5b6108dc7f09dc9a36b6ce8445c4613f62ba60e09d4f1c036117216ea5a1bae116b7ace19d610dee565b61095f5761090b7f09dc9a36b6ce8445c4613f62ba60e09d4f1c036117216ea5a1bae116b7ace19d6001610e60565b6109357ff0b5c6b0de0a06397ccf32c061cd584eb88d549ccf0549c05d0472bffc5743d242610be8565b61095f7f3e8e4a349aca7a6bad14cdd8f05a213c333a7b768bb3a2a568016709f1597f7342610be8565b565b600061024c7fafc2e6df0283c5a904c8d55efc86fdb3ebca213d8de57ec7e39913347d008ab7610b76565b6000806109976105e4565b11801561024c575060006109a96109af565b11905090565b6000806109de6040518060400160405280600b81526020016a50726f746f636f6c44414f60a81b815250610198565b905060006109ea610221565b9050816001600160a01b031663b7b1ea346040518163ffffffff1660e01b8152600401602060405180830381865afa15801561065f573d6000803e3d6000fd5b600080610a596040518060400160405280600b81526020016a50726f746f636f6c44414f60a81b815250610198565b90506000816001600160a01b031663f8cafbed856040518263ffffffff1660e01b8152600401610a8991906110e9565b602060405180830381865afa158015610aa6573d6000803e3d6000fd5b505050506040513d601f19601f82011682018060405250810190610aca9190611055565b90506000610ad6610961565b905060008083118015610ae95750600082115b15610afb57610af88383610dd2565b90505b95945050505050565b600080546040516321f8a72160e01b8152600481018490526101009091046001600160a01b0316906321f8a72190602401602060405180830381865afa158015610b52573d6000803e3d6000fd5b505050506040513d601f19601f8201168201806040525081019061021b91906110c0565b6000805460405163bd02d0f560e01b8152600481018490526101009091046001600160a01b03169063bd02d0f590602401602060405180830381865afa158015610bc4573d6000803e3d6000fd5b505050506040513d601f19601f8201168201806040525081019061021b9190611055565b600054604051637152429d60e11b815260048101849052602481018390526101009091046001600160a01b03169063e2a4853a906044015b600060405180830381600087803b158015610c3a57600080fd5b505af1158015610c4e573d6000803e3d6000fd5b505050505050565b6000610c846040518060400160405280600b81526020016a50726f746f636f6c44414f60a81b815250610198565b90506000610c906109af565b826001600160a01b031663b7b1ea346040518163ffffffff1660e01b8152600401602060405180830381865afa158015610cce573d6000803e3d6000fd5b505050506040513d601f19601f82011682018060405250810190610cf29190611055565b610cfc919061111c565b9050600080610d0961069e565b90925090506000610d1a838361106e565b6040516319d6ca6d60e11b8152600481018490529091506001600160a01b038616906333ad94da90602401600060405180830381600087803b158015610d5f57600080fd5b505af1158015610d73573d6000803e3d6000fd5b50505050610da17f3e8e4a349aca7a6bad14cdd8f05a213c333a7b768bb3a2a568016709f1597f7385610e9d565b610dcb7fafc2e6df0283c5a904c8d55efc86fdb3ebca213d8de57ec7e39913347d008ab782610be8565b5050505050565b6000610de78383670de0b6b3a7640000610ed9565b9392505050565b60008054604051633d70e7e560e11b8152600481018490526101009091046001600160a01b031690637ae1cfca90602401602060405180830381865afa158015610e3c573d6000803e3d6000fd5b505050506040513d601f19601f8201168201806040525081019061021b919061113b565b60005460405163abfdcced60e01b81526004810184905282151560248201526101009091046001600160a01b03169063abfdcced90604401610c20565b600054604051632b6cd4f760e21b815260048101849052602481018390526101009091046001600160a01b03169063adb353dc90604401610c20565b828202811515841585830485141716610ef157600080fd5b0492915050565b634e487b7160e01b600052604160045260246000fd5b600060208284031215610f2057600080fd5b813567ffffffffffffffff80821115610f3857600080fd5b818401915084601f830112610f4c57600080fd5b813581811115610f5e57610f5e610ef8565b604051601f8201601f19908116603f01168101908382118183101715610f8657610f86610ef8565b81604052828152876020848701011115610f9f57600080fd5b826020860160208301376000928101602001929092525095945050505050565b60005b83811015610fda578181015183820152602001610fc2565b83811115610fe9576000848401525b50505050565b6f636f6e74726163742e6164647265737360801b81526000825161101a816010850160208701610fbf565b9190910160100192915050565b634e487b7160e01b600052601160045260246000fd5b6000821982111561105057611050611027565b500190565b60006020828403121561106757600080fd5b5051919050565b60008282101561108057611080611027565b500390565b6000826110a257634e487b7160e01b600052601260045260246000fd5b500490565b6000600182016110b9576110b9611027565b5060010190565b6000602082840312156110d257600080fd5b81516001600160a01b0381168114610de757600080fd5b6020815260008251806020840152611108816040850160208701610fbf565b601f01601f19169190910160400192915050565b600081600019048311821515161561113657611136611027565b500290565b60006020828403121561114d57600080fd5b81518015158114610de757600080fdfea264697066735822122097ae7ecae9bd135d0aa9e0109d0f7156d99253f43feeff016ea05e8ecc48a24a64736f6c634300080d0033",
  "linkReferences": {},
  "deployedLinkReferences": {}
}