{
  "_format": "hh-sol-artifact-1",
  "contractName": "RewardsPool",
  "sourceName": "contracts/contract/rewards/RewardsPool.sol",
  "abi": [
    {
      "inputs": [
        {
          "internalType": "contract Storage",
          "name": "storageAddress",
          "type": "address"
        }
      ],
      "stateMutability": "nonpayable",
      "type": "constructor"
    },
    {
      "inputs": [],
      "name": "IncorrectRewardDistribution",
      "type": "error"
    },
    {
      "anonymous": false,
      "inputs": [
        {
          "indexed": false,
          "internalType": "address",
          "name": "sender",
          "type": "address"
        },
        {
          "indexed": false,
          "internalType": "uint256",
          "name": "value",
          "type": "uint256"
        },
        {
          "indexed": false,
          "internalType": "uint256",
          "name": "inflationCalcTime",
          "type": "uint256"
        }
      ],
      "name": "GGPInflationLog",
      "type": "event"
    },
    {
      "anonymous": false,
      "inputs": [
        {
          "indexed": false,
          "internalType": "uint256",
          "name": "value",
          "type": "uint256"
        }
      ],
      "name": "NOPClaimRewardsTransfered",
      "type": "event"
    },
    {
      "anonymous": false,
      "inputs": [
        {
          "indexed": false,
          "internalType": "uint256",
          "name": "totalRewardAmt",
          "type": "uint256"
        }
      ],
      "name": "NewRewardsCycleStarted",
      "type": "event"
    },
    {
      "anonymous": false,
      "inputs": [
        {
          "indexed": false,
          "internalType": "uint256",
          "name": "value",
          "type": "uint256"
        }
      ],
      "name": "ProtocolDAORewardsTransfered",
      "type": "event"
    },
    {
      "inputs": [],
      "name": "canCycleStart",
      "outputs": [
        {
          "internalType": "bool",
          "name": "",
          "type": "bool"
        }
      ],
      "stateMutability": "view",
      "type": "function"
    },
    {
      "inputs": [
        {
          "internalType": "string",
          "name": "_claimingContract",
          "type": "string"
        }
      ],
      "name": "getClaimingContractDistribution",
      "outputs": [
        {
          "internalType": "uint256",
          "name": "",
          "type": "uint256"
        }
      ],
      "stateMutability": "view",
      "type": "function"
    },
    {
      "inputs": [
        {
          "internalType": "string",
          "name": "_claimingContract",
          "type": "string"
        }
      ],
      "name": "getClaimingContractPerc",
      "outputs": [
        {
          "internalType": "uint256",
          "name": "",
          "type": "uint256"
        }
      ],
      "stateMutability": "view",
      "type": "function"
    },
    {
      "inputs": [
        {
          "internalType": "string",
          "name": "_contractName",
          "type": "string"
        }
      ],
      "name": "getContractAddress",
      "outputs": [
        {
          "internalType": "address",
          "name": "",
          "type": "address"
        }
      ],
      "stateMutability": "view",
      "type": "function"
    },
    {
      "inputs": [],
      "name": "getEnabled",
      "outputs": [
        {
          "internalType": "bool",
          "name": "",
          "type": "bool"
        }
      ],
      "stateMutability": "view",
      "type": "function"
    },
    {
      "inputs": [],
      "name": "getInflationIntervalsPassed",
      "outputs": [
        {
          "internalType": "uint256",
          "name": "",
          "type": "uint256"
        }
      ],
      "stateMutability": "view",
      "type": "function"
    },
    {
      "inputs": [],
      "name": "getLastInflationCalcTime",
      "outputs": [
        {
          "internalType": "uint256",
          "name": "",
          "type": "uint256"
        }
      ],
      "stateMutability": "view",
      "type": "function"
    },
    {
      "inputs": [],
      "name": "getRewardCycleStartTime",
      "outputs": [
        {
          "internalType": "uint256",
          "name": "",
          "type": "uint256"
        }
      ],
      "stateMutability": "view",
      "type": "function"
    },
    {
      "inputs": [],
      "name": "getRewardCycleTotalAmount",
      "outputs": [
        {
          "internalType": "uint256",
          "name": "",
          "type": "uint256"
        }
      ],
      "stateMutability": "view",
      "type": "function"
    },
    {
      "inputs": [],
      "name": "getRewardCyclesPassed",
      "outputs": [
        {
          "internalType": "uint256",
          "name": "",
          "type": "uint256"
        }
      ],
      "stateMutability": "view",
      "type": "function"
    },
    {
      "inputs": [
        {
          "internalType": "bytes32",
          "name": "settingNameSpace",
          "type": "bytes32"
        },
        {
          "internalType": "string",
          "name": "_settingPath",
          "type": "string"
        }
      ],
      "name": "getSettingAddress",
      "outputs": [
        {
          "internalType": "address",
          "name": "",
          "type": "address"
        }
      ],
      "stateMutability": "view",
      "type": "function"
    },
    {
      "inputs": [
        {
          "internalType": "bytes32",
          "name": "settingNameSpace",
          "type": "bytes32"
        },
        {
          "internalType": "string",
          "name": "_settingPath",
          "type": "string"
        }
      ],
      "name": "getSettingBool",
      "outputs": [
        {
          "internalType": "bool",
          "name": "",
          "type": "bool"
        }
      ],
      "stateMutability": "view",
      "type": "function"
    },
    {
      "inputs": [
        {
          "internalType": "bytes32",
          "name": "settingNameSpace",
          "type": "bytes32"
        },
        {
          "internalType": "string",
          "name": "_settingPath",
          "type": "string"
        }
      ],
      "name": "getSettingUint",
      "outputs": [
        {
          "internalType": "uint256",
          "name": "",
          "type": "uint256"
        }
      ],
      "stateMutability": "view",
      "type": "function"
    },
    {
      "inputs": [],
      "name": "inflationCalculate",
      "outputs": [
        {
          "internalType": "uint256",
          "name": "",
          "type": "uint256"
        }
      ],
      "stateMutability": "view",
      "type": "function"
    },
    {
      "inputs": [],
      "name": "startCycle",
      "outputs": [],
      "stateMutability": "nonpayable",
      "type": "function"
    },
    {
      "inputs": [],
      "name": "version",
      "outputs": [
        {
          "internalType": "uint8",
          "name": "",
          "type": "uint8"
        }
      ],
      "stateMutability": "view",
      "type": "function"
    }
  ],
  "bytecode": "0x6080604052600060015534801561001557600080fd5b5060405161149338038061149383398101604081905261003491610068565b6000805460ff196001600160a01b0390931661010002929092166001600160a81b0319909216919091176001179055610098565b60006020828403121561007a57600080fd5b81516001600160a01b038116811461009157600080fd5b9392505050565b6113ec806100a76000396000f3fe608060405234801561001057600080fd5b50600436106101005760003560e01c8063624e001411610097578063c32d0f7211610066578063c32d0f72146101da578063e8895608146101ed578063f4d70e78146101f5578063f6a3f6ef1461020857600080fd5b8063624e0014146101ba57806374fa9e85146101c2578063b933c49e146101ca578063c1a26006146101d257600080fd5b8063232de716116100d3578063232de7161461016857806354fd4d501461017b578063562cad231461019a5780636147251c146101a457600080fd5b806304433bbc1461010557806306eaa68b146101355780631773dcee1461014857806318de0afd14610160575b600080fd5b61011861011336600461117a565b61021b565b6040516001600160a01b0390911681526020015b60405180910390f35b6101186101433660046111af565b6102a4565b6101506102c3565b604051901515815260200161012c565b6101506102ef565b6101506101763660046111af565b6103ab565b6000546101889060ff1681565b60405160ff909116815260200161012c565b6101a26103de565b005b6101ac610769565b60405190815260200161012c565b6101ac610799565b6101ac61083c565b6101ac6108f9565b6101ac61090f565b6101ac6101e836600461117a565b610925565b6101ac61096a565b6101ac6102033660046111af565b610995565b6101ac61021636600461117a565b6109c8565b60008061024d836040516020016102329190611222565b60405160208183030381529060405280519060200120610ae2565b90506001600160a01b03811661029e5760405162461bcd60e51b815260206004820152601260248201527110dbdb9d1c9858dd081b9bdd08199bdd5b9960721b604482015260640160405180910390fd5b92915050565b60006102bc838360405160200161023292919061125a565b9392505050565b6000806102ce610799565b9050670de0b6b3a764000081106102e757600191505090565b600091505090565b60008061031e6040518060400160405280600b81526020016a50726f746f636f6c44414f60a81b81525061021b565b60405163b7e7088160e01b815260206004820152600b60248201526a14995dd85c991cd41bdbdb60aa1b60448201529091506001600160a01b0382169063b7e7088190606401602060405180830381865afa158015610381573d6000803e3d6000fd5b505050506040513d601f19601f820116820180604052508101906103a59190611280565b91505090565b60006102bc83836040516020016103c392919061125a565b60405160208183030381529060405280519060200120610b54565b6000610409604051806040016040528060088152602001674e4f50436c61696d60c01b81525061021b565b90506000610436604051806040016040528060088152602001670546f6b656e4747560c41b81525061021b565b905060006104606040518060400160405280600581526020016415985d5b1d60da1b81525061021b565b9050600061046c610799565b9050670de0b6b3a7640000811061076357610485610bc6565b6104af7f2cb6db232a5f07091183c3c3bfec9a2b2dc6fee388e4ddfe547a75b381271bdc42610d9c565b60006104e26040518060400160405280601081526020016f50726f746f636f6c44414f436c61696d60801b815250610925565b9050600061050f604051806040016040528060088152602001674e4f50436c61696d60c01b815250610925565b9050610519610769565b61052382846112b8565b1115610542576040516333f390e760e01b815260040160405180910390fd5b811561060b5760405163774881af60e11b815260606004820152601060648201526f50726f746f636f6c44414f436c61696d60801b60848201526001600160a01b0386811660248301526044820184905285169063ee91035e9060a401600060405180830381600087803b1580156105b957600080fd5b505af11580156105cd573d6000803e3d6000fd5b505050507f08839a63ce86957af0da1fd5b80ebfffeeb19d123ab6709e765ccae050041b108260405161060291815260200190565b60405180910390a15b80156107265760405163774881af60e11b81526060600482015260086064820152674e4f50436c61696d60c01b60848201526001600160a01b0386811660248301526044820183905285169063ee91035e9060a401600060405180830381600087803b15801561067a57600080fd5b505af115801561068e573d6000803e3d6000fd5b505060405163ec23112f60e01b8152600481018490526001600160a01b038916925063ec23112f9150602401600060405180830381600087803b1580156106d457600080fd5b505af11580156106e8573d6000803e3d6000fd5b505050507f82c02c8f9f42f7ad10a17c2b6dd1d52619ca310cae1c2e9638174fd53217284b8160405161071d91815260200190565b60405180910390a15b7f6b1d3dc5fce42913ead941789ebaa30a3b9d2f7d03eb1b72664ef963af99a4c861074f610769565b60405190815260200160405180910390a150505b50505050565b60006107947f303b08bcfa5a73560d7dc2b6129c02cedb929779dc176e3e126148c34dfd673c610e01565b905090565b6000806107c86040518060400160405280600b81526020016a50726f746f636f6c44414f60a81b81525061021b565b90506103a56107d561096a565b826001600160a01b03166362cffd646040518163ffffffff1660e01b8152600401602060405180830381865afa158015610813573d6000803e3d6000fd5b505050506040513d601f19601f8201168201806040525081019061083791906112d0565b610e73565b60008061086b6040518060400160405280600b81526020016a50726f746f636f6c44414f60a81b81525061021b565b90506000816001600160a01b0316630534f6db6040518163ffffffff1660e01b8152600401602060405180830381865afa1580156108ad573d6000803e3d6000fd5b505050506040513d601f19601f820116820180604052508101906108d191906112d0565b905060015460001480156108e457504281105b6108f0576001546108f2565b805b9250505090565b60008061090461083c565b90506103a581610e89565b60008061091a6108f9565b90506103a581610f45565b600080610931836109c8565b9050600061093d610769565b9050600080831180156109505750600082115b156109625761095f8383611092565b90505b949350505050565b60006107947f2cb6db232a5f07091183c3c3bfec9a2b2dc6fee388e4ddfe547a75b381271bdc610e01565b60006102bc83836040516020016109ad92919061125a565b60405160208183030381529060405280519060200120610e01565b6000806109f76040518060400160405280600b81526020016a50726f746f636f6c44414f60a81b81525061021b565b60405163b7e7088160e01b81529091506001600160a01b0382169063b7e7088190610a269086906004016112e9565b602060405180830381865afa158015610a43573d6000803e3d6000fd5b505050506040513d601f19601f82011682018060405250810190610a679190611280565b15610ad95760405163f6a3f6ef60e01b81526001600160a01b0382169063f6a3f6ef90610a989086906004016112e9565b602060405180830381865afa158015610ab5573d6000803e3d6000fd5b505050506040513d601f19601f820116820180604052508101906102bc91906112d0565b50600092915050565b600080546040516321f8a72160e01b8152600481018490526101009091046001600160a01b0316906321f8a72190602401602060405180830381865afa158015610b30573d6000803e3d6000fd5b505050506040513d601f19601f8201168201806040525081019061029e919061131c565b60008054604051633d70e7e560e11b8152600481018490526101009091046001600160a01b031690637ae1cfca90602401602060405180830381865afa158015610ba2573d6000803e3d6000fd5b505050506040513d601f19601f8201168201806040525081019061029e9190611280565b6000610bf46040518060400160405280600b81526020016a50726f746f636f6c44414f60a81b81525061021b565b90506000816001600160a01b0316634833c6bd6040518163ffffffff1660e01b8152600401602060405180830381865afa158015610c36573d6000803e3d6000fd5b505050506040513d601f19601f82011682018060405250810190610c5a91906112d0565b90506000610c6661083c565b90506000610c7382610e89565b90506000610c8082610f45565b90506000856001600160a01b0316632ffc52ee6040518163ffffffff1660e01b8152600401602060405180830381865afa158015610cc2573d6000803e3d6000fd5b505050506040513d601f19601f82011682018060405250810190610ce691906112d0565b90506001600160a01b0386166333ad94da610d0184846112b8565b6040518263ffffffff1660e01b8152600401610d1f91815260200190565b600060405180830381600087803b158015610d3957600080fd5b505af1158015610d4d573d6000803e3d6000fd5b505050508285610d5d9190611345565b610d6790856112b8565b600155610d947f303b08bcfa5a73560d7dc2b6129c02cedb929779dc176e3e126148c34dfd673c83610d9c565b505050505050565b600054604051637152429d60e11b815260048101849052602481018390526101009091046001600160a01b03169063e2a4853a90604401600060405180830381600087803b158015610ded57600080fd5b505af1158015610d94573d6000803e3d6000fd5b6000805460405163bd02d0f560e01b8152600481018490526101009091046001600160a01b03169063bd02d0f590602401602060405180830381865afa158015610e4f573d6000803e3d6000fd5b505050506040513d601f19601f8201168201806040525081019061029e91906112d0565b60006102bc82610e838542611364565b906110a7565b600080610eb86040518060400160405280600b81526020016a50726f746f636f6c44414f60a81b81525061021b565b90506000816001600160a01b0316634833c6bd6040518163ffffffff1660e01b8152600401602060405180830381865afa158015610efa573d6000803e3d6000fd5b505050506040513d601f19601f82011682018060405250810190610f1e91906112d0565b90508315610f3b5780610f318542611364565b610962919061137b565b5060009392505050565b600080610f746040518060400160405280600b81526020016a50726f746f636f6c44414f60a81b81525061021b565b9050600083156102bc576000826001600160a01b031663ee96d7746040518163ffffffff1660e01b8152600401602060405180830381865afa158015610fbe573d6000803e3d6000fd5b505050506040513d601f19601f82011682018060405250810190610fe291906112d0565b9050801561108a576000836001600160a01b0316632ffc52ee6040518163ffffffff1660e01b8152600401602060405180830381865afa15801561102a573d6000803e3d6000fd5b505050506040513d601f19601f8201168201806040525081019061104e91906112d0565b90508060005b8781101561107a576110668285611092565b9150806110728161139d565b915050611054565b506110858282611364565b935050505b509392505050565b60006102bc8383670de0b6b3a76400006110b8565b60006102bc83670de0b6b3a7640000845b8282028115158415858304851417166110d057600080fd5b0492915050565b634e487b7160e01b600052604160045260246000fd5b600082601f8301126110fe57600080fd5b813567ffffffffffffffff80821115611119576111196110d7565b604051601f8301601f19908116603f01168101908282118183101715611141576111416110d7565b8160405283815286602085880101111561115a57600080fd5b836020870160208301376000602085830101528094505050505092915050565b60006020828403121561118c57600080fd5b813567ffffffffffffffff8111156111a357600080fd5b610962848285016110ed565b600080604083850312156111c257600080fd5b82359150602083013567ffffffffffffffff8111156111e057600080fd5b6111ec858286016110ed565b9150509250929050565b60005b838110156112115781810151838201526020016111f9565b838111156107635750506000910152565b6f636f6e74726163742e6164647265737360801b81526000825161124d8160108501602087016111f6565b9190910160100192915050565b828152600082516112728160208501602087016111f6565b919091016020019392505050565b60006020828403121561129257600080fd5b815180151581146102bc57600080fd5b634e487b7160e01b600052601160045260246000fd5b600082198211156112cb576112cb6112a2565b500190565b6000602082840312156112e257600080fd5b5051919050565b60208152600082518060208401526113088160408501602087016111f6565b601f01601f19169190910160400192915050565b60006020828403121561132e57600080fd5b81516001600160a01b03811681146102bc57600080fd5b600081600019048311821515161561135f5761135f6112a2565b500290565b600082821015611376576113766112a2565b500390565b60008261139857634e487b7160e01b600052601260045260246000fd5b500490565b6000600182016113af576113af6112a2565b506001019056fea2646970667358221220a8fca19e78cc1c1b584d260bfb4ebe9581c281d6d466616634d144bc1ea0c52664736f6c634300080d0033",
  "linkReferences": {},
  "deployedLinkReferences": {}
}