{
  "_format": "hh-sol-artifact-1",
  "contractName": "RewardsPool",
  "sourceName": "contracts/contract/RewardsPool.sol",
  "abi": [
    {
      "inputs": [
        {
          "internalType": "contract Storage",
          "name": "storageAddress",
          "type": "address"
        }
      ],
      "stateMutability": "nonpayable",
      "type": "constructor"
    },
    {
      "inputs": [],
      "name": "ContractNotFound",
      "type": "error"
    },
    {
      "inputs": [],
      "name": "ContractPaused",
      "type": "error"
    },
    {
      "inputs": [],
      "name": "IncorrectRewardsDistribution",
      "type": "error"
    },
    {
      "inputs": [],
      "name": "InvalidOrOutdatedContract",
      "type": "error"
    },
    {
      "inputs": [],
      "name": "MustBeGuardian",
      "type": "error"
    },
    {
      "inputs": [],
      "name": "MustBeGuardianOrValidContract",
      "type": "error"
    },
    {
      "inputs": [],
      "name": "MustBeMultisig",
      "type": "error"
    },
    {
      "inputs": [],
      "name": "UnableToStartRewardsCycle",
      "type": "error"
    },
    {
      "anonymous": false,
      "inputs": [
        {
          "indexed": false,
          "internalType": "uint256",
          "name": "value",
          "type": "uint256"
        }
      ],
      "name": "ClaimNodeOpRewardsTransfered",
      "type": "event"
    },
    {
      "anonymous": false,
      "inputs": [
        {
          "indexed": false,
          "internalType": "uint256",
          "name": "newTokens",
          "type": "uint256"
        }
      ],
      "name": "GGPInflated",
      "type": "event"
    },
    {
      "anonymous": false,
      "inputs": [
        {
          "indexed": false,
          "internalType": "uint256",
          "name": "totalRewardsAmt",
          "type": "uint256"
        }
      ],
      "name": "NewRewardsCycleStarted",
      "type": "event"
    },
    {
      "anonymous": false,
      "inputs": [
        {
          "indexed": false,
          "internalType": "uint256",
          "name": "value",
          "type": "uint256"
        }
      ],
      "name": "ProtocolDAORewardsTransfered",
      "type": "event"
    },
    {
      "inputs": [],
      "name": "canStartRewardsCycle",
      "outputs": [
        {
          "internalType": "bool",
          "name": "",
          "type": "bool"
        }
      ],
      "stateMutability": "view",
      "type": "function"
    },
    {
      "inputs": [
        {
          "internalType": "string",
          "name": "claimingContract",
          "type": "string"
        }
      ],
      "name": "getClaimingContractDistribution",
      "outputs": [
        {
          "internalType": "uint256",
          "name": "",
          "type": "uint256"
        }
      ],
      "stateMutability": "view",
      "type": "function"
    },
    {
      "inputs": [
        {
          "internalType": "string",
          "name": "contractName",
          "type": "string"
        }
      ],
      "name": "getContractAddress",
      "outputs": [
        {
          "internalType": "address",
          "name": "",
          "type": "address"
        }
      ],
      "stateMutability": "view",
      "type": "function"
    },
    {
      "inputs": [],
      "name": "getInflationAmt",
      "outputs": [
        {
          "internalType": "uint256",
          "name": "",
          "type": "uint256"
        },
        {
          "internalType": "uint256",
          "name": "",
          "type": "uint256"
        }
      ],
      "stateMutability": "view",
      "type": "function"
    },
    {
      "inputs": [],
      "name": "getInflationIntervalStartTime",
      "outputs": [
        {
          "internalType": "uint256",
          "name": "",
          "type": "uint256"
        }
      ],
      "stateMutability": "view",
      "type": "function"
    },
    {
      "inputs": [],
      "name": "getInflationIntervalsElapsed",
      "outputs": [
        {
          "internalType": "uint256",
          "name": "",
          "type": "uint256"
        }
      ],
      "stateMutability": "view",
      "type": "function"
    },
    {
      "inputs": [],
      "name": "getRewardsCycleStartTime",
      "outputs": [
        {
          "internalType": "uint256",
          "name": "",
          "type": "uint256"
        }
      ],
      "stateMutability": "view",
      "type": "function"
    },
    {
      "inputs": [],
      "name": "getRewardsCycleTotalAmount",
      "outputs": [
        {
          "internalType": "uint256",
          "name": "",
          "type": "uint256"
        }
      ],
      "stateMutability": "view",
      "type": "function"
    },
    {
      "inputs": [],
      "name": "getRewardsCyclesElapsed",
      "outputs": [
        {
          "internalType": "uint256",
          "name": "",
          "type": "uint256"
        }
      ],
      "stateMutability": "view",
      "type": "function"
    },
    {
      "inputs": [],
      "name": "initialize",
      "outputs": [],
      "stateMutability": "nonpayable",
      "type": "function"
    },
    {
      "inputs": [],
      "name": "startRewardsCycle",
      "outputs": [],
      "stateMutability": "nonpayable",
      "type": "function"
    },
    {
      "inputs": [],
      "name": "version",
      "outputs": [
        {
          "internalType": "uint8",
          "name": "",
          "type": "uint8"
        }
      ],
      "stateMutability": "view",
      "type": "function"
    }
  ],
  "bytecode": "0x608060405234801561001057600080fd5b5060405161127638038061127683398101604081905261002f91610063565b6000805460ff196001600160a01b0390931661010002929092166001600160a81b0319909216919091176001179055610093565b60006020828403121561007557600080fd5b81516001600160a01b038116811461008c57600080fd5b9392505050565b6111d4806100a26000396000f3fe608060405234801561001057600080fd5b50600436106100d45760003560e01c80636155e7ee116100815780638d88948a1161005b5780638d88948a14610195578063bdbe25441461019d578063c32d0f72146101a557600080fd5b80636155e7ee1461016d578063726f564b146101855780638129fc1c1461018d57600080fd5b806354fd4d50116100b257806354fd4d501461012957806355cc1aaa14610148578063595c5e6d1461015057600080fd5b806304433bbc146100d95780630534f6db1461010957806332c1ee691461011f575b600080fd5b6100ec6100e7366004610f5f565b6101b8565b6040516001600160a01b0390911681526020015b60405180910390f35b610111610219565b604051908152602001610100565b610127610249565b005b6000546101369060ff1681565b60405160ff9091168152602001610100565b610111610605565b6101586106bf565b60408051928352602083019190915201610100565b610175610801565b6040519015158152602001610100565b610111610824565b61012761084f565b6101116109a5565b6101116109d0565b6101116101b3366004610f5f565b610a4b565b6000806101ea836040516020016101cf9190611034565b60405160208183030381529060405280519060200120610b25565b90506001600160a01b03811661021357604051633b56498960e21b815260040160405180910390fd5b92915050565b60006102447f3e8e4a349aca7a6bad14cdd8f05a213c333a7b768bb3a2a568016709f1597f73610b97565b905090565b610251610801565b61026e57604051630927a2b960e11b815260040160405180910390fd5b7f6b1d3dc5fce42913ead941789ebaa30a3b9d2f7d03eb1b72664ef963af99a4c86102976109a5565b60405190815260200160405180910390a16102d27ff0b5c6b0de0a06397ccf32c061cd584eb88d549ccf0549c05d0472bffc5743d242610c09565b6102da610c77565b600061030d6040518060400160405280601081526020016f436c61696d50726f746f636f6c44414f60801b815250610a4b565b9050600061033d6040518060400160405280600b81526020016a0436c61696d4e6f64654f760ac1b815250610a4b565b90506103476109a5565b610351828461108f565b111561037057604051630764378760e41b815260040160405180910390fd5b600061039e6040518060400160405280600b81526020016a0436c61696d4e6f64654f760ac1b8152506101b8565b905060006103e06040518060400160405280600881526020017f546f6b656e4747500000000000000000000000000000000000000000000000008152506101b8565b905060006104226040518060400160405280600581526020017f5661756c740000000000000000000000000000000000000000000000000000008152506101b8565b905084156104e7576040518581527f08839a63ce86957af0da1fd5b80ebfffeeb19d123ab6709e765ccae050041b109060200160405180910390a160405163774881af60e11b815260606004820152601060648201526f436c61696d50726f746f636f6c44414f60801b60848201526001600160a01b0383811660248301526044820187905282169063ee91035e9060a401600060405180830381600087803b1580156104ce57600080fd5b505af11580156104e2573d6000803e3d6000fd5b505050505b83156105fe576040518481527eb0817438480d59ea3ee7112c939a444defadd8ec1a606bb4c729fc52b7ea349060200160405180910390a160405163ec23112f60e01b8152600481018590526001600160a01b0384169063ec23112f90602401600060405180830381600087803b15801561056157600080fd5b505af1158015610575573d6000803e3d6000fd5b505060405163774881af60e11b815260606004820152600b60648201526a0436c61696d4e6f64654f760ac1b60848201526001600160a01b038581166024830152604482018890528416925063ee91035e915060a401600060405180830381600087803b1580156105e557600080fd5b505af11580156105f9573d6000803e3d6000fd5b505050505b5050505050565b6000806106346040518060400160405280600b81526020016a50726f746f636f6c44414f60a81b8152506101b8565b90506000610640610824565b9050816001600160a01b031663ea2a18476040518163ffffffff1660e01b8152600401602060405180830381865afa158015610680573d6000803e3d6000fd5b505050506040513d601f19601f820116820180604052508101906106a491906110a2565b6106ae82426110bb565b6106b891906110ce565b9250505090565b60008060006106f06040518060400160405280600b81526020016a50726f746f636f6c44414f60a81b8152506101b8565b90506000816001600160a01b031663ee96d7746040518163ffffffff1660e01b8152600401602060405180830381865afa158015610732573d6000803e3d6000fd5b505050506040513d601f19601f8201168201806040525081019061075691906110a2565b905060006107626109d0565b90506000836001600160a01b0316632ffc52ee6040518163ffffffff1660e01b8152600401602060405180830381865afa1580156107a4573d6000803e3d6000fd5b505050506040513d601f19601f820116820180604052508101906107c891906110a2565b90508060005b838110156107f4576107e08286610e24565b9150806107ec816110f0565b9150506107ce565b5090969095509350505050565b60008061080c610605565b1180156102445750600061081e6109d0565b11905090565b60006102447ff0b5c6b0de0a06397ccf32c061cd584eb88d549ccf0549c05d0472bffc5743d2610b97565b600060019054906101000a90046001600160a01b03166001600160a01b031663a75b87d26040518163ffffffff1660e01b8152600401602060405180830381865afa1580156108a2573d6000803e3d6000fd5b505050506040513d601f19601f820116820180604052508101906108c69190611109565b6001600160a01b0316336001600160a01b0316146108f7576040516301b4790360e31b815260040160405180910390fd5b6109207f09dc9a36b6ce8445c4613f62ba60e09d4f1c036117216ea5a1bae116b7ace19d610e40565b6109a35761094f7f09dc9a36b6ce8445c4613f62ba60e09d4f1c036117216ea5a1bae116b7ace19d6001610eb2565b6109797ff0b5c6b0de0a06397ccf32c061cd584eb88d549ccf0549c05d0472bffc5743d242610c09565b6109a37f3e8e4a349aca7a6bad14cdd8f05a213c333a7b768bb3a2a568016709f1597f7342610c09565b565b60006102447fafc2e6df0283c5a904c8d55efc86fdb3ebca213d8de57ec7e39913347d008ab7610b97565b6000806109ff6040518060400160405280600b81526020016a50726f746f636f6c44414f60a81b8152506101b8565b90506000610a0b610219565b9050816001600160a01b031663b7b1ea346040518163ffffffff1660e01b8152600401602060405180830381865afa158015610680573d6000803e3d6000fd5b600080610a7a6040518060400160405280600b81526020016a50726f746f636f6c44414f60a81b8152506101b8565b90506000816001600160a01b031663f8cafbed856040518263ffffffff1660e01b8152600401610aaa9190611132565b602060405180830381865afa158015610ac7573d6000803e3d6000fd5b505050506040513d601f19601f82011682018060405250810190610aeb91906110a2565b90506000610af76109a5565b905060008083118015610b0a5750600082115b15610b1c57610b198383610e24565b90505b95945050505050565b600080546040516321f8a72160e01b8152600481018490526101009091046001600160a01b0316906321f8a72190602401602060405180830381865afa158015610b73573d6000803e3d6000fd5b505050506040513d601f19601f820116820180604052508101906102139190611109565b6000805460405163bd02d0f560e01b8152600481018490526101009091046001600160a01b03169063bd02d0f590602401602060405180830381865afa158015610be5573d6000803e3d6000fd5b505050506040513d601f19601f8201168201806040525081019061021391906110a2565b600054604051637152429d60e11b815260048101849052602481018390526101009091046001600160a01b03169063e2a4853a906044015b600060405180830381600087803b158015610c5b57600080fd5b505af1158015610c6f573d6000803e3d6000fd5b505050505050565b6000610ca56040518060400160405280600b81526020016a50726f746f636f6c44414f60a81b8152506101b8565b90506000610cb16109d0565b826001600160a01b031663b7b1ea346040518163ffffffff1660e01b8152600401602060405180830381865afa158015610cef573d6000803e3d6000fd5b505050506040513d601f19601f82011682018060405250810190610d1391906110a2565b610d1d9190611165565b9050600080610d2a6106bf565b90925090506000610d3b83836110bb565b90507fd3b0dc36c37f40ce88b39c8022936d7b39a19dc6ea4df881918f531d843d853e81604051610d6e91815260200190565b60405180910390a16040516319d6ca6d60e11b8152600481018390526001600160a01b038616906333ad94da90602401600060405180830381600087803b158015610db857600080fd5b505af1158015610dcc573d6000803e3d6000fd5b50505050610dfa7f3e8e4a349aca7a6bad14cdd8f05a213c333a7b768bb3a2a568016709f1597f7385610eef565b6105fe7fafc2e6df0283c5a904c8d55efc86fdb3ebca213d8de57ec7e39913347d008ab782610c09565b6000610e398383670de0b6b3a7640000610f2b565b9392505050565b60008054604051633d70e7e560e11b8152600481018490526101009091046001600160a01b031690637ae1cfca90602401602060405180830381865afa158015610e8e573d6000803e3d6000fd5b505050506040513d601f19601f82011682018060405250810190610213919061117c565b60005460405163abfdcced60e01b81526004810184905282151560248201526101009091046001600160a01b03169063abfdcced90604401610c41565b600054604051632b6cd4f760e21b815260048101849052602481018390526101009091046001600160a01b03169063adb353dc90604401610c41565b6000826000190484118302158202610f4257600080fd5b5091020490565b634e487b7160e01b600052604160045260246000fd5b600060208284031215610f7157600080fd5b813567ffffffffffffffff80821115610f8957600080fd5b818401915084601f830112610f9d57600080fd5b813581811115610faf57610faf610f49565b604051601f8201601f19908116603f01168101908382118183101715610fd757610fd7610f49565b81604052828152876020848701011115610ff057600080fd5b826020860160208301376000928101602001929092525095945050505050565b60005b8381101561102b578181015183820152602001611013565b50506000910152565b7f636f6e74726163742e616464726573730000000000000000000000000000000081526000825161106c816010850160208701611010565b9190910160100192915050565b634e487b7160e01b600052601160045260246000fd5b8082018082111561021357610213611079565b6000602082840312156110b457600080fd5b5051919050565b8181038181111561021357610213611079565b6000826110eb57634e487b7160e01b600052601260045260246000fd5b500490565b60006001820161110257611102611079565b5060010190565b60006020828403121561111b57600080fd5b81516001600160a01b0381168114610e3957600080fd5b6020815260008251806020840152611151816040850160208701611010565b601f01601f19169190910160400192915050565b808202811582820484141761021357610213611079565b60006020828403121561118e57600080fd5b81518015158114610e3957600080fdfea26469706673582212203caa7cb8e2312549e0fe0e093dffc180b9dcb034ea80494243c940c32c5b416264736f6c63430008110033",
  "linkReferences": {},
  "deployedLinkReferences": {}
}