{
  "_format": "hh-sol-artifact-1",
  "contractName": "MinipoolManager",
  "sourceName": "contracts/contract/MinipoolManager.sol",
  "abi": [
    {
      "inputs": [
        {
          "internalType": "contract Storage",
          "name": "storageAddress",
          "type": "address"
        },
        {
          "internalType": "contract ERC20",
          "name": "ggp_",
          "type": "address"
        },
        {
          "internalType": "contract TokenggAVAX",
          "name": "ggAVAX_",
          "type": "address"
        }
      ],
      "stateMutability": "nonpayable",
      "type": "constructor"
    },
    {
      "inputs": [],
      "name": "ErrorSendingAvax",
      "type": "error"
    },
    {
      "inputs": [],
      "name": "InsufficientAvaxForMinipoolCreation",
      "type": "error"
    },
    {
      "inputs": [],
      "name": "InsufficientAvaxForStaking",
      "type": "error"
    },
    {
      "inputs": [],
      "name": "InsufficientGGPCollateralization",
      "type": "error"
    },
    {
      "inputs": [],
      "name": "InvalidAmount",
      "type": "error"
    },
    {
      "inputs": [],
      "name": "InvalidAvaxAssignmentRequest",
      "type": "error"
    },
    {
      "inputs": [],
      "name": "InvalidEndTime",
      "type": "error"
    },
    {
      "inputs": [],
      "name": "InvalidMultisigAddress",
      "type": "error"
    },
    {
      "inputs": [],
      "name": "InvalidNodeID",
      "type": "error"
    },
    {
      "inputs": [],
      "name": "InvalidStateTransition",
      "type": "error"
    },
    {
      "inputs": [],
      "name": "MinipoolNotFound",
      "type": "error"
    },
    {
      "inputs": [],
      "name": "OnlyOwnerCanCancel",
      "type": "error"
    },
    {
      "inputs": [],
      "name": "OnlyOwnerCanWithdraw",
      "type": "error"
    },
    {
      "anonymous": false,
      "inputs": [
        {
          "indexed": true,
          "internalType": "address",
          "name": "nodeID",
          "type": "address"
        },
        {
          "indexed": false,
          "internalType": "uint256",
          "name": "ggp",
          "type": "uint256"
        }
      ],
      "name": "GGPSlashed",
      "type": "event"
    },
    {
      "anonymous": false,
      "inputs": [
        {
          "indexed": true,
          "internalType": "address",
          "name": "nodeID",
          "type": "address"
        },
        {
          "indexed": true,
          "internalType": "enum MinipoolStatus",
          "name": "status",
          "type": "uint8"
        }
      ],
      "name": "MinipoolStatusChanged",
      "type": "event"
    },
    {
      "inputs": [
        {
          "internalType": "uint256",
          "name": "avaxRewardAmt",
          "type": "uint256"
        }
      ],
      "name": "calculateSlashAmt",
      "outputs": [
        {
          "internalType": "uint256",
          "name": "",
          "type": "uint256"
        }
      ],
      "stateMutability": "view",
      "type": "function"
    },
    {
      "inputs": [
        {
          "internalType": "address",
          "name": "nodeID",
          "type": "address"
        }
      ],
      "name": "canClaimAndInitiateStaking",
      "outputs": [
        {
          "internalType": "bool",
          "name": "",
          "type": "bool"
        }
      ],
      "stateMutability": "view",
      "type": "function"
    },
    {
      "inputs": [
        {
          "internalType": "address",
          "name": "nodeID",
          "type": "address"
        }
      ],
      "name": "cancelMinipool",
      "outputs": [],
      "stateMutability": "nonpayable",
      "type": "function"
    },
    {
      "inputs": [
        {
          "internalType": "address",
          "name": "nodeID",
          "type": "address"
        },
        {
          "internalType": "bytes32",
          "name": "errorCode",
          "type": "bytes32"
        }
      ],
      "name": "cancelMinipoolByMultisig",
      "outputs": [],
      "stateMutability": "nonpayable",
      "type": "function"
    },
    {
      "inputs": [
        {
          "internalType": "address",
          "name": "nodeID",
          "type": "address"
        }
      ],
      "name": "claimAndInitiateStaking",
      "outputs": [],
      "stateMutability": "nonpayable",
      "type": "function"
    },
    {
      "inputs": [
        {
          "internalType": "address",
          "name": "nodeID",
          "type": "address"
        },
        {
          "internalType": "uint256",
          "name": "duration",
          "type": "uint256"
        },
        {
          "internalType": "uint256",
          "name": "delegationFee",
          "type": "uint256"
        },
        {
          "internalType": "uint256",
          "name": "avaxAssignmentRequest",
          "type": "uint256"
        }
      ],
      "name": "createMinipool",
      "outputs": [],
      "stateMutability": "payable",
      "type": "function"
    },
    {
      "inputs": [
        {
          "internalType": "uint256",
          "name": "duration",
          "type": "uint256"
        },
        {
          "internalType": "uint256",
          "name": "avaxAmt",
          "type": "uint256"
        }
      ],
      "name": "expectedRewardAmt",
      "outputs": [
        {
          "internalType": "uint256",
          "name": "",
          "type": "uint256"
        }
      ],
      "stateMutability": "view",
      "type": "function"
    },
    {
      "inputs": [
        {
          "internalType": "string",
          "name": "_contractName",
          "type": "string"
        }
      ],
      "name": "getContractAddress",
      "outputs": [
        {
          "internalType": "address",
          "name": "",
          "type": "address"
        }
      ],
      "stateMutability": "view",
      "type": "function"
    },
    {
      "inputs": [
        {
          "internalType": "address",
          "name": "nodeID",
          "type": "address"
        }
      ],
      "name": "getIndexOf",
      "outputs": [
        {
          "internalType": "int256",
          "name": "",
          "type": "int256"
        }
      ],
      "stateMutability": "view",
      "type": "function"
    },
    {
      "inputs": [
        {
          "internalType": "int256",
          "name": "index",
          "type": "int256"
        }
      ],
      "name": "getMinipool",
      "outputs": [
        {
          "components": [
            {
              "internalType": "int256",
              "name": "index",
              "type": "int256"
            },
            {
              "internalType": "address",
              "name": "nodeID",
              "type": "address"
            },
            {
              "internalType": "uint256",
              "name": "status",
              "type": "uint256"
            },
            {
              "internalType": "uint256",
              "name": "duration",
              "type": "uint256"
            },
            {
              "internalType": "uint256",
              "name": "startTime",
              "type": "uint256"
            },
            {
              "internalType": "uint256",
              "name": "endTime",
              "type": "uint256"
            },
            {
              "internalType": "uint256",
              "name": "delegationFee",
              "type": "uint256"
            },
            {
              "internalType": "uint256",
              "name": "ggpSlashAmt",
              "type": "uint256"
            },
            {
              "internalType": "uint256",
              "name": "avaxNodeOpAmt",
              "type": "uint256"
            },
            {
              "internalType": "uint256",
              "name": "avaxLiquidStakerAmt",
              "type": "uint256"
            },
            {
              "internalType": "uint256",
              "name": "avaxTotalRewardAmt",
              "type": "uint256"
            },
            {
              "internalType": "uint256",
              "name": "avaxNodeOpRewardAmt",
              "type": "uint256"
            },
            {
              "internalType": "uint256",
              "name": "avaxLiquidStakerRewardAmt",
              "type": "uint256"
            },
            {
              "internalType": "bytes32",
              "name": "errorCode",
              "type": "bytes32"
            },
            {
              "internalType": "address",
              "name": "owner",
              "type": "address"
            },
            {
              "internalType": "address",
              "name": "multisigAddr",
              "type": "address"
            },
            {
              "internalType": "bytes32",
              "name": "txID",
              "type": "bytes32"
            }
          ],
          "internalType": "struct MinipoolManager.Minipool",
          "name": "mp",
          "type": "tuple"
        }
      ],
      "stateMutability": "view",
      "type": "function"
    },
    {
      "inputs": [
        {
          "internalType": "address",
          "name": "nodeID",
          "type": "address"
        }
      ],
      "name": "getMinipoolByNodeID",
      "outputs": [
        {
          "components": [
            {
              "internalType": "int256",
              "name": "index",
              "type": "int256"
            },
            {
              "internalType": "address",
              "name": "nodeID",
              "type": "address"
            },
            {
              "internalType": "uint256",
              "name": "status",
              "type": "uint256"
            },
            {
              "internalType": "uint256",
              "name": "duration",
              "type": "uint256"
            },
            {
              "internalType": "uint256",
              "name": "startTime",
              "type": "uint256"
            },
            {
              "internalType": "uint256",
              "name": "endTime",
              "type": "uint256"
            },
            {
              "internalType": "uint256",
              "name": "delegationFee",
              "type": "uint256"
            },
            {
              "internalType": "uint256",
              "name": "ggpSlashAmt",
              "type": "uint256"
            },
            {
              "internalType": "uint256",
              "name": "avaxNodeOpAmt",
              "type": "uint256"
            },
            {
              "internalType": "uint256",
              "name": "avaxLiquidStakerAmt",
              "type": "uint256"
            },
            {
              "internalType": "uint256",
              "name": "avaxTotalRewardAmt",
              "type": "uint256"
            },
            {
              "internalType": "uint256",
              "name": "avaxNodeOpRewardAmt",
              "type": "uint256"
            },
            {
              "internalType": "uint256",
              "name": "avaxLiquidStakerRewardAmt",
              "type": "uint256"
            },
            {
              "internalType": "bytes32",
              "name": "errorCode",
              "type": "bytes32"
            },
            {
              "internalType": "address",
              "name": "owner",
              "type": "address"
            },
            {
              "internalType": "address",
              "name": "multisigAddr",
              "type": "address"
            },
            {
              "internalType": "bytes32",
              "name": "txID",
              "type": "bytes32"
            }
          ],
          "internalType": "struct MinipoolManager.Minipool",
          "name": "mp",
          "type": "tuple"
        }
      ],
      "stateMutability": "view",
      "type": "function"
    },
    {
      "inputs": [],
      "name": "getMinipoolCount",
      "outputs": [
        {
          "internalType": "uint256",
          "name": "",
          "type": "uint256"
        }
      ],
      "stateMutability": "view",
      "type": "function"
    },
    {
      "inputs": [
        {
          "internalType": "enum MinipoolStatus",
          "name": "status",
          "type": "uint8"
        },
        {
          "internalType": "uint256",
          "name": "offset",
          "type": "uint256"
        },
        {
          "internalType": "uint256",
          "name": "limit",
          "type": "uint256"
        }
      ],
      "name": "getMinipools",
      "outputs": [
        {
          "components": [
            {
              "internalType": "int256",
              "name": "index",
              "type": "int256"
            },
            {
              "internalType": "address",
              "name": "nodeID",
              "type": "address"
            },
            {
              "internalType": "uint256",
              "name": "status",
              "type": "uint256"
            },
            {
              "internalType": "uint256",
              "name": "duration",
              "type": "uint256"
            },
            {
              "internalType": "uint256",
              "name": "startTime",
              "type": "uint256"
            },
            {
              "internalType": "uint256",
              "name": "endTime",
              "type": "uint256"
            },
            {
              "internalType": "uint256",
              "name": "delegationFee",
              "type": "uint256"
            },
            {
              "internalType": "uint256",
              "name": "ggpSlashAmt",
              "type": "uint256"
            },
            {
              "internalType": "uint256",
              "name": "avaxNodeOpAmt",
              "type": "uint256"
            },
            {
              "internalType": "uint256",
              "name": "avaxLiquidStakerAmt",
              "type": "uint256"
            },
            {
              "internalType": "uint256",
              "name": "avaxTotalRewardAmt",
              "type": "uint256"
            },
            {
              "internalType": "uint256",
              "name": "avaxNodeOpRewardAmt",
              "type": "uint256"
            },
            {
              "internalType": "uint256",
              "name": "avaxLiquidStakerRewardAmt",
              "type": "uint256"
            },
            {
              "internalType": "bytes32",
              "name": "errorCode",
              "type": "bytes32"
            },
            {
              "internalType": "address",
              "name": "owner",
              "type": "address"
            },
            {
              "internalType": "address",
              "name": "multisigAddr",
              "type": "address"
            },
            {
              "internalType": "bytes32",
              "name": "txID",
              "type": "bytes32"
            }
          ],
          "internalType": "struct MinipoolManager.Minipool[]",
          "name": "minipools",
          "type": "tuple[]"
        }
      ],
      "stateMutability": "view",
      "type": "function"
    },
    {
      "inputs": [
        {
          "internalType": "bytes32",
          "name": "settingNameSpace",
          "type": "bytes32"
        },
        {
          "internalType": "string",
          "name": "_settingPath",
          "type": "string"
        }
      ],
      "name": "getSettingAddress",
      "outputs": [
        {
          "internalType": "address",
          "name": "",
          "type": "address"
        }
      ],
      "stateMutability": "view",
      "type": "function"
    },
    {
      "inputs": [
        {
          "internalType": "bytes32",
          "name": "settingNameSpace",
          "type": "bytes32"
        },
        {
          "internalType": "string",
          "name": "_settingPath",
          "type": "string"
        }
      ],
      "name": "getSettingBool",
      "outputs": [
        {
          "internalType": "bool",
          "name": "",
          "type": "bool"
        }
      ],
      "stateMutability": "view",
      "type": "function"
    },
    {
      "inputs": [
        {
          "internalType": "bytes32",
          "name": "settingNameSpace",
          "type": "bytes32"
        },
        {
          "internalType": "string",
          "name": "_settingPath",
          "type": "string"
        }
      ],
      "name": "getSettingUint",
      "outputs": [
        {
          "internalType": "uint256",
          "name": "",
          "type": "uint256"
        }
      ],
      "stateMutability": "view",
      "type": "function"
    },
    {
      "inputs": [],
      "name": "getTotalAvaxLiquidStakerAmt",
      "outputs": [
        {
          "internalType": "uint256",
          "name": "",
          "type": "uint256"
        }
      ],
      "stateMutability": "view",
      "type": "function"
    },
    {
      "inputs": [],
      "name": "ggAVAX",
      "outputs": [
        {
          "internalType": "contract TokenggAVAX",
          "name": "",
          "type": "address"
        }
      ],
      "stateMutability": "view",
      "type": "function"
    },
    {
      "inputs": [],
      "name": "ggp",
      "outputs": [
        {
          "internalType": "contract ERC20",
          "name": "",
          "type": "address"
        }
      ],
      "stateMutability": "view",
      "type": "function"
    },
    {
      "inputs": [],
      "name": "receiveWithdrawalAVAX",
      "outputs": [],
      "stateMutability": "payable",
      "type": "function"
    },
    {
      "inputs": [
        {
          "internalType": "address",
          "name": "nodeID",
          "type": "address"
        },
        {
          "internalType": "uint256",
          "name": "endTime",
          "type": "uint256"
        },
        {
          "internalType": "uint256",
          "name": "avaxTotalRewardAmt",
          "type": "uint256"
        }
      ],
      "name": "recordStakingEnd",
      "outputs": [],
      "stateMutability": "payable",
      "type": "function"
    },
    {
      "inputs": [
        {
          "internalType": "address",
          "name": "nodeID",
          "type": "address"
        },
        {
          "internalType": "bytes32",
          "name": "errorCode",
          "type": "bytes32"
        }
      ],
      "name": "recordStakingError",
      "outputs": [],
      "stateMutability": "payable",
      "type": "function"
    },
    {
      "inputs": [
        {
          "internalType": "address",
          "name": "nodeID",
          "type": "address"
        },
        {
          "internalType": "bytes32",
          "name": "txID",
          "type": "bytes32"
        },
        {
          "internalType": "uint256",
          "name": "startTime",
          "type": "uint256"
        }
      ],
      "name": "recordStakingStart",
      "outputs": [],
      "stateMutability": "nonpayable",
      "type": "function"
    },
    {
      "inputs": [
        {
          "internalType": "address",
          "name": "nodeID",
          "type": "address"
        },
        {
          "internalType": "enum MinipoolStatus",
          "name": "status",
          "type": "uint8"
        }
      ],
      "name": "updateMinipoolStatus",
      "outputs": [],
      "stateMutability": "nonpayable",
      "type": "function"
    },
    {
      "inputs": [],
      "name": "version",
      "outputs": [
        {
          "internalType": "uint8",
          "name": "",
          "type": "uint8"
        }
      ],
      "stateMutability": "view",
      "type": "function"
    },
    {
      "inputs": [
        {
          "internalType": "address",
          "name": "nodeID",
          "type": "address"
        }
      ],
      "name": "withdrawMinipoolFunds",
      "outputs": [],
      "stateMutability": "nonpayable",
      "type": "function"
    }
  ],
  "bytecode": "0x60c06040523480156200001157600080fd5b506040516200379f3803806200379f833981016040819052620000349162000086565b6000805460ff196001600160a01b0395861661010002166001600160a81b03199091161760011790559082166080521660a052620000da565b6001600160a01b03811681146200008357600080fd5b50565b6000806000606084860312156200009c57600080fd5b8351620000a9816200006d565b6020850151909350620000bc816200006d565b6040850151909250620000cf816200006d565b809150509250925092565b60805160a0516136836200011c60003960008181610394015281816111e601528181611373015281816117d60152611f820152600061049201526136836000f3fe6080604052600436106101815760003560e01c8063a715c8b6116100d1578063de5a61e31161008a578063f321df4911610064578063f321df4914610480578063f4812b88146104b4578063f4d70e78146104d4578063ffe092411461026157600080fd5b8063de5a61e314610420578063e92aa0ce14610440578063ea3092d11461046057600080fd5b8063a715c8b614610355578063abd149dc14610382578063ae4d0bed146103b6578063af8ccb59146103cb578063cbb3e2b4146103eb578063d8ce16f41461040057600080fd5b806353ee40961161013e5780638e481d60116101185780638e481d60146102d5578063934857bb146102e85780639a3070a0146103155780639cbed3401461033557600080fd5b806353ee40961461027657806354fd4d5014610289578063809784c5146102b557600080fd5b8063017df5221461018657806304433bbc146101b957806306eaa68b146101f1578063232de716146102115780632f1fbf9b14610241578063356ff5a514610263575b600080fd5b34801561019257600080fd5b506101a66101a1366004612c86565b6104f4565b6040519081526020015b60405180910390f35b3480156101c557600080fd5b506101d96101d4366004612d46565b610537565b6040516001600160a01b0390911681526020016101b0565b3480156101fd57600080fd5b506101d961020c366004612d7b565b6105bb565b34801561021d57600080fd5b5061023161022c366004612d7b565b6105da565b60405190151581526020016101b0565b34801561024d57600080fd5b5061026161025c366004612c86565b61060d565b005b610261610271366004612dc2565b61086b565b610261610284366004612dfd565b610fdd565b34801561029557600080fd5b506000546102a39060ff1681565b60405160ff90911681526020016101b0565b3480156102c157600080fd5b506102616102d0366004612c86565b6112ea565b6102616102e3366004612e29565b6114b3565b3480156102f457600080fd5b50610308610303366004612e72565b61196b565b6040516101b09190612f67565b34801561032157600080fd5b50610261610330366004612e29565b611a8a565b34801561034157600080fd5b50610261610350366004612c86565b611b43565b34801561036157600080fd5b50610375610370366004612c86565b611ba0565b6040516101b09190612fb6565b34801561038e57600080fd5b506101d97f000000000000000000000000000000000000000000000000000000000000000081565b3480156103c257600080fd5b506101a6611bbe565b3480156103d757600080fd5b506102616103e6366004612dfd565b611bdc565b3480156103f757600080fd5b506101a6611c23565b34801561040c57600080fd5b5061037561041b366004612fc5565b611c4e565b34801561042c57600080fd5b506101a661043b366004612fde565b611e42565b34801561044c57600080fd5b5061026161045b366004613000565b611f06565b34801561046c57600080fd5b5061023161047b366004612c86565b611f4f565b34801561048c57600080fd5b506101d97f000000000000000000000000000000000000000000000000000000000000000081565b3480156104c057600080fd5b506101a66104cf366004612fc5565b61201d565b3480156104e057600080fd5b506101a66104ef366004612d7b565b6120c1565b600060016105278360405160200161050c9190613035565b604051602081830303815290604052805190602001206120d9565b610531919061307f565b92915050565b6000806105698360405160200161054e91906130f9565b6040516020818303038152906040528051906020012061214c565b90506001600160a01b0381166105315760405162461bcd60e51b815260206004820152601260248201527110dbdb9d1c9858dd081b9bdd08199bdd5b9960721b60448201526064015b60405180910390fd5b60006105d3838360405160200161054e92919061311e565b9392505050565b60006105d383836040516020016105f292919061311e565b604051602081830303815290604052805190602001206121be565b600061061882612230565b905060006106308260405160200161054e9190613130565b9050336001600160a01b0382161461065b576040516347418db160e01b815260040160405180910390fd5b61066682600461225d565b61069a8260405160200161067a9190613160565b60408051601f19818403018152919052805160209091012060045b6123f8565b60006106c26040518060400160405280600581526020016415985d5b1d60da1b815250610537565b905060006106da8460405160200161050c91906131a7565b905060006106f28560405160200161050c91906131df565b90506000610700828461321d565b9050600061072c604051806040016040528060078152602001665374616b696e6760c81b815250610537565b60405163a1bb68a560e01b81526001600160a01b038881166004830152602482018790529192509082169063a1bb68a590604401600060405180830381600087803b15801561077a57600080fd5b505af115801561078e573d6000803e3d6000fd5b505060405163075c6c4b60e11b8152600481018590526001600160a01b0388169250630eb8d8969150602401600060405180830381600087803b1580156107d457600080fd5b505af11580156107e8573d6000803e3d6000fd5b505050506000866001600160a01b03168360405160006040518083038185875af1925050503d8060008114610839576040519150601f19603f3d011682016040523d82523d6000602084013e61083e565b606091505b505090508061086057604051639d60fd7560e01b815260040160405180910390fd5b505050505050505050565b6001600160a01b03841661089257604051636490ffd360e01b815260040160405180910390fd5b60006108c06040518060400160405280600b81526020016a50726f746f636f6c44414f60a81b815250610537565b905081341415806109315750806001600160a01b03166314ab2d476040518163ffffffff1660e01b8152600401602060405180830381865afa15801561090a573d6000803e3d6000fd5b505050506040513d601f19601f8201168201806040525081019061092e9190613235565b82115b8061099c5750806001600160a01b0316636a9cbe616040518163ffffffff1660e01b8152600401602060405180830381865afa158015610975573d6000803e3d6000fd5b505050506040513d601f19601f820116820180604052508101906109999190613235565b82105b156109ba5760405163577ab9b160e01b815260040160405180910390fd5b806001600160a01b031663cddf37d76040518163ffffffff1660e01b8152600401602060405180830381865afa1580156109f8573d6000803e3d6000fd5b505050506040513d601f19601f82011682018060405250810190610a1c9190613235565b610a26833461321d565b1015610a455760405163161712c560e11b815260040160405180910390fd5b6000610a6d6040518060400160405280600581526020016415985d5b1d60da1b815250610537565b9050806001600160a01b03166324056867346040518263ffffffff1660e01b81526004016000604051808303818588803b158015610aaa57600080fd5b505af1158015610abe573d6000803e3d6000fd5b50505050506000610aed604051806040016040528060078152602001665374616b696e6760c81b815250610537565b604051634f3d2e6f60e01b81523360048201523460248201529091506001600160a01b03821690634f3d2e6f90604401600060405180830381600087803b158015610b3757600080fd5b505af1158015610b4b573d6000803e3d6000fd5b50506040516317b27ea960e11b8152336004820152602481018790526001600160a01b0384169250632f64fd529150604401600060405180830381600087803b158015610b9757600080fd5b505af1158015610bab573d6000803e3d6000fd5b505060405163465887b360e01b81523360048201526001600160a01b038416925063465887b39150602401600060405180830381600087803b158015610bf057600080fd5b505af1158015610c04573d6000803e3d6000fd5b50506040516376aa7f9160e11b8152336004820152600092506001600160a01b038416915063ed54ff2290602401602060405180830381865afa158015610c4f573d6000803e3d6000fd5b505050506040513d601f19601f82011682018060405250810190610c739190613235565b9050836001600160a01b0316632a90c63a6040518163ffffffff1660e01b8152600401602060405180830381865afa158015610cb3573d6000803e3d6000fd5b505050506040513d601f19601f82011682018060405250810190610cd79190613235565b811015610cf757604051639e7fd11b60e01b815260040160405180910390fd5b6000610d02896104f4565b90508060001914610d2657610d1881600061225d565b610d218161245e565b610dbf565b610d3d60008051602061360e8339815191526120d9565b9050610d7689604051602001610d539190613035565b60405160208183030381529060405280519060200120826001610695919061324e565b610da681604051602001610d8a919061328f565b604051602081830303815290604052805190602001208a612520565b610dbf60008051602061360e833981519152600161255f565b6000610df16040518060400160405280600f81526020016e26bab63a34b9b4b3a6b0b730b3b2b960891b815250610537565b90506000816001600160a01b0316632786fa9d6040518163ffffffff1660e01b8152600401602060405180830381865afa158015610e33573d6000803e3d6000fd5b505050506040513d601f19601f82011682018060405250810190610e5791906132c0565b9050610e8c83604051602001610e6d9190613160565b60408051601f19818403018152919052805160209091012060006123f8565b610ebc83604051602001610ea091906132dd565b604051602081830303815290604052805190602001208b6123f8565b610eec83604051602001610ed09190613310565b6040516020818303038152906040528051906020012082612520565b610f1c83604051602001610f009190613130565b6040516020818303038152906040528051906020012033612520565b610f4c83604051602001610f3091906131a7565b60405160208183030381529060405280519060200120346123f8565b610f7c83604051602001610f609190613347565b60405160208183030381529060405280519060200120896123f8565b610fac83604051602001610f909190613385565b604051602081830303815290604052805190602001208a6123f8565b60006040516001600160a01b038d169060008051602061362e83398151915290600090a35050505050505050505050565b6000610fe88361259b565b9050610ff581600661225d565b600061100b8260405160200161054e9190613130565b905060006110238360405160200161050c91906131a7565b9050600061103b8460405160200161050c9190613347565b9050611047818361321d565b34146110665760405163162908e360e11b815260040160405180910390fd5b600061108e6040518060400160405280600581526020016415985d5b1d60da1b815250610537565b905060006110ba604051806040016040528060078152602001665374616b696e6760c81b815250610537565b90506110ec866040516020016110d091906133bd565b60405160208183030381529060405280519060200120886125f1565b61111f866040516020016111009190613160565b60408051601f19818403018152919052805160209091012060066123f8565b6111508660405160200161113391906133f1565b6040516020818303038152906040528051906020012060006123f8565b6111648660405160200161113391906131df565b61117886604051602001611133919061342e565b816001600160a01b03166324056867856040518263ffffffff1660e01b81526004016000604051808303818588803b1580156111b357600080fd5b505af11580156111c7573d6000803e3d6000fd5b5050604051630e0f72f160e21b815260048101879052600060248201527f00000000000000000000000000000000000000000000000000000000000000006001600160a01b0316935063383dcbc492508691506044016000604051808303818588803b15801561123657600080fd5b505af115801561124a573d6000803e3d6000fd5b5050604051635c627b0960e11b81526001600160a01b038981166004830152602482018890528516935063b8c4f61292506044019050600060405180830381600087803b15801561129a57600080fd5b505af11580156112ae573d6000803e3d6000fd5b505050506112bb8361262d565b60065b6040516001600160a01b038a169060008051602061362e83398151915290600090a35050505050505050565b60006112f58261259b565b905061130281600161225d565b600061132a6040518060400160405280600581526020016415985d5b1d60da1b815250610537565b905060006113428360405160200161050c91906131a7565b9050600061135a8460405160200161050c9190613347565b60405163efe441d960e01b8152600481018290529091507f00000000000000000000000000000000000000000000000000000000000000006001600160a01b03169063efe441d990602401600060405180830381600087803b1580156113bf57600080fd5b505af11580156113d3573d6000803e3d6000fd5b505050506113e081612657565b60405163075c6c4b60e11b8152600481018390526001600160a01b03841690630eb8d89690602401600060405180830381600087803b15801561142257600080fd5b505af1158015611436573d6000803e3d6000fd5b5050505060008183611448919061321d565b905061147d8560405160200161145e9190613160565b60408051601f19818403018152919052805160209091012060016123f8565b60016040516001600160a01b0388169060008051602061362e83398151915290600090a36114ab3382612681565b505050505050565b60006114be8461259b565b90506114cb81600361225d565b60006114e18260405160200161050c9190613475565b905080841115806114f157504284115b1561150f576040516338af65f760e01b815260040160405180910390fd5b60006115258360405160200161050c91906131a7565b9050600061153d8460405160200161050c9190613347565b9050600061154b828461321d565b9050611557868261321d565b34146115765760405163162908e360e11b815260040160405180910390fd5b600061159e6040518060400160405280600581526020016415985d5b1d60da1b815250610537565b905060006115ca604051806040016040528060078152602001665374616b696e6760c81b815250610537565b905060006115e28860405160200161054e9190613130565b9050611617886040516020016115f89190613160565b60408051601f19818403018152919052805160209091012060036123f8565b61162b88604051602001610ea091906134a9565b61163f88604051602001610f9091906133f1565b600061164c60028b6134db565b9050600061167c6040518060400160405280600b81526020016a50726f746f636f6c44414f60a81b815250610537565b905060006116ec826001600160a01b031663e73372276040518163ffffffff1660e01b8152600401602060405180830381865afa1580156116c1573d6000803e3d6000fd5b505050506040513d601f19601f820116820180604052508101906116e59190613235565b84906126d2565b6116f690846134fd565b90506000611704828e6134fd565b90506117368c60405160200161171a91906131df565b60405160208183030381529060405280519060200120826123f8565b6117668c60405160200161174a919061342e565b60405160208183030381529060405280519060200120836123f8565b8c600003611777576117778c6126e7565b6001600160a01b0387166324056867611790838d61321d565b6040518263ffffffff1660e01b81526004016000604051808303818588803b1580156117bb57600080fd5b505af11580156117cf573d6000803e3d6000fd5b50505050507f00000000000000000000000000000000000000000000000000000000000000006001600160a01b031663383dcbc4838b61180f919061321d565b6040516001600160e01b031960e084901b168152600481018d9052602481018690526044016000604051808303818588803b15801561184d57600080fd5b505af1158015611861573d6000803e3d6000fd5b5050604051635c627b0960e11b81526001600160a01b038981166004830152602482018e90528a16935063b8c4f61292506044019050600060405180830381600087803b1580156118b157600080fd5b505af11580156118c5573d6000803e3d6000fd5b505050506118d28961262d565b6040516323ca17bd60e01b81526001600160a01b0386811660048301528716906323ca17bd90602401600060405180830381600087803b15801561191557600080fd5b505af1158015611929573d6000803e3d6000fd5b5060039250611936915050565b8f6001600160a01b031660008051602061362e83398151915260405160405180910390a3505050505050505050505050505050565b6060600061198660008051602061360e8339815191526120d9565b90506000611994848661321d565b9050818111806119a2575083155b156119aa5750805b6119b485826134fd565b67ffffffffffffffff8111156119cc576119cc612ca3565b604051908082528060200260200182016040528015611a0557816020015b6119f2612bcc565b8152602001906001900390816119ea5790505b5092506000855b82811015611a7d576000611a1f82611c4e565b9050886006811115611a3357611a33613191565b816040015103611a6a5780868481518110611a5057611a50613514565b60200260200101819052508280611a669061352a565b9350505b5080611a758161352a565b915050611a0c565b5083525090949350505050565b6000611a958461259b565b9050611aa281600261225d565b611ad581604051602001611ab69190613160565b60408051601f19818403018152919052805160209091012060026123f8565b611b0581604051602001611ae99190613543565b60405160208183030381529060405280519060200120846125f1565b611b198160405160200161174a9190613475565b60026040516001600160a01b0386169060008051602061362e83398151915290600090a350505050565b6000611b4e82612230565b90506000611b668260405160200161054e9190613130565b9050336001600160a01b03821614611b915760405163112dcfdd60e31b815260040160405180910390fd5b611b9b8383612853565b505050565b611ba8612bcc565b6000611bb3836104f4565b90506105d381611c4e565b6000611bd760008051602061360e8339815191526120d9565b905090565b6000611be78361259b565b9050611c1981604051602001611bfd91906133bd565b60405160208183030381529060405280519060200120836125f1565b611b9b8382612853565b6000611bd77fd74baac736368c6c7f3dcae08c5ae5905fff103627f38fd74660dd5fb1dfa6716120d9565b611c56612bcc565b818152604051611c6e9061054e90849060200161328f565b6001600160a01b0316602080830191909152604051611c939161050c91859101613160565b816040018181525050611cb08260405160200161050c91906132dd565b6060820152604051611ce590611cca908490602001613543565b60405160208183030381529060405280519060200120612b26565b610200820152604051611d009061050c908490602001613475565b6080820152604051611d1a9061050c9084906020016134a9565b60a0820152604051611d349061050c908490602001613385565b60c0820152604051611d4e9061050c908490602001613572565b60e0820152604051611d689061050c9084906020016131a7565b610100820152604051611d839061050c908490602001613347565b610120820152604051611d9e9061050c9084906020016133f1565b610140820152604051611db99061050c9084906020016131df565b610160820152604051611dd49061050c90849060200161342e565b610180820152604051611def9061054e908490602001613310565b6001600160a01b03166101e0820152604051611e139061054e908490602001613130565b6001600160a01b03166101c0820152604051611e3790611cca9084906020016133bd565b6101a0820152919050565b600080611e716040518060400160405280600b81526020016a50726f746f636f6c44414f60a81b815250610537565b90506000816001600160a01b0316634712a1436040518163ffffffff1660e01b8152600401602060405180830381865afa158015611eb3573d6000803e3d6000fd5b505050506040513d601f19601f82011682018060405250810190611ed79190613235565b90506301e1338085611ee986846126d2565b611ef391906135a8565b611efd91906134db565b95945050505050565b6000611f1183612230565b9050611b9b81604051602001611f279190613160565b6040516020818303038152906040528051906020012083600681111561069557610695613191565b600080611f5b8361259b565b9050611f6881600161225d565b6000611f7e8260405160200161050c9190613347565b90507f00000000000000000000000000000000000000000000000000000000000000006001600160a01b031663be13733c6040518163ffffffff1660e01b8152600401602060405180830381865afa158015611fde573d6000803e3d6000fd5b505050506040513d601f19601f820116820180604052508101906120029190613235565b811115612013575060009392505050565b5060019392505050565b600080612047604051806040016040528060068152602001654f7261636c6560d01b815250610537565b90506000816001600160a01b031663bece349b6040518163ffffffff1660e01b81526004016040805180830381865afa158015612088573d6000803e3d6000fd5b505050506040513d601f19601f820116820180604052508101906120ac91906135c7565b5090506120b98482612b5c565b949350505050565b60006105d3838360405160200161050c92919061311e565b6000805460405163bd02d0f560e01b8152600481018490526101009091046001600160a01b03169063bd02d0f5906024015b602060405180830381865afa158015612128573d6000803e3d6000fd5b505050506040513d601f19601f820116820180604052508101906105319190613235565b600080546040516321f8a72160e01b8152600481018490526101009091046001600160a01b0316906321f8a72190602401602060405180830381865afa15801561219a573d6000803e3d6000fd5b505050506040513d601f19601f8201168201806040525081019061053191906132c0565b60008054604051633d70e7e560e11b8152600481018490526101009091046001600160a01b031690637ae1cfca90602401602060405180830381865afa15801561220c573d6000803e3d6000fd5b505050506040513d601f19601f8201168201806040525081019061053191906135eb565b60008061223c836104f4565b905080196105315760405163d2fc63e360e01b815260040160405180910390fd5b6000826040516020016122709190613160565b6040516020818303038152906040528051906020012090506000612293826120d9565b60068111156122a4576122a4613191565b90506000808260068111156122bb576122bb613191565b036122f95760018460068111156122d4576122d4613191565b14806122f2575060055b8460068111156122f0576122f0613191565b145b90506123d3565b600182600681111561230d5761230d613191565b036123355760025b84600681111561232757612327613191565b14806122f2575060066122de565b600282600681111561234957612349613191565b03612355576003612315565b600382600681111561236957612369613191565b14806123865750600682600681111561238457612384613191565b145b156123925760046122de565b60048260068111156123a6576123a6613191565b14806123c3575060058260068111156123c1576123c1613191565b145b156123cf5760006122de565b5060005b806123f1576040516323e69e0360e21b815260040160405180910390fd5b5050505050565b600054604051637152429d60e11b815260048101849052602481018390526101009091046001600160a01b03169063e2a4853a906044015b600060405180830381600087803b15801561244a57600080fd5b505af11580156114ab573d6000803e3d6000fd5b612491816040516020016124729190613543565b604051602081830303815290604052805190602001206000801b6125f1565b6124a5816040516020016111339190613475565b6124b98160405160200161113391906134a9565b6124cd8160405160200161113391906133f1565b6124e18160405160200161113391906131df565b6124f581604051602001611133919061342e565b612509816040516020016111339190613572565b61251d8160405160200161247291906133bd565b50565b60005460405163ca446dd960e01b8152600481018490526001600160a01b0383811660248301526101009092049091169063ca446dd990604401612430565b600054604051632b6cd4f760e21b815260048101849052602481018390526101009091046001600160a01b03169063adb353dc90604401612430565b6000806125a783612230565b905060006125bf8260405160200161054e9190613310565b9050336001600160a01b038216146125ea5760405163c2bd570760e01b815260040160405180910390fd5b5092915050565b6000546040516309d23b6160e31b815260048101849052602481018390526101009091046001600160a01b031690634e91db0890604401612430565b61251d7fd74baac736368c6c7f3dcae08c5ae5905fff103627f38fd74660dd5fb1dfa67182612b71565b61251d7fd74baac736368c6c7f3dcae08c5ae5905fff103627f38fd74660dd5fb1dfa6718261255f565b600080600080600085875af1905080611b9b5760405162461bcd60e51b815260206004820152601360248201527211551217d514905394d1915497d19052531151606a1b60448201526064016105b2565b60006105d38383670de0b6b3a7640000612bad565b60006126fd8260405160200161054e919061328f565b905060006127158360405160200161054e9190613130565b9050600061272d8460405160200161050c91906132dd565b905060006127458560405160200161050c9190613347565b905060006127538383611e42565b905060006127608261201d565b90506127768760405160200161171a9190613572565b60006127a0604051806040016040528060078152602001665374616b696e6760c81b815250610537565b60405163065fe0a360e01b81526001600160a01b038881166004830152602482018590529192509082169063065fe0a390604401600060405180830381600087803b1580156127ee57600080fd5b505af1158015612802573d6000803e3d6000fd5b50505050866001600160a01b03167fa10866a4e21985bc2d4130717769d773ffe207cffc5fb5d714c8c030e0677ec78360405161284191815260200190565b60405180910390a25050505050505050565b61285e81600561225d565b612891816040516020016128729190613160565b60408051601f19818403018152919052805160209091012060056123f8565b60006128a78260405160200161054e9190613130565b905060006128bf8360405160200161050c91906131a7565b905060006128d78460405160200161050c9190613347565b90506000612903604051806040016040528060078152602001665374616b696e6760c81b815250610537565b60405163a1bb68a560e01b81526001600160a01b038681166004830152602482018690529192509082169063a1bb68a590604401600060405180830381600087803b15801561295157600080fd5b505af1158015612965573d6000803e3d6000fd5b5050604051635c627b0960e11b81526001600160a01b038781166004830152602482018690528416925063b8c4f6129150604401600060405180830381600087803b1580156129b357600080fd5b505af11580156129c7573d6000803e3d6000fd5b50506040516323ca17bd60e01b81526001600160a01b038781166004830152841692506323ca17bd9150602401600060405180830381600087803b158015612a0e57600080fd5b505af1158015612a22573d6000803e3d6000fd5b505050506000612a4e6040518060400160405280600581526020016415985d5b1d60da1b815250610537565b60405163075c6c4b60e11b8152600481018690529091506001600160a01b03821690630eb8d89690602401600060405180830381600087803b158015612a9357600080fd5b505af1158015612aa7573d6000803e3d6000fd5b505050506000856001600160a01b03168560405160006040518083038185875af1925050503d8060008114612af8576040519150601f19603f3d011682016040523d82523d6000602084013e612afd565b606091505b5050905080612b1f57604051639d60fd7560e01b815260040160405180910390fd5b60056112be565b60008054604051635376ab1f60e11b8152600481018490526101009091046001600160a01b03169063a6ed563e9060240161210b565b60006105d383670de0b6b3a764000084612bad565b60005460405163ebb9d8c960e01b815260048101849052602481018390526101009091046001600160a01b03169063ebb9d8c990604401612430565b828202811515841585830485141716612bc557600080fd5b0492915050565b6040518061022001604052806000815260200160006001600160a01b0316815260200160008152602001600081526020016000815260200160008152602001600081526020016000815260200160008152602001600081526020016000815260200160008152602001600081526020016000801916815260200160006001600160a01b0316815260200160006001600160a01b03168152602001600080191681525090565b6001600160a01b038116811461251d57600080fd5b600060208284031215612c9857600080fd5b81356105d381612c71565b634e487b7160e01b600052604160045260246000fd5b600082601f830112612cca57600080fd5b813567ffffffffffffffff80821115612ce557612ce5612ca3565b604051601f8301601f19908116603f01168101908282118183101715612d0d57612d0d612ca3565b81604052838152866020858801011115612d2657600080fd5b836020870160208301376000602085830101528094505050505092915050565b600060208284031215612d5857600080fd5b813567ffffffffffffffff811115612d6f57600080fd5b6120b984828501612cb9565b60008060408385031215612d8e57600080fd5b82359150602083013567ffffffffffffffff811115612dac57600080fd5b612db885828601612cb9565b9150509250929050565b60008060008060808587031215612dd857600080fd5b8435612de381612c71565b966020860135965060408601359560600135945092505050565b60008060408385031215612e1057600080fd5b8235612e1b81612c71565b946020939093013593505050565b600080600060608486031215612e3e57600080fd5b8335612e4981612c71565b95602085013595506040909401359392505050565b803560078110612e6d57600080fd5b919050565b600080600060608486031215612e8757600080fd5b612e4984612e5e565b805182526020810151612eae60208401826001600160a01b03169052565b5060408181015190830152606080820151908301526080808201519083015260a0808201519083015260c0808201519083015260e08082015190830152610100808201519083015261012080820151908301526101408082015190830152610160808201519083015261018080820151908301526101a080820151908301526101c0808201516001600160a01b0381168285015250506101e0818101516001600160a01b03811684830152505061020090810151910152565b6020808252825182820181905260009190848201906040850190845b81811015612faa57612f96838551612e90565b928401926102209290920191600101612f83565b50909695505050505050565b61022081016105318284612e90565b600060208284031215612fd757600080fd5b5035919050565b60008060408385031215612ff157600080fd5b50508035926020909101359150565b6000806040838503121561301357600080fd5b823561301e81612c71565b915061302c60208401612e5e565b90509250929050565b6d0dad2dcd2e0deded85cd2dcc8caf60931b815260609190911b6bffffffffffffffffffffffff1916600e82015260220190565b634e487b7160e01b600052601160045260246000fd5b60008083128015600160ff1b85018412161561309d5761309d613069565b6001600160ff1b03840183138116156130b8576130b8613069565b50500390565b6000815160005b818110156130df57602081850181015186830152016130c5565b818111156130ee576000828601525b509290920192915050565b6f636f6e74726163742e6164647265737360801b815260006105d360108301846130be565b82815260006120b960208301846130be565b6c6d696e69706f6f6c2e6974656d60981b8152600d810191909152651737bbb732b960d11b602d82015260330190565b6c6d696e69706f6f6c2e6974656d60981b8152600d810191909152662e73746174757360c81b602d82015260340190565b634e487b7160e01b600052602160045260246000fd5b6c6d696e69706f6f6c2e6974656d60981b8152600d8101919091526d0b985d985e139bd91953dc105b5d60921b602d820152603b0190565b6c6d696e69706f6f6c2e6974656d60981b8152600d810191909152730b985d985e139bd91953dc14995dd85c99105b5d60621b602d82015260410190565b6000821982111561323057613230613069565b500190565b60006020828403121561324757600080fd5b5051919050565b600080821280156001600160ff1b038490038513161561327057613270613069565b600160ff1b839003841281161561328957613289613069565b50500190565b6c6d696e69706f6f6c2e6974656d60981b8152600d810191909152660b9b9bd919525160ca1b602d82015260340190565b6000602082840312156132d257600080fd5b81516105d381612c71565b6c6d696e69706f6f6c2e6974656d60981b8152600d8101919091526817323ab930ba34b7b760b91b602d82015260360190565b6c6d696e69706f6f6c2e6974656d60981b8152600d8101919091526c1736bab63a34b9b4b3a0b2323960991b602d820152603a0190565b6c6d696e69706f6f6c2e6974656d60981b8152600d810191909152730b985d985e131a5c5d5a5914dd185ad95c905b5d60621b602d82015260410190565b6c6d696e69706f6f6c2e6974656d60981b8152600d8101919091526d2e64656c65676174696f6e46656560901b602d820152603b0190565b6c6d696e69706f6f6c2e6974656d60981b8152600d810191909152692e6572726f72436f646560b01b602d82015260370190565b6c6d696e69706f6f6c2e6974656d60981b8152600d810191909152720b985d985e151bdd185b14995dd85c99105b5d606a1b602d82015260400190565b6c6d696e69706f6f6c2e6974656d60981b8152600d8101919091527f2e617661784c69717569645374616b6572526577617264416d74000000000000602d82015260470190565b6c6d696e69706f6f6c2e6974656d60981b8152600d810191909152692e737461727454696d6560b01b602d82015260370190565b6c6d696e69706f6f6c2e6974656d60981b8152600d810191909152672e656e6454696d6560c01b602d82015260350190565b6000826134f857634e487b7160e01b600052601260045260246000fd5b500490565b60008282101561350f5761350f613069565b500390565b634e487b7160e01b600052603260045260246000fd5b60006001820161353c5761353c613069565b5060010190565b6c6d696e69706f6f6c2e6974656d60981b8152600d810191909152640b9d1e125160da1b602d82015260320190565b6c6d696e69706f6f6c2e6974656d60981b8152600d8101919091526b0b99d9dc14db185cda105b5d60a21b602d82015260390190565b60008160001904831182151516156135c2576135c2613069565b500290565b600080604083850312156135da57600080fd5b505080516020909101519092909150565b6000602082840312156135fd57600080fd5b815180151581146105d357600080fdfee0350abf7e528889b5822fca885fa12de74628619c3752923dd9ec3ce44e4602c9c043637725967252aedd2704cc65fee962e7b8a1e3cf8098587a66601e50c5a2646970667358221220bfa2c53dbd1621fef6bc5bab22fe5f279a23eb0b4fcfd086453be1ea41b8fc3564736f6c634300080d0033",
  "linkReferences": {},
  "deployedLinkReferences": {}
}