{
  "_format": "hh-sol-artifact-1",
  "contractName": "MinipoolManager",
  "sourceName": "contracts/contract/MinipoolManager.sol",
  "abi": [
    {
      "inputs": [
        {
          "internalType": "contract Storage",
          "name": "storageAddress",
          "type": "address"
        },
        {
          "internalType": "contract ERC20",
          "name": "ggp_",
          "type": "address"
        },
        {
          "internalType": "contract TokenggAVAX",
          "name": "ggAVAX_",
          "type": "address"
        }
      ],
      "stateMutability": "nonpayable",
      "type": "constructor"
    },
    {
      "inputs": [],
      "name": "ContractNotFound",
      "type": "error"
    },
    {
      "inputs": [],
      "name": "ContractPaused",
      "type": "error"
    },
    {
      "inputs": [],
      "name": "InsufficientAVAXForMinipoolCreation",
      "type": "error"
    },
    {
      "inputs": [],
      "name": "InsufficientGGPCollateralization",
      "type": "error"
    },
    {
      "inputs": [],
      "name": "InvalidAVAXAssignmentRequest",
      "type": "error"
    },
    {
      "inputs": [],
      "name": "InvalidAmount",
      "type": "error"
    },
    {
      "inputs": [],
      "name": "InvalidEndTime",
      "type": "error"
    },
    {
      "inputs": [],
      "name": "InvalidMultisigAddress",
      "type": "error"
    },
    {
      "inputs": [],
      "name": "InvalidNodeID",
      "type": "error"
    },
    {
      "inputs": [],
      "name": "InvalidOrOutdatedContract",
      "type": "error"
    },
    {
      "inputs": [],
      "name": "InvalidStateTransition",
      "type": "error"
    },
    {
      "inputs": [],
      "name": "MinipoolNotFound",
      "type": "error"
    },
    {
      "inputs": [],
      "name": "MustBeGuardian",
      "type": "error"
    },
    {
      "inputs": [],
      "name": "MustBeGuardianOrValidContract",
      "type": "error"
    },
    {
      "inputs": [],
      "name": "MustBeMultisig",
      "type": "error"
    },
    {
      "inputs": [],
      "name": "OnlyOwner",
      "type": "error"
    },
    {
      "anonymous": false,
      "inputs": [
        {
          "indexed": true,
          "internalType": "address",
          "name": "nodeID",
          "type": "address"
        },
        {
          "indexed": false,
          "internalType": "uint256",
          "name": "ggp",
          "type": "uint256"
        }
      ],
      "name": "GGPSlashed",
      "type": "event"
    },
    {
      "anonymous": false,
      "inputs": [
        {
          "indexed": true,
          "internalType": "address",
          "name": "nodeID",
          "type": "address"
        },
        {
          "indexed": true,
          "internalType": "enum MinipoolStatus",
          "name": "status",
          "type": "uint8"
        }
      ],
      "name": "MinipoolStatusChanged",
      "type": "event"
    },
    {
      "inputs": [
        {
          "internalType": "uint256",
          "name": "avaxRewardAmt",
          "type": "uint256"
        }
      ],
      "name": "calculateGGPSlashAmt",
      "outputs": [
        {
          "internalType": "uint256",
          "name": "",
          "type": "uint256"
        }
      ],
      "stateMutability": "view",
      "type": "function"
    },
    {
      "inputs": [
        {
          "internalType": "address",
          "name": "nodeID",
          "type": "address"
        }
      ],
      "name": "canClaimAndInitiateStaking",
      "outputs": [
        {
          "internalType": "bool",
          "name": "",
          "type": "bool"
        }
      ],
      "stateMutability": "view",
      "type": "function"
    },
    {
      "inputs": [
        {
          "internalType": "address",
          "name": "nodeID",
          "type": "address"
        }
      ],
      "name": "cancelMinipool",
      "outputs": [],
      "stateMutability": "nonpayable",
      "type": "function"
    },
    {
      "inputs": [
        {
          "internalType": "address",
          "name": "nodeID",
          "type": "address"
        },
        {
          "internalType": "bytes32",
          "name": "errorCode",
          "type": "bytes32"
        }
      ],
      "name": "cancelMinipoolByMultisig",
      "outputs": [],
      "stateMutability": "nonpayable",
      "type": "function"
    },
    {
      "inputs": [
        {
          "internalType": "address",
          "name": "nodeID",
          "type": "address"
        }
      ],
      "name": "claimAndInitiateStaking",
      "outputs": [],
      "stateMutability": "nonpayable",
      "type": "function"
    },
    {
      "inputs": [
        {
          "internalType": "address",
          "name": "nodeID",
          "type": "address"
        },
        {
          "internalType": "uint256",
          "name": "duration",
          "type": "uint256"
        },
        {
          "internalType": "uint256",
          "name": "delegationFee",
          "type": "uint256"
        },
        {
          "internalType": "uint256",
          "name": "avaxAssignmentRequest",
          "type": "uint256"
        }
      ],
      "name": "createMinipool",
      "outputs": [],
      "stateMutability": "payable",
      "type": "function"
    },
    {
      "inputs": [
        {
          "internalType": "string",
          "name": "contractName",
          "type": "string"
        }
      ],
      "name": "getContractAddress",
      "outputs": [
        {
          "internalType": "address",
          "name": "",
          "type": "address"
        }
      ],
      "stateMutability": "view",
      "type": "function"
    },
    {
      "inputs": [
        {
          "internalType": "uint256",
          "name": "duration",
          "type": "uint256"
        },
        {
          "internalType": "uint256",
          "name": "avaxAmt",
          "type": "uint256"
        }
      ],
      "name": "getExpectedAVAXRewardsAmt",
      "outputs": [
        {
          "internalType": "uint256",
          "name": "",
          "type": "uint256"
        }
      ],
      "stateMutability": "view",
      "type": "function"
    },
    {
      "inputs": [
        {
          "internalType": "address",
          "name": "nodeID",
          "type": "address"
        }
      ],
      "name": "getIndexOf",
      "outputs": [
        {
          "internalType": "int256",
          "name": "",
          "type": "int256"
        }
      ],
      "stateMutability": "view",
      "type": "function"
    },
    {
      "inputs": [
        {
          "internalType": "int256",
          "name": "index",
          "type": "int256"
        }
      ],
      "name": "getMinipool",
      "outputs": [
        {
          "components": [
            {
              "internalType": "int256",
              "name": "index",
              "type": "int256"
            },
            {
              "internalType": "address",
              "name": "nodeID",
              "type": "address"
            },
            {
              "internalType": "uint256",
              "name": "status",
              "type": "uint256"
            },
            {
              "internalType": "uint256",
              "name": "duration",
              "type": "uint256"
            },
            {
              "internalType": "uint256",
              "name": "startTime",
              "type": "uint256"
            },
            {
              "internalType": "uint256",
              "name": "endTime",
              "type": "uint256"
            },
            {
              "internalType": "uint256",
              "name": "delegationFee",
              "type": "uint256"
            },
            {
              "internalType": "uint256",
              "name": "ggpSlashAmt",
              "type": "uint256"
            },
            {
              "internalType": "uint256",
              "name": "avaxNodeOpAmt",
              "type": "uint256"
            },
            {
              "internalType": "uint256",
              "name": "avaxLiquidStakerAmt",
              "type": "uint256"
            },
            {
              "internalType": "uint256",
              "name": "avaxTotalRewardAmt",
              "type": "uint256"
            },
            {
              "internalType": "uint256",
              "name": "avaxNodeOpRewardAmt",
              "type": "uint256"
            },
            {
              "internalType": "uint256",
              "name": "avaxLiquidStakerRewardAmt",
              "type": "uint256"
            },
            {
              "internalType": "bytes32",
              "name": "errorCode",
              "type": "bytes32"
            },
            {
              "internalType": "address",
              "name": "owner",
              "type": "address"
            },
            {
              "internalType": "address",
              "name": "multisigAddr",
              "type": "address"
            },
            {
              "internalType": "bytes32",
              "name": "txID",
              "type": "bytes32"
            }
          ],
          "internalType": "struct MinipoolManager.Minipool",
          "name": "mp",
          "type": "tuple"
        }
      ],
      "stateMutability": "view",
      "type": "function"
    },
    {
      "inputs": [
        {
          "internalType": "address",
          "name": "nodeID",
          "type": "address"
        }
      ],
      "name": "getMinipoolByNodeID",
      "outputs": [
        {
          "components": [
            {
              "internalType": "int256",
              "name": "index",
              "type": "int256"
            },
            {
              "internalType": "address",
              "name": "nodeID",
              "type": "address"
            },
            {
              "internalType": "uint256",
              "name": "status",
              "type": "uint256"
            },
            {
              "internalType": "uint256",
              "name": "duration",
              "type": "uint256"
            },
            {
              "internalType": "uint256",
              "name": "startTime",
              "type": "uint256"
            },
            {
              "internalType": "uint256",
              "name": "endTime",
              "type": "uint256"
            },
            {
              "internalType": "uint256",
              "name": "delegationFee",
              "type": "uint256"
            },
            {
              "internalType": "uint256",
              "name": "ggpSlashAmt",
              "type": "uint256"
            },
            {
              "internalType": "uint256",
              "name": "avaxNodeOpAmt",
              "type": "uint256"
            },
            {
              "internalType": "uint256",
              "name": "avaxLiquidStakerAmt",
              "type": "uint256"
            },
            {
              "internalType": "uint256",
              "name": "avaxTotalRewardAmt",
              "type": "uint256"
            },
            {
              "internalType": "uint256",
              "name": "avaxNodeOpRewardAmt",
              "type": "uint256"
            },
            {
              "internalType": "uint256",
              "name": "avaxLiquidStakerRewardAmt",
              "type": "uint256"
            },
            {
              "internalType": "bytes32",
              "name": "errorCode",
              "type": "bytes32"
            },
            {
              "internalType": "address",
              "name": "owner",
              "type": "address"
            },
            {
              "internalType": "address",
              "name": "multisigAddr",
              "type": "address"
            },
            {
              "internalType": "bytes32",
              "name": "txID",
              "type": "bytes32"
            }
          ],
          "internalType": "struct MinipoolManager.Minipool",
          "name": "mp",
          "type": "tuple"
        }
      ],
      "stateMutability": "view",
      "type": "function"
    },
    {
      "inputs": [],
      "name": "getMinipoolCount",
      "outputs": [
        {
          "internalType": "uint256",
          "name": "",
          "type": "uint256"
        }
      ],
      "stateMutability": "view",
      "type": "function"
    },
    {
      "inputs": [
        {
          "internalType": "enum MinipoolStatus",
          "name": "status",
          "type": "uint8"
        },
        {
          "internalType": "uint256",
          "name": "offset",
          "type": "uint256"
        },
        {
          "internalType": "uint256",
          "name": "limit",
          "type": "uint256"
        }
      ],
      "name": "getMinipools",
      "outputs": [
        {
          "components": [
            {
              "internalType": "int256",
              "name": "index",
              "type": "int256"
            },
            {
              "internalType": "address",
              "name": "nodeID",
              "type": "address"
            },
            {
              "internalType": "uint256",
              "name": "status",
              "type": "uint256"
            },
            {
              "internalType": "uint256",
              "name": "duration",
              "type": "uint256"
            },
            {
              "internalType": "uint256",
              "name": "startTime",
              "type": "uint256"
            },
            {
              "internalType": "uint256",
              "name": "endTime",
              "type": "uint256"
            },
            {
              "internalType": "uint256",
              "name": "delegationFee",
              "type": "uint256"
            },
            {
              "internalType": "uint256",
              "name": "ggpSlashAmt",
              "type": "uint256"
            },
            {
              "internalType": "uint256",
              "name": "avaxNodeOpAmt",
              "type": "uint256"
            },
            {
              "internalType": "uint256",
              "name": "avaxLiquidStakerAmt",
              "type": "uint256"
            },
            {
              "internalType": "uint256",
              "name": "avaxTotalRewardAmt",
              "type": "uint256"
            },
            {
              "internalType": "uint256",
              "name": "avaxNodeOpRewardAmt",
              "type": "uint256"
            },
            {
              "internalType": "uint256",
              "name": "avaxLiquidStakerRewardAmt",
              "type": "uint256"
            },
            {
              "internalType": "bytes32",
              "name": "errorCode",
              "type": "bytes32"
            },
            {
              "internalType": "address",
              "name": "owner",
              "type": "address"
            },
            {
              "internalType": "address",
              "name": "multisigAddr",
              "type": "address"
            },
            {
              "internalType": "bytes32",
              "name": "txID",
              "type": "bytes32"
            }
          ],
          "internalType": "struct MinipoolManager.Minipool[]",
          "name": "minipools",
          "type": "tuple[]"
        }
      ],
      "stateMutability": "view",
      "type": "function"
    },
    {
      "inputs": [],
      "name": "getTotalAVAXLiquidStakerAmt",
      "outputs": [
        {
          "internalType": "uint256",
          "name": "",
          "type": "uint256"
        }
      ],
      "stateMutability": "view",
      "type": "function"
    },
    {
      "inputs": [],
      "name": "ggAVAX",
      "outputs": [
        {
          "internalType": "contract TokenggAVAX",
          "name": "",
          "type": "address"
        }
      ],
      "stateMutability": "view",
      "type": "function"
    },
    {
      "inputs": [],
      "name": "ggp",
      "outputs": [
        {
          "internalType": "contract ERC20",
          "name": "",
          "type": "address"
        }
      ],
      "stateMutability": "view",
      "type": "function"
    },
    {
      "inputs": [],
      "name": "receiveWithdrawalAVAX",
      "outputs": [],
      "stateMutability": "payable",
      "type": "function"
    },
    {
      "inputs": [
        {
          "internalType": "address",
          "name": "nodeID",
          "type": "address"
        },
        {
          "internalType": "uint256",
          "name": "endTime",
          "type": "uint256"
        },
        {
          "internalType": "uint256",
          "name": "avaxTotalRewardAmt",
          "type": "uint256"
        }
      ],
      "name": "recordStakingEnd",
      "outputs": [],
      "stateMutability": "payable",
      "type": "function"
    },
    {
      "inputs": [
        {
          "internalType": "address",
          "name": "nodeID",
          "type": "address"
        },
        {
          "internalType": "bytes32",
          "name": "errorCode",
          "type": "bytes32"
        }
      ],
      "name": "recordStakingError",
      "outputs": [],
      "stateMutability": "payable",
      "type": "function"
    },
    {
      "inputs": [
        {
          "internalType": "address",
          "name": "nodeID",
          "type": "address"
        },
        {
          "internalType": "bytes32",
          "name": "txID",
          "type": "bytes32"
        },
        {
          "internalType": "uint256",
          "name": "startTime",
          "type": "uint256"
        }
      ],
      "name": "recordStakingStart",
      "outputs": [],
      "stateMutability": "nonpayable",
      "type": "function"
    },
    {
      "inputs": [],
      "name": "version",
      "outputs": [
        {
          "internalType": "uint8",
          "name": "",
          "type": "uint8"
        }
      ],
      "stateMutability": "view",
      "type": "function"
    },
    {
      "inputs": [
        {
          "internalType": "address",
          "name": "nodeID",
          "type": "address"
        }
      ],
      "name": "withdrawMinipoolFunds",
      "outputs": [],
      "stateMutability": "nonpayable",
      "type": "function"
    }
  ],
  "bytecode": "0x60c0604052600180553480156200001557600080fd5b506040516200430d3803806200430d83398101604081905262000038916200008a565b6000805460ff196001600160a01b0395861661010002166001600160a81b03199091161760011790559082166080521660a052620000de565b6001600160a01b03811681146200008757600080fd5b50565b600080600060608486031215620000a057600080fd5b8351620000ad8162000071565b6020850151909350620000c08162000071565b6040850151909250620000d38162000071565b809150509250925092565b60805160a0516141ed62000120600039600081816103780152818161165d015281816118df01528181611f410152612acd0152600061044601526141ed6000f3fe6080604052600436106101755760003560e01c80639cbed340116100cb578063af8ccb591161007f578063ea3092d111610059578063ea3092d114610404578063f321df4914610434578063ffe092411461022557600080fd5b8063af8ccb59146103af578063d8ce16f4146103cf578063dab8d33e146103ef57600080fd5b8063a715c8b6116100b0578063a715c8b614610339578063abd149dc14610366578063ae4d0bed1461039a57600080fd5b80639cbed340146102f95780639deedebe1461031957600080fd5b806353ee40961161012d5780638e481d60116101075780638e481d6014610299578063934857bb146102ac5780639a3070a0146102d957600080fd5b806353ee40961461023a57806354fd4d501461024d578063809784c51461027957600080fd5b80631701d7a81161015e5780631701d7a8146101e55780632f1fbf9b14610205578063356ff5a51461022757600080fd5b8063017df5221461017a57806304433bbc146101ad575b600080fd5b34801561018657600080fd5b5061019a610195366004613be1565b610468565b6040519081526020015b60405180910390f35b3480156101b957600080fd5b506101cd6101c8366004613c6d565b6104d4565b6040516001600160a01b0390911681526020016101a4565b3480156101f157600080fd5b5061019a610200366004613ced565b61052f565b34801561021157600080fd5b50610225610220366004613be1565b6105f3565b005b610225610235366004613d0f565b610894565b610225610248366004613d4a565b6112d7565b34801561025957600080fd5b506000546102679060ff1681565b60405160ff90911681526020016101a4565b34801561028557600080fd5b50610225610294366004613be1565b6117ee565b6102256102a7366004613d76565b611a75565b3480156102b857600080fd5b506102cc6102c7366004613dab565b612120565b6040516101a49190613ea6565b3480156102e557600080fd5b506102256102f4366004613d76565b612251565b34801561030557600080fd5b50610225610314366004613be1565b61238b565b34801561032557600080fd5b5061019a610334366004613ef5565b6123f8565b34801561034557600080fd5b50610359610354366004613be1565b6124b3565b6040516101a49190613f0e565b34801561037257600080fd5b506101cd7f000000000000000000000000000000000000000000000000000000000000000081565b3480156103a657600080fd5b5061019a6124d8565b3480156103bb57600080fd5b506102256103ca366004613d4a565b612508565b3480156103db57600080fd5b506103596103ea366004613ef5565b61257b565b3480156103fb57600080fd5b5061019a612a39565b34801561041057600080fd5b5061042461041f366004613be1565b612a64565b60405190151581526020016101a4565b34801561044057600080fd5b506101cd7f000000000000000000000000000000000000000000000000000000000000000081565b6040516d0dad2dcd2e0deded85cd2dcc8caf60931b60208201526bffffffffffffffffffffffff19606083901b16602e8201526000906001906104c4906042015b60405160208183030381529060405280519060200120612b68565b6104ce9190613f33565b92915050565b600080610506836040516020016104eb9190613f77565b60405160208183030381529060405280519060200120612bdb565b90506001600160a01b0381166104ce57604051633b56498960e21b815260040160405180910390fd5b60008061055e6040518060400160405280600b81526020016a50726f746f636f6c44414f60a81b8152506104d4565b90506000816001600160a01b031663b57cc6e36040518163ffffffff1660e01b8152600401602060405180830381865afa1580156105a0573d6000803e3d6000fd5b505050506040513d601f19601f820116820180604052508101906105c49190613fbc565b90506301e13380856105d68684612c4d565b6105e09190613fd5565b6105ea9190613fec565b95945050505050565b6001546001146106375760405162461bcd60e51b815260206004820152600a6024820152695245454e5452414e435960b01b60448201526064015b60405180910390fd5b6002600155600061064782612c62565b9050600061065482612c8f565b9050610661826004612cfa565b6040516c6d696e69706f6f6c2e6974656d60981b6020820152602d8101839052662e73746174757360c81b604d8201526106b89060540160408051601f19818403018152919052805160209091012060045b612eb8565b6040516c6d696e69706f6f6c2e6974656d60981b6020820152602d81018390526d0b985d985e139bd91953dc105b5d60921b604d8201526000906106fe90605b016104a9565b6040516c6d696e69706f6f6c2e6974656d60981b6020820152602d8101859052730b985d985e139bd91953dc14995dd85c99105b5d60621b604d82015290915060009061074d906061016104a9565b9050600061075b8284614024565b90506000610787604051806040016040528060078152602001665374616b696e6760c81b8152506104d4565b60405163a1bb68a560e01b81526001600160a01b038781166004830152602482018790529192509082169063a1bb68a590604401600060405180830381600087803b1580156107d557600080fd5b505af11580156107e9573d6000803e3d6000fd5b5050505060006108156040518060400160405280600581526020016415985d5b1d60da1b8152506104d4565b60405163575ae6af60e11b8152600481018590529091506001600160a01b0382169063aeb5cd5e90602401600060405180830381600087803b15801561085a57600080fd5b505af115801561086e573d6000803e3d6000fd5b50610886925050506001600160a01b03871684612f26565b505060018055505050505050565b600061089f30612f81565b90506108d0816040516020016108b59190614037565b60405160208183030381529060405280519060200120613016565b156108ee5760405163ab35696f60e01b815260040160405180910390fd5b6001600160a01b03851661091557604051636490ffd360e01b815260040160405180910390fd5b60006109436040518060400160405280600b81526020016a50726f746f636f6c44414f60a81b8152506104d4565b905082341415806109b45750806001600160a01b0316635f0570086040518163ffffffff1660e01b8152600401602060405180830381865afa15801561098d573d6000803e3d6000fd5b505050506040513d601f19601f820116820180604052508101906109b19190613fbc565b83115b80610a1f5750806001600160a01b0316630ef7bfe46040518163ffffffff1660e01b8152600401602060405180830381865afa1580156109f8573d6000803e3d6000fd5b505050506040513d601f19601f82011682018060405250810190610a1c9190613fbc565b83105b15610a3d57604051630f84197b60e01b815260040160405180910390fd5b806001600160a01b031663cddf37d76040518163ffffffff1660e01b8152600401602060405180830381865afa158015610a7b573d6000803e3d6000fd5b505050506040513d601f19601f82011682018060405250810190610a9f9190613fbc565b610aa98434614024565b1015610ac857604051636bb83ea360e11b815260040160405180910390fd5b6000610af2604051806040016040528060078152602001665374616b696e6760c81b8152506104d4565b604051634f3d2e6f60e01b81523360048201523460248201529091506001600160a01b03821690634f3d2e6f90604401600060405180830381600087803b158015610b3c57600080fd5b505af1158015610b50573d6000803e3d6000fd5b50506040516317b27ea960e11b8152336004820152602481018790526001600160a01b0384169250632f64fd529150604401600060405180830381600087803b158015610b9c57600080fd5b505af1158015610bb0573d6000803e3d6000fd5b505060405163465887b360e01b81523360048201526001600160a01b038416925063465887b39150602401600060405180830381600087803b158015610bf557600080fd5b505af1158015610c09573d6000803e3d6000fd5b5050604051636e33396760e01b81523360048201526001600160a01b0384169250636e3339679150602401602060405180830381865afa158015610c51573d6000803e3d6000fd5b505050506040513d601f19601f82011682018060405250810190610c759190613fbc565b600003610cdc576040516343becf4f60e11b81523360048201524260248201526001600160a01b0382169063877d9e9e90604401600060405180830381600087803b158015610cc357600080fd5b505af1158015610cd7573d6000803e3d6000fd5b505050505b6040516376aa7f9160e11b81523360048201526000906001600160a01b0383169063ed54ff2290602401602060405180830381865afa158015610d23573d6000803e3d6000fd5b505050506040513d601f19601f82011682018060405250810190610d479190613fbc565b9050826001600160a01b0316632a90c63a6040518163ffffffff1660e01b8152600401602060405180830381865afa158015610d87573d6000803e3d6000fd5b505050506040513d601f19601f82011682018060405250810190610dab9190613fbc565b811015610dcb57604051639e7fd11b60e01b815260040160405180910390fd5b6000610e0b6040518060400160405280600f81526020017f4d756c74697369674d616e6167657200000000000000000000000000000000008152506104d4565b90506000816001600160a01b0316632786fa9d6040518163ffffffff1660e01b8152600401602060405180830381865afa158015610e4d573d6000803e3d6000fd5b505050506040513d601f19601f82011682018060405250810190610e71919061407c565b90506000610e7e8b610468565b90508060001914610ea257610e94816000612cfa565b610e9d81613088565b610fa9565b610ecb7fe0350abf7e528889b5822fca885fa12de74628619c3752923dd9ec3ce44e4602612b68565b6040516d0dad2dcd2e0deded85cd2dcc8caf60931b60208201526bffffffffffffffffffffffff1960608e901b16602e820152909150610f2b90604201604051602081830303815290604052805190602001208260016106b39190614099565b6040516c6d696e69706f6f6c2e6974656d60981b6020820152602d8101829052660b9b9bd919525160ca1b604d820152610f7e90605401604051602081830303815290604052805190602001208c6132bf565b610fa97fe0350abf7e528889b5822fca885fa12de74628619c3752923dd9ec3ce44e460260016132fe565b6040516c6d696e69706f6f6c2e6974656d60981b6020820152602d8101829052662e73746174757360c81b604d820152610fff9060540160408051601f1981840301815291905280516020909101206000612eb8565b6040516c6d696e69706f6f6c2e6974656d60981b6020820152602d81018290526817323ab930ba34b7b760b91b604d820152611055906056015b604051602081830303815290604052805190602001208b612eb8565b6040516c6d696e69706f6f6c2e6974656d60981b6020820152602d81018290526c1736bab63a34b9b4b3a0b2323960991b604d8201526110ae90605a0160405160208183030381529060405280519060200120836132bf565b6040516c6d696e69706f6f6c2e6974656d60981b6020820152602d8101829052651737bbb732b960d11b604d8201526111009060530160405160208183030381529060405280519060200120336132bf565b6040516c6d696e69706f6f6c2e6974656d60981b6020820152602d81018290526d0b985d985e139bd91953dc105b5d60921b604d82015261115a90605b016040516020818303038152906040528051906020012034612eb8565b6040516c6d696e69706f6f6c2e6974656d60981b6020820152602d8101829052730b985d985e131a5c5d5a5914dd185ad95c905b5d60621b604d8201526111ba906061016040516020818303038152906040528051906020012089612eb8565b6040516c6d696e69706f6f6c2e6974656d60981b6020820152602d81018290526d2e64656c65676174696f6e46656560901b604d82015261121590605b015b604051602081830303815290604052805190602001208a612eb8565b60006040516001600160a01b038d16907fc9c043637725967252aedd2704cc65fee962e7b8a1e3cf8098587a66601e50c590600090a360006112736040518060400160405280600581526020016415985d5b1d60da1b8152506104d4565b9050806001600160a01b031663a0d065c3346040518263ffffffff1660e01b81526004016000604051808303818588803b1580156112b057600080fd5b505af11580156112c4573d6000803e3d6000fd5b5050505050505050505050505050505050565b60006112e28361333a565b90506112ef816006612cfa565b6040516c6d696e69706f6f6c2e6974656d60981b6020820152602d8101829052651737bbb732b960d11b604d82015260009061132d906053016104eb565b6040516c6d696e69706f6f6c2e6974656d60981b6020820152602d81018490526d0b985d985e139bd91953dc105b5d60921b604d82015290915060009061137690605b016104a9565b6040516c6d696e69706f6f6c2e6974656d60981b6020820152602d8101859052730b985d985e131a5c5d5a5914dd185ad95c905b5d60621b604d8201529091506000906113c5906061016104a9565b90506113d18183614024565b34146113f05760405163162908e360e11b815260040160405180910390fd5b60006114186040518060400160405280600581526020016415985d5b1d60da1b8152506104d4565b90506000611444604051806040016040528060078152602001665374616b696e6760c81b8152506104d4565b6040516c6d696e69706f6f6c2e6974656d60981b6020820152602d8101889052692e6572726f72436f646560b01b604d82015290915061149d9060570160405160208183030381529060405280519060200120886133c0565b6040516c6d696e69706f6f6c2e6974656d60981b6020820152602d8101879052662e73746174757360c81b604d8201526114f39060540160408051601f1981840301815291905280516020909101206006612eb8565b6040516c6d696e69706f6f6c2e6974656d60981b6020820152602d8101879052720b985d985e151bdd185b14995dd85c99105b5d606a1b604d820152611554906060015b604051602081830303815290604052805190602001206000612eb8565b6040516c6d696e69706f6f6c2e6974656d60981b6020820152602d8101879052730b985d985e139bd91953dc14995dd85c99105b5d60621b604d82015261159d90606101611537565b6040516c6d696e69706f6f6c2e6974656d60981b6020820152602d81018790527f2e617661784c69717569645374616b6572526577617264416d74000000000000604d8201526115ef90606701611537565b816001600160a01b031663a0d065c3856040518263ffffffff1660e01b81526004016000604051808303818588803b15801561162a57600080fd5b505af115801561163e573d6000803e3d6000fd5b5050604051630e0f72f160e21b815260048101879052600060248201527f00000000000000000000000000000000000000000000000000000000000000006001600160a01b0316935063383dcbc492508691506044016000604051808303818588803b1580156116ad57600080fd5b505af11580156116c1573d6000803e3d6000fd5b5050604051635c627b0960e11b81526001600160a01b038981166004830152602482018890528516935063b8c4f61292506044019050600060405180830381600087803b15801561171157600080fd5b505af1158015611725573d6000803e3d6000fd5b5050604051636e68f91f60e11b81526001600160a01b0388811660048301528416925063dcd1f23e9150602401600060405180830381600087803b15801561176c57600080fd5b505af1158015611780573d6000803e3d6000fd5b505050506117ae7f12a9c71f81f4e9f40893f7c73d926bc8038630f8d65db553b369fd884d77a6e2846133fc565b60066040516001600160a01b038a16907fc9c043637725967252aedd2704cc65fee962e7b8a1e3cf8098587a66601e50c590600090a35050505050505050565b60006117f98261333a565b9050611806816001612cfa565b600061182e6040518060400160405280600581526020016415985d5b1d60da1b8152506104d4565b6040516c6d696e69706f6f6c2e6974656d60981b6020820152602d81018490526d0b985d985e139bd91953dc105b5d60921b604d82015290915060009061187790605b016104a9565b6040516c6d696e69706f6f6c2e6974656d60981b6020820152602d8101859052730b985d985e131a5c5d5a5914dd185ad95c905b5d60621b604d8201529091506000906118c6906061016104a9565b60405163efe441d960e01b8152600481018290529091507f00000000000000000000000000000000000000000000000000000000000000006001600160a01b03169063efe441d990602401600060405180830381600087803b15801561192b57600080fd5b505af115801561193f573d6000803e3d6000fd5b5050505061196d7f12a9c71f81f4e9f40893f7c73d926bc8038630f8d65db553b369fd884d77a6e2826132fe565b60405163575ae6af60e11b8152600481018390526001600160a01b0384169063aeb5cd5e90602401600060405180830381600087803b1580156119af57600080fd5b505af11580156119c3573d6000803e3d6000fd5b50505050600081836119d59190614024565b90506119e13382612f26565b6040516c6d696e69706f6f6c2e6974656d60981b6020820152602d8101869052662e73746174757360c81b604d820152611a379060540160408051601f1981840301815291905280516020909101206001612eb8565b60016040516001600160a01b038816907fc9c043637725967252aedd2704cc65fee962e7b8a1e3cf8098587a66601e50c590600090a3505050505050565b6000611a808461333a565b9050611a8d816003612cfa565b6040516c6d696e69706f6f6c2e6974656d60981b6020820152602d8101829052692e737461727454696d6560b01b604d820152600090611acf906057016104a9565b90508084111580611adf57504284115b15611afd576040516338af65f760e01b815260040160405180910390fd5b6040516c6d696e69706f6f6c2e6974656d60981b6020820152602d81018390526d0b985d985e139bd91953dc105b5d60921b604d820152600090611b4390605b016104a9565b6040516c6d696e69706f6f6c2e6974656d60981b6020820152602d8101859052730b985d985e131a5c5d5a5914dd185ad95c905b5d60621b604d820152909150600090611b92906061016104a9565b90506000611ba08284614024565b9050611bac8682614024565b3414611bcb5760405163162908e360e11b815260040160405180910390fd5b6000611bf36040518060400160405280600581526020016415985d5b1d60da1b8152506104d4565b90506000611c1f604051806040016040528060078152602001665374616b696e6760c81b8152506104d4565b6040516c6d696e69706f6f6c2e6974656d60981b6020820152602d8101899052651737bbb732b960d11b604d820152909150600090611c60906053016104eb565b6040516c6d696e69706f6f6c2e6974656d60981b6020820152602d81018a9052662e73746174757360c81b604d820152909150611cb99060540160408051601f1981840301815291905280516020909101206003612eb8565b6040516c6d696e69706f6f6c2e6974656d60981b6020820152602d8101899052672e656e6454696d6560c01b604d820152611cf690605501611039565b6040516c6d696e69706f6f6c2e6974656d60981b6020820152602d8101899052720b985d985e151bdd185b14995dd85c99105b5d606a1b604d820152611d3e906060016111f9565b6000611d4b60028b613fec565b90506000611d7b6040518060400160405280600b81526020016a50726f746f636f6c44414f60a81b8152506104d4565b90506000611deb826001600160a01b03166382b33dab6040518163ffffffff1660e01b8152600401602060405180830381865afa158015611dc0573d6000803e3d6000fd5b505050506040513d601f19601f82011682018060405250810190611de49190613fbc565b8490612c4d565b611df590846140c1565b90506000611e03828e6140c1565b6040516c6d696e69706f6f6c2e6974656d60981b6020820152602d81018e9052730b985d985e139bd91953dc14995dd85c99105b5d60621b604d820152909150611e67906061015b6040516020818303038152906040528051906020012082612eb8565b6040516c6d696e69706f6f6c2e6974656d60981b6020820152602d81018d90527f2e617661784c69717569645374616b6572526577617264416d74000000000000604d820152611ed1906067015b6040516020818303038152906040528051906020012083612eb8565b8c600003611ee257611ee28c613438565b6001600160a01b03871663a0d065c3611efb838d614024565b6040518263ffffffff1660e01b81526004016000604051808303818588803b158015611f2657600080fd5b505af1158015611f3a573d6000803e3d6000fd5b50505050507f00000000000000000000000000000000000000000000000000000000000000006001600160a01b031663383dcbc4838b611f7a9190614024565b6040517fffffffff0000000000000000000000000000000000000000000000000000000060e084901b168152600481018d9052602481018690526044016000604051808303818588803b158015611fd057600080fd5b505af1158015611fe4573d6000803e3d6000fd5b50505050506120137f12a9c71f81f4e9f40893f7c73d926bc8038630f8d65db553b369fd884d77a6e28a6133fc565b604051635c627b0960e11b81526001600160a01b038681166004830152602482018b905287169063b8c4f61290604401600060405180830381600087803b15801561205d57600080fd5b505af1158015612071573d6000803e3d6000fd5b50506040516323ca17bd60e01b81526001600160a01b038881166004830152891692506323ca17bd9150602401600060405180830381600087803b1580156120b857600080fd5b505af11580156120cc573d6000803e3d6000fd5b50600392506120d9915050565b8f6001600160a01b03167fc9c043637725967252aedd2704cc65fee962e7b8a1e3cf8098587a66601e50c560405160405180910390a3505050505050505050505050505050565b6060600061214d7fe0350abf7e528889b5822fca885fa12de74628619c3752923dd9ec3ce44e4602612b68565b9050600061215b8486614024565b905081811180612169575083155b156121715750805b61217b85826140c1565b67ffffffffffffffff81111561219357612193613bfe565b6040519080825280602002602001820160405280156121cc57816020015b6121b9613b27565b8152602001906001900390816121b15790505b5092506000855b828110156122445760006121e68261257b565b90508860068111156121fa576121fa61400e565b8160400151036122315780868481518110612217576122176140d4565b6020026020010181905250828061222d906140ea565b9350505b508061223c816140ea565b9150506121d3565b5083525090949350505050565b600061225c8461333a565b9050612269816002612cfa565b6040516c6d696e69706f6f6c2e6974656d60981b6020820152602d8101829052662e73746174757360c81b604d8201526122bf9060540160408051601f1981840301815291905280516020909101206002612eb8565b6040516c6d696e69706f6f6c2e6974656d60981b6020820152602d8101829052640b9d1e125160da1b604d8201526123109060520160405160208183030381529060405280519060200120846133c0565b6040516c6d696e69706f6f6c2e6974656d60981b6020820152602d8101829052692e737461727454696d6560b01b604d82015261234f90605701611eb5565b60026040516001600160a01b038616907fc9c043637725967252aedd2704cc65fee962e7b8a1e3cf8098587a66601e50c590600090a350505050565b6001546001146123ca5760405162461bcd60e51b815260206004820152600a6024820152695245454e5452414e435960b01b604482015260640161062e565b600260015560006123da82612c62565b90506123e581612c8f565b506123f08282613687565b505060018055565b6000806124396040518060400160405280600681526020017f4f7261636c6500000000000000000000000000000000000000000000000000008152506104d4565b90506000816001600160a01b03166378e865fe6040518163ffffffff1660e01b81526004016040805180830381865afa15801561247a573d6000803e3d6000fd5b505050506040513d601f19601f8201168201806040525081019061249e9190614103565b5090506124ab8482613a47565b949350505050565b6124bb613b27565b60006124c683610468565b90506124d18161257b565b9392505050565b60006125037fe0350abf7e528889b5822fca885fa12de74628619c3752923dd9ec3ce44e4602612b68565b905090565b60006125138361333a565b6040516c6d696e69706f6f6c2e6974656d60981b6020820152602d8101829052692e6572726f72436f646560b01b604d82015290915061256c9060570160405160208183030381529060405280519060200120836133c0565b6125768382613687565b505050565b612583613b27565b8181526040516c6d696e69706f6f6c2e6974656d60981b6020820152602d8101839052660b9b9bd919525160ca1b604d8201526125c2906054016104eb565b6001600160a01b03166020828101919091526040516c6d696e69706f6f6c2e6974656d60981b91810191909152602d8101839052662e73746174757360c81b604d820152612612906054016104a9565b604080830191909152516c6d696e69706f6f6c2e6974656d60981b6020820152602d81018390526817323ab930ba34b7b760b91b604d820152612657906056016104a9565b60608201526040516c6d696e69706f6f6c2e6974656d60981b6020820152602d8101839052640b9d1e125160da1b604d8201526126ad906052015b60405160208183030381529060405280519060200120613a5c565b6102008201526040516c6d696e69706f6f6c2e6974656d60981b6020820152602d8101839052692e737461727454696d6560b01b604d8201526126f2906057016104a9565b60808201526040516c6d696e69706f6f6c2e6974656d60981b6020820152602d8101839052672e656e6454696d6560c01b604d820152612734906055016104a9565b60a08201526040516c6d696e69706f6f6c2e6974656d60981b6020820152602d81018390526d2e64656c65676174696f6e46656560901b604d82015261277c90605b016104a9565b60c08201526040516c6d696e69706f6f6c2e6974656d60981b6020820152602d81018390526b0b99d9dc14db185cda105b5d60a21b604d8201526127c2906059016104a9565b60e08201526040516c6d696e69706f6f6c2e6974656d60981b6020820152602d81018390526d0b985d985e139bd91953dc105b5d60921b604d82015261280a90605b016104a9565b6101008201526040516c6d696e69706f6f6c2e6974656d60981b6020820152602d8101839052730b985d985e131a5c5d5a5914dd185ad95c905b5d60621b604d820152612859906061016104a9565b6101208201526040516c6d696e69706f6f6c2e6974656d60981b6020820152602d8101839052720b985d985e151bdd185b14995dd85c99105b5d606a1b604d8201526128a7906060016104a9565b6101408201526040516c6d696e69706f6f6c2e6974656d60981b6020820152602d8101839052730b985d985e139bd91953dc14995dd85c99105b5d60621b604d8201526128f6906061016104a9565b6101608201526040516c6d696e69706f6f6c2e6974656d60981b6020820152602d81018390527f2e617661784c69717569645374616b6572526577617264416d74000000000000604d82015261294e906067016104a9565b6101808201526040516c6d696e69706f6f6c2e6974656d60981b6020820152602d81018390526c1736bab63a34b9b4b3a0b2323960991b604d82015261299690605a016104eb565b6001600160a01b03166101e08201526040516c6d696e69706f6f6c2e6974656d60981b6020820152602d8101839052651737bbb732b960d11b604d8201526129e0906053016104eb565b6001600160a01b03166101c08201526040516c6d696e69706f6f6c2e6974656d60981b6020820152602d8101839052692e6572726f72436f646560b01b604d820152612a2e90605701612692565b6101a0820152919050565b60006125037f12a9c71f81f4e9f40893f7c73d926bc8038630f8d65db553b369fd884d77a6e2612b68565b600080612a708361333a565b9050612a7d816001612cfa565b6040516c6d696e69706f6f6c2e6974656d60981b6020820152602d8101829052730b985d985e131a5c5d5a5914dd185ad95c905b5d60621b604d820152600090612ac9906061016104a9565b90507f00000000000000000000000000000000000000000000000000000000000000006001600160a01b031663be13733c6040518163ffffffff1660e01b8152600401602060405180830381865afa158015612b29573d6000803e3d6000fd5b505050506040513d601f19601f82011682018060405250810190612b4d9190613fbc565b811115612b5e575060009392505050565b5060019392505050565b6000805460405163bd02d0f560e01b8152600481018490526101009091046001600160a01b03169063bd02d0f5906024015b602060405180830381865afa158015612bb7573d6000803e3d6000fd5b505050506040513d601f19601f820116820180604052508101906104ce9190613fbc565b600080546040516321f8a72160e01b8152600481018490526101009091046001600160a01b0316906321f8a72190602401602060405180830381865afa158015612c29573d6000803e3d6000fd5b505050506040513d601f19601f820116820180604052508101906104ce919061407c565b60006124d18383670de0b6b3a7640000613a92565b600080612c6e83610468565b905080196104ce5760405163d2fc63e360e01b815260040160405180910390fd5b6040516c6d696e69706f6f6c2e6974656d60981b6020820152602d8101829052651737bbb732b960d11b604d8201526000908190612ccf906053016104eb565b9050336001600160a01b038216146104ce57604051635fc483c560e01b815260040160405180910390fd5b6040516c6d696e69706f6f6c2e6974656d60981b6020820152602d8101839052662e73746174757360c81b604d8201526000906054016040516020818303038152906040528051906020012090506000612d5382612b68565b6006811115612d6457612d6461400e565b9050600080826006811115612d7b57612d7b61400e565b03612db9576001846006811115612d9457612d9461400e565b1480612db2575060055b846006811115612db057612db061400e565b145b9050612e93565b6001826006811115612dcd57612dcd61400e565b03612df55760025b846006811115612de757612de761400e565b1480612db257506006612d9e565b6002826006811115612e0957612e0961400e565b03612e15576003612dd5565b6003826006811115612e2957612e2961400e565b1480612e4657506006826006811115612e4457612e4461400e565b145b15612e52576004612d9e565b6004826006811115612e6657612e6661400e565b1480612e8357506005826006811115612e8157612e8161400e565b145b15612e8f576000612d9e565b5060005b80612eb1576040516323e69e0360e21b815260040160405180910390fd5b5050505050565b600054604051637152429d60e11b815260048101849052602481018390526101009091046001600160a01b03169063e2a4853a906044015b600060405180830381600087803b158015612f0a57600080fd5b505af1158015612f1e573d6000803e3d6000fd5b505050505050565b600080600080600085875af19050806125765760405162461bcd60e51b815260206004820152601360248201527f4554485f5452414e534645525f4641494c454400000000000000000000000000604482015260640161062e565b60606000612ff283604051602001612fd791907f636f6e74726163742e6e616d6500000000000000000000000000000000000000815260609190911b6bffffffffffffffffffffffff1916600d82015260210190565b60405160208183030381529060405280519060200120613ab0565b905080516000036104ce57604051633b56498960e21b815260040160405180910390fd5b60008054604051633d70e7e560e11b8152600481018490526101009091046001600160a01b031690637ae1cfca90602401602060405180830381865afa158015613064573d6000803e3d6000fd5b505050506040513d601f19601f820116820180604052508101906104ce9190614127565b6040516c6d696e69706f6f6c2e6974656d60981b6020820152602d8101829052640b9d1e125160da1b604d8201526130dd906052015b604051602081830303815290604052805190602001206000801b6133c0565b6040516c6d696e69706f6f6c2e6974656d60981b6020820152602d8101829052692e737461727454696d6560b01b604d82015261311c90605701611537565b6040516c6d696e69706f6f6c2e6974656d60981b6020820152602d8101829052672e656e6454696d6560c01b604d82015261315990605501611537565b6040516c6d696e69706f6f6c2e6974656d60981b6020820152602d8101829052720b985d985e151bdd185b14995dd85c99105b5d606a1b604d8201526131a190606001611537565b6040516c6d696e69706f6f6c2e6974656d60981b6020820152602d8101829052730b985d985e139bd91953dc14995dd85c99105b5d60621b604d8201526131ea90606101611537565b6040516c6d696e69706f6f6c2e6974656d60981b6020820152602d81018290527f2e617661784c69717569645374616b6572526577617264416d74000000000000604d82015261323c90606701611537565b6040516c6d696e69706f6f6c2e6974656d60981b6020820152602d81018290526b0b99d9dc14db185cda105b5d60a21b604d82015261327d90605901611537565b6040516c6d696e69706f6f6c2e6974656d60981b6020820152602d8101829052692e6572726f72436f646560b01b604d8201526132bc906057016130be565b50565b60005460405163ca446dd960e01b8152600481018490526001600160a01b0383811660248301526101009092049091169063ca446dd990604401612ef0565b600054604051632b6cd4f760e21b815260048101849052602481018390526101009091046001600160a01b03169063adb353dc90604401612ef0565b60008061334683612c62565b6040516c6d696e69706f6f6c2e6974656d60981b6020820152602d81018290526c1736bab63a34b9b4b3a0b2323960991b604d82015290915060009061338e90605a016104eb565b9050336001600160a01b038216146133b95760405163c2bd570760e01b815260040160405180910390fd5b5092915050565b6000546040516309d23b6160e31b815260048101849052602481018390526101009091046001600160a01b031690634e91db0890604401612ef0565b60005460405163ebb9d8c960e01b815260048101849052602481018390526101009091046001600160a01b03169063ebb9d8c990604401612ef0565b6040516c6d696e69706f6f6c2e6974656d60981b6020820152602d8101829052660b9b9bd919525160ca1b604d820152600090613477906054016104eb565b6040516c6d696e69706f6f6c2e6974656d60981b6020820152602d8101849052651737bbb732b960d11b604d8201529091506000906134b8906053016104eb565b6040516c6d696e69706f6f6c2e6974656d60981b6020820152602d81018590526817323ab930ba34b7b760b91b604d8201529091506000906134fc906056016104a9565b6040516c6d696e69706f6f6c2e6974656d60981b6020820152602d8101869052730b985d985e131a5c5d5a5914dd185ad95c905b5d60621b604d82015290915060009061354b906061016104a9565b90506000613559838361052f565b90506000613566826123f8565b6040516c6d696e69706f6f6c2e6974656d60981b6020820152602d81018990526b0b99d9dc14db185cda105b5d60a21b604d8201529091506135aa90605901611e4b565b856001600160a01b03167fa10866a4e21985bc2d4130717769d773ffe207cffc5fb5d714c8c030e0677ec7826040516135e591815260200190565b60405180910390a26000613617604051806040016040528060078152602001665374616b696e6760c81b8152506104d4565b60405163065fe0a360e01b81526001600160a01b038881166004830152602482018590529192509082169063065fe0a390604401600060405180830381600087803b15801561366557600080fd5b505af1158015613679573d6000803e3d6000fd5b505050505050505050505050565b613692816005612cfa565b6040516c6d696e69706f6f6c2e6974656d60981b6020820152602d8101829052662e73746174757360c81b604d8201526136e89060540160408051601f1981840301815291905280516020909101206005612eb8565b6040516c6d696e69706f6f6c2e6974656d60981b6020820152602d8101829052651737bbb732b960d11b604d820152600090613726906053016104eb565b6040516c6d696e69706f6f6c2e6974656d60981b6020820152602d81018490526d0b985d985e139bd91953dc105b5d60921b604d82015290915060009061376f90605b016104a9565b6040516c6d696e69706f6f6c2e6974656d60981b6020820152602d8101859052730b985d985e131a5c5d5a5914dd185ad95c905b5d60621b604d8201529091506000906137be906061016104a9565b905060006137ea604051806040016040528060078152602001665374616b696e6760c81b8152506104d4565b60405163a1bb68a560e01b81526001600160a01b038681166004830152602482018690529192509082169063a1bb68a590604401600060405180830381600087803b15801561383857600080fd5b505af115801561384c573d6000803e3d6000fd5b5050604051635c627b0960e11b81526001600160a01b038781166004830152602482018690528416925063b8c4f6129150604401600060405180830381600087803b15801561389a57600080fd5b505af11580156138ae573d6000803e3d6000fd5b5050604051636e68f91f60e11b81526001600160a01b0387811660048301528416925063dcd1f23e9150602401600060405180830381600087803b1580156138f557600080fd5b505af1158015613909573d6000803e3d6000fd5b50506040516323ca17bd60e01b81526001600160a01b038781166004830152841692506323ca17bd9150602401600060405180830381600087803b15801561395057600080fd5b505af1158015613964573d6000803e3d6000fd5b5060059250613971915050565b6040516001600160a01b038816907fc9c043637725967252aedd2704cc65fee962e7b8a1e3cf8098587a66601e50c590600090a360006139cd6040518060400160405280600581526020016415985d5b1d60da1b8152506104d4565b60405163575ae6af60e11b8152600481018690529091506001600160a01b0382169063aeb5cd5e90602401600060405180830381600087803b158015613a1257600080fd5b505af1158015613a26573d6000803e3d6000fd5b50613a3e925050506001600160a01b03861685612f26565b50505050505050565b60006124d183670de0b6b3a764000084613a92565b60008054604051635376ab1f60e11b8152600481018490526101009091046001600160a01b03169063a6ed563e90602401612b9a565b6000826000190484118302158202613aa957600080fd5b5091020490565b600054604051634c373c8d60e11b81526004810183905260609161010090046001600160a01b03169063986e791a90602401600060405180830381865afa158015613aff573d6000803e3d6000fd5b505050506040513d6000823e601f3d908101601f191682016040526104ce9190810190614149565b6040518061022001604052806000815260200160006001600160a01b0316815260200160008152602001600081526020016000815260200160008152602001600081526020016000815260200160008152602001600081526020016000815260200160008152602001600081526020016000801916815260200160006001600160a01b0316815260200160006001600160a01b03168152602001600080191681525090565b6001600160a01b03811681146132bc57600080fd5b600060208284031215613bf357600080fd5b81356124d181613bcc565b634e487b7160e01b600052604160045260246000fd5b604051601f8201601f1916810167ffffffffffffffff81118282101715613c3d57613c3d613bfe565b604052919050565b600067ffffffffffffffff821115613c5f57613c5f613bfe565b50601f01601f191660200190565b600060208284031215613c7f57600080fd5b813567ffffffffffffffff811115613c9657600080fd5b8201601f81018413613ca757600080fd5b8035613cba613cb582613c45565b613c14565b818152856020838501011115613ccf57600080fd5b81602084016020830137600091810160200191909152949350505050565b60008060408385031215613d0057600080fd5b50508035926020909101359150565b60008060008060808587031215613d2557600080fd5b8435613d3081613bcc565b966020860135965060408601359560600135945092505050565b60008060408385031215613d5d57600080fd5b8235613d6881613bcc565b946020939093013593505050565b600080600060608486031215613d8b57600080fd5b8335613d9681613bcc565b95602085013595506040909401359392505050565b600080600060608486031215613dc057600080fd5b833560078110613d9657600080fd5b805182526020810151613ded60208401826001600160a01b03169052565b5060408181015190830152606080820151908301526080808201519083015260a0808201519083015260c0808201519083015260e08082015190830152610100808201519083015261012080820151908301526101408082015190830152610160808201519083015261018080820151908301526101a080820151908301526101c0808201516001600160a01b0381168285015250506101e0818101516001600160a01b03811684830152505061020090810151910152565b6020808252825182820181905260009190848201906040850190845b81811015613ee957613ed5838551613dcf565b928401926102209290920191600101613ec2565b50909695505050505050565b600060208284031215613f0757600080fd5b5035919050565b61022081016104ce8284613dcf565b634e487b7160e01b600052601160045260246000fd5b81810360008312801583831316838312821617156133b9576133b9613f1d565b60005b83811015613f6e578181015183820152602001613f56565b50506000910152565b7f636f6e74726163742e6164647265737300000000000000000000000000000000815260008251613faf816010850160208701613f53565b9190910160100192915050565b600060208284031215613fce57600080fd5b5051919050565b80820281158282048414176104ce576104ce613f1d565b60008261400957634e487b7160e01b600052601260045260246000fd5b500490565b634e487b7160e01b600052602160045260246000fd5b808201808211156104ce576104ce613f1d565b7f636f6e74726163742e706175736564000000000000000000000000000000000081526000825161406f81600f850160208701613f53565b91909101600f0192915050565b60006020828403121561408e57600080fd5b81516124d181613bcc565b80820182811260008312801582168215821617156140b9576140b9613f1d565b505092915050565b818103818111156104ce576104ce613f1d565b634e487b7160e01b600052603260045260246000fd5b6000600182016140fc576140fc613f1d565b5060010190565b6000806040838503121561411657600080fd5b505080516020909101519092909150565b60006020828403121561413957600080fd5b815180151581146124d157600080fd5b60006020828403121561415b57600080fd5b815167ffffffffffffffff81111561417257600080fd5b8201601f8101841361418357600080fd5b8051614191613cb582613c45565b8181528560208385010111156141a657600080fd5b6105ea826020830160208601613f5356fea26469706673582212207481ac735fcd3a2d918d458afaa7c7c0de7c23d9a0b457304e530dfbafa4b46c64736f6c63430008110033",
  "linkReferences": {},
  "deployedLinkReferences": {}
}