{
  "_format": "hh-sol-artifact-1",
  "contractName": "MinipoolManager",
  "sourceName": "contracts/contract/MinipoolManager.sol",
  "abi": [
    {
      "inputs": [
        {
          "internalType": "contract Storage",
          "name": "storageAddress",
          "type": "address"
        },
        {
          "internalType": "contract ERC20",
          "name": "ggp_",
          "type": "address"
        },
        {
          "internalType": "contract TokenggAVAX",
          "name": "ggAVAX_",
          "type": "address"
        }
      ],
      "stateMutability": "nonpayable",
      "type": "constructor"
    },
    {
      "inputs": [],
      "name": "ContractPaused",
      "type": "error"
    },
    {
      "inputs": [],
      "name": "ErrorSendingAVAX",
      "type": "error"
    },
    {
      "inputs": [],
      "name": "InsufficientAVAXForMinipoolCreation",
      "type": "error"
    },
    {
      "inputs": [],
      "name": "InsufficientGGPCollateralization",
      "type": "error"
    },
    {
      "inputs": [],
      "name": "InvalidAVAXAssignmentRequest",
      "type": "error"
    },
    {
      "inputs": [],
      "name": "InvalidAmount",
      "type": "error"
    },
    {
      "inputs": [],
      "name": "InvalidEndTime",
      "type": "error"
    },
    {
      "inputs": [],
      "name": "InvalidMultisigAddress",
      "type": "error"
    },
    {
      "inputs": [],
      "name": "InvalidNodeID",
      "type": "error"
    },
    {
      "inputs": [],
      "name": "InvalidOrOutdatedContract",
      "type": "error"
    },
    {
      "inputs": [],
      "name": "InvalidStateTransition",
      "type": "error"
    },
    {
      "inputs": [],
      "name": "MinipoolNotFound",
      "type": "error"
    },
    {
      "inputs": [],
      "name": "MustBeGuardian",
      "type": "error"
    },
    {
      "inputs": [],
      "name": "MustBeMultisig",
      "type": "error"
    },
    {
      "inputs": [],
      "name": "OnlyOwnerCanCancel",
      "type": "error"
    },
    {
      "inputs": [],
      "name": "OnlyOwnerCanWithdraw",
      "type": "error"
    },
    {
      "anonymous": false,
      "inputs": [
        {
          "indexed": true,
          "internalType": "address",
          "name": "nodeID",
          "type": "address"
        },
        {
          "indexed": false,
          "internalType": "uint256",
          "name": "ggp",
          "type": "uint256"
        }
      ],
      "name": "GGPSlashed",
      "type": "event"
    },
    {
      "anonymous": false,
      "inputs": [
        {
          "indexed": true,
          "internalType": "address",
          "name": "nodeID",
          "type": "address"
        },
        {
          "indexed": true,
          "internalType": "enum MinipoolStatus",
          "name": "status",
          "type": "uint8"
        }
      ],
      "name": "MinipoolStatusChanged",
      "type": "event"
    },
    {
      "inputs": [
        {
          "internalType": "uint256",
          "name": "avaxRewardAmt",
          "type": "uint256"
        }
      ],
      "name": "calculateSlashAmt",
      "outputs": [
        {
          "internalType": "uint256",
          "name": "",
          "type": "uint256"
        }
      ],
      "stateMutability": "view",
      "type": "function"
    },
    {
      "inputs": [
        {
          "internalType": "address",
          "name": "nodeID",
          "type": "address"
        }
      ],
      "name": "canClaimAndInitiateStaking",
      "outputs": [
        {
          "internalType": "bool",
          "name": "",
          "type": "bool"
        }
      ],
      "stateMutability": "view",
      "type": "function"
    },
    {
      "inputs": [
        {
          "internalType": "address",
          "name": "nodeID",
          "type": "address"
        }
      ],
      "name": "cancelMinipool",
      "outputs": [],
      "stateMutability": "nonpayable",
      "type": "function"
    },
    {
      "inputs": [
        {
          "internalType": "address",
          "name": "nodeID",
          "type": "address"
        },
        {
          "internalType": "bytes32",
          "name": "errorCode",
          "type": "bytes32"
        }
      ],
      "name": "cancelMinipoolByMultisig",
      "outputs": [],
      "stateMutability": "nonpayable",
      "type": "function"
    },
    {
      "inputs": [
        {
          "internalType": "address",
          "name": "nodeID",
          "type": "address"
        }
      ],
      "name": "claimAndInitiateStaking",
      "outputs": [],
      "stateMutability": "nonpayable",
      "type": "function"
    },
    {
      "inputs": [
        {
          "internalType": "address",
          "name": "nodeID",
          "type": "address"
        },
        {
          "internalType": "uint256",
          "name": "duration",
          "type": "uint256"
        },
        {
          "internalType": "uint256",
          "name": "delegationFee",
          "type": "uint256"
        },
        {
          "internalType": "uint256",
          "name": "avaxAssignmentRequest",
          "type": "uint256"
        }
      ],
      "name": "createMinipool",
      "outputs": [],
      "stateMutability": "payable",
      "type": "function"
    },
    {
      "inputs": [
        {
          "internalType": "uint256",
          "name": "duration",
          "type": "uint256"
        },
        {
          "internalType": "uint256",
          "name": "avaxAmt",
          "type": "uint256"
        }
      ],
      "name": "expectedAVAXRewardsAmt",
      "outputs": [
        {
          "internalType": "uint256",
          "name": "",
          "type": "uint256"
        }
      ],
      "stateMutability": "view",
      "type": "function"
    },
    {
      "inputs": [
        {
          "internalType": "string",
          "name": "_contractName",
          "type": "string"
        }
      ],
      "name": "getContractAddress",
      "outputs": [
        {
          "internalType": "address",
          "name": "",
          "type": "address"
        }
      ],
      "stateMutability": "view",
      "type": "function"
    },
    {
      "inputs": [
        {
          "internalType": "address",
          "name": "nodeID",
          "type": "address"
        }
      ],
      "name": "getIndexOf",
      "outputs": [
        {
          "internalType": "int256",
          "name": "",
          "type": "int256"
        }
      ],
      "stateMutability": "view",
      "type": "function"
    },
    {
      "inputs": [
        {
          "internalType": "int256",
          "name": "index",
          "type": "int256"
        }
      ],
      "name": "getMinipool",
      "outputs": [
        {
          "components": [
            {
              "internalType": "int256",
              "name": "index",
              "type": "int256"
            },
            {
              "internalType": "address",
              "name": "nodeID",
              "type": "address"
            },
            {
              "internalType": "uint256",
              "name": "status",
              "type": "uint256"
            },
            {
              "internalType": "uint256",
              "name": "duration",
              "type": "uint256"
            },
            {
              "internalType": "uint256",
              "name": "startTime",
              "type": "uint256"
            },
            {
              "internalType": "uint256",
              "name": "endTime",
              "type": "uint256"
            },
            {
              "internalType": "uint256",
              "name": "delegationFee",
              "type": "uint256"
            },
            {
              "internalType": "uint256",
              "name": "ggpSlashAmt",
              "type": "uint256"
            },
            {
              "internalType": "uint256",
              "name": "avaxNodeOpAmt",
              "type": "uint256"
            },
            {
              "internalType": "uint256",
              "name": "avaxLiquidStakerAmt",
              "type": "uint256"
            },
            {
              "internalType": "uint256",
              "name": "avaxTotalRewardAmt",
              "type": "uint256"
            },
            {
              "internalType": "uint256",
              "name": "avaxNodeOpRewardAmt",
              "type": "uint256"
            },
            {
              "internalType": "uint256",
              "name": "avaxLiquidStakerRewardAmt",
              "type": "uint256"
            },
            {
              "internalType": "bytes32",
              "name": "errorCode",
              "type": "bytes32"
            },
            {
              "internalType": "address",
              "name": "owner",
              "type": "address"
            },
            {
              "internalType": "address",
              "name": "multisigAddr",
              "type": "address"
            },
            {
              "internalType": "bytes32",
              "name": "txID",
              "type": "bytes32"
            }
          ],
          "internalType": "struct MinipoolManager.Minipool",
          "name": "mp",
          "type": "tuple"
        }
      ],
      "stateMutability": "view",
      "type": "function"
    },
    {
      "inputs": [
        {
          "internalType": "address",
          "name": "nodeID",
          "type": "address"
        }
      ],
      "name": "getMinipoolByNodeID",
      "outputs": [
        {
          "components": [
            {
              "internalType": "int256",
              "name": "index",
              "type": "int256"
            },
            {
              "internalType": "address",
              "name": "nodeID",
              "type": "address"
            },
            {
              "internalType": "uint256",
              "name": "status",
              "type": "uint256"
            },
            {
              "internalType": "uint256",
              "name": "duration",
              "type": "uint256"
            },
            {
              "internalType": "uint256",
              "name": "startTime",
              "type": "uint256"
            },
            {
              "internalType": "uint256",
              "name": "endTime",
              "type": "uint256"
            },
            {
              "internalType": "uint256",
              "name": "delegationFee",
              "type": "uint256"
            },
            {
              "internalType": "uint256",
              "name": "ggpSlashAmt",
              "type": "uint256"
            },
            {
              "internalType": "uint256",
              "name": "avaxNodeOpAmt",
              "type": "uint256"
            },
            {
              "internalType": "uint256",
              "name": "avaxLiquidStakerAmt",
              "type": "uint256"
            },
            {
              "internalType": "uint256",
              "name": "avaxTotalRewardAmt",
              "type": "uint256"
            },
            {
              "internalType": "uint256",
              "name": "avaxNodeOpRewardAmt",
              "type": "uint256"
            },
            {
              "internalType": "uint256",
              "name": "avaxLiquidStakerRewardAmt",
              "type": "uint256"
            },
            {
              "internalType": "bytes32",
              "name": "errorCode",
              "type": "bytes32"
            },
            {
              "internalType": "address",
              "name": "owner",
              "type": "address"
            },
            {
              "internalType": "address",
              "name": "multisigAddr",
              "type": "address"
            },
            {
              "internalType": "bytes32",
              "name": "txID",
              "type": "bytes32"
            }
          ],
          "internalType": "struct MinipoolManager.Minipool",
          "name": "mp",
          "type": "tuple"
        }
      ],
      "stateMutability": "view",
      "type": "function"
    },
    {
      "inputs": [],
      "name": "getMinipoolCount",
      "outputs": [
        {
          "internalType": "uint256",
          "name": "",
          "type": "uint256"
        }
      ],
      "stateMutability": "view",
      "type": "function"
    },
    {
      "inputs": [
        {
          "internalType": "enum MinipoolStatus",
          "name": "status",
          "type": "uint8"
        },
        {
          "internalType": "uint256",
          "name": "offset",
          "type": "uint256"
        },
        {
          "internalType": "uint256",
          "name": "limit",
          "type": "uint256"
        }
      ],
      "name": "getMinipools",
      "outputs": [
        {
          "components": [
            {
              "internalType": "int256",
              "name": "index",
              "type": "int256"
            },
            {
              "internalType": "address",
              "name": "nodeID",
              "type": "address"
            },
            {
              "internalType": "uint256",
              "name": "status",
              "type": "uint256"
            },
            {
              "internalType": "uint256",
              "name": "duration",
              "type": "uint256"
            },
            {
              "internalType": "uint256",
              "name": "startTime",
              "type": "uint256"
            },
            {
              "internalType": "uint256",
              "name": "endTime",
              "type": "uint256"
            },
            {
              "internalType": "uint256",
              "name": "delegationFee",
              "type": "uint256"
            },
            {
              "internalType": "uint256",
              "name": "ggpSlashAmt",
              "type": "uint256"
            },
            {
              "internalType": "uint256",
              "name": "avaxNodeOpAmt",
              "type": "uint256"
            },
            {
              "internalType": "uint256",
              "name": "avaxLiquidStakerAmt",
              "type": "uint256"
            },
            {
              "internalType": "uint256",
              "name": "avaxTotalRewardAmt",
              "type": "uint256"
            },
            {
              "internalType": "uint256",
              "name": "avaxNodeOpRewardAmt",
              "type": "uint256"
            },
            {
              "internalType": "uint256",
              "name": "avaxLiquidStakerRewardAmt",
              "type": "uint256"
            },
            {
              "internalType": "bytes32",
              "name": "errorCode",
              "type": "bytes32"
            },
            {
              "internalType": "address",
              "name": "owner",
              "type": "address"
            },
            {
              "internalType": "address",
              "name": "multisigAddr",
              "type": "address"
            },
            {
              "internalType": "bytes32",
              "name": "txID",
              "type": "bytes32"
            }
          ],
          "internalType": "struct MinipoolManager.Minipool[]",
          "name": "minipools",
          "type": "tuple[]"
        }
      ],
      "stateMutability": "view",
      "type": "function"
    },
    {
      "inputs": [],
      "name": "getTotalAVAXLiquidStakerAmt",
      "outputs": [
        {
          "internalType": "uint256",
          "name": "",
          "type": "uint256"
        }
      ],
      "stateMutability": "view",
      "type": "function"
    },
    {
      "inputs": [],
      "name": "ggAVAX",
      "outputs": [
        {
          "internalType": "contract TokenggAVAX",
          "name": "",
          "type": "address"
        }
      ],
      "stateMutability": "view",
      "type": "function"
    },
    {
      "inputs": [],
      "name": "ggp",
      "outputs": [
        {
          "internalType": "contract ERC20",
          "name": "",
          "type": "address"
        }
      ],
      "stateMutability": "view",
      "type": "function"
    },
    {
      "inputs": [],
      "name": "receiveWithdrawalAVAX",
      "outputs": [],
      "stateMutability": "payable",
      "type": "function"
    },
    {
      "inputs": [
        {
          "internalType": "address",
          "name": "nodeID",
          "type": "address"
        },
        {
          "internalType": "uint256",
          "name": "endTime",
          "type": "uint256"
        },
        {
          "internalType": "uint256",
          "name": "avaxTotalRewardAmt",
          "type": "uint256"
        }
      ],
      "name": "recordStakingEnd",
      "outputs": [],
      "stateMutability": "payable",
      "type": "function"
    },
    {
      "inputs": [
        {
          "internalType": "address",
          "name": "nodeID",
          "type": "address"
        },
        {
          "internalType": "bytes32",
          "name": "errorCode",
          "type": "bytes32"
        }
      ],
      "name": "recordStakingError",
      "outputs": [],
      "stateMutability": "payable",
      "type": "function"
    },
    {
      "inputs": [
        {
          "internalType": "address",
          "name": "nodeID",
          "type": "address"
        },
        {
          "internalType": "bytes32",
          "name": "txID",
          "type": "bytes32"
        },
        {
          "internalType": "uint256",
          "name": "startTime",
          "type": "uint256"
        }
      ],
      "name": "recordStakingStart",
      "outputs": [],
      "stateMutability": "nonpayable",
      "type": "function"
    },
    {
      "inputs": [
        {
          "internalType": "address",
          "name": "nodeID",
          "type": "address"
        },
        {
          "internalType": "enum MinipoolStatus",
          "name": "status",
          "type": "uint8"
        }
      ],
      "name": "updateMinipoolStatus",
      "outputs": [],
      "stateMutability": "nonpayable",
      "type": "function"
    },
    {
      "inputs": [],
      "name": "version",
      "outputs": [
        {
          "internalType": "uint8",
          "name": "",
          "type": "uint8"
        }
      ],
      "stateMutability": "view",
      "type": "function"
    },
    {
      "inputs": [
        {
          "internalType": "address",
          "name": "nodeID",
          "type": "address"
        }
      ],
      "name": "withdrawMinipoolFunds",
      "outputs": [],
      "stateMutability": "nonpayable",
      "type": "function"
    }
  ],
  "bytecode": "0x60c06040523480156200001157600080fd5b506040516200363638038062003636833981016040819052620000349162000086565b6000805460ff196001600160a01b0395861661010002166001600160a81b03199091161760011790559082166080521660a052620000da565b6001600160a01b03811681146200008357600080fd5b50565b6000806000606084860312156200009c57600080fd5b8351620000a9816200006d565b6020850151909350620000bc816200006d565b6040850151909250620000cf816200006d565b809150509250925092565b60805160a05161351a6200011c60003960008181610322015281816111b20152818161133f015281816117a20152611f3901526000610410015261351a6000f3fe60806040526004361061013f5760003560e01c80639cbed340116100b6578063dab8d33e1161006f578063dab8d33e14610399578063e92aa0ce146103ae578063ea3092d1146103ce578063f321df49146103fe578063f4812b8814610432578063ffe09241146101ef57600080fd5b80639cbed340146102c3578063a715c8b6146102e3578063abd149dc14610310578063ae4d0bed14610344578063af8ccb5914610359578063d8ce16f41461037957600080fd5b806353ee40961161010857806353ee40961461020457806354fd4d5014610217578063809784c5146102435780638e481d6014610263578063934857bb146102765780639a3070a0146102a357600080fd5b80623921fe14610144578063017df5221461017757806304433bbc146101975780632f1fbf9b146101cf578063356ff5a5146101f1575b600080fd5b34801561015057600080fd5b5061016461015f366004612b9a565b610452565b6040519081526020015b60405180910390f35b34801561018357600080fd5b50610164610192366004612bd1565b610518565b3480156101a357600080fd5b506101b76101b2366004612c04565b610555565b6040516001600160a01b03909116815260200161016e565b3480156101db57600080fd5b506101ef6101ea366004612bd1565b6105d9565b005b6101ef6101ff366004612cb5565b610837565b6101ef610212366004612cf0565b610fa9565b34801561022357600080fd5b506000546102319060ff1681565b60405160ff909116815260200161016e565b34801561024f57600080fd5b506101ef61025e366004612bd1565b6112b6565b6101ef610271366004612d1c565b61147f565b34801561028257600080fd5b50610296610291366004612d65565b611937565b60405161016e9190612e5a565b3480156102af57600080fd5b506101ef6102be366004612d1c565b611a56565b3480156102cf57600080fd5b506101ef6102de366004612bd1565b611b0f565b3480156102ef57600080fd5b506103036102fe366004612bd1565b611b6c565b60405161016e9190612ea9565b34801561031c57600080fd5b506101b77f000000000000000000000000000000000000000000000000000000000000000081565b34801561035057600080fd5b50610164611b91565b34801561036557600080fd5b506101ef610374366004612cf0565b611baf565b34801561038557600080fd5b50610303610394366004612eb8565b611bf6565b3480156103a557600080fd5b50610164611dea565b3480156103ba57600080fd5b506101ef6103c9366004612ed1565b611e15565b3480156103da57600080fd5b506103ee6103e9366004612bd1565b611f06565b604051901515815260200161016e565b34801561040a57600080fd5b506101b77f000000000000000000000000000000000000000000000000000000000000000081565b34801561043e57600080fd5b5061016461044d366004612eb8565b611fd4565b6000806104816040518060400160405280600b81526020016a50726f746f636f6c44414f60a81b815250610555565b90506000816001600160a01b031663b57cc6e36040518163ffffffff1660e01b8152600401602060405180830381865afa1580156104c3573d6000803e3d6000fd5b505050506040513d601f19601f820116820180604052508101906104e79190612f06565b90506301e13380856104f98684612078565b6105039190612f35565b61050d9190612f54565b925050505b92915050565b6000600161054b836040516020016105309190612f76565b6040516020818303038152906040528051906020012061208d565b6105129190612faa565b6000806105878360405160200161056c9190612fe9565b60405160208183030381529060405280519060200120612100565b90506001600160a01b0381166105125760405162461bcd60e51b815260206004820152601260248201527110dbdb9d1c9858dd081b9bdd08199bdd5b9960721b60448201526064015b60405180910390fd5b60006105e482612172565b905060006105fc8260405160200161056c9190613043565b9050336001600160a01b03821614610627576040516347418db160e01b815260040160405180910390fd5b61063282600461219f565b610666826040516020016106469190613073565b60408051601f19818403018152919052805160209091012060045b61233a565b600061068e6040518060400160405280600581526020016415985d5b1d60da1b815250610555565b905060006106a68460405160200161053091906130ba565b905060006106be8560405160200161053091906130f2565b905060006106cc8284613130565b905060006106f8604051806040016040528060078152602001665374616b696e6760c81b815250610555565b60405163a1bb68a560e01b81526001600160a01b038881166004830152602482018790529192509082169063a1bb68a590604401600060405180830381600087803b15801561074657600080fd5b505af115801561075a573d6000803e3d6000fd5b505060405163575ae6af60e11b8152600481018590526001600160a01b038816925063aeb5cd5e9150602401600060405180830381600087803b1580156107a057600080fd5b505af11580156107b4573d6000803e3d6000fd5b505050506000866001600160a01b03168360405160006040518083038185875af1925050503d8060008114610805576040519150601f19603f3d011682016040523d82523d6000602084013e61080a565b606091505b505090508061082c5760405163078445b560e41b815260040160405180910390fd5b505050505050505050565b6001600160a01b03841661085e57604051636490ffd360e01b815260040160405180910390fd5b600061088c6040518060400160405280600b81526020016a50726f746f636f6c44414f60a81b815250610555565b905081341415806108fd5750806001600160a01b0316635f0570086040518163ffffffff1660e01b8152600401602060405180830381865afa1580156108d6573d6000803e3d6000fd5b505050506040513d601f19601f820116820180604052508101906108fa9190612f06565b82115b806109685750806001600160a01b0316630ef7bfe46040518163ffffffff1660e01b8152600401602060405180830381865afa158015610941573d6000803e3d6000fd5b505050506040513d601f19601f820116820180604052508101906109659190612f06565b82105b1561098657604051630f84197b60e01b815260040160405180910390fd5b806001600160a01b031663cddf37d76040518163ffffffff1660e01b8152600401602060405180830381865afa1580156109c4573d6000803e3d6000fd5b505050506040513d601f19601f820116820180604052508101906109e89190612f06565b6109f28334613130565b1015610a1157604051636bb83ea360e11b815260040160405180910390fd5b6000610a396040518060400160405280600581526020016415985d5b1d60da1b815250610555565b9050806001600160a01b031663a0d065c3346040518263ffffffff1660e01b81526004016000604051808303818588803b158015610a7657600080fd5b505af1158015610a8a573d6000803e3d6000fd5b50505050506000610ab9604051806040016040528060078152602001665374616b696e6760c81b815250610555565b604051634f3d2e6f60e01b81523360048201523460248201529091506001600160a01b03821690634f3d2e6f90604401600060405180830381600087803b158015610b0357600080fd5b505af1158015610b17573d6000803e3d6000fd5b50506040516317b27ea960e11b8152336004820152602481018790526001600160a01b0384169250632f64fd529150604401600060405180830381600087803b158015610b6357600080fd5b505af1158015610b77573d6000803e3d6000fd5b505060405163465887b360e01b81523360048201526001600160a01b038416925063465887b39150602401600060405180830381600087803b158015610bbc57600080fd5b505af1158015610bd0573d6000803e3d6000fd5b50506040516376aa7f9160e11b8152336004820152600092506001600160a01b038416915063ed54ff2290602401602060405180830381865afa158015610c1b573d6000803e3d6000fd5b505050506040513d601f19601f82011682018060405250810190610c3f9190612f06565b9050836001600160a01b0316632a90c63a6040518163ffffffff1660e01b8152600401602060405180830381865afa158015610c7f573d6000803e3d6000fd5b505050506040513d601f19601f82011682018060405250810190610ca39190612f06565b811015610cc357604051639e7fd11b60e01b815260040160405180910390fd5b6000610cce89610518565b90508060001914610cf257610ce481600061219f565b610ced816123a0565b610d8b565b610d096000805160206134a583398151915261208d565b9050610d4289604051602001610d1f9190612f76565b604051602081830303815290604052805190602001208260016106619190613148565b610d7281604051602001610d569190613189565b604051602081830303815290604052805190602001208a612462565b610d8b6000805160206134a583398151915260016124a1565b6000610dbd6040518060400160405280600f81526020016e26bab63a34b9b4b3a6b0b730b3b2b960891b815250610555565b90506000816001600160a01b0316632786fa9d6040518163ffffffff1660e01b8152600401602060405180830381865afa158015610dff573d6000803e3d6000fd5b505050506040513d601f19601f82011682018060405250810190610e2391906131ba565b9050610e5883604051602001610e399190613073565b60408051601f198184030181529190528051602090910120600061233a565b610e8883604051602001610e6c91906131d7565b604051602081830303815290604052805190602001208b61233a565b610eb883604051602001610e9c919061320a565b6040516020818303038152906040528051906020012082612462565b610ee883604051602001610ecc9190613043565b6040516020818303038152906040528051906020012033612462565b610f1883604051602001610efc91906130ba565b604051602081830303815290604052805190602001203461233a565b610f4883604051602001610f2c9190613241565b604051602081830303815290604052805190602001208961233a565b610f7883604051602001610f5c919061327f565b604051602081830303815290604052805190602001208a61233a565b60006040516001600160a01b038d16906000805160206134c583398151915290600090a35050505050505050505050565b6000610fb4836124dd565b9050610fc181600661219f565b6000610fd78260405160200161056c9190613043565b90506000610fef8360405160200161053091906130ba565b90506000611007846040516020016105309190613241565b90506110138183613130565b34146110325760405163162908e360e11b815260040160405180910390fd5b600061105a6040518060400160405280600581526020016415985d5b1d60da1b815250610555565b90506000611086604051806040016040528060078152602001665374616b696e6760c81b815250610555565b90506110b88660405160200161109c91906132b7565b6040516020818303038152906040528051906020012088612533565b6110eb866040516020016110cc9190613073565b60408051601f198184030181529190528051602090910120600661233a565b61111c866040516020016110ff91906132eb565b60405160208183030381529060405280519060200120600061233a565b611130866040516020016110ff91906130f2565b611144866040516020016110ff9190613328565b816001600160a01b031663a0d065c3856040518263ffffffff1660e01b81526004016000604051808303818588803b15801561117f57600080fd5b505af1158015611193573d6000803e3d6000fd5b5050604051630e0f72f160e21b815260048101879052600060248201527f00000000000000000000000000000000000000000000000000000000000000006001600160a01b0316935063383dcbc492508691506044016000604051808303818588803b15801561120257600080fd5b505af1158015611216573d6000803e3d6000fd5b5050604051635c627b0960e11b81526001600160a01b038981166004830152602482018890528516935063b8c4f61292506044019050600060405180830381600087803b15801561126657600080fd5b505af115801561127a573d6000803e3d6000fd5b505050506112878361256f565b60065b6040516001600160a01b038a16906000805160206134c583398151915290600090a35050505050505050565b60006112c1826124dd565b90506112ce81600161219f565b60006112f66040518060400160405280600581526020016415985d5b1d60da1b815250610555565b9050600061130e8360405160200161053091906130ba565b90506000611326846040516020016105309190613241565b60405163efe441d960e01b8152600481018290529091507f00000000000000000000000000000000000000000000000000000000000000006001600160a01b03169063efe441d990602401600060405180830381600087803b15801561138b57600080fd5b505af115801561139f573d6000803e3d6000fd5b505050506113ac81612599565b60405163575ae6af60e11b8152600481018390526001600160a01b0384169063aeb5cd5e90602401600060405180830381600087803b1580156113ee57600080fd5b505af1158015611402573d6000803e3d6000fd5b50505050600081836114149190613130565b90506114498560405160200161142a9190613073565b60408051601f198184030181529190528051602090910120600161233a565b60016040516001600160a01b038816906000805160206134c583398151915290600090a361147733826125c3565b505050505050565b600061148a846124dd565b905061149781600361219f565b60006114ad82604051602001610530919061336f565b905080841115806114bd57504284115b156114db576040516338af65f760e01b815260040160405180910390fd5b60006114f18360405160200161053091906130ba565b90506000611509846040516020016105309190613241565b905060006115178284613130565b90506115238682613130565b34146115425760405163162908e360e11b815260040160405180910390fd5b600061156a6040518060400160405280600581526020016415985d5b1d60da1b815250610555565b90506000611596604051806040016040528060078152602001665374616b696e6760c81b815250610555565b905060006115ae8860405160200161056c9190613043565b90506115e3886040516020016115c49190613073565b60408051601f198184030181529190528051602090910120600361233a565b6115f788604051602001610e6c91906133a3565b61160b88604051602001610f5c91906132eb565b600061161860028b612f54565b905060006116486040518060400160405280600b81526020016a50726f746f636f6c44414f60a81b815250610555565b905060006116b8826001600160a01b03166382b33dab6040518163ffffffff1660e01b8152600401602060405180830381865afa15801561168d573d6000803e3d6000fd5b505050506040513d601f19601f820116820180604052508101906116b19190612f06565b8490612078565b6116c290846133d5565b905060006116d0828e6133d5565b90506117028c6040516020016116e691906130f2565b604051602081830303815290604052805190602001208261233a565b6117328c6040516020016117169190613328565b604051602081830303815290604052805190602001208361233a565b8c600003611743576117438c612614565b6001600160a01b03871663a0d065c361175c838d613130565b6040518263ffffffff1660e01b81526004016000604051808303818588803b15801561178757600080fd5b505af115801561179b573d6000803e3d6000fd5b50505050507f00000000000000000000000000000000000000000000000000000000000000006001600160a01b031663383dcbc4838b6117db9190613130565b6040516001600160e01b031960e084901b168152600481018d9052602481018690526044016000604051808303818588803b15801561181957600080fd5b505af115801561182d573d6000803e3d6000fd5b5050604051635c627b0960e11b81526001600160a01b038981166004830152602482018e90528a16935063b8c4f61292506044019050600060405180830381600087803b15801561187d57600080fd5b505af1158015611891573d6000803e3d6000fd5b5050505061189e8961256f565b6040516323ca17bd60e01b81526001600160a01b0386811660048301528716906323ca17bd90602401600060405180830381600087803b1580156118e157600080fd5b505af11580156118f5573d6000803e3d6000fd5b5060039250611902915050565b8f6001600160a01b03166000805160206134c583398151915260405160405180910390a3505050505050505050505050505050565b606060006119526000805160206134a583398151915261208d565b905060006119608486613130565b90508181118061196e575083155b156119765750805b61198085826133d5565b67ffffffffffffffff81111561199857611998612bee565b6040519080825280602002602001820160405280156119d157816020015b6119be612af5565b8152602001906001900390816119b65790505b5092506000855b82811015611a495760006119eb82611bf6565b90508860068111156119ff576119ff6130a4565b816040015103611a365780868481518110611a1c57611a1c6133ec565b60200260200101819052508280611a3290613402565b9350505b5080611a4181613402565b9150506119d8565b5083525090949350505050565b6000611a61846124dd565b9050611a6e81600261219f565b611aa181604051602001611a829190613073565b60408051601f198184030181529190528051602090910120600261233a565b611ad181604051602001611ab5919061341b565b6040516020818303038152906040528051906020012084612533565b611ae581604051602001611716919061336f565b60026040516001600160a01b038616906000805160206134c583398151915290600090a350505050565b6000611b1a82612172565b90506000611b328260405160200161056c9190613043565b9050336001600160a01b03821614611b5d5760405163112dcfdd60e31b815260040160405180910390fd5b611b678383612780565b505050565b611b74612af5565b6000611b7f83610518565b9050611b8a81611bf6565b9392505050565b6000611baa6000805160206134a583398151915261208d565b905090565b6000611bba836124dd565b9050611bec81604051602001611bd091906132b7565b6040516020818303038152906040528051906020012083612533565b611b678382612780565b611bfe612af5565b818152604051611c169061056c908490602001613189565b6001600160a01b0316602080830191909152604051611c3b9161053091859101613073565b816040018181525050611c588260405160200161053091906131d7565b6060820152604051611c8d90611c7290849060200161341b565b60405160208183030381529060405280519060200120612a53565b610200820152604051611ca89061053090849060200161336f565b6080820152604051611cc2906105309084906020016133a3565b60a0820152604051611cdc9061053090849060200161327f565b60c0820152604051611cf69061053090849060200161344a565b60e0820152604051611d10906105309084906020016130ba565b610100820152604051611d2b90610530908490602001613241565b610120820152604051611d46906105309084906020016132eb565b610140820152604051611d61906105309084906020016130f2565b610160820152604051611d7c90610530908490602001613328565b610180820152604051611d979061056c90849060200161320a565b6001600160a01b03166101e0820152604051611dbb9061056c908490602001613043565b6001600160a01b03166101c0820152604051611ddf90611c729084906020016132b7565b6101a0820152919050565b6000611baa7fe4fac65ce3e059b0c49e1bdde790f19fa63a0166d3fa741c2d611446910469c361208d565b600060019054906101000a90046001600160a01b03166001600160a01b031663a75b87d26040518163ffffffff1660e01b8152600401602060405180830381865afa158015611e68573d6000803e3d6000fd5b505050506040513d601f19601f82011682018060405250810190611e8c91906131ba565b6001600160a01b0316336001600160a01b031614611ebd576040516301b4790360e31b815260040160405180910390fd5b6000611ec883612172565b9050611b6781604051602001611ede9190613073565b60405160208183030381529060405280519060200120836006811115610661576106616130a4565b600080611f12836124dd565b9050611f1f81600161219f565b6000611f35826040516020016105309190613241565b90507f00000000000000000000000000000000000000000000000000000000000000006001600160a01b031663be13733c6040518163ffffffff1660e01b8152600401602060405180830381865afa158015611f95573d6000803e3d6000fd5b505050506040513d601f19601f82011682018060405250810190611fb99190612f06565b811115611fca575060009392505050565b5060019392505050565b600080611ffe604051806040016040528060068152602001654f7261636c6560d01b815250610555565b90506000816001600160a01b031663bece349b6040518163ffffffff1660e01b81526004016040805180830381865afa15801561203f573d6000803e3d6000fd5b505050506040513d601f19601f820116820180604052508101906120639190613480565b5090506120708482612a89565b949350505050565b6000611b8a8383670de0b6b3a7640000612a9a565b6000805460405163bd02d0f560e01b8152600481018490526101009091046001600160a01b03169063bd02d0f5906024015b602060405180830381865afa1580156120dc573d6000803e3d6000fd5b505050506040513d601f19601f820116820180604052508101906105129190612f06565b600080546040516321f8a72160e01b8152600481018490526101009091046001600160a01b0316906321f8a72190602401602060405180830381865afa15801561214e573d6000803e3d6000fd5b505050506040513d601f19601f8201168201806040525081019061051291906131ba565b60008061217e83610518565b905080196105125760405163d2fc63e360e01b815260040160405180910390fd5b6000826040516020016121b29190613073565b60405160208183030381529060405280519060200120905060006121d58261208d565b60068111156121e6576121e66130a4565b90506000808260068111156121fd576121fd6130a4565b0361223b576001846006811115612216576122166130a4565b1480612234575060055b846006811115612232576122326130a4565b145b9050612315565b600182600681111561224f5761224f6130a4565b036122775760025b846006811115612269576122696130a4565b148061223457506006612220565b600282600681111561228b5761228b6130a4565b03612297576003612257565b60038260068111156122ab576122ab6130a4565b14806122c8575060068260068111156122c6576122c66130a4565b145b156122d4576004612220565b60048260068111156122e8576122e86130a4565b148061230557506005826006811115612303576123036130a4565b145b15612311576000612220565b5060005b80612333576040516323e69e0360e21b815260040160405180910390fd5b5050505050565b600054604051637152429d60e11b815260048101849052602481018390526101009091046001600160a01b03169063e2a4853a906044015b600060405180830381600087803b15801561238c57600080fd5b505af1158015611477573d6000803e3d6000fd5b6123d3816040516020016123b4919061341b565b604051602081830303815290604052805190602001206000801b612533565b6123e7816040516020016110ff919061336f565b6123fb816040516020016110ff91906133a3565b61240f816040516020016110ff91906132eb565b612423816040516020016110ff91906130f2565b612437816040516020016110ff9190613328565b61244b816040516020016110ff919061344a565b61245f816040516020016123b491906132b7565b50565b60005460405163ca446dd960e01b8152600481018490526001600160a01b0383811660248301526101009092049091169063ca446dd990604401612372565b600054604051632b6cd4f760e21b815260048101849052602481018390526101009091046001600160a01b03169063adb353dc90604401612372565b6000806124e983612172565b905060006125018260405160200161056c919061320a565b9050336001600160a01b0382161461252c5760405163c2bd570760e01b815260040160405180910390fd5b5092915050565b6000546040516309d23b6160e31b815260048101849052602481018390526101009091046001600160a01b031690634e91db0890604401612372565b61245f7fe4fac65ce3e059b0c49e1bdde790f19fa63a0166d3fa741c2d611446910469c382612ab9565b61245f7fe4fac65ce3e059b0c49e1bdde790f19fa63a0166d3fa741c2d611446910469c3826124a1565b600080600080600085875af1905080611b675760405162461bcd60e51b815260206004820152601360248201527211551217d514905394d1915497d19052531151606a1b60448201526064016105d0565b600061262a8260405160200161056c9190613189565b905060006126428360405160200161056c9190613043565b9050600061265a8460405160200161053091906131d7565b90506000612672856040516020016105309190613241565b905060006126808383610452565b9050600061268d82611fd4565b90506126a3876040516020016116e6919061344a565b60006126cd604051806040016040528060078152602001665374616b696e6760c81b815250610555565b60405163065fe0a360e01b81526001600160a01b038881166004830152602482018590529192509082169063065fe0a390604401600060405180830381600087803b15801561271b57600080fd5b505af115801561272f573d6000803e3d6000fd5b50505050866001600160a01b03167fa10866a4e21985bc2d4130717769d773ffe207cffc5fb5d714c8c030e0677ec78360405161276e91815260200190565b60405180910390a25050505050505050565b61278b81600561219f565b6127be8160405160200161279f9190613073565b60408051601f198184030181529190528051602090910120600561233a565b60006127d48260405160200161056c9190613043565b905060006127ec8360405160200161053091906130ba565b90506000612804846040516020016105309190613241565b90506000612830604051806040016040528060078152602001665374616b696e6760c81b815250610555565b60405163a1bb68a560e01b81526001600160a01b038681166004830152602482018690529192509082169063a1bb68a590604401600060405180830381600087803b15801561287e57600080fd5b505af1158015612892573d6000803e3d6000fd5b5050604051635c627b0960e11b81526001600160a01b038781166004830152602482018690528416925063b8c4f6129150604401600060405180830381600087803b1580156128e057600080fd5b505af11580156128f4573d6000803e3d6000fd5b50506040516323ca17bd60e01b81526001600160a01b038781166004830152841692506323ca17bd9150602401600060405180830381600087803b15801561293b57600080fd5b505af115801561294f573d6000803e3d6000fd5b50505050600061297b6040518060400160405280600581526020016415985d5b1d60da1b815250610555565b60405163575ae6af60e11b8152600481018690529091506001600160a01b0382169063aeb5cd5e90602401600060405180830381600087803b1580156129c057600080fd5b505af11580156129d4573d6000803e3d6000fd5b505050506000856001600160a01b03168560405160006040518083038185875af1925050503d8060008114612a25576040519150601f19603f3d011682016040523d82523d6000602084013e612a2a565b606091505b5050905080612a4c5760405163078445b560e41b815260040160405180910390fd5b600561128a565b60008054604051635376ab1f60e11b8152600481018490526101009091046001600160a01b03169063a6ed563e906024016120bf565b6000611b8a83670de0b6b3a7640000845b828202811515841585830485141716612ab257600080fd5b0492915050565b60005460405163ebb9d8c960e01b815260048101849052602481018390526101009091046001600160a01b03169063ebb9d8c990604401612372565b6040518061022001604052806000815260200160006001600160a01b0316815260200160008152602001600081526020016000815260200160008152602001600081526020016000815260200160008152602001600081526020016000815260200160008152602001600081526020016000801916815260200160006001600160a01b0316815260200160006001600160a01b03168152602001600080191681525090565b60008060408385031215612bad57600080fd5b50508035926020909101359150565b6001600160a01b038116811461245f57600080fd5b600060208284031215612be357600080fd5b8135611b8a81612bbc565b634e487b7160e01b600052604160045260246000fd5b600060208284031215612c1657600080fd5b813567ffffffffffffffff80821115612c2e57600080fd5b818401915084601f830112612c4257600080fd5b813581811115612c5457612c54612bee565b604051601f8201601f19908116603f01168101908382118183101715612c7c57612c7c612bee565b81604052828152876020848701011115612c9557600080fd5b826020860160208301376000928101602001929092525095945050505050565b60008060008060808587031215612ccb57600080fd5b8435612cd681612bbc565b966020860135965060408601359560600135945092505050565b60008060408385031215612d0357600080fd5b8235612d0e81612bbc565b946020939093013593505050565b600080600060608486031215612d3157600080fd5b8335612d3c81612bbc565b95602085013595506040909401359392505050565b803560078110612d6057600080fd5b919050565b600080600060608486031215612d7a57600080fd5b612d3c84612d51565b805182526020810151612da160208401826001600160a01b03169052565b5060408181015190830152606080820151908301526080808201519083015260a0808201519083015260c0808201519083015260e08082015190830152610100808201519083015261012080820151908301526101408082015190830152610160808201519083015261018080820151908301526101a080820151908301526101c0808201516001600160a01b0381168285015250506101e0818101516001600160a01b03811684830152505061020090810151910152565b6020808252825182820181905260009190848201906040850190845b81811015612e9d57612e89838551612d83565b928401926102209290920191600101612e76565b50909695505050505050565b61022081016105128284612d83565b600060208284031215612eca57600080fd5b5035919050565b60008060408385031215612ee457600080fd5b8235612eef81612bbc565b9150612efd60208401612d51565b90509250929050565b600060208284031215612f1857600080fd5b5051919050565b634e487b7160e01b600052601160045260246000fd5b6000816000190483118215151615612f4f57612f4f612f1f565b500290565b600082612f7157634e487b7160e01b600052601260045260246000fd5b500490565b6d0dad2dcd2e0deded85cd2dcc8caf60931b815260609190911b6bffffffffffffffffffffffff1916600e82015260220190565b60008083128015600160ff1b850184121615612fc857612fc8612f1f565b6001600160ff1b0384018313811615612fe357612fe3612f1f565b50500390565b6f636f6e74726163742e6164647265737360801b81526000825160005b818110156130235760208186018101516010868401015201613006565b81811115613035576000601083860101525b509190910160100192915050565b6c6d696e69706f6f6c2e6974656d60981b8152600d810191909152651737bbb732b960d11b602d82015260330190565b6c6d696e69706f6f6c2e6974656d60981b8152600d810191909152662e73746174757360c81b602d82015260340190565b634e487b7160e01b600052602160045260246000fd5b6c6d696e69706f6f6c2e6974656d60981b8152600d8101919091526d0b985d985e139bd91953dc105b5d60921b602d820152603b0190565b6c6d696e69706f6f6c2e6974656d60981b8152600d810191909152730b985d985e139bd91953dc14995dd85c99105b5d60621b602d82015260410190565b6000821982111561314357613143612f1f565b500190565b600080821280156001600160ff1b038490038513161561316a5761316a612f1f565b600160ff1b839003841281161561318357613183612f1f565b50500190565b6c6d696e69706f6f6c2e6974656d60981b8152600d810191909152660b9b9bd919525160ca1b602d82015260340190565b6000602082840312156131cc57600080fd5b8151611b8a81612bbc565b6c6d696e69706f6f6c2e6974656d60981b8152600d8101919091526817323ab930ba34b7b760b91b602d82015260360190565b6c6d696e69706f6f6c2e6974656d60981b8152600d8101919091526c1736bab63a34b9b4b3a0b2323960991b602d820152603a0190565b6c6d696e69706f6f6c2e6974656d60981b8152600d810191909152730b985d985e131a5c5d5a5914dd185ad95c905b5d60621b602d82015260410190565b6c6d696e69706f6f6c2e6974656d60981b8152600d8101919091526d2e64656c65676174696f6e46656560901b602d820152603b0190565b6c6d696e69706f6f6c2e6974656d60981b8152600d810191909152692e6572726f72436f646560b01b602d82015260370190565b6c6d696e69706f6f6c2e6974656d60981b8152600d810191909152720b985d985e151bdd185b14995dd85c99105b5d606a1b602d82015260400190565b6c6d696e69706f6f6c2e6974656d60981b8152600d8101919091527f2e617661784c69717569645374616b6572526577617264416d74000000000000602d82015260470190565b6c6d696e69706f6f6c2e6974656d60981b8152600d810191909152692e737461727454696d6560b01b602d82015260370190565b6c6d696e69706f6f6c2e6974656d60981b8152600d810191909152672e656e6454696d6560c01b602d82015260350190565b6000828210156133e7576133e7612f1f565b500390565b634e487b7160e01b600052603260045260246000fd5b60006001820161341457613414612f1f565b5060010190565b6c6d696e69706f6f6c2e6974656d60981b8152600d810191909152640b9d1e125160da1b602d82015260320190565b6c6d696e69706f6f6c2e6974656d60981b8152600d8101919091526b0b99d9dc14db185cda105b5d60a21b602d82015260390190565b6000806040838503121561349357600080fd5b50508051602090910151909290915056fee0350abf7e528889b5822fca885fa12de74628619c3752923dd9ec3ce44e4602c9c043637725967252aedd2704cc65fee962e7b8a1e3cf8098587a66601e50c5a264697066735822122007d71c1331c68a38d02148e6d1cca16ddded65c8d73e9a3690f42b1ad7fd819764736f6c634300080d0033",
  "linkReferences": {},
  "deployedLinkReferences": {}
}