{
  "_format": "hh-sol-artifact-1",
  "contractName": "Storage",
  "sourceName": "contracts/contract/Storage.sol",
  "abi": [
    {
      "inputs": [],
      "stateMutability": "nonpayable",
      "type": "constructor"
    },
    {
      "inputs": [],
      "name": "InvalidGuardianConfirmation",
      "type": "error"
    },
    {
      "inputs": [],
      "name": "InvalidOrOutdatedContract",
      "type": "error"
    },
    {
      "inputs": [],
      "name": "MustBeGuardian",
      "type": "error"
    },
    {
      "anonymous": false,
      "inputs": [
        {
          "indexed": false,
          "internalType": "address",
          "name": "oldGuardian",
          "type": "address"
        },
        {
          "indexed": false,
          "internalType": "address",
          "name": "newGuardian",
          "type": "address"
        }
      ],
      "name": "GuardianChanged",
      "type": "event"
    },
    {
      "inputs": [
        {
          "internalType": "bytes32",
          "name": "key",
          "type": "bytes32"
        },
        {
          "internalType": "uint256",
          "name": "amount",
          "type": "uint256"
        }
      ],
      "name": "addUint",
      "outputs": [],
      "stateMutability": "nonpayable",
      "type": "function"
    },
    {
      "inputs": [],
      "name": "confirmGuardian",
      "outputs": [],
      "stateMutability": "nonpayable",
      "type": "function"
    },
    {
      "inputs": [
        {
          "internalType": "bytes32",
          "name": "key",
          "type": "bytes32"
        }
      ],
      "name": "deleteAddress",
      "outputs": [],
      "stateMutability": "nonpayable",
      "type": "function"
    },
    {
      "inputs": [
        {
          "internalType": "bytes32",
          "name": "key",
          "type": "bytes32"
        }
      ],
      "name": "deleteBool",
      "outputs": [],
      "stateMutability": "nonpayable",
      "type": "function"
    },
    {
      "inputs": [
        {
          "internalType": "bytes32",
          "name": "key",
          "type": "bytes32"
        }
      ],
      "name": "deleteBytes",
      "outputs": [],
      "stateMutability": "nonpayable",
      "type": "function"
    },
    {
      "inputs": [
        {
          "internalType": "bytes32",
          "name": "key",
          "type": "bytes32"
        }
      ],
      "name": "deleteBytes32",
      "outputs": [],
      "stateMutability": "nonpayable",
      "type": "function"
    },
    {
      "inputs": [
        {
          "internalType": "bytes32",
          "name": "key",
          "type": "bytes32"
        }
      ],
      "name": "deleteInt",
      "outputs": [],
      "stateMutability": "nonpayable",
      "type": "function"
    },
    {
      "inputs": [
        {
          "internalType": "bytes32",
          "name": "key",
          "type": "bytes32"
        }
      ],
      "name": "deleteString",
      "outputs": [],
      "stateMutability": "nonpayable",
      "type": "function"
    },
    {
      "inputs": [
        {
          "internalType": "bytes32",
          "name": "key",
          "type": "bytes32"
        }
      ],
      "name": "deleteUint",
      "outputs": [],
      "stateMutability": "nonpayable",
      "type": "function"
    },
    {
      "inputs": [
        {
          "internalType": "bytes32",
          "name": "key",
          "type": "bytes32"
        }
      ],
      "name": "getAddress",
      "outputs": [
        {
          "internalType": "address",
          "name": "r",
          "type": "address"
        }
      ],
      "stateMutability": "view",
      "type": "function"
    },
    {
      "inputs": [
        {
          "internalType": "bytes32",
          "name": "key",
          "type": "bytes32"
        }
      ],
      "name": "getBool",
      "outputs": [
        {
          "internalType": "bool",
          "name": "r",
          "type": "bool"
        }
      ],
      "stateMutability": "view",
      "type": "function"
    },
    {
      "inputs": [
        {
          "internalType": "bytes32",
          "name": "key",
          "type": "bytes32"
        }
      ],
      "name": "getBytes",
      "outputs": [
        {
          "internalType": "bytes",
          "name": "",
          "type": "bytes"
        }
      ],
      "stateMutability": "view",
      "type": "function"
    },
    {
      "inputs": [
        {
          "internalType": "bytes32",
          "name": "key",
          "type": "bytes32"
        }
      ],
      "name": "getBytes32",
      "outputs": [
        {
          "internalType": "bytes32",
          "name": "r",
          "type": "bytes32"
        }
      ],
      "stateMutability": "view",
      "type": "function"
    },
    {
      "inputs": [],
      "name": "getGuardian",
      "outputs": [
        {
          "internalType": "address",
          "name": "",
          "type": "address"
        }
      ],
      "stateMutability": "view",
      "type": "function"
    },
    {
      "inputs": [
        {
          "internalType": "bytes32",
          "name": "key",
          "type": "bytes32"
        }
      ],
      "name": "getInt",
      "outputs": [
        {
          "internalType": "int256",
          "name": "r",
          "type": "int256"
        }
      ],
      "stateMutability": "view",
      "type": "function"
    },
    {
      "inputs": [
        {
          "internalType": "bytes32",
          "name": "key",
          "type": "bytes32"
        }
      ],
      "name": "getString",
      "outputs": [
        {
          "internalType": "string",
          "name": "",
          "type": "string"
        }
      ],
      "stateMutability": "view",
      "type": "function"
    },
    {
      "inputs": [
        {
          "internalType": "bytes32",
          "name": "key",
          "type": "bytes32"
        }
      ],
      "name": "getUint",
      "outputs": [
        {
          "internalType": "uint256",
          "name": "r",
          "type": "uint256"
        }
      ],
      "stateMutability": "view",
      "type": "function"
    },
    {
      "inputs": [
        {
          "internalType": "bytes32",
          "name": "key",
          "type": "bytes32"
        },
        {
          "internalType": "address",
          "name": "value",
          "type": "address"
        }
      ],
      "name": "setAddress",
      "outputs": [],
      "stateMutability": "nonpayable",
      "type": "function"
    },
    {
      "inputs": [
        {
          "internalType": "bytes32",
          "name": "key",
          "type": "bytes32"
        },
        {
          "internalType": "bool",
          "name": "value",
          "type": "bool"
        }
      ],
      "name": "setBool",
      "outputs": [],
      "stateMutability": "nonpayable",
      "type": "function"
    },
    {
      "inputs": [
        {
          "internalType": "bytes32",
          "name": "key",
          "type": "bytes32"
        },
        {
          "internalType": "bytes",
          "name": "value",
          "type": "bytes"
        }
      ],
      "name": "setBytes",
      "outputs": [],
      "stateMutability": "nonpayable",
      "type": "function"
    },
    {
      "inputs": [
        {
          "internalType": "bytes32",
          "name": "key",
          "type": "bytes32"
        },
        {
          "internalType": "bytes32",
          "name": "value",
          "type": "bytes32"
        }
      ],
      "name": "setBytes32",
      "outputs": [],
      "stateMutability": "nonpayable",
      "type": "function"
    },
    {
      "inputs": [
        {
          "internalType": "address",
          "name": "newAddress",
          "type": "address"
        }
      ],
      "name": "setGuardian",
      "outputs": [],
      "stateMutability": "nonpayable",
      "type": "function"
    },
    {
      "inputs": [
        {
          "internalType": "bytes32",
          "name": "key",
          "type": "bytes32"
        },
        {
          "internalType": "int256",
          "name": "value",
          "type": "int256"
        }
      ],
      "name": "setInt",
      "outputs": [],
      "stateMutability": "nonpayable",
      "type": "function"
    },
    {
      "inputs": [
        {
          "internalType": "bytes32",
          "name": "key",
          "type": "bytes32"
        },
        {
          "internalType": "string",
          "name": "value",
          "type": "string"
        }
      ],
      "name": "setString",
      "outputs": [],
      "stateMutability": "nonpayable",
      "type": "function"
    },
    {
      "inputs": [
        {
          "internalType": "bytes32",
          "name": "key",
          "type": "bytes32"
        },
        {
          "internalType": "uint256",
          "name": "value",
          "type": "uint256"
        }
      ],
      "name": "setUint",
      "outputs": [],
      "stateMutability": "nonpayable",
      "type": "function"
    },
    {
      "inputs": [
        {
          "internalType": "bytes32",
          "name": "key",
          "type": "bytes32"
        },
        {
          "internalType": "uint256",
          "name": "amount",
          "type": "uint256"
        }
      ],
      "name": "subUint",
      "outputs": [],
      "stateMutability": "nonpayable",
      "type": "function"
    }
  ],
  "bytecode": "0x608060405234801561001057600080fd5b50600780546001600160a01b031916331790556114b8806100326000396000f3fe608060405234801561001057600080fd5b50600436106101ae5760003560e01c8063986e791a116100ee578063c031a18011610097578063e2a4853a11610071578063e2a4853a146103df578063e2b202bf146103f2578063ebb9d8c914610405578063f6bb3cc41461041857600080fd5b8063c031a18014610399578063ca446dd9146103ac578063dc97d962146103bf57600080fd5b8063abfdcced116100c8578063abfdcced14610353578063adb353dc14610366578063bd02d0f51461037957600080fd5b8063986e791a146102f4578063a6ed563e14610314578063a75b87d21461034257600080fd5b80633e49bed01161015b5780636e899550116101355780636e899550146102885780637ae1cfca1461029b5780638a0dac4a146102ce5780638c160095146102e157600080fd5b80633e49bed01461024f5780634e91db0814610262578063616b59f61461027557600080fd5b806321f8a7211161018c57806321f8a721146101e35780632c62ff2d146102295780632e28d0841461023c57600080fd5b80630b9adc57146101b35780630e14a376146101c85780631e0ea61e146101db575b600080fd5b6101c66101c1366004611118565b61042b565b005b6101c66101d6366004611118565b6104d2565b6101c6610586565b61020c6101f1366004611118565b6000908152602081905260409020546001600160a01b031690565b6040516001600160a01b0390911681526020015b60405180910390f35b6101c6610237366004611118565b61061d565b6101c661024a36600461117a565b6106cb565b6101c661025d3660046111c6565b610780565b6101c66102703660046111c6565b610828565b6101c6610283366004611118565b6108d0565b6101c661029636600461117a565b610980565b6102be6102a9366004611118565b60009081526001602052604090205460ff1690565b6040519015158152602001610220565b6101c66102dc366004611204565b610a2f565b6101c66102ef366004611118565b610a7c565b610307610302366004611118565b610b23565b604051610220919061126c565b610334610322366004611118565b60009081526003602052604090205490565b604051908152602001610220565b6007546001600160a01b031661020c565b6101c661036136600461127f565b610bc5565b6101c66103743660046111c6565b610c7b565b610334610387366004611118565b60009081526006602052604090205490565b6103076103a7366004611118565b610d41565b6101c66103ba3660046112b4565b610d5e565b6103346103cd366004611118565b60009081526004602052604090205490565b6101c66103ed3660046111c6565b610e22565b6101c6610400366004611118565b610eca565b6101c66104133660046111c6565b610f71565b6101c6610426366004611118565b611021565b6040516e636f6e74726163742e65786973747360881b60208201526001600160601b03193360601b16602f82015260019060009060430160408051601f198184030181529181528151602092830120835290820192909252016000205460ff161580156104a357506007546001600160a01b03163314155b156104c157604051631eee95db60e11b815260040160405180910390fd5b600090815260036020526040812055565b6040516e636f6e74726163742e65786973747360881b60208201526001600160601b03193360601b16602f82015260019060009060430160408051601f198184030181529181528151602092830120835290820192909252016000205460ff1615801561054a57506007546001600160a01b03163314155b1561056857604051631eee95db60e11b815260040160405180910390fd5b600090815260208190526040902080546001600160a01b0319169055565b6008546001600160a01b031633146105b1576040516329733dd560e21b815260040160405180910390fd5b60078054600880546001600160a01b038082166001600160a01b0319808616821790965594909116909155604080519190921680825260208201939093527fa14fc14d8620a708a896fd11392a235647d99385500a295f0d7da2a258b2e967910160405180910390a150565b6040516e636f6e74726163742e65786973747360881b60208201526001600160601b03193360601b16602f82015260019060009060430160408051601f198184030181529181528151602092830120835290820192909252016000205460ff1615801561069557506007546001600160a01b03163314155b156106b357604051631eee95db60e11b815260040160405180910390fd5b6000908152600160205260409020805460ff19169055565b6040516e636f6e74726163742e65786973747360881b60208201526001600160601b03193360601b16602f82015260019060009060430160408051601f198184030181529181528151602092830120835290820192909252016000205460ff1615801561074357506007546001600160a01b03163314155b1561076157604051631eee95db60e11b815260040160405180910390fd5b600083815260026020526040902061077a82848361137f565b50505050565b6040516e636f6e74726163742e65786973747360881b60208201526001600160601b03193360601b16602f82015260019060009060430160408051601f198184030181529181528151602092830120835290820192909252016000205460ff161580156107f857506007546001600160a01b03163314155b1561081657604051631eee95db60e11b815260040160405180910390fd5b60009182526004602052604090912055565b6040516e636f6e74726163742e65786973747360881b60208201526001600160601b03193360601b16602f82015260019060009060430160408051601f198184030181529181528151602092830120835290820192909252016000205460ff161580156108a057506007546001600160a01b03163314155b156108be57604051631eee95db60e11b815260040160405180910390fd5b60009182526003602052604090912055565b6040516e636f6e74726163742e65786973747360881b60208201526001600160601b03193360601b16602f82015260019060009060430160408051601f198184030181529181528151602092830120835290820192909252016000205460ff1615801561094857506007546001600160a01b03163314155b1561096657604051631eee95db60e11b815260040160405180910390fd5b600081815260026020526040812061097d916110ca565b50565b6040516e636f6e74726163742e65786973747360881b60208201526001600160601b03193360601b16602f82015260019060009060430160408051601f198184030181529181528151602092830120835290820192909252016000205460ff161580156109f857506007546001600160a01b03163314155b15610a1657604051631eee95db60e11b815260040160405180910390fd5b600083815260056020526040902061077a82848361137f565b6007546001600160a01b03163314610a5a576040516301b4790360e31b815260040160405180910390fd5b600880546001600160a01b0319166001600160a01b0392909216919091179055565b6040516e636f6e74726163742e65786973747360881b60208201526001600160601b03193360601b16602f82015260019060009060430160408051601f198184030181529181528151602092830120835290820192909252016000205460ff16158015610af457506007546001600160a01b03163314155b15610b1257604051631eee95db60e11b815260040160405180910390fd5b600090815260046020526040812055565b6000818152600560205260409020805460609190610b40906112f6565b80601f0160208091040260200160405190810160405280929190818152602001828054610b6c906112f6565b8015610bb95780601f10610b8e57610100808354040283529160200191610bb9565b820191906000526020600020905b815481529060010190602001808311610b9c57829003601f168201915b50505050509050919050565b6040516e636f6e74726163742e65786973747360881b60208201526001600160601b03193360601b16602f82015260019060009060430160408051601f198184030181529181528151602092830120835290820192909252016000205460ff16158015610c3d57506007546001600160a01b03163314155b15610c5b57604051631eee95db60e11b815260040160405180910390fd5b600091825260016020526040909120805460ff1916911515919091179055565b6040516e636f6e74726163742e65786973747360881b60208201526001600160601b03193360601b16602f82015260019060009060430160408051601f198184030181529181528151602092830120835290820192909252016000205460ff16158015610cf357506007546001600160a01b03163314155b15610d1157604051631eee95db60e11b815260040160405180910390fd5b600082815260066020526040902054610d2b908290611456565b6000928352600660205260409092209190915550565b6000818152600260205260409020805460609190610b40906112f6565b6040516e636f6e74726163742e65786973747360881b60208201526001600160601b03193360601b16602f82015260019060009060430160408051601f198184030181529181528151602092830120835290820192909252016000205460ff16158015610dd657506007546001600160a01b03163314155b15610df457604051631eee95db60e11b815260040160405180910390fd5b60009182526020829052604090912080546001600160a01b0319166001600160a01b03909216919091179055565b6040516e636f6e74726163742e65786973747360881b60208201526001600160601b03193360601b16602f82015260019060009060430160408051601f198184030181529181528151602092830120835290820192909252016000205460ff16158015610e9a57506007546001600160a01b03163314155b15610eb857604051631eee95db60e11b815260040160405180910390fd5b60009182526006602052604090912055565b6040516e636f6e74726163742e65786973747360881b60208201526001600160601b03193360601b16602f82015260019060009060430160408051601f198184030181529181528151602092830120835290820192909252016000205460ff16158015610f4257506007546001600160a01b03163314155b15610f6057604051631eee95db60e11b815260040160405180910390fd5b600090815260066020526040812055565b6040516e636f6e74726163742e65786973747360881b60208201526001600160601b03193360601b16602f82015260019060009060430160408051601f198184030181529181528151602092830120835290820192909252016000205460ff16158015610fe957506007546001600160a01b03163314155b1561100757604051631eee95db60e11b815260040160405180910390fd5b600082815260066020526040902054610d2b90829061146f565b6040516e636f6e74726163742e65786973747360881b60208201526001600160601b03193360601b16602f82015260019060009060430160408051601f198184030181529181528151602092830120835290820192909252016000205460ff1615801561109957506007546001600160a01b03163314155b156110b757604051631eee95db60e11b815260040160405180910390fd5b600081815260056020526040812061097d915b5080546110d6906112f6565b6000825580601f106110e6575050565b601f01602090049060005260206000209081019061097d91905b808211156111145760008155600101611100565b5090565b60006020828403121561112a57600080fd5b5035919050565b60008083601f84011261114357600080fd5b50813567ffffffffffffffff81111561115b57600080fd5b60208301915083602082850101111561117357600080fd5b9250929050565b60008060006040848603121561118f57600080fd5b83359250602084013567ffffffffffffffff8111156111ad57600080fd5b6111b986828701611131565b9497909650939450505050565b600080604083850312156111d957600080fd5b50508035926020909101359150565b80356001600160a01b03811681146111ff57600080fd5b919050565b60006020828403121561121657600080fd5b61121f826111e8565b9392505050565b6000815180845260005b8181101561124c57602081850181015186830182015201611230565b506000602082860101526020601f19601f83011685010191505092915050565b60208152600061121f6020830184611226565b6000806040838503121561129257600080fd5b82359150602083013580151581146112a957600080fd5b809150509250929050565b600080604083850312156112c757600080fd5b823591506112d7602084016111e8565b90509250929050565b634e487b7160e01b600052604160045260246000fd5b600181811c9082168061130a57607f821691505b60208210810361132a57634e487b7160e01b600052602260045260246000fd5b50919050565b601f82111561137a57600081815260208120601f850160051c810160208610156113575750805b601f850160051c820191505b8181101561137657828155600101611363565b5050505b505050565b67ffffffffffffffff831115611397576113976112e0565b6113ab836113a583546112f6565b83611330565b6000601f8411600181146113df57600085156113c75750838201355b600019600387901b1c1916600186901b178355611439565b600083815260209020601f19861690835b8281101561141057868501358255602094850194600190920191016113f0565b508682101561142d5760001960f88860031b161c19848701351681555b505060018560011b0183555b5050505050565b634e487b7160e01b600052601160045260246000fd5b8082018082111561146957611469611440565b92915050565b818103818111156114695761146961144056fea2646970667358221220ef466185965df114ee6debd8098aec204364bf30160bbe6320101e1d968361b864736f6c63430008110033",
  "linkReferences": {},
  "deployedLinkReferences": {}
}