{
  "_format": "hh-sol-artifact-1",
  "contractName": "Oracle",
  "sourceName": "contracts/contract/Oracle.sol",
  "abi": [
    {
      "inputs": [
        {
          "internalType": "contract Storage",
          "name": "storageAddress",
          "type": "address"
        }
      ],
      "stateMutability": "nonpayable",
      "type": "constructor"
    },
    {
      "inputs": [],
      "name": "InvalidGGPPrice",
      "type": "error"
    },
    {
      "inputs": [],
      "name": "InvalidMultisigDisabled",
      "type": "error"
    },
    {
      "inputs": [],
      "name": "InvalidTimestamp",
      "type": "error"
    },
    {
      "anonymous": false,
      "inputs": [
        {
          "indexed": true,
          "internalType": "uint256",
          "name": "price",
          "type": "uint256"
        }
      ],
      "name": "GGPPriceUpdated",
      "type": "event"
    },
    {
      "inputs": [
        {
          "internalType": "string",
          "name": "_contractName",
          "type": "string"
        }
      ],
      "name": "getContractAddress",
      "outputs": [
        {
          "internalType": "address",
          "name": "",
          "type": "address"
        }
      ],
      "stateMutability": "view",
      "type": "function"
    },
    {
      "inputs": [],
      "name": "getGGPPrice",
      "outputs": [
        {
          "internalType": "uint256",
          "name": "price",
          "type": "uint256"
        },
        {
          "internalType": "uint256",
          "name": "timestamp",
          "type": "uint256"
        }
      ],
      "stateMutability": "view",
      "type": "function"
    },
    {
      "inputs": [],
      "name": "getGGPPriceFromOneInch",
      "outputs": [
        {
          "internalType": "uint256",
          "name": "price",
          "type": "uint256"
        },
        {
          "internalType": "uint256",
          "name": "timestamp",
          "type": "uint256"
        }
      ],
      "stateMutability": "view",
      "type": "function"
    },
    {
      "inputs": [
        {
          "internalType": "bytes32",
          "name": "settingNameSpace",
          "type": "bytes32"
        },
        {
          "internalType": "string",
          "name": "_settingPath",
          "type": "string"
        }
      ],
      "name": "getSettingAddress",
      "outputs": [
        {
          "internalType": "address",
          "name": "",
          "type": "address"
        }
      ],
      "stateMutability": "view",
      "type": "function"
    },
    {
      "inputs": [
        {
          "internalType": "bytes32",
          "name": "settingNameSpace",
          "type": "bytes32"
        },
        {
          "internalType": "string",
          "name": "_settingPath",
          "type": "string"
        }
      ],
      "name": "getSettingBool",
      "outputs": [
        {
          "internalType": "bool",
          "name": "",
          "type": "bool"
        }
      ],
      "stateMutability": "view",
      "type": "function"
    },
    {
      "inputs": [
        {
          "internalType": "bytes32",
          "name": "settingNameSpace",
          "type": "bytes32"
        },
        {
          "internalType": "string",
          "name": "_settingPath",
          "type": "string"
        }
      ],
      "name": "getSettingUint",
      "outputs": [
        {
          "internalType": "uint256",
          "name": "",
          "type": "uint256"
        }
      ],
      "stateMutability": "view",
      "type": "function"
    },
    {
      "inputs": [
        {
          "internalType": "uint256",
          "name": "price",
          "type": "uint256"
        },
        {
          "internalType": "uint256",
          "name": "timestamp",
          "type": "uint256"
        }
      ],
      "name": "setGGPPrice",
      "outputs": [],
      "stateMutability": "nonpayable",
      "type": "function"
    },
    {
      "inputs": [
        {
          "internalType": "address",
          "name": "addr",
          "type": "address"
        }
      ],
      "name": "setOneInch",
      "outputs": [],
      "stateMutability": "nonpayable",
      "type": "function"
    },
    {
      "inputs": [],
      "name": "version",
      "outputs": [
        {
          "internalType": "uint8",
          "name": "",
          "type": "uint8"
        }
      ],
      "stateMutability": "view",
      "type": "function"
    }
  ],
  "bytecode": "0x608060405234801561001057600080fd5b50604051610a27380380610a2783398101604081905261002f91610063565b6000805460ff196001600160a01b0390931661010002929092166001600160a81b0319909216919091176001179055610093565b60006020828403121561007557600080fd5b81516001600160a01b038116811461008c57600080fd5b9392505050565b610985806100a26000396000f3fe608060405234801561001057600080fd5b50600436106100935760003560e01c806354fd4d501161006657806354fd4d50146101135780635e1ccad714610132578063a41bfc6a1461014f578063bece349b14610162578063f4d70e781461016a57600080fd5b806304433bbc1461009857806306eaa68b146100c85780630a13a871146100db578063232de716146100f0575b600080fd5b6100ab6100a63660046107ad565b61018b565b6040516001600160a01b0390911681526020015b60405180910390f35b6100ab6100d63660046107ea565b610214565b6100ee6100e9366004610831565b610233565b005b6101036100fe3660046107ea565b610330565b60405190151581526020016100bf565b6000546101209060ff1681565b60405160ff90911681526020016100bf565b61013a610363565b604080519283526020830191909152016100bf565b6100ee61015d366004610868565b610434565b61013a610456565b61017d6101783660046107ea565b6104d4565b6040519081526020016100bf565b6000806101bd836040516020016101a291906108c0565b60405160208183030381529060405280519060200120610507565b90506001600160a01b03811661020e5760405162461bcd60e51b815260206004820152601260248201527110dbdb9d1c9858dd081b9bdd08199bdd5b9960721b604482015260640160405180910390fd5b92915050565b600061022c83836040516020016101a29291906108e5565b9392505050565b600061025e7fcda01f6e74f1b3c7d7dd55100aebb58fd9e2408f74508e6ec4c2259194986d98610579565b90508082108061026d57504282115b1561028b5760405163b7d0949760e01b815260040160405180910390fd5b826000036102ac57604051632ec7260b60e21b815260040160405180910390fd5b6102d67fd739db26e78e179a5f07fc9d4a06ecb305d9607dd4b6e08706920698ed90806c846105eb565b6103007fcda01f6e74f1b3c7d7dd55100aebb58fd9e2408f74508e6ec4c2259194986d98836105eb565b60405183907fddde4d882dc95b863fbe6e3dca12cbc84cc8fb59d1323600bf6a18fdfe8d69bd90600090a2505050565b600061022c83836040516020016103489291906108e5565b60405160208183030381529060405280519060200120610659565b6000806000610391604051806040016040528060088152602001670546f6b656e4747560c41b81525061018b565b905060006103b3710dee4c2c6d8ca5ccecee05cdedccad2dcc6d60731b610507565b6040516307de4fd160e41b81526001600160a01b038481166004830152600060248301529192508291821690637de4fd1090604401602060405180830381865afa158015610405573d6000803e3d6000fd5b505050506040513d601f19601f8201168201806040525081019061042991906108f7565b954295509350505050565b610453710dee4c2c6d8ca5ccecee05cdedccad2dcc6d60731b826106cb565b50565b6000806104827fd739db26e78e179a5f07fc9d4a06ecb305d9607dd4b6e08706920698ed90806c610579565b9150816000036104a557604051632ec7260b60e21b815260040160405180910390fd5b6104ce7fcda01f6e74f1b3c7d7dd55100aebb58fd9e2408f74508e6ec4c2259194986d98610579565b90509091565b600061022c83836040516020016104ec9291906108e5565b60405160208183030381529060405280519060200120610579565b600080546040516321f8a72160e01b8152600481018490526101009091046001600160a01b0316906321f8a72190602401602060405180830381865afa158015610555573d6000803e3d6000fd5b505050506040513d601f19601f8201168201806040525081019061020e9190610910565b6000805460405163bd02d0f560e01b8152600481018490526101009091046001600160a01b03169063bd02d0f590602401602060405180830381865afa1580156105c7573d6000803e3d6000fd5b505050506040513d601f19601f8201168201806040525081019061020e91906108f7565b600054604051637152429d60e11b815260048101849052602481018390526101009091046001600160a01b03169063e2a4853a906044015b600060405180830381600087803b15801561063d57600080fd5b505af1158015610651573d6000803e3d6000fd5b505050505050565b60008054604051633d70e7e560e11b8152600481018490526101009091046001600160a01b031690637ae1cfca90602401602060405180830381865afa1580156106a7573d6000803e3d6000fd5b505050506040513d601f19601f8201168201806040525081019061020e919061092d565b60005460405163ca446dd960e01b8152600481018490526001600160a01b0383811660248301526101009092049091169063ca446dd990604401610623565b634e487b7160e01b600052604160045260246000fd5b600082601f83011261073157600080fd5b813567ffffffffffffffff8082111561074c5761074c61070a565b604051601f8301601f19908116603f011681019082821181831017156107745761077461070a565b8160405283815286602085880101111561078d57600080fd5b836020870160208301376000602085830101528094505050505092915050565b6000602082840312156107bf57600080fd5b813567ffffffffffffffff8111156107d657600080fd5b6107e284828501610720565b949350505050565b600080604083850312156107fd57600080fd5b82359150602083013567ffffffffffffffff81111561081b57600080fd5b61082785828601610720565b9150509250929050565b6000806040838503121561084457600080fd5b50508035926020909101359150565b6001600160a01b038116811461045357600080fd5b60006020828403121561087a57600080fd5b813561022c81610853565b6000815160005b818110156108a6576020818501810151868301520161088c565b818111156108b5576000828601525b509290920192915050565b6f636f6e74726163742e6164647265737360801b8152600061022c6010830184610885565b82815260006107e26020830184610885565b60006020828403121561090957600080fd5b5051919050565b60006020828403121561092257600080fd5b815161022c81610853565b60006020828403121561093f57600080fd5b8151801515811461022c57600080fdfea26469706673582212206726c80764396b757b5149f92bd08fc6b0e2c1898f640961212f3c5cfff62f9664736f6c634300080d0033",
  "linkReferences": {},
  "deployedLinkReferences": {}
}