{
  "_format": "hh-sol-artifact-1",
  "contractName": "Oracle",
  "sourceName": "contracts/contract/Oracle.sol",
  "abi": [
    {
      "inputs": [
        {
          "internalType": "contract Storage",
          "name": "storageAddress",
          "type": "address"
        }
      ],
      "stateMutability": "nonpayable",
      "type": "constructor"
    },
    {
      "inputs": [],
      "name": "ContractNotFound",
      "type": "error"
    },
    {
      "inputs": [],
      "name": "ContractPaused",
      "type": "error"
    },
    {
      "inputs": [],
      "name": "InvalidGGPPrice",
      "type": "error"
    },
    {
      "inputs": [],
      "name": "InvalidOrOutdatedContract",
      "type": "error"
    },
    {
      "inputs": [],
      "name": "InvalidTimestamp",
      "type": "error"
    },
    {
      "inputs": [],
      "name": "MustBeGuardian",
      "type": "error"
    },
    {
      "inputs": [],
      "name": "MustBeGuardianOrValidContract",
      "type": "error"
    },
    {
      "inputs": [],
      "name": "MustBeMultisig",
      "type": "error"
    },
    {
      "anonymous": false,
      "inputs": [
        {
          "indexed": true,
          "internalType": "uint256",
          "name": "price",
          "type": "uint256"
        }
      ],
      "name": "GGPPriceUpdated",
      "type": "event"
    },
    {
      "inputs": [
        {
          "internalType": "string",
          "name": "contractName",
          "type": "string"
        }
      ],
      "name": "getContractAddress",
      "outputs": [
        {
          "internalType": "address",
          "name": "",
          "type": "address"
        }
      ],
      "stateMutability": "view",
      "type": "function"
    },
    {
      "inputs": [],
      "name": "getGGPPriceInAVAX",
      "outputs": [
        {
          "internalType": "uint256",
          "name": "price",
          "type": "uint256"
        },
        {
          "internalType": "uint256",
          "name": "timestamp",
          "type": "uint256"
        }
      ],
      "stateMutability": "view",
      "type": "function"
    },
    {
      "inputs": [],
      "name": "getGGPPriceInAVAXFromOneInch",
      "outputs": [
        {
          "internalType": "uint256",
          "name": "price",
          "type": "uint256"
        },
        {
          "internalType": "uint256",
          "name": "timestamp",
          "type": "uint256"
        }
      ],
      "stateMutability": "view",
      "type": "function"
    },
    {
      "inputs": [
        {
          "internalType": "uint256",
          "name": "price",
          "type": "uint256"
        },
        {
          "internalType": "uint256",
          "name": "timestamp",
          "type": "uint256"
        }
      ],
      "name": "setGGPPriceInAVAX",
      "outputs": [],
      "stateMutability": "nonpayable",
      "type": "function"
    },
    {
      "inputs": [
        {
          "internalType": "address",
          "name": "addr",
          "type": "address"
        }
      ],
      "name": "setOneInch",
      "outputs": [],
      "stateMutability": "nonpayable",
      "type": "function"
    },
    {
      "inputs": [],
      "name": "version",
      "outputs": [
        {
          "internalType": "uint8",
          "name": "",
          "type": "uint8"
        }
      ],
      "stateMutability": "view",
      "type": "function"
    }
  ],
  "bytecode": "0x608060405234801561001057600080fd5b50604051610b29380380610b2983398101604081905261002f91610063565b6000805460ff196001600160a01b0390931661010002929092166001600160a81b0319909216919091176001179055610093565b60006020828403121561007557600080fd5b81516001600160a01b038116811461008c57600080fd5b9392505050565b610a87806100a26000396000f3fe608060405234801561001057600080fd5b50600436106100725760003560e01c806378e865fe1161005057806378e865fe146100e357806387da925e146100eb578063a41bfc6a1461010057600080fd5b806304433bbc146100775780634c97e785146100a757806354fd4d50146100c4575b600080fd5b61008a610085366004610860565b610113565b6040516001600160a01b0390911681526020015b60405180910390f35b6100af610174565b6040805192835260208301919091520161009e565b6000546100d19060ff1681565b60405160ff909116815260200161009e565b6100af610265565b6100fe6100f9366004610911565b6102e3565b005b6100fe61010e366004610948565b610572565b6000806101458360405160200161012a919061096c565b60405160208183030381529060405280519060200120610647565b90506001600160a01b03811661016e57604051633b56498960e21b815260040160405180910390fd5b92915050565b60008060006101b76040518060400160405280600881526020017f546f6b656e474750000000000000000000000000000000000000000000000000815250610113565b905060006101e47f3a1620b6638f780c9d5a34495d2cc9fff1828c35be893d0cdd29181d7debae0f610647565b6040516307de4fd160e41b81526001600160a01b038481166004830152600060248301529192508291821690637de4fd1090604401602060405180830381865afa158015610236573d6000803e3d6000fd5b505050506040513d601f19601f8201168201806040525081019061025a91906109c4565b954295509350505050565b6000806102917f1a7a1ff7432da28733fdda3068a4b9ac70b730f67dc525ae34af6c0792792e786106b9565b9150816000036102b457604051632ec7260b60e21b815260040160405180910390fd5b6102dd7f49099c2210f292567f0f5b36af264da7aec7ad4a1bd67c2b8c0724d2a3086bbf6106b9565b90509091565b6040517f4d756c74697369674d616e616765722e696e646578000000000000000000000060208201526bffffffffffffffffffffffff193360601b16603582015260009060019061034c90604901604051602081830303815290604052805190602001206106b9565b61035691906109dd565b6040517f4d756c74697369674d616e616765722e6974656d0000000000000000000000006020820152603481018290527f2e6164647265737300000000000000000000000000000000000000000000000060548201529091506000906103be90605c0161012a565b905060006001600160a01b0382161580159061044d57506040517f4d756c74697369674d616e616765722e6974656d0000000000000000000000006020820152603481018490527f2e656e61626c6564000000000000000000000000000000000000000000000000605482015261044d90605c016040516020818303038152906040528051906020012061072b565b90508015156000036104725760405163834baa5d60e01b815260040160405180910390fd5b600061049d7f49099c2210f292567f0f5b36af264da7aec7ad4a1bd67c2b8c0724d2a3086bbf6106b9565b9050808510806104ac57504285115b156104ca5760405163b7d0949760e01b815260040160405180910390fd5b856000036104eb57604051632ec7260b60e21b815260040160405180910390fd5b6105157f1a7a1ff7432da28733fdda3068a4b9ac70b730f67dc525ae34af6c0792792e788761079d565b61053f7f49099c2210f292567f0f5b36af264da7aec7ad4a1bd67c2b8c0724d2a3086bbf8661079d565b60405186907fddde4d882dc95b863fbe6e3dca12cbc84cc8fb59d1323600bf6a18fdfe8d69bd90600090a2505050505050565b600060019054906101000a90046001600160a01b03166001600160a01b031663a75b87d26040518163ffffffff1660e01b8152600401602060405180830381865afa1580156105c5573d6000803e3d6000fd5b505050506040513d601f19601f820116820180604052508101906105e99190610a12565b6001600160a01b0316336001600160a01b03161461061a576040516301b4790360e31b815260040160405180910390fd5b6106447f3a1620b6638f780c9d5a34495d2cc9fff1828c35be893d0cdd29181d7debae0f8261080b565b50565b600080546040516321f8a72160e01b8152600481018490526101009091046001600160a01b0316906321f8a72190602401602060405180830381865afa158015610695573d6000803e3d6000fd5b505050506040513d601f19601f8201168201806040525081019061016e9190610a12565b6000805460405163bd02d0f560e01b8152600481018490526101009091046001600160a01b03169063bd02d0f590602401602060405180830381865afa158015610707573d6000803e3d6000fd5b505050506040513d601f19601f8201168201806040525081019061016e91906109c4565b60008054604051633d70e7e560e11b8152600481018490526101009091046001600160a01b031690637ae1cfca90602401602060405180830381865afa158015610779573d6000803e3d6000fd5b505050506040513d601f19601f8201168201806040525081019061016e9190610a2f565b600054604051637152429d60e11b815260048101849052602481018390526101009091046001600160a01b03169063e2a4853a906044015b600060405180830381600087803b1580156107ef57600080fd5b505af1158015610803573d6000803e3d6000fd5b505050505050565b60005460405163ca446dd960e01b8152600481018490526001600160a01b0383811660248301526101009092049091169063ca446dd9906044016107d5565b634e487b7160e01b600052604160045260246000fd5b60006020828403121561087257600080fd5b813567ffffffffffffffff8082111561088a57600080fd5b818401915084601f83011261089e57600080fd5b8135818111156108b0576108b061084a565b604051601f8201601f19908116603f011681019083821181831017156108d8576108d861084a565b816040528281528760208487010111156108f157600080fd5b826020860160208301376000928101602001929092525095945050505050565b6000806040838503121561092457600080fd5b50508035926020909101359150565b6001600160a01b038116811461064457600080fd5b60006020828403121561095a57600080fd5b813561096581610933565b9392505050565b7f636f6e74726163742e616464726573730000000000000000000000000000000081526000825160005b818110156109b35760208186018101516010868401015201610996565b506000920160100191825250919050565b6000602082840312156109d657600080fd5b5051919050565b8181036000831280158383131683831282161715610a0b57634e487b7160e01b600052601160045260246000fd5b5092915050565b600060208284031215610a2457600080fd5b815161096581610933565b600060208284031215610a4157600080fd5b8151801515811461096557600080fdfea2646970667358221220b6cc1f3a40ac4863610412e4e5c812bd272adca0b35e1fae4616583b4d70d38264736f6c63430008110033",
  "linkReferences": {},
  "deployedLinkReferences": {}
}