{
  "_format": "hh-sol-artifact-1",
  "contractName": "Oracle",
  "sourceName": "contracts/contract/Oracle.sol",
  "abi": [
    {
      "inputs": [
        {
          "internalType": "contract Storage",
          "name": "storageAddress",
          "type": "address"
        }
      ],
      "stateMutability": "nonpayable",
      "type": "constructor"
    },
    {
      "inputs": [],
      "name": "ContractPaused",
      "type": "error"
    },
    {
      "inputs": [],
      "name": "InvalidGGPPrice",
      "type": "error"
    },
    {
      "inputs": [],
      "name": "InvalidOrDisabledMultisig",
      "type": "error"
    },
    {
      "inputs": [],
      "name": "InvalidOrOutdatedContract",
      "type": "error"
    },
    {
      "inputs": [],
      "name": "InvalidTimestamp",
      "type": "error"
    },
    {
      "inputs": [],
      "name": "MustBeGuardian",
      "type": "error"
    },
    {
      "inputs": [],
      "name": "MustBeMultisig",
      "type": "error"
    },
    {
      "anonymous": false,
      "inputs": [
        {
          "indexed": true,
          "internalType": "uint256",
          "name": "price",
          "type": "uint256"
        }
      ],
      "name": "GGPPriceUpdated",
      "type": "event"
    },
    {
      "inputs": [
        {
          "internalType": "string",
          "name": "_contractName",
          "type": "string"
        }
      ],
      "name": "getContractAddress",
      "outputs": [
        {
          "internalType": "address",
          "name": "",
          "type": "address"
        }
      ],
      "stateMutability": "view",
      "type": "function"
    },
    {
      "inputs": [],
      "name": "getGGPPrice",
      "outputs": [
        {
          "internalType": "uint256",
          "name": "price",
          "type": "uint256"
        },
        {
          "internalType": "uint256",
          "name": "timestamp",
          "type": "uint256"
        }
      ],
      "stateMutability": "view",
      "type": "function"
    },
    {
      "inputs": [],
      "name": "getGGPPriceFromOneInch",
      "outputs": [
        {
          "internalType": "uint256",
          "name": "price",
          "type": "uint256"
        },
        {
          "internalType": "uint256",
          "name": "timestamp",
          "type": "uint256"
        }
      ],
      "stateMutability": "view",
      "type": "function"
    },
    {
      "inputs": [
        {
          "internalType": "uint256",
          "name": "price",
          "type": "uint256"
        },
        {
          "internalType": "uint256",
          "name": "timestamp",
          "type": "uint256"
        }
      ],
      "name": "setGGPPrice",
      "outputs": [],
      "stateMutability": "nonpayable",
      "type": "function"
    },
    {
      "inputs": [
        {
          "internalType": "address",
          "name": "addr",
          "type": "address"
        }
      ],
      "name": "setOneInch",
      "outputs": [],
      "stateMutability": "nonpayable",
      "type": "function"
    },
    {
      "inputs": [],
      "name": "version",
      "outputs": [
        {
          "internalType": "uint8",
          "name": "",
          "type": "uint8"
        }
      ],
      "stateMutability": "view",
      "type": "function"
    }
  ],
  "bytecode": "0x608060405234801561001057600080fd5b50604051610b0a380380610b0a83398101604081905261002f91610063565b6000805460ff196001600160a01b0390931661010002929092166001600160a81b0319909216919091176001179055610093565b60006020828403121561007557600080fd5b81516001600160a01b038116811461008c57600080fd5b9392505050565b610a68806100a26000396000f3fe608060405234801561001057600080fd5b50600436106100625760003560e01c806304433bbc146100675780630a13a8711461009757806354fd4d50146100ac5780635e1ccad7146100cb578063a41bfc6a146100e8578063bece349b146100fb575b600080fd5b61007a61007536600461081f565b610103565b6040516001600160a01b0390911681526020015b60405180910390f35b6100aa6100a53660046108d0565b61018c565b005b6000546100b99060ff1681565b60405160ff909116815260200161008e565b6100d36103d7565b6040805192835260208301919091520161008e565b6100aa6100f6366004610907565b6104b3565b6100d3610588565b6000806101358360405160200161011a919061092b565b60405160208183030381529060405280519060200120610606565b90506001600160a01b0381166101865760405162461bcd60e51b815260206004820152601260248201527110dbdb9d1c9858dd081b9bdd08199bdd5b9960721b604482015260640160405180910390fd5b92915050565b6040517409aead8e8d2e6d2ce9ac2dcc2cecae45cd2dcc8caf605b1b60208201526bffffffffffffffffffffffff193360601b1660358201526000906001906101ed9060490160405160208183030381529060405280519060200120610678565b6101f7919061099b565b604051734d756c74697369674d616e616765722e6974656d60601b602082015260348101829052672e6164647265737360c01b605482015290915060009061024190605c0161011a565b905060006001600160a01b038216158015906102b25750604051734d756c74697369674d616e616765722e6974656d60601b602082015260348101849052670b995b98589b195960c21b60548201526102b290605c01604051602081830303815290604052805190602001206106ea565b90508015156000036102d75760405163834baa5d60e01b815260040160405180910390fd5b60006103027f49099c2210f292567f0f5b36af264da7aec7ad4a1bd67c2b8c0724d2a3086bbf610678565b90508085108061031157504285115b1561032f5760405163b7d0949760e01b815260040160405180910390fd5b8560000361035057604051632ec7260b60e21b815260040160405180910390fd5b61037a7f40ee1f20fd653557b06b764951c38eaff874536123eaf59e53836cdcf89123678761075c565b6103a47f49099c2210f292567f0f5b36af264da7aec7ad4a1bd67c2b8c0724d2a3086bbf8661075c565b60405186907fddde4d882dc95b863fbe6e3dca12cbc84cc8fb59d1323600bf6a18fdfe8d69bd90600090a2505050505050565b6000806000610405604051806040016040528060088152602001670546f6b656e4747560c41b815250610103565b905060006104327f3a1620b6638f780c9d5a34495d2cc9fff1828c35be893d0cdd29181d7debae0f610606565b6040516307de4fd160e41b81526001600160a01b038481166004830152600060248301529192508291821690637de4fd1090604401602060405180830381865afa158015610484573d6000803e3d6000fd5b505050506040513d601f19601f820116820180604052508101906104a891906109da565b954295509350505050565b600060019054906101000a90046001600160a01b03166001600160a01b031663a75b87d26040518163ffffffff1660e01b8152600401602060405180830381865afa158015610506573d6000803e3d6000fd5b505050506040513d601f19601f8201168201806040525081019061052a91906109f3565b6001600160a01b0316336001600160a01b03161461055b576040516301b4790360e31b815260040160405180910390fd5b6105857f3a1620b6638f780c9d5a34495d2cc9fff1828c35be893d0cdd29181d7debae0f826107ca565b50565b6000806105b47f40ee1f20fd653557b06b764951c38eaff874536123eaf59e53836cdcf8912367610678565b9150816000036105d757604051632ec7260b60e21b815260040160405180910390fd5b6106007f49099c2210f292567f0f5b36af264da7aec7ad4a1bd67c2b8c0724d2a3086bbf610678565b90509091565b600080546040516321f8a72160e01b8152600481018490526101009091046001600160a01b0316906321f8a72190602401602060405180830381865afa158015610654573d6000803e3d6000fd5b505050506040513d601f19601f8201168201806040525081019061018691906109f3565b6000805460405163bd02d0f560e01b8152600481018490526101009091046001600160a01b03169063bd02d0f590602401602060405180830381865afa1580156106c6573d6000803e3d6000fd5b505050506040513d601f19601f8201168201806040525081019061018691906109da565b60008054604051633d70e7e560e11b8152600481018490526101009091046001600160a01b031690637ae1cfca90602401602060405180830381865afa158015610738573d6000803e3d6000fd5b505050506040513d601f19601f820116820180604052508101906101869190610a10565b600054604051637152429d60e11b815260048101849052602481018390526101009091046001600160a01b03169063e2a4853a906044015b600060405180830381600087803b1580156107ae57600080fd5b505af11580156107c2573d6000803e3d6000fd5b505050505050565b60005460405163ca446dd960e01b8152600481018490526001600160a01b0383811660248301526101009092049091169063ca446dd990604401610794565b634e487b7160e01b600052604160045260246000fd5b60006020828403121561083157600080fd5b813567ffffffffffffffff8082111561084957600080fd5b818401915084601f83011261085d57600080fd5b81358181111561086f5761086f610809565b604051601f8201601f19908116603f0116810190838211818310171561089757610897610809565b816040528281528760208487010111156108b057600080fd5b826020860160208301376000928101602001929092525095945050505050565b600080604083850312156108e357600080fd5b50508035926020909101359150565b6001600160a01b038116811461058557600080fd5b60006020828403121561091957600080fd5b8135610924816108f2565b9392505050565b6f636f6e74726163742e6164647265737360801b81526000825160005b818110156109655760208186018101516010868401015201610948565b81811115610977576000601083860101525b509190910160100192915050565b634e487b7160e01b600052601160045260246000fd5b60008083128015600160ff1b8501841216156109b9576109b9610985565b6001600160ff1b03840183138116156109d4576109d4610985565b50500390565b6000602082840312156109ec57600080fd5b5051919050565b600060208284031215610a0557600080fd5b8151610924816108f2565b600060208284031215610a2257600080fd5b8151801515811461092457600080fdfea264697066735822122098d417ccb1a146097a8b8691c4e6ab6d81c9f16f00f5688bd9fe7066a05541a864736f6c634300080d0033",
  "linkReferences": {},
  "deployedLinkReferences": {}
}