{
  "_format": "hh-sol-artifact-1",
  "contractName": "TokenggAVAX",
  "sourceName": "contracts/contract/tokens/TokenggAVAX.sol",
  "abi": [
    {
      "inputs": [],
      "stateMutability": "nonpayable",
      "type": "constructor"
    },
    {
      "inputs": [],
      "name": "SyncError",
      "type": "error"
    },
    {
      "inputs": [],
      "name": "TodoBetterMsg",
      "type": "error"
    },
    {
      "inputs": [],
      "name": "WithdrawAmountTooLarge",
      "type": "error"
    },
    {
      "inputs": [],
      "name": "ZeroShares",
      "type": "error"
    },
    {
      "anonymous": false,
      "inputs": [
        {
          "indexed": false,
          "internalType": "address",
          "name": "previousAdmin",
          "type": "address"
        },
        {
          "indexed": false,
          "internalType": "address",
          "name": "newAdmin",
          "type": "address"
        }
      ],
      "name": "AdminChanged",
      "type": "event"
    },
    {
      "anonymous": false,
      "inputs": [
        {
          "indexed": true,
          "internalType": "address",
          "name": "owner",
          "type": "address"
        },
        {
          "indexed": true,
          "internalType": "address",
          "name": "spender",
          "type": "address"
        },
        {
          "indexed": false,
          "internalType": "uint256",
          "name": "amount",
          "type": "uint256"
        }
      ],
      "name": "Approval",
      "type": "event"
    },
    {
      "anonymous": false,
      "inputs": [
        {
          "indexed": true,
          "internalType": "address",
          "name": "beacon",
          "type": "address"
        }
      ],
      "name": "BeaconUpgraded",
      "type": "event"
    },
    {
      "anonymous": false,
      "inputs": [
        {
          "indexed": true,
          "internalType": "address",
          "name": "caller",
          "type": "address"
        },
        {
          "indexed": true,
          "internalType": "address",
          "name": "owner",
          "type": "address"
        },
        {
          "indexed": false,
          "internalType": "uint256",
          "name": "assets",
          "type": "uint256"
        },
        {
          "indexed": false,
          "internalType": "uint256",
          "name": "shares",
          "type": "uint256"
        }
      ],
      "name": "Deposit",
      "type": "event"
    },
    {
      "anonymous": false,
      "inputs": [
        {
          "indexed": true,
          "internalType": "address",
          "name": "caller",
          "type": "address"
        },
        {
          "indexed": false,
          "internalType": "uint256",
          "name": "baseAmt",
          "type": "uint256"
        },
        {
          "indexed": false,
          "internalType": "uint256",
          "name": "rewardAmt",
          "type": "uint256"
        }
      ],
      "name": "DepositFromStaking",
      "type": "event"
    },
    {
      "anonymous": false,
      "inputs": [
        {
          "indexed": false,
          "internalType": "uint8",
          "name": "version",
          "type": "uint8"
        }
      ],
      "name": "Initialized",
      "type": "event"
    },
    {
      "anonymous": false,
      "inputs": [
        {
          "indexed": true,
          "internalType": "uint256",
          "name": "cycleEnd",
          "type": "uint256"
        },
        {
          "indexed": false,
          "internalType": "uint256",
          "name": "rewardAmount",
          "type": "uint256"
        }
      ],
      "name": "NewRewardsCycle",
      "type": "event"
    },
    {
      "anonymous": false,
      "inputs": [
        {
          "indexed": true,
          "internalType": "address",
          "name": "previousOwner",
          "type": "address"
        },
        {
          "indexed": true,
          "internalType": "address",
          "name": "newOwner",
          "type": "address"
        }
      ],
      "name": "OwnershipTransferred",
      "type": "event"
    },
    {
      "anonymous": false,
      "inputs": [
        {
          "indexed": true,
          "internalType": "address",
          "name": "user",
          "type": "address"
        },
        {
          "indexed": false,
          "internalType": "uint256",
          "name": "newTargetFloatPercent",
          "type": "uint256"
        }
      ],
      "name": "TargetFloatPercentUpdated",
      "type": "event"
    },
    {
      "anonymous": false,
      "inputs": [
        {
          "indexed": true,
          "internalType": "address",
          "name": "from",
          "type": "address"
        },
        {
          "indexed": true,
          "internalType": "address",
          "name": "to",
          "type": "address"
        },
        {
          "indexed": false,
          "internalType": "uint256",
          "name": "amount",
          "type": "uint256"
        }
      ],
      "name": "Transfer",
      "type": "event"
    },
    {
      "anonymous": false,
      "inputs": [
        {
          "indexed": true,
          "internalType": "address",
          "name": "implementation",
          "type": "address"
        }
      ],
      "name": "Upgraded",
      "type": "event"
    },
    {
      "anonymous": false,
      "inputs": [
        {
          "indexed": true,
          "internalType": "address",
          "name": "caller",
          "type": "address"
        },
        {
          "indexed": true,
          "internalType": "address",
          "name": "receiver",
          "type": "address"
        },
        {
          "indexed": true,
          "internalType": "address",
          "name": "owner",
          "type": "address"
        },
        {
          "indexed": false,
          "internalType": "uint256",
          "name": "assets",
          "type": "uint256"
        },
        {
          "indexed": false,
          "internalType": "uint256",
          "name": "shares",
          "type": "uint256"
        }
      ],
      "name": "Withdraw",
      "type": "event"
    },
    {
      "anonymous": false,
      "inputs": [
        {
          "indexed": true,
          "internalType": "address",
          "name": "caller",
          "type": "address"
        },
        {
          "indexed": false,
          "internalType": "uint256",
          "name": "assets",
          "type": "uint256"
        }
      ],
      "name": "WithdrawForStaking",
      "type": "event"
    },
    {
      "inputs": [],
      "name": "DOMAIN_SEPARATOR",
      "outputs": [
        {
          "internalType": "bytes32",
          "name": "",
          "type": "bytes32"
        }
      ],
      "stateMutability": "view",
      "type": "function"
    },
    {
      "inputs": [
        {
          "internalType": "string",
          "name": "_name",
          "type": "string"
        },
        {
          "internalType": "string",
          "name": "_symbol",
          "type": "string"
        },
        {
          "internalType": "uint8",
          "name": "_decimals",
          "type": "uint8"
        }
      ],
      "name": "__ERC20Upgradeable_init",
      "outputs": [],
      "stateMutability": "nonpayable",
      "type": "function"
    },
    {
      "inputs": [
        {
          "internalType": "contract ERC20",
          "name": "_asset",
          "type": "address"
        },
        {
          "internalType": "string",
          "name": "_name",
          "type": "string"
        },
        {
          "internalType": "string",
          "name": "_symbol",
          "type": "string"
        }
      ],
      "name": "__ERC4626Upgradeable_init",
      "outputs": [],
      "stateMutability": "nonpayable",
      "type": "function"
    },
    {
      "inputs": [
        {
          "internalType": "address",
          "name": "",
          "type": "address"
        },
        {
          "internalType": "address",
          "name": "",
          "type": "address"
        }
      ],
      "name": "allowance",
      "outputs": [
        {
          "internalType": "uint256",
          "name": "",
          "type": "uint256"
        }
      ],
      "stateMutability": "view",
      "type": "function"
    },
    {
      "inputs": [],
      "name": "amountAvailableForStaking",
      "outputs": [
        {
          "internalType": "uint256",
          "name": "",
          "type": "uint256"
        }
      ],
      "stateMutability": "view",
      "type": "function"
    },
    {
      "inputs": [
        {
          "internalType": "address",
          "name": "spender",
          "type": "address"
        },
        {
          "internalType": "uint256",
          "name": "amount",
          "type": "uint256"
        }
      ],
      "name": "approve",
      "outputs": [
        {
          "internalType": "bool",
          "name": "",
          "type": "bool"
        }
      ],
      "stateMutability": "nonpayable",
      "type": "function"
    },
    {
      "inputs": [],
      "name": "asset",
      "outputs": [
        {
          "internalType": "contract ERC20",
          "name": "",
          "type": "address"
        }
      ],
      "stateMutability": "view",
      "type": "function"
    },
    {
      "inputs": [
        {
          "internalType": "address",
          "name": "",
          "type": "address"
        }
      ],
      "name": "balanceOf",
      "outputs": [
        {
          "internalType": "uint256",
          "name": "",
          "type": "uint256"
        }
      ],
      "stateMutability": "view",
      "type": "function"
    },
    {
      "inputs": [
        {
          "internalType": "uint256",
          "name": "shares",
          "type": "uint256"
        }
      ],
      "name": "convertToAssets",
      "outputs": [
        {
          "internalType": "uint256",
          "name": "",
          "type": "uint256"
        }
      ],
      "stateMutability": "view",
      "type": "function"
    },
    {
      "inputs": [
        {
          "internalType": "uint256",
          "name": "assets",
          "type": "uint256"
        }
      ],
      "name": "convertToShares",
      "outputs": [
        {
          "internalType": "uint256",
          "name": "",
          "type": "uint256"
        }
      ],
      "stateMutability": "view",
      "type": "function"
    },
    {
      "inputs": [],
      "name": "decimals",
      "outputs": [
        {
          "internalType": "uint8",
          "name": "",
          "type": "uint8"
        }
      ],
      "stateMutability": "view",
      "type": "function"
    },
    {
      "inputs": [
        {
          "internalType": "uint256",
          "name": "assets",
          "type": "uint256"
        },
        {
          "internalType": "address",
          "name": "receiver",
          "type": "address"
        }
      ],
      "name": "deposit",
      "outputs": [
        {
          "internalType": "uint256",
          "name": "shares",
          "type": "uint256"
        }
      ],
      "stateMutability": "nonpayable",
      "type": "function"
    },
    {
      "inputs": [],
      "name": "depositAVAX",
      "outputs": [
        {
          "internalType": "uint256",
          "name": "shares",
          "type": "uint256"
        }
      ],
      "stateMutability": "payable",
      "type": "function"
    },
    {
      "inputs": [
        {
          "internalType": "uint256",
          "name": "baseAmt",
          "type": "uint256"
        },
        {
          "internalType": "uint256",
          "name": "rewardAmt",
          "type": "uint256"
        }
      ],
      "name": "depositFromStaking",
      "outputs": [],
      "stateMutability": "payable",
      "type": "function"
    },
    {
      "inputs": [
        {
          "internalType": "string",
          "name": "_contractName",
          "type": "string"
        }
      ],
      "name": "getContractAddress",
      "outputs": [
        {
          "internalType": "address",
          "name": "",
          "type": "address"
        }
      ],
      "stateMutability": "view",
      "type": "function"
    },
    {
      "inputs": [
        {
          "internalType": "bytes32",
          "name": "settingNameSpace",
          "type": "bytes32"
        },
        {
          "internalType": "string",
          "name": "_settingPath",
          "type": "string"
        }
      ],
      "name": "getSettingAddress",
      "outputs": [
        {
          "internalType": "address",
          "name": "",
          "type": "address"
        }
      ],
      "stateMutability": "view",
      "type": "function"
    },
    {
      "inputs": [
        {
          "internalType": "bytes32",
          "name": "settingNameSpace",
          "type": "bytes32"
        },
        {
          "internalType": "string",
          "name": "_settingPath",
          "type": "string"
        }
      ],
      "name": "getSettingBool",
      "outputs": [
        {
          "internalType": "bool",
          "name": "",
          "type": "bool"
        }
      ],
      "stateMutability": "view",
      "type": "function"
    },
    {
      "inputs": [
        {
          "internalType": "bytes32",
          "name": "settingNameSpace",
          "type": "bytes32"
        },
        {
          "internalType": "string",
          "name": "_settingPath",
          "type": "string"
        }
      ],
      "name": "getSettingUint",
      "outputs": [
        {
          "internalType": "uint256",
          "name": "",
          "type": "uint256"
        }
      ],
      "stateMutability": "view",
      "type": "function"
    },
    {
      "inputs": [
        {
          "internalType": "contract Storage",
          "name": "storageAddress",
          "type": "address"
        },
        {
          "internalType": "contract ERC20",
          "name": "asset",
          "type": "address"
        }
      ],
      "name": "initialize",
      "outputs": [],
      "stateMutability": "nonpayable",
      "type": "function"
    },
    {
      "inputs": [],
      "name": "lastRewardAmount",
      "outputs": [
        {
          "internalType": "uint192",
          "name": "",
          "type": "uint192"
        }
      ],
      "stateMutability": "view",
      "type": "function"
    },
    {
      "inputs": [],
      "name": "lastSync",
      "outputs": [
        {
          "internalType": "uint32",
          "name": "",
          "type": "uint32"
        }
      ],
      "stateMutability": "view",
      "type": "function"
    },
    {
      "inputs": [
        {
          "internalType": "address",
          "name": "",
          "type": "address"
        }
      ],
      "name": "maxDeposit",
      "outputs": [
        {
          "internalType": "uint256",
          "name": "",
          "type": "uint256"
        }
      ],
      "stateMutability": "view",
      "type": "function"
    },
    {
      "inputs": [
        {
          "internalType": "address",
          "name": "",
          "type": "address"
        }
      ],
      "name": "maxMint",
      "outputs": [
        {
          "internalType": "uint256",
          "name": "",
          "type": "uint256"
        }
      ],
      "stateMutability": "view",
      "type": "function"
    },
    {
      "inputs": [
        {
          "internalType": "address",
          "name": "owner",
          "type": "address"
        }
      ],
      "name": "maxRedeem",
      "outputs": [
        {
          "internalType": "uint256",
          "name": "",
          "type": "uint256"
        }
      ],
      "stateMutability": "view",
      "type": "function"
    },
    {
      "inputs": [
        {
          "internalType": "address",
          "name": "owner",
          "type": "address"
        }
      ],
      "name": "maxWithdraw",
      "outputs": [
        {
          "internalType": "uint256",
          "name": "",
          "type": "uint256"
        }
      ],
      "stateMutability": "view",
      "type": "function"
    },
    {
      "inputs": [
        {
          "internalType": "uint256",
          "name": "shares",
          "type": "uint256"
        },
        {
          "internalType": "address",
          "name": "receiver",
          "type": "address"
        }
      ],
      "name": "mint",
      "outputs": [
        {
          "internalType": "uint256",
          "name": "assets",
          "type": "uint256"
        }
      ],
      "stateMutability": "nonpayable",
      "type": "function"
    },
    {
      "inputs": [],
      "name": "name",
      "outputs": [
        {
          "internalType": "string",
          "name": "",
          "type": "string"
        }
      ],
      "stateMutability": "view",
      "type": "function"
    },
    {
      "inputs": [
        {
          "internalType": "address",
          "name": "",
          "type": "address"
        }
      ],
      "name": "nonces",
      "outputs": [
        {
          "internalType": "uint256",
          "name": "",
          "type": "uint256"
        }
      ],
      "stateMutability": "view",
      "type": "function"
    },
    {
      "inputs": [],
      "name": "owner",
      "outputs": [
        {
          "internalType": "address",
          "name": "",
          "type": "address"
        }
      ],
      "stateMutability": "view",
      "type": "function"
    },
    {
      "inputs": [
        {
          "internalType": "address",
          "name": "owner",
          "type": "address"
        },
        {
          "internalType": "address",
          "name": "spender",
          "type": "address"
        },
        {
          "internalType": "uint256",
          "name": "value",
          "type": "uint256"
        },
        {
          "internalType": "uint256",
          "name": "deadline",
          "type": "uint256"
        },
        {
          "internalType": "uint8",
          "name": "v",
          "type": "uint8"
        },
        {
          "internalType": "bytes32",
          "name": "r",
          "type": "bytes32"
        },
        {
          "internalType": "bytes32",
          "name": "s",
          "type": "bytes32"
        }
      ],
      "name": "permit",
      "outputs": [],
      "stateMutability": "nonpayable",
      "type": "function"
    },
    {
      "inputs": [
        {
          "internalType": "uint256",
          "name": "assets",
          "type": "uint256"
        }
      ],
      "name": "previewDeposit",
      "outputs": [
        {
          "internalType": "uint256",
          "name": "",
          "type": "uint256"
        }
      ],
      "stateMutability": "view",
      "type": "function"
    },
    {
      "inputs": [
        {
          "internalType": "uint256",
          "name": "shares",
          "type": "uint256"
        }
      ],
      "name": "previewMint",
      "outputs": [
        {
          "internalType": "uint256",
          "name": "",
          "type": "uint256"
        }
      ],
      "stateMutability": "view",
      "type": "function"
    },
    {
      "inputs": [
        {
          "internalType": "uint256",
          "name": "shares",
          "type": "uint256"
        }
      ],
      "name": "previewRedeem",
      "outputs": [
        {
          "internalType": "uint256",
          "name": "",
          "type": "uint256"
        }
      ],
      "stateMutability": "view",
      "type": "function"
    },
    {
      "inputs": [
        {
          "internalType": "uint256",
          "name": "assets",
          "type": "uint256"
        }
      ],
      "name": "previewWithdraw",
      "outputs": [
        {
          "internalType": "uint256",
          "name": "",
          "type": "uint256"
        }
      ],
      "stateMutability": "view",
      "type": "function"
    },
    {
      "inputs": [],
      "name": "proxiableUUID",
      "outputs": [
        {
          "internalType": "bytes32",
          "name": "",
          "type": "bytes32"
        }
      ],
      "stateMutability": "view",
      "type": "function"
    },
    {
      "inputs": [
        {
          "internalType": "uint256",
          "name": "shares",
          "type": "uint256"
        },
        {
          "internalType": "address",
          "name": "receiver",
          "type": "address"
        },
        {
          "internalType": "address",
          "name": "owner",
          "type": "address"
        }
      ],
      "name": "redeem",
      "outputs": [
        {
          "internalType": "uint256",
          "name": "assets",
          "type": "uint256"
        }
      ],
      "stateMutability": "nonpayable",
      "type": "function"
    },
    {
      "inputs": [
        {
          "internalType": "uint256",
          "name": "shares",
          "type": "uint256"
        }
      ],
      "name": "redeemAVAX",
      "outputs": [
        {
          "internalType": "uint256",
          "name": "assets",
          "type": "uint256"
        }
      ],
      "stateMutability": "nonpayable",
      "type": "function"
    },
    {
      "inputs": [],
      "name": "renounceOwnership",
      "outputs": [],
      "stateMutability": "nonpayable",
      "type": "function"
    },
    {
      "inputs": [],
      "name": "rewardsCycleEnd",
      "outputs": [
        {
          "internalType": "uint32",
          "name": "",
          "type": "uint32"
        }
      ],
      "stateMutability": "view",
      "type": "function"
    },
    {
      "inputs": [],
      "name": "rewardsCycleLength",
      "outputs": [
        {
          "internalType": "uint32",
          "name": "",
          "type": "uint32"
        }
      ],
      "stateMutability": "view",
      "type": "function"
    },
    {
      "inputs": [
        {
          "internalType": "uint256",
          "name": "newTargetFloatPercent",
          "type": "uint256"
        }
      ],
      "name": "setTargetFloatPercent",
      "outputs": [],
      "stateMutability": "nonpayable",
      "type": "function"
    },
    {
      "inputs": [],
      "name": "stakingTotalAssets",
      "outputs": [
        {
          "internalType": "uint256",
          "name": "",
          "type": "uint256"
        }
      ],
      "stateMutability": "view",
      "type": "function"
    },
    {
      "inputs": [],
      "name": "symbol",
      "outputs": [
        {
          "internalType": "string",
          "name": "",
          "type": "string"
        }
      ],
      "stateMutability": "view",
      "type": "function"
    },
    {
      "inputs": [],
      "name": "syncRewards",
      "outputs": [],
      "stateMutability": "nonpayable",
      "type": "function"
    },
    {
      "inputs": [],
      "name": "targetFloatPercent",
      "outputs": [
        {
          "internalType": "uint256",
          "name": "",
          "type": "uint256"
        }
      ],
      "stateMutability": "view",
      "type": "function"
    },
    {
      "inputs": [],
      "name": "totalAssets",
      "outputs": [
        {
          "internalType": "uint256",
          "name": "",
          "type": "uint256"
        }
      ],
      "stateMutability": "view",
      "type": "function"
    },
    {
      "inputs": [],
      "name": "totalFloat",
      "outputs": [
        {
          "internalType": "uint256",
          "name": "",
          "type": "uint256"
        }
      ],
      "stateMutability": "view",
      "type": "function"
    },
    {
      "inputs": [],
      "name": "totalReleasedAssets",
      "outputs": [
        {
          "internalType": "uint256",
          "name": "",
          "type": "uint256"
        }
      ],
      "stateMutability": "view",
      "type": "function"
    },
    {
      "inputs": [],
      "name": "totalSupply",
      "outputs": [
        {
          "internalType": "uint256",
          "name": "",
          "type": "uint256"
        }
      ],
      "stateMutability": "view",
      "type": "function"
    },
    {
      "inputs": [
        {
          "internalType": "address",
          "name": "to",
          "type": "address"
        },
        {
          "internalType": "uint256",
          "name": "amount",
          "type": "uint256"
        }
      ],
      "name": "transfer",
      "outputs": [
        {
          "internalType": "bool",
          "name": "",
          "type": "bool"
        }
      ],
      "stateMutability": "nonpayable",
      "type": "function"
    },
    {
      "inputs": [
        {
          "internalType": "address",
          "name": "from",
          "type": "address"
        },
        {
          "internalType": "address",
          "name": "to",
          "type": "address"
        },
        {
          "internalType": "uint256",
          "name": "amount",
          "type": "uint256"
        }
      ],
      "name": "transferFrom",
      "outputs": [
        {
          "internalType": "bool",
          "name": "",
          "type": "bool"
        }
      ],
      "stateMutability": "nonpayable",
      "type": "function"
    },
    {
      "inputs": [
        {
          "internalType": "address",
          "name": "newOwner",
          "type": "address"
        }
      ],
      "name": "transferOwnership",
      "outputs": [],
      "stateMutability": "nonpayable",
      "type": "function"
    },
    {
      "inputs": [
        {
          "internalType": "address",
          "name": "newImplementation",
          "type": "address"
        }
      ],
      "name": "upgradeTo",
      "outputs": [],
      "stateMutability": "nonpayable",
      "type": "function"
    },
    {
      "inputs": [
        {
          "internalType": "address",
          "name": "newImplementation",
          "type": "address"
        },
        {
          "internalType": "bytes",
          "name": "data",
          "type": "bytes"
        }
      ],
      "name": "upgradeToAndCall",
      "outputs": [],
      "stateMutability": "payable",
      "type": "function"
    },
    {
      "inputs": [],
      "name": "version",
      "outputs": [
        {
          "internalType": "uint8",
          "name": "",
          "type": "uint8"
        }
      ],
      "stateMutability": "view",
      "type": "function"
    },
    {
      "inputs": [
        {
          "internalType": "uint256",
          "name": "assets",
          "type": "uint256"
        },
        {
          "internalType": "address",
          "name": "receiver",
          "type": "address"
        },
        {
          "internalType": "address",
          "name": "owner",
          "type": "address"
        }
      ],
      "name": "withdraw",
      "outputs": [
        {
          "internalType": "uint256",
          "name": "shares",
          "type": "uint256"
        }
      ],
      "stateMutability": "nonpayable",
      "type": "function"
    },
    {
      "inputs": [
        {
          "internalType": "uint256",
          "name": "assets",
          "type": "uint256"
        }
      ],
      "name": "withdrawAVAX",
      "outputs": [
        {
          "internalType": "uint256",
          "name": "shares",
          "type": "uint256"
        }
      ],
      "stateMutability": "nonpayable",
      "type": "function"
    },
    {
      "inputs": [
        {
          "internalType": "uint256",
          "name": "assets",
          "type": "uint256"
        }
      ],
      "name": "withdrawForStaking",
      "outputs": [],
      "stateMutability": "nonpayable",
      "type": "function"
    },
    {
      "stateMutability": "payable",
      "type": "receive"
    }
  ],
  "bytecode": "0x60a0604052306080523480156200001557600080fd5b506200002062000026565b620000f5565b600a54600160a81b900460ff1615620000955760405162461bcd60e51b815260206004820152602760248201527f496e697469616c697a61626c653a20636f6e747261637420697320696e697469604482015266616c697a696e6760c81b606482015260840160405180910390fd5b600a5460ff600160a01b90910481161015620000f357600a805460ff60a01b191660ff60a01b17905560405160ff81527f7f26b83ff96e1f2b6a682f133852f6798a09c465da95921460cefb38474024989060200160405180910390a15b565b6080516136456200012d60003960008181610fa301528181610fe301528181611395015281816113d5015261146801526136456000f3fe6080604052600436106103855760003560e01c806372c0c211116101d1578063be13733c11610102578063d905777e116100a0578063efe441d91161006f578063efe441d914610a5e578063f2fde38b14610a7e578063f4d70e7814610a9e578063fb926f5d14610abe57600080fd5b8063d905777e146109ac578063dd62ed3e146109e2578063e7ff69f114610a1a578063ef8b30f714610a3e57600080fd5b8063c6e6f592116100dc578063c6e6f5921461092c578063ce96cb771461094c578063d26eea991461096c578063d505accf1461098c57600080fd5b8063be13733c14610901578063beff2bb514610916578063c63d75b6146105dd57600080fd5b8063a9059cbb1161016f578063b460af9411610149578063b460af9414610869578063ba08765214610889578063bafedcaa146108a9578063bd662f88146108e157600080fd5b8063a9059cbb14610809578063aeb5cd5e14610829578063b3d7f6b91461084957600080fd5b80638da5cb5b116101ab5780638da5cb5b146107ae57806394bf804d146107cc57806395d89b41146107ec578063a0d065c31461080157600080fd5b806372c0c211146107575780637ecebe001461076c578063841219e51461079957600080fd5b80633659cfe6116102b65780634ff8a081116102545780636e553f65116102235780636e553f65146106d05780636fcf5e5f146106f057806370a0823114610715578063715018a61461074257600080fd5b80634ff8a0811461065257806352d1902d1461066857806354fd4d501461067d5780636917516b1461069e57600080fd5b8063402d267d11610290578063402d267d146105dd578063485cc955146105ff5780634cdad5061461061f5780634f1ef2861461063f57600080fd5b80633659cfe61461058a578063383dcbc4146105aa57806338d52e0f146105bd57600080fd5b80631685a08911610323578063232de716116102fd578063232de7161461050957806323b872dd14610529578063313ce567146105495780633644e5151461057557600080fd5b80631685a089146104bd57806318160ddd146104dd5780631c693478146104f357600080fd5b806306fdde031161035f57806306fdde031461042b57806307a2d13a1461044d578063095ea7b31461046d5780630a28a4771461049d57600080fd5b806301e1d114146103ab57806304433bbc146103d357806306eaa68b1461040b57600080fd5b366103a6576009546001600160a01b031633146103a4576103a4612d00565b005b600080fd5b3480156103b757600080fd5b506103c0610ade565b6040519081526020015b60405180910390f35b3480156103df57600080fd5b506103f36103ee366004612dc2565b610b7d565b6040516001600160a01b0390911681526020016103ca565b34801561041757600080fd5b506103f3610426366004612dff565b610c07565b34801561043757600080fd5b50610440610c26565b6040516103ca9190612e72565b34801561045957600080fd5b506103c0610468366004612ea5565b610cb4565b34801561047957600080fd5b5061048d610488366004612ed3565b610cdf565b60405190151581526020016103ca565b3480156104a957600080fd5b506103c06104b8366004612ea5565b610d4b565b3480156104c957600080fd5b506103c06104d8366004612ea5565b610d6b565b3480156104e957600080fd5b506103c060035481565b3480156104ff57600080fd5b506103c060d75481565b34801561051557600080fd5b5061048d610524366004612dff565b610e67565b34801561053557600080fd5b5061048d610544366004612eff565b610e9a565b34801561055557600080fd5b506002546105639060ff1681565b60405160ff90911681526020016103ca565b34801561058157600080fd5b506103c0610f7a565b34801561059657600080fd5b506103a46105a5366004612f40565b610f99565b6103a46105b8366004612f5d565b611078565b3480156105c957600080fd5b506009546103f3906001600160a01b031681565b3480156105e957600080fd5b506103c06105f8366004612f40565b5060001990565b34801561060b57600080fd5b506103a461061a366004612f7f565b611168565b34801561062b57600080fd5b506103c061063a366004612ea5565b611380565b6103a461064d366004612fb8565b61138b565b34801561065e57600080fd5b506103c060d65481565b34801561067457600080fd5b506103c061145b565b34801561068957600080fd5b5060095461056390600160a01b900460ff1681565b3480156106aa57600080fd5b5060d3546106bb9063ffffffff1681565b60405163ffffffff90911681526020016103ca565b3480156106dc57600080fd5b506103c06106eb366004613012565b61150e565b3480156106fc57600080fd5b5060d3546106bb90640100000000900463ffffffff1681565b34801561072157600080fd5b506103c0610730366004612f40565b60046020526000908152604090205481565b34801561074e57600080fd5b506103a46115cb565b34801561076357600080fd5b506103a46115df565b34801561077857600080fd5b506103c0610787366004612f40565b60086020526000908152604090205481565b3480156107a557600080fd5b506103c061179b565b3480156107ba57600080fd5b5060a1546001600160a01b03166103f3565b3480156107d857600080fd5b506103c06107e7366004613012565b6117a5565b3480156107f857600080fd5b50610440611825565b6103c0611832565b34801561081557600080fd5b5061048d610824366004612ed3565b61191f565b34801561083557600080fd5b506103c0610844366004612ea5565b611985565b34801561085557600080fd5b506103c0610864366004612ea5565b611a3e565b34801561087557600080fd5b506103c0610884366004613037565b611a5d565b34801561089557600080fd5b506103c06108a4366004613037565b611b3c565b3480156108b557600080fd5b5060d4546108c9906001600160c01b031681565b6040516001600160c01b0390911681526020016103ca565b3480156108ed57600080fd5b506103a46108fc366004612ea5565b611c59565b34801561090d57600080fd5b506103c0611ce0565b34801561092257600080fd5b506103c060d55481565b34801561093857600080fd5b506103c0610947366004612ea5565b611db2565b34801561095857600080fd5b506103c0610967366004612f40565b611dd2565b34801561097857600080fd5b506103a4610987366004613088565b611df4565b34801561099857600080fd5b506103a46109a73660046130f5565b611e3f565b3480156109b857600080fd5b506103c06109c7366004612f40565b6001600160a01b031660009081526004602052604090205490565b3480156109ee57600080fd5b506103c06109fd366004612f7f565b600560209081526000928352604080842090915290825290205481565b348015610a2657600080fd5b5060d3546106bb90600160401b900463ffffffff1681565b348015610a4a57600080fd5b506103c0610a59366004612ea5565b612083565b348015610a6a57600080fd5b506103a4610a79366004612ea5565b61208e565b348015610a8a57600080fd5b506103a4610a99366004612f40565b6121bd565b348015610aaa57600080fd5b506103c0610ab9366004612dff565b612233565b348015610aca57600080fd5b506103a4610ad9366004613166565b612266565b60d55460d45460d354600092916001600160c01b03169063ffffffff600160401b820481169116428211610b2857610b1f6001600160c01b038416856131f2565b94505050505090565b6000610b3a63ffffffff83168461320a565b610b4a63ffffffff84164261320a565b610b5d906001600160c01b038716613221565b610b679190613256565b9050610b7381866131f2565b9550505050505090565b600080610baf83604051602001610b94919061326a565b604051602081830303815290604052805190602001206122f1565b90506001600160a01b038116610c015760405162461bcd60e51b815260206004820152601260248201527110dbdb9d1c9858dd081b9bdd08199bdd5b9960721b60448201526064015b60405180910390fd5b92915050565b6000610c1f8383604051602001610b949291906132a2565b9392505050565b60008054610c33906132c8565b80601f0160208091040260200160405190810160405280929190818152602001828054610c5f906132c8565b8015610cac5780601f10610c8157610100808354040283529160200191610cac565b820191906000526020600020905b815481529060010190602001808311610c8f57829003601f168201915b505050505081565b6003546000908015610cd857610cd3610ccb610ade565b84908361235f565b610c1f565b5090919050565b3360008181526005602090815260408083206001600160a01b038716808552925280832085905551919290917f8c5be1e5ebec7d5bd14f71427d1e84f3dd0314c0f7b2291e5b200ac8c7c3b92590610d3a9086815260200190565b60405180910390a350600192915050565b6003546000908015610cd857610cd381610d63610ade565b85919061237e565b6000610d7682611380565b905080600003610db65760405162461bcd60e51b815260206004820152600b60248201526a5a45524f5f41535345545360a81b6044820152606401610bf8565b610dc081836123ac565b610dca33836123c7565b6040805182815260208101849052339182918291600080516020613589833981519152910160405180910390a4600954604051632e1a7d4d60e01b8152600481018390526001600160a01b0390911690632e1a7d4d90602401600060405180830381600087803b158015610e3d57600080fd5b505af1158015610e51573d6000803e3d6000fd5b50610e629250339150839050612431565b919050565b6000610c1f8383604051602001610e7f9291906132a2565b60405160208183030381529060405280519060200120612482565b6001600160a01b03831660009081526005602090815260408083203384529091528120546000198114610ef657610ed1838261320a565b6001600160a01b03861660009081526005602090815260408083203384529091529020555b6001600160a01b03851660009081526004602052604081208054859290610f1e90849061320a565b90915550506001600160a01b03808516600081815260046020526040908190208054870190555190918716906000805160206135f083398151915290610f679087815260200190565b60405180910390a3506001949350505050565b60006006544614610f9257610f8d6124f0565b905090565b5060075490565b6001600160a01b037f0000000000000000000000000000000000000000000000000000000000000000163003610fe15760405162461bcd60e51b8152600401610bf890613302565b7f00000000000000000000000000000000000000000000000000000000000000006001600160a01b031661102a6000805160206135a9833981519152546001600160a01b031690565b6001600160a01b0316146110505760405162461bcd60e51b8152600401610bf89061334e565b6110598161258a565b6040805160008082526020820190925261107591839190612592565b50565b3461108382846131f2565b81141580611092575060d65483115b156110b05760405163cd1738ed60e01b815260040160405180910390fd5b8260d660008282546110c2919061320a565b909155505060095460408051630d0e30db60e41b815290516001600160a01b039092169163d0e30db0918491600480830192600092919082900301818588803b15801561110e57600080fd5b505af1158015611122573d6000803e3d6000fd5b505060408051878152602081018790523394507f20277ab4ddef2939170aab69c4e3bd7132b4eff8e276e9cebe259bd0c1618bc0935001905060405180910390a2505050565b600a54600160a81b900460ff16158080156111905750600a546001600160a01b90910460ff16105b806111b15750303b1580156111b15750600a54600160a01b900460ff166001145b6112145760405162461bcd60e51b815260206004820152602e60248201527f496e697469616c697a61626c653a20636f6e747261637420697320616c72656160448201526d191e481a5b9a5d1a585b1a5e995960921b6064820152608401610bf8565b600a805460ff60a01b1916600160a01b179055801561124157600a805460ff60a81b1916600160a81b1790555b61129f826040518060400160405280601d81526020017f476f476f506f6f6c204c6971756964205374616b696e6720546f6b656e000000815250604051806040016040528060068152602001650cece82ac82b60d31b815250612266565b600a80546001600160a01b0319166001600160a01b0385161790556112c26126fd565b6112ca61272e565b60d3805467ffffffff0000000019166612750000000000179081905563ffffffff64010000000090910416806112ff42612757565b611309919061339a565b61131391906133bd565b60d360086101000a81548163ffffffff021916908363ffffffff160217905550801561137b57600a805460ff60a81b19169055604051600181527f7f26b83ff96e1f2b6a682f133852f6798a09c465da95921460cefb38474024989060200160405180910390a15b505050565b6000610c0182610cb4565b6001600160a01b037f00000000000000000000000000000000000000000000000000000000000000001630036113d35760405162461bcd60e51b8152600401610bf890613302565b7f00000000000000000000000000000000000000000000000000000000000000006001600160a01b031661141c6000805160206135a9833981519152546001600160a01b031690565b6001600160a01b0316146114425760405162461bcd60e51b8152600401610bf89061334e565b61144b8261258a565b61145782826001612592565b5050565b6000306001600160a01b037f000000000000000000000000000000000000000000000000000000000000000016146114fb5760405162461bcd60e51b815260206004820152603860248201527f555550535570677261646561626c653a206d757374206e6f742062652063616c60448201527f6c6564207468726f7567682064656c656761746563616c6c00000000000000006064820152608401610bf8565b506000805160206135a983398151915290565b600061151983612083565b9050806000036115595760405162461bcd60e51b815260206004820152600b60248201526a5a45524f5f53484152455360a81b6044820152606401610bf8565b600954611571906001600160a01b031633308661276a565b61157b82826127f4565b60408051848152602081018390526001600160a01b0384169133917fdcbc1c05240f31ff3ad067ef1ee35ce4997762752e3a095284754544f4c709d7910160405180910390a3610c018382612846565b6115d3612866565b6115dd60006128c0565b565b60d4546001600160c01b031660006115f642612757565b60d35490915063ffffffff600160401b9091048116908216101561162d5760405163127d33e760e21b815260040160405180910390fd5b60d55460d6546009546040516370a0823160e01b81523060048201526000916001600160c01b03871691859185916001600160a01b03909116906370a0823190602401602060405180830381865afa15801561168d573d6000803e3d6000fd5b505050506040513d601f19601f820116820180604052508101906116b191906133e9565b6116bb91906131f2565b6116c5919061320a565b6116cf919061320a565b90506116e46001600160c01b038616846131f2565b60d55560d35460009061170590640100000000900463ffffffff1686613402565b905061171082612912565b60d480546001600160c01b0319166001600160c01b039290921691909117905560d3805463ffffffff8781166bffffffff00000000ffffffff1990921691909117600160401b918416918202179091556040518381527f456468d0d5c249d1e9c2eb03d20f2a6627334ac8667838011f1df0013816f1cf9060200160405180910390a2505050505050565b6000610f8d611ce0565b60006117b083611a3e565b6009549091506117cb906001600160a01b031633308461276a565b6117d582846127f4565b60408051828152602081018590526001600160a01b0384169133917fdcbc1c05240f31ff3ad067ef1ee35ce4997762752e3a095284754544f4c709d7910160405180910390a3610c018184612846565b60018054610c33906132c8565b60003461183e81612083565b91508160000361186157604051639811e0c760e01b815260040160405180910390fd5b600960009054906101000a90046001600160a01b03166001600160a01b031663d0e30db0826040518263ffffffff1660e01b81526004016000604051808303818588803b1580156118b157600080fd5b505af11580156118c5573d6000803e3d6000fd5b50505050506118d433836127f4565b6040805182815260208101849052339182917fdcbc1c05240f31ff3ad067ef1ee35ce4997762752e3a095284754544f4c709d7910160405180910390a361191b8183612846565b5090565b3360009081526004602052604081208054839190839061194090849061320a565b90915550506001600160a01b038316600081815260046020526040908190208054850190555133906000805160206135f083398151915290610d3a9086815260200190565b600061199082610d4b565b905061199c82826123ac565b6119a633826123c7565b6040805183815260208101839052339182918291600080516020613589833981519152910160405180910390a4600954604051632e1a7d4d60e01b8152600481018490526001600160a01b0390911690632e1a7d4d90602401600060405180830381600087803b158015611a1957600080fd5b505af1158015611a2d573d6000803e3d6000fd5b50610e629250339150849050612431565b6003546000908015610cd857610cd3611a55610ade565b84908361237e565b6000611a6884610d4b565b9050336001600160a01b03831614611ad8576001600160a01b03821660009081526005602090815260408083203384529091529020546000198114611ad657611ab1828261320a565b6001600160a01b03841660009081526005602090815260408083203384529091529020555b505b611ae284826123ac565b611aec82826123c7565b60408051858152602081018390526001600160a01b0380851692908616913391600080516020613589833981519152910160405180910390a4600954610c1f906001600160a01b03168486612924565b6000336001600160a01b03831614611bac576001600160a01b03821660009081526005602090815260408083203384529091529020546000198114611baa57611b85858261320a565b6001600160a01b03841660009081526005602090815260408083203384529091529020555b505b611bb584611380565b905080600003611bf55760405162461bcd60e51b815260206004820152600b60248201526a5a45524f5f41535345545360a81b6044820152606401610bf8565b611bff81856123ac565b611c0982856123c7565b60408051828152602081018690526001600160a01b0380851692908616913391600080516020613589833981519152910160405180910390a4600954610c1f906001600160a01b03168483612924565b670de0b6b3a7640000811115611ca35760405162461bcd60e51b815260206004820152600f60248201526e0a882a48e8aa8bea89e9ebe90928e9608b1b6044820152606401610bf8565b60d781905560405181815233907f95bc4480b51f4860106d42850bcae222cf3303fb2b7d433e896205e0ebefe3699060200160405180910390a250565b600080611d0f6040518060400160405280600b81526020016a50726f746f636f6c44414f60a81b815250610b7d565b90506000816001600160a01b0316635ad174eb6040518163ffffffff1660e01b8152600401602060405180830381865afa158015611d51573d6000803e3d6000fd5b505050506040513d601f19601f82011682018060405250810190611d7591906133e9565b90506000611d81610ade565b90506000611d988284670de0b6b3a764000061235f565b60d654909150611da8828461320a565b610b1f919061320a565b6003546000908015610cd857610cd381611dca610ade565b85919061235f565b6001600160a01b038116600090815260046020526040812054610c0190610cb4565b8251611e07906000906020860190612c70565b508151611e1b906001906020850190612c70565b506002805460ff191660ff831617905546600655611e376124f0565b600755505050565b42841015611e8f5760405162461bcd60e51b815260206004820152601760248201527f5045524d49545f444541444c494e455f455850495245440000000000000000006044820152606401610bf8565b60006001611e9b610f7a565b6001600160a01b038a811660008181526008602090815260409182902080546001810190915582517f6e71edae12b1b97f4d1f60370fef10105fa2faae0126114a169c64845d6126c98184015280840194909452938d166060840152608083018c905260a083019390935260c08083018b90528151808403909101815260e08301909152805192019190912061190160f01b6101008301526101028201929092526101228101919091526101420160408051601f198184030181528282528051602091820120600084529083018083525260ff871690820152606081018590526080810184905260a0016020604051602081039080840390855afa158015611fa7573d6000803e3d6000fd5b5050604051601f1901519150506001600160a01b03811615801590611fdd5750876001600160a01b0316816001600160a01b0316145b61201a5760405162461bcd60e51b815260206004820152600e60248201526d24a72b20a624a22fa9a4a3a722a960911b6044820152606401610bf8565b6001600160a01b0390811660009081526005602090815260408083208a8516808552908352928190208990555188815291928a16917f8c5be1e5ebec7d5bd14f71427d1e84f3dd0314c0f7b2291e5b200ac8c7c3b925910160405180910390a350505050505050565b6000610c0182611db2565b612096611ce0565b8111156120b6576040516366a7cc9160e11b815260040160405180910390fd5b8060d660008282546120c891906131f2565b909155505060405181815233907fe08c86221c085c9dac4aa33459f344d0a1e7066a05a972ad91a3ac22e9d2c70c9060200160405180910390a2600954604051632e1a7d4d60e01b8152600481018390526001600160a01b0390911690632e1a7d4d90602401600060405180830381600087803b15801561214857600080fd5b505af115801561215c573d6000803e3d6000fd5b505050506000339050806001600160a01b031663ffe09241836040518263ffffffff1660e01b81526004016000604051808303818588803b1580156121a057600080fd5b505af11580156121b4573d6000803e3d6000fd5b50505050505050565b6121c5612866565b6001600160a01b03811661222a5760405162461bcd60e51b815260206004820152602660248201527f4f776e61626c653a206e6577206f776e657220697320746865207a65726f206160448201526564647265737360d01b6064820152608401610bf8565b611075816128c0565b6000610c1f838360405160200161224b9291906132a2565b604051602081830303815290604052805190602001206129a2565b6122cd8282856001600160a01b031663313ce5676040518163ffffffff1660e01b8152600401602060405180830381865afa1580156122a9573d6000803e3d6000fd5b505050506040513d601f19601f82011682018060405250810190610987919061342a565b5050600980546001600160a01b0319166001600160a01b0392909216919091179055565b600a546040516321f8a72160e01b8152600481018390526000916001600160a01b0316906321f8a72190602401602060405180830381865afa15801561233b573d6000803e3d6000fd5b505050506040513d601f19601f82011682018060405250810190610c019190613447565b82820281151584158583048514171661237757600080fd5b0492915050565b82820281151584158583048514171661239657600080fd5b6001826001830304018115150290509392505050565b8160d560008282546123be919061320a565b90915550505050565b6001600160a01b038216600090815260046020526040812080548392906123ef90849061320a565b90915550506003805482900390556040518181526000906001600160a01b038416906000805160206135f0833981519152906020015b60405180910390a35050565b600080600080600085875af190508061137b5760405162461bcd60e51b815260206004820152601360248201527211551217d514905394d1915497d19052531151606a1b6044820152606401610bf8565b600a54604051633d70e7e560e11b8152600481018390526000916001600160a01b031690637ae1cfca90602401602060405180830381865afa1580156124cc573d6000803e3d6000fd5b505050506040513d601f19601f82011682018060405250810190610c019190613464565b60007f8b73c3c69bb8fe3d512ecc4cf759cc79239f7b179b0ffacaa9a75d522b39400f60006040516125229190613486565b6040805191829003822060208301939093528101919091527fc89efdaa54c0f20c7adf612882df0950f5a951637e0307cdcb4c672f298b8bc660608201524660808201523060a082015260c00160405160208183030381529060405280519060200120905090565b611075612866565b7f4910fdfa16fed3260ed0e7147f7cc6da11a60208b5b9406d12a635614ffd91435460ff16156125c55761137b83612a10565b826001600160a01b03166352d1902d6040518163ffffffff1660e01b8152600401602060405180830381865afa92505050801561261f575060408051601f3d908101601f1916820190925261261c918101906133e9565b60015b6126825760405162461bcd60e51b815260206004820152602e60248201527f45524331393637557067726164653a206e657720696d706c656d656e7461746960448201526d6f6e206973206e6f74205555505360901b6064820152608401610bf8565b6000805160206135a983398151915281146126f15760405162461bcd60e51b815260206004820152602960248201527f45524331393637557067726164653a20756e737570706f727465642070726f786044820152681a58589b195555525160ba1b6064820152608401610bf8565b5061137b838383612aac565b600a54600160a81b900460ff166127265760405162461bcd60e51b8152600401610bf890613521565b6115dd612ad1565b600a54600160a81b900460ff166115dd5760405162461bcd60e51b8152600401610bf890613521565b6000640100000000821061191b57600080fd5b60006040516323b872dd60e01b81528460048201528360248201528260448201526020600060648360008a5af13d15601f3d11600160005114161716915050806127ed5760405162461bcd60e51b81526020600482015260146024820152731514905394d1915497d19493d357d1905253115160621b6044820152606401610bf8565b5050505050565b806003600082825461280691906131f2565b90915550506001600160a01b0382166000818152600460209081526040808320805486019055518481526000805160206135f08339815191529101612425565b8160d5600082825461285891906131f2565b909155506114579050828282565b60a1546001600160a01b031633146115dd5760405162461bcd60e51b815260206004820181905260248201527f4f776e61626c653a2063616c6c6572206973206e6f7420746865206f776e65726044820152606401610bf8565b60a180546001600160a01b038381166001600160a01b0319831681179093556040519116919082907f8be0079c531659141344cd1fd0a4f28419497f9722a3daafe3b4186f6b6457e090600090a35050565b6000600160c01b821061191b57600080fd5b600060405163a9059cbb60e01b8152836004820152826024820152602060006044836000895af13d15601f3d116001600051141617169150508061299c5760405162461bcd60e51b815260206004820152600f60248201526e1514905394d1915497d19052531151608a1b6044820152606401610bf8565b50505050565b600a5460405163bd02d0f560e01b8152600481018390526000916001600160a01b03169063bd02d0f590602401602060405180830381865afa1580156129ec573d6000803e3d6000fd5b505050506040513d601f19601f82011682018060405250810190610c0191906133e9565b6001600160a01b0381163b612a7d5760405162461bcd60e51b815260206004820152602d60248201527f455243313936373a206e657720696d706c656d656e746174696f6e206973206e60448201526c1bdd08184818dbdb9d1c9858dd609a1b6064820152608401610bf8565b6000805160206135a983398151915280546001600160a01b0319166001600160a01b0392909216919091179055565b612ab583612b03565b600082511180612ac25750805b1561137b5761299c8383612b43565b600a54600160a81b900460ff16612afa5760405162461bcd60e51b8152600401610bf890613521565b6115dd336128c0565b612b0c81612a10565b6040516001600160a01b038216907fbc7cd75a20ee27fd9adebab32041f755214dbc6bffa90cc0225b39da2e5c2d3b90600090a250565b60606001600160a01b0383163b612bab5760405162461bcd60e51b815260206004820152602660248201527f416464726573733a2064656c65676174652063616c6c20746f206e6f6e2d636f6044820152651b9d1c9858dd60d21b6064820152608401610bf8565b600080846001600160a01b031684604051612bc6919061356c565b600060405180830381855af49150503d8060008114612c01576040519150601f19603f3d011682016040523d82523d6000602084013e612c06565b606091505b5091509150612c2e82826040518060600160405280602781526020016135c960279139612c37565b95945050505050565b60608315612c46575081610c1f565b825115612c565782518084602001fd5b8160405162461bcd60e51b8152600401610bf89190612e72565b828054612c7c906132c8565b90600052602060002090601f016020900481019282612c9e5760008555612ce4565b82601f10612cb757805160ff1916838001178555612ce4565b82800160010185558215612ce4579182015b82811115612ce4578251825591602001919060010190612cc9565b5061191b9291505b8082111561191b5760008155600101612cec565b634e487b7160e01b600052600160045260246000fd5b634e487b7160e01b600052604160045260246000fd5b600067ffffffffffffffff80841115612d4757612d47612d16565b604051601f8501601f19908116603f01168101908282118183101715612d6f57612d6f612d16565b81604052809350858152868686011115612d8857600080fd5b858560208301376000602087830101525050509392505050565b600082601f830112612db357600080fd5b610c1f83833560208501612d2c565b600060208284031215612dd457600080fd5b813567ffffffffffffffff811115612deb57600080fd5b612df784828501612da2565b949350505050565b60008060408385031215612e1257600080fd5b82359150602083013567ffffffffffffffff811115612e3057600080fd5b612e3c85828601612da2565b9150509250929050565b60005b83811015612e61578181015183820152602001612e49565b8381111561299c5750506000910152565b6020815260008251806020840152612e91816040850160208701612e46565b601f01601f19169190910160400192915050565b600060208284031215612eb757600080fd5b5035919050565b6001600160a01b038116811461107557600080fd5b60008060408385031215612ee657600080fd5b8235612ef181612ebe565b946020939093013593505050565b600080600060608486031215612f1457600080fd5b8335612f1f81612ebe565b92506020840135612f2f81612ebe565b929592945050506040919091013590565b600060208284031215612f5257600080fd5b8135610c1f81612ebe565b60008060408385031215612f7057600080fd5b50508035926020909101359150565b60008060408385031215612f9257600080fd5b8235612f9d81612ebe565b91506020830135612fad81612ebe565b809150509250929050565b60008060408385031215612fcb57600080fd5b8235612fd681612ebe565b9150602083013567ffffffffffffffff811115612ff257600080fd5b8301601f8101851361300357600080fd5b612e3c85823560208401612d2c565b6000806040838503121561302557600080fd5b823591506020830135612fad81612ebe565b60008060006060848603121561304c57600080fd5b83359250602084013561305e81612ebe565b9150604084013561306e81612ebe565b809150509250925092565b60ff8116811461107557600080fd5b60008060006060848603121561309d57600080fd5b833567ffffffffffffffff808211156130b557600080fd5b6130c187838801612da2565b945060208601359150808211156130d757600080fd5b506130e486828701612da2565b925050604084013561306e81613079565b600080600080600080600060e0888a03121561311057600080fd5b873561311b81612ebe565b9650602088013561312b81612ebe565b95506040880135945060608801359350608088013561314981613079565b9699959850939692959460a0840135945060c09093013592915050565b60008060006060848603121561317b57600080fd5b833561318681612ebe565b9250602084013567ffffffffffffffff808211156131a357600080fd5b6131af87838801612da2565b935060408601359150808211156131c557600080fd5b506131d286828701612da2565b9150509250925092565b634e487b7160e01b600052601160045260246000fd5b60008219821115613205576132056131dc565b500190565b60008282101561321c5761321c6131dc565b500390565b600081600019048311821515161561323b5761323b6131dc565b500290565b634e487b7160e01b600052601260045260246000fd5b60008261326557613265613240565b500490565b6f636f6e74726163742e6164647265737360801b815260008251613295816010850160208701612e46565b9190910160100192915050565b828152600082516132ba816020850160208701612e46565b919091016020019392505050565b600181811c908216806132dc57607f821691505b6020821081036132fc57634e487b7160e01b600052602260045260246000fd5b50919050565b6020808252602c908201527f46756e6374696f6e206d7573742062652063616c6c6564207468726f7567682060408201526b19195b1959d85d1958d85b1b60a21b606082015260800190565b6020808252602c908201527f46756e6374696f6e206d7573742062652063616c6c6564207468726f7567682060408201526b6163746976652070726f787960a01b606082015260800190565b600063ffffffff808416806133b1576133b1613240565b92169190910492915050565b600063ffffffff808316818516818304811182151516156133e0576133e06131dc565b02949350505050565b6000602082840312156133fb57600080fd5b5051919050565b600063ffffffff808316818516808303821115613421576134216131dc565b01949350505050565b60006020828403121561343c57600080fd5b8151610c1f81613079565b60006020828403121561345957600080fd5b8151610c1f81612ebe565b60006020828403121561347657600080fd5b81518015158114610c1f57600080fd5b600080835481600182811c9150808316806134a257607f831692505b602080841082036134c157634e487b7160e01b86526022600452602486fd5b8180156134d557600181146134e657613513565b60ff19861689528489019650613513565b60008a81526020902060005b8681101561350b5781548b8201529085019083016134f2565b505084890196505b509498975050505050505050565b6020808252602b908201527f496e697469616c697a61626c653a20636f6e7472616374206973206e6f74206960408201526a6e697469616c697a696e6760a81b606082015260800190565b6000825161357e818460208701612e46565b919091019291505056fefbde797d201c681b91056529119e0b02407c7bb96a4a2c75c01fc9667232c8db360894a13ba1a3210667c828492db98dca3e2076cc3735a920a3ca505d382bbc416464726573733a206c6f772d6c6576656c2064656c65676174652063616c6c206661696c6564ddf252ad1be2c89b69c2b068fc378daa952ba7f163c4a11628f55a4df523b3efa2646970667358221220beea443f5170c33d45f17e93fd2cbf6265f31d7012dc17747aef8caff64c622c64736f6c634300080d0033",
  "linkReferences": {},
  "deployedLinkReferences": {}
}