{
  "_format": "hh-sol-artifact-1",
  "contractName": "TokenggAVAX",
  "sourceName": "contracts/contract/tokens/TokenggAVAX.sol",
  "abi": [
    {
      "inputs": [],
      "stateMutability": "nonpayable",
      "type": "constructor"
    },
    {
      "inputs": [],
      "name": "ContractPaused",
      "type": "error"
    },
    {
      "inputs": [],
      "name": "InvalidOrOutdatedContract",
      "type": "error"
    },
    {
      "inputs": [],
      "name": "MustBeGuardian",
      "type": "error"
    },
    {
      "inputs": [],
      "name": "MustBeMultisig",
      "type": "error"
    },
    {
      "inputs": [],
      "name": "SyncError",
      "type": "error"
    },
    {
      "inputs": [],
      "name": "TodoBetterMsg",
      "type": "error"
    },
    {
      "inputs": [],
      "name": "WithdrawAmountTooLarge",
      "type": "error"
    },
    {
      "inputs": [],
      "name": "ZeroShares",
      "type": "error"
    },
    {
      "anonymous": false,
      "inputs": [
        {
          "indexed": false,
          "internalType": "address",
          "name": "previousAdmin",
          "type": "address"
        },
        {
          "indexed": false,
          "internalType": "address",
          "name": "newAdmin",
          "type": "address"
        }
      ],
      "name": "AdminChanged",
      "type": "event"
    },
    {
      "anonymous": false,
      "inputs": [
        {
          "indexed": true,
          "internalType": "address",
          "name": "owner",
          "type": "address"
        },
        {
          "indexed": true,
          "internalType": "address",
          "name": "spender",
          "type": "address"
        },
        {
          "indexed": false,
          "internalType": "uint256",
          "name": "amount",
          "type": "uint256"
        }
      ],
      "name": "Approval",
      "type": "event"
    },
    {
      "anonymous": false,
      "inputs": [
        {
          "indexed": true,
          "internalType": "address",
          "name": "beacon",
          "type": "address"
        }
      ],
      "name": "BeaconUpgraded",
      "type": "event"
    },
    {
      "anonymous": false,
      "inputs": [
        {
          "indexed": true,
          "internalType": "address",
          "name": "caller",
          "type": "address"
        },
        {
          "indexed": true,
          "internalType": "address",
          "name": "owner",
          "type": "address"
        },
        {
          "indexed": false,
          "internalType": "uint256",
          "name": "assets",
          "type": "uint256"
        },
        {
          "indexed": false,
          "internalType": "uint256",
          "name": "shares",
          "type": "uint256"
        }
      ],
      "name": "Deposit",
      "type": "event"
    },
    {
      "anonymous": false,
      "inputs": [
        {
          "indexed": true,
          "internalType": "address",
          "name": "caller",
          "type": "address"
        },
        {
          "indexed": false,
          "internalType": "uint256",
          "name": "baseAmt",
          "type": "uint256"
        },
        {
          "indexed": false,
          "internalType": "uint256",
          "name": "rewardsAmt",
          "type": "uint256"
        }
      ],
      "name": "DepositFromStaking",
      "type": "event"
    },
    {
      "anonymous": false,
      "inputs": [
        {
          "indexed": false,
          "internalType": "uint8",
          "name": "version",
          "type": "uint8"
        }
      ],
      "name": "Initialized",
      "type": "event"
    },
    {
      "anonymous": false,
      "inputs": [
        {
          "indexed": true,
          "internalType": "uint256",
          "name": "cycleEnd",
          "type": "uint256"
        },
        {
          "indexed": false,
          "internalType": "uint256",
          "name": "rewardsAmount",
          "type": "uint256"
        }
      ],
      "name": "NewRewardsCycle",
      "type": "event"
    },
    {
      "anonymous": false,
      "inputs": [
        {
          "indexed": true,
          "internalType": "address",
          "name": "previousOwner",
          "type": "address"
        },
        {
          "indexed": true,
          "internalType": "address",
          "name": "newOwner",
          "type": "address"
        }
      ],
      "name": "OwnershipTransferred",
      "type": "event"
    },
    {
      "anonymous": false,
      "inputs": [
        {
          "indexed": true,
          "internalType": "address",
          "name": "user",
          "type": "address"
        },
        {
          "indexed": false,
          "internalType": "uint256",
          "name": "newTargetFloatPercent",
          "type": "uint256"
        }
      ],
      "name": "TargetFloatPercentUpdated",
      "type": "event"
    },
    {
      "anonymous": false,
      "inputs": [
        {
          "indexed": true,
          "internalType": "address",
          "name": "from",
          "type": "address"
        },
        {
          "indexed": true,
          "internalType": "address",
          "name": "to",
          "type": "address"
        },
        {
          "indexed": false,
          "internalType": "uint256",
          "name": "amount",
          "type": "uint256"
        }
      ],
      "name": "Transfer",
      "type": "event"
    },
    {
      "anonymous": false,
      "inputs": [
        {
          "indexed": true,
          "internalType": "address",
          "name": "implementation",
          "type": "address"
        }
      ],
      "name": "Upgraded",
      "type": "event"
    },
    {
      "anonymous": false,
      "inputs": [
        {
          "indexed": true,
          "internalType": "address",
          "name": "caller",
          "type": "address"
        },
        {
          "indexed": true,
          "internalType": "address",
          "name": "receiver",
          "type": "address"
        },
        {
          "indexed": true,
          "internalType": "address",
          "name": "owner",
          "type": "address"
        },
        {
          "indexed": false,
          "internalType": "uint256",
          "name": "assets",
          "type": "uint256"
        },
        {
          "indexed": false,
          "internalType": "uint256",
          "name": "shares",
          "type": "uint256"
        }
      ],
      "name": "Withdraw",
      "type": "event"
    },
    {
      "anonymous": false,
      "inputs": [
        {
          "indexed": true,
          "internalType": "address",
          "name": "caller",
          "type": "address"
        },
        {
          "indexed": false,
          "internalType": "uint256",
          "name": "assets",
          "type": "uint256"
        }
      ],
      "name": "WithdrawForStaking",
      "type": "event"
    },
    {
      "inputs": [],
      "name": "DOMAIN_SEPARATOR",
      "outputs": [
        {
          "internalType": "bytes32",
          "name": "",
          "type": "bytes32"
        }
      ],
      "stateMutability": "view",
      "type": "function"
    },
    {
      "inputs": [
        {
          "internalType": "string",
          "name": "_name",
          "type": "string"
        },
        {
          "internalType": "string",
          "name": "_symbol",
          "type": "string"
        },
        {
          "internalType": "uint8",
          "name": "_decimals",
          "type": "uint8"
        }
      ],
      "name": "__ERC20Upgradeable_init",
      "outputs": [],
      "stateMutability": "nonpayable",
      "type": "function"
    },
    {
      "inputs": [
        {
          "internalType": "contract ERC20",
          "name": "_asset",
          "type": "address"
        },
        {
          "internalType": "string",
          "name": "_name",
          "type": "string"
        },
        {
          "internalType": "string",
          "name": "_symbol",
          "type": "string"
        }
      ],
      "name": "__ERC4626Upgradeable_init",
      "outputs": [],
      "stateMutability": "nonpayable",
      "type": "function"
    },
    {
      "inputs": [
        {
          "internalType": "address",
          "name": "",
          "type": "address"
        },
        {
          "internalType": "address",
          "name": "",
          "type": "address"
        }
      ],
      "name": "allowance",
      "outputs": [
        {
          "internalType": "uint256",
          "name": "",
          "type": "uint256"
        }
      ],
      "stateMutability": "view",
      "type": "function"
    },
    {
      "inputs": [],
      "name": "amountAvailableForStaking",
      "outputs": [
        {
          "internalType": "uint256",
          "name": "",
          "type": "uint256"
        }
      ],
      "stateMutability": "view",
      "type": "function"
    },
    {
      "inputs": [
        {
          "internalType": "address",
          "name": "spender",
          "type": "address"
        },
        {
          "internalType": "uint256",
          "name": "amount",
          "type": "uint256"
        }
      ],
      "name": "approve",
      "outputs": [
        {
          "internalType": "bool",
          "name": "",
          "type": "bool"
        }
      ],
      "stateMutability": "nonpayable",
      "type": "function"
    },
    {
      "inputs": [],
      "name": "asset",
      "outputs": [
        {
          "internalType": "contract ERC20",
          "name": "",
          "type": "address"
        }
      ],
      "stateMutability": "view",
      "type": "function"
    },
    {
      "inputs": [
        {
          "internalType": "address",
          "name": "",
          "type": "address"
        }
      ],
      "name": "balanceOf",
      "outputs": [
        {
          "internalType": "uint256",
          "name": "",
          "type": "uint256"
        }
      ],
      "stateMutability": "view",
      "type": "function"
    },
    {
      "inputs": [
        {
          "internalType": "uint256",
          "name": "shares",
          "type": "uint256"
        }
      ],
      "name": "convertToAssets",
      "outputs": [
        {
          "internalType": "uint256",
          "name": "",
          "type": "uint256"
        }
      ],
      "stateMutability": "view",
      "type": "function"
    },
    {
      "inputs": [
        {
          "internalType": "uint256",
          "name": "assets",
          "type": "uint256"
        }
      ],
      "name": "convertToShares",
      "outputs": [
        {
          "internalType": "uint256",
          "name": "",
          "type": "uint256"
        }
      ],
      "stateMutability": "view",
      "type": "function"
    },
    {
      "inputs": [],
      "name": "decimals",
      "outputs": [
        {
          "internalType": "uint8",
          "name": "",
          "type": "uint8"
        }
      ],
      "stateMutability": "view",
      "type": "function"
    },
    {
      "inputs": [
        {
          "internalType": "uint256",
          "name": "assets",
          "type": "uint256"
        },
        {
          "internalType": "address",
          "name": "receiver",
          "type": "address"
        }
      ],
      "name": "deposit",
      "outputs": [
        {
          "internalType": "uint256",
          "name": "shares",
          "type": "uint256"
        }
      ],
      "stateMutability": "nonpayable",
      "type": "function"
    },
    {
      "inputs": [],
      "name": "depositAVAX",
      "outputs": [
        {
          "internalType": "uint256",
          "name": "shares",
          "type": "uint256"
        }
      ],
      "stateMutability": "payable",
      "type": "function"
    },
    {
      "inputs": [
        {
          "internalType": "uint256",
          "name": "baseAmt",
          "type": "uint256"
        },
        {
          "internalType": "uint256",
          "name": "rewardsAmt",
          "type": "uint256"
        }
      ],
      "name": "depositFromStaking",
      "outputs": [],
      "stateMutability": "payable",
      "type": "function"
    },
    {
      "inputs": [
        {
          "internalType": "string",
          "name": "_contractName",
          "type": "string"
        }
      ],
      "name": "getContractAddress",
      "outputs": [
        {
          "internalType": "address",
          "name": "",
          "type": "address"
        }
      ],
      "stateMutability": "view",
      "type": "function"
    },
    {
      "inputs": [
        {
          "internalType": "contract Storage",
          "name": "storageAddress",
          "type": "address"
        },
        {
          "internalType": "contract ERC20",
          "name": "asset",
          "type": "address"
        }
      ],
      "name": "initialize",
      "outputs": [],
      "stateMutability": "nonpayable",
      "type": "function"
    },
    {
      "inputs": [],
      "name": "lastRewardsAmount",
      "outputs": [
        {
          "internalType": "uint192",
          "name": "",
          "type": "uint192"
        }
      ],
      "stateMutability": "view",
      "type": "function"
    },
    {
      "inputs": [],
      "name": "lastSync",
      "outputs": [
        {
          "internalType": "uint32",
          "name": "",
          "type": "uint32"
        }
      ],
      "stateMutability": "view",
      "type": "function"
    },
    {
      "inputs": [
        {
          "internalType": "address",
          "name": "",
          "type": "address"
        }
      ],
      "name": "maxDeposit",
      "outputs": [
        {
          "internalType": "uint256",
          "name": "",
          "type": "uint256"
        }
      ],
      "stateMutability": "view",
      "type": "function"
    },
    {
      "inputs": [
        {
          "internalType": "address",
          "name": "",
          "type": "address"
        }
      ],
      "name": "maxMint",
      "outputs": [
        {
          "internalType": "uint256",
          "name": "",
          "type": "uint256"
        }
      ],
      "stateMutability": "view",
      "type": "function"
    },
    {
      "inputs": [
        {
          "internalType": "address",
          "name": "owner",
          "type": "address"
        }
      ],
      "name": "maxRedeem",
      "outputs": [
        {
          "internalType": "uint256",
          "name": "",
          "type": "uint256"
        }
      ],
      "stateMutability": "view",
      "type": "function"
    },
    {
      "inputs": [
        {
          "internalType": "address",
          "name": "owner",
          "type": "address"
        }
      ],
      "name": "maxWithdraw",
      "outputs": [
        {
          "internalType": "uint256",
          "name": "",
          "type": "uint256"
        }
      ],
      "stateMutability": "view",
      "type": "function"
    },
    {
      "inputs": [
        {
          "internalType": "uint256",
          "name": "shares",
          "type": "uint256"
        },
        {
          "internalType": "address",
          "name": "receiver",
          "type": "address"
        }
      ],
      "name": "mint",
      "outputs": [
        {
          "internalType": "uint256",
          "name": "assets",
          "type": "uint256"
        }
      ],
      "stateMutability": "nonpayable",
      "type": "function"
    },
    {
      "inputs": [],
      "name": "name",
      "outputs": [
        {
          "internalType": "string",
          "name": "",
          "type": "string"
        }
      ],
      "stateMutability": "view",
      "type": "function"
    },
    {
      "inputs": [
        {
          "internalType": "address",
          "name": "",
          "type": "address"
        }
      ],
      "name": "nonces",
      "outputs": [
        {
          "internalType": "uint256",
          "name": "",
          "type": "uint256"
        }
      ],
      "stateMutability": "view",
      "type": "function"
    },
    {
      "inputs": [],
      "name": "owner",
      "outputs": [
        {
          "internalType": "address",
          "name": "",
          "type": "address"
        }
      ],
      "stateMutability": "view",
      "type": "function"
    },
    {
      "inputs": [
        {
          "internalType": "address",
          "name": "owner",
          "type": "address"
        },
        {
          "internalType": "address",
          "name": "spender",
          "type": "address"
        },
        {
          "internalType": "uint256",
          "name": "value",
          "type": "uint256"
        },
        {
          "internalType": "uint256",
          "name": "deadline",
          "type": "uint256"
        },
        {
          "internalType": "uint8",
          "name": "v",
          "type": "uint8"
        },
        {
          "internalType": "bytes32",
          "name": "r",
          "type": "bytes32"
        },
        {
          "internalType": "bytes32",
          "name": "s",
          "type": "bytes32"
        }
      ],
      "name": "permit",
      "outputs": [],
      "stateMutability": "nonpayable",
      "type": "function"
    },
    {
      "inputs": [
        {
          "internalType": "uint256",
          "name": "assets",
          "type": "uint256"
        }
      ],
      "name": "previewDeposit",
      "outputs": [
        {
          "internalType": "uint256",
          "name": "",
          "type": "uint256"
        }
      ],
      "stateMutability": "view",
      "type": "function"
    },
    {
      "inputs": [
        {
          "internalType": "uint256",
          "name": "shares",
          "type": "uint256"
        }
      ],
      "name": "previewMint",
      "outputs": [
        {
          "internalType": "uint256",
          "name": "",
          "type": "uint256"
        }
      ],
      "stateMutability": "view",
      "type": "function"
    },
    {
      "inputs": [
        {
          "internalType": "uint256",
          "name": "shares",
          "type": "uint256"
        }
      ],
      "name": "previewRedeem",
      "outputs": [
        {
          "internalType": "uint256",
          "name": "",
          "type": "uint256"
        }
      ],
      "stateMutability": "view",
      "type": "function"
    },
    {
      "inputs": [
        {
          "internalType": "uint256",
          "name": "assets",
          "type": "uint256"
        }
      ],
      "name": "previewWithdraw",
      "outputs": [
        {
          "internalType": "uint256",
          "name": "",
          "type": "uint256"
        }
      ],
      "stateMutability": "view",
      "type": "function"
    },
    {
      "inputs": [],
      "name": "proxiableUUID",
      "outputs": [
        {
          "internalType": "bytes32",
          "name": "",
          "type": "bytes32"
        }
      ],
      "stateMutability": "view",
      "type": "function"
    },
    {
      "inputs": [
        {
          "internalType": "uint256",
          "name": "shares",
          "type": "uint256"
        },
        {
          "internalType": "address",
          "name": "receiver",
          "type": "address"
        },
        {
          "internalType": "address",
          "name": "owner",
          "type": "address"
        }
      ],
      "name": "redeem",
      "outputs": [
        {
          "internalType": "uint256",
          "name": "assets",
          "type": "uint256"
        }
      ],
      "stateMutability": "nonpayable",
      "type": "function"
    },
    {
      "inputs": [
        {
          "internalType": "uint256",
          "name": "shares",
          "type": "uint256"
        }
      ],
      "name": "redeemAVAX",
      "outputs": [
        {
          "internalType": "uint256",
          "name": "assets",
          "type": "uint256"
        }
      ],
      "stateMutability": "nonpayable",
      "type": "function"
    },
    {
      "inputs": [],
      "name": "renounceOwnership",
      "outputs": [],
      "stateMutability": "nonpayable",
      "type": "function"
    },
    {
      "inputs": [],
      "name": "rewardsCycleEnd",
      "outputs": [
        {
          "internalType": "uint32",
          "name": "",
          "type": "uint32"
        }
      ],
      "stateMutability": "view",
      "type": "function"
    },
    {
      "inputs": [],
      "name": "rewardsCycleLength",
      "outputs": [
        {
          "internalType": "uint32",
          "name": "",
          "type": "uint32"
        }
      ],
      "stateMutability": "view",
      "type": "function"
    },
    {
      "inputs": [
        {
          "internalType": "uint256",
          "name": "newTargetFloatPercent",
          "type": "uint256"
        }
      ],
      "name": "setTargetFloatPercent",
      "outputs": [],
      "stateMutability": "nonpayable",
      "type": "function"
    },
    {
      "inputs": [],
      "name": "stakingTotalAssets",
      "outputs": [
        {
          "internalType": "uint256",
          "name": "",
          "type": "uint256"
        }
      ],
      "stateMutability": "view",
      "type": "function"
    },
    {
      "inputs": [],
      "name": "symbol",
      "outputs": [
        {
          "internalType": "string",
          "name": "",
          "type": "string"
        }
      ],
      "stateMutability": "view",
      "type": "function"
    },
    {
      "inputs": [],
      "name": "syncRewards",
      "outputs": [],
      "stateMutability": "nonpayable",
      "type": "function"
    },
    {
      "inputs": [],
      "name": "targetFloatPercent",
      "outputs": [
        {
          "internalType": "uint256",
          "name": "",
          "type": "uint256"
        }
      ],
      "stateMutability": "view",
      "type": "function"
    },
    {
      "inputs": [],
      "name": "totalAssets",
      "outputs": [
        {
          "internalType": "uint256",
          "name": "",
          "type": "uint256"
        }
      ],
      "stateMutability": "view",
      "type": "function"
    },
    {
      "inputs": [],
      "name": "totalFloat",
      "outputs": [
        {
          "internalType": "uint256",
          "name": "",
          "type": "uint256"
        }
      ],
      "stateMutability": "view",
      "type": "function"
    },
    {
      "inputs": [],
      "name": "totalReleasedAssets",
      "outputs": [
        {
          "internalType": "uint256",
          "name": "",
          "type": "uint256"
        }
      ],
      "stateMutability": "view",
      "type": "function"
    },
    {
      "inputs": [],
      "name": "totalSupply",
      "outputs": [
        {
          "internalType": "uint256",
          "name": "",
          "type": "uint256"
        }
      ],
      "stateMutability": "view",
      "type": "function"
    },
    {
      "inputs": [
        {
          "internalType": "address",
          "name": "to",
          "type": "address"
        },
        {
          "internalType": "uint256",
          "name": "amount",
          "type": "uint256"
        }
      ],
      "name": "transfer",
      "outputs": [
        {
          "internalType": "bool",
          "name": "",
          "type": "bool"
        }
      ],
      "stateMutability": "nonpayable",
      "type": "function"
    },
    {
      "inputs": [
        {
          "internalType": "address",
          "name": "from",
          "type": "address"
        },
        {
          "internalType": "address",
          "name": "to",
          "type": "address"
        },
        {
          "internalType": "uint256",
          "name": "amount",
          "type": "uint256"
        }
      ],
      "name": "transferFrom",
      "outputs": [
        {
          "internalType": "bool",
          "name": "",
          "type": "bool"
        }
      ],
      "stateMutability": "nonpayable",
      "type": "function"
    },
    {
      "inputs": [
        {
          "internalType": "address",
          "name": "newOwner",
          "type": "address"
        }
      ],
      "name": "transferOwnership",
      "outputs": [],
      "stateMutability": "nonpayable",
      "type": "function"
    },
    {
      "inputs": [
        {
          "internalType": "address",
          "name": "newImplementation",
          "type": "address"
        }
      ],
      "name": "upgradeTo",
      "outputs": [],
      "stateMutability": "nonpayable",
      "type": "function"
    },
    {
      "inputs": [
        {
          "internalType": "address",
          "name": "newImplementation",
          "type": "address"
        },
        {
          "internalType": "bytes",
          "name": "data",
          "type": "bytes"
        }
      ],
      "name": "upgradeToAndCall",
      "outputs": [],
      "stateMutability": "payable",
      "type": "function"
    },
    {
      "inputs": [],
      "name": "version",
      "outputs": [
        {
          "internalType": "uint8",
          "name": "",
          "type": "uint8"
        }
      ],
      "stateMutability": "view",
      "type": "function"
    },
    {
      "inputs": [
        {
          "internalType": "uint256",
          "name": "assets",
          "type": "uint256"
        },
        {
          "internalType": "address",
          "name": "receiver",
          "type": "address"
        },
        {
          "internalType": "address",
          "name": "owner",
          "type": "address"
        }
      ],
      "name": "withdraw",
      "outputs": [
        {
          "internalType": "uint256",
          "name": "shares",
          "type": "uint256"
        }
      ],
      "stateMutability": "nonpayable",
      "type": "function"
    },
    {
      "inputs": [
        {
          "internalType": "uint256",
          "name": "assets",
          "type": "uint256"
        }
      ],
      "name": "withdrawAVAX",
      "outputs": [
        {
          "internalType": "uint256",
          "name": "shares",
          "type": "uint256"
        }
      ],
      "stateMutability": "nonpayable",
      "type": "function"
    },
    {
      "inputs": [
        {
          "internalType": "uint256",
          "name": "assets",
          "type": "uint256"
        }
      ],
      "name": "withdrawForStaking",
      "outputs": [],
      "stateMutability": "nonpayable",
      "type": "function"
    },
    {
      "stateMutability": "payable",
      "type": "receive"
    }
  ],
  "bytecode": "0x60a0604052306080523480156200001557600080fd5b506200002062000026565b620000f5565b600a54600160a81b900460ff1615620000955760405162461bcd60e51b815260206004820152602760248201527f496e697469616c697a61626c653a20636f6e747261637420697320696e697469604482015266616c697a696e6760c81b606482015260840160405180910390fd5b600a5460ff600160a01b90910481161015620000f357600a805460ff60a01b191660ff60a01b17905560405160ff81527f7f26b83ff96e1f2b6a682f133852f6798a09c465da95921460cefb38474024989060200160405180910390a15b565b6080516133d06200012d60003960008181610ec201528181610f02015281816112b4015281816112f4015261138701526133d06000f3fe6080604052600436106103545760003560e01c806372c0c211116101c6578063be13733c116100f7578063d905777e11610095578063ef8b30f71161006f578063ef8b30f7146109cd578063efe441d9146109ed578063f2fde38b14610a0d578063fb926f5d14610a2d57600080fd5b8063d905777e1461093b578063dd62ed3e14610971578063e7ff69f1146109a957600080fd5b8063c6e6f592116100d1578063c6e6f592146108bb578063ce96cb77146108db578063d26eea99146108fb578063d505accf1461091b57600080fd5b8063be13733c14610890578063beff2bb5146108a5578063c63d75b61461056c57600080fd5b8063a9059cbb11610164578063b460af941161013e578063b460af94146107f8578063ba08765214610818578063ba1239ae14610838578063bd662f881461087057600080fd5b8063a9059cbb14610798578063aeb5cd5e146107b8578063b3d7f6b9146107d857600080fd5b80638da5cb5b116101a05780638da5cb5b1461073d57806394bf804d1461075b57806395d89b411461077b578063a0d065c31461079057600080fd5b806372c0c211146106e65780637ecebe00146106fb578063841219e51461072857600080fd5b8063383dcbc4116102a057806352d1902d1161023e5780636e553f65116102185780636e553f651461065f5780636fcf5e5f1461067f57806370a08231146106a4578063715018a6146106d157600080fd5b806352d1902d146105f757806354fd4d501461060c5780636917516b1461062d57600080fd5b8063485cc9551161027a578063485cc9551461058e5780634cdad506146105ae5780634f1ef286146105ce5780634ff8a081146105e157600080fd5b8063383dcbc41461053957806338d52e0f1461054c578063402d267d1461056c57600080fd5b80631685a0891161030d57806323b872dd116102e757806323b872dd146104b8578063313ce567146104d85780633644e515146105045780633659cfe61461051957600080fd5b80631685a0891461046c57806318160ddd1461048c5780631c693478146104a257600080fd5b806301e1d1141461037a57806304433bbc146103a257806306fdde03146103da57806307a2d13a146103fc578063095ea7b31461041c5780630a28a4771461044c57600080fd5b36610375576009546001600160a01b0316331461037357610373612b10565b005b600080fd5b34801561038657600080fd5b5061038f610a4d565b6040519081526020015b60405180910390f35b3480156103ae57600080fd5b506103c26103bd366004612bd2565b610aec565b6040516001600160a01b039091168152602001610399565b3480156103e657600080fd5b506103ef610b76565b6040516103999190612c3b565b34801561040857600080fd5b5061038f610417366004612c6e565b610c04565b34801561042857600080fd5b5061043c610437366004612c9c565b610c31565b6040519015158152602001610399565b34801561045857600080fd5b5061038f610467366004612c6e565b610c9d565b34801561047857600080fd5b5061038f610487366004612c6e565b610cbd565b34801561049857600080fd5b5061038f60035481565b3480156104ae57600080fd5b5061038f60d75481565b3480156104c457600080fd5b5061043c6104d3366004612cc8565b610db9565b3480156104e457600080fd5b506002546104f29060ff1681565b60405160ff9091168152602001610399565b34801561051057600080fd5b5061038f610e99565b34801561052557600080fd5b50610373610534366004612d09565b610eb8565b610373610547366004612d26565b610f97565b34801561055857600080fd5b506009546103c2906001600160a01b031681565b34801561057857600080fd5b5061038f610587366004612d09565b5060001990565b34801561059a57600080fd5b506103736105a9366004612d48565b611087565b3480156105ba57600080fd5b5061038f6105c9366004612c6e565b61129f565b6103736105dc366004612d81565b6112aa565b3480156105ed57600080fd5b5061038f60d65481565b34801561060357600080fd5b5061038f61137a565b34801561061857600080fd5b506009546104f290600160a01b900460ff1681565b34801561063957600080fd5b5060d35461064a9063ffffffff1681565b60405163ffffffff9091168152602001610399565b34801561066b57600080fd5b5061038f61067a366004612de5565b61142d565b34801561068b57600080fd5b5060d35461064a90640100000000900463ffffffff1681565b3480156106b057600080fd5b5061038f6106bf366004612d09565b60046020526000908152604090205481565b3480156106dd57600080fd5b506103736114ea565b3480156106f257600080fd5b506103736114fe565b34801561070757600080fd5b5061038f610716366004612d09565b60086020526000908152604090205481565b34801561073457600080fd5b5061038f6116ba565b34801561074957600080fd5b5060a1546001600160a01b03166103c2565b34801561076757600080fd5b5061038f610776366004612de5565b6116c4565b34801561078757600080fd5b506103ef611744565b61038f611751565b3480156107a457600080fd5b5061043c6107b3366004612c9c565b61183e565b3480156107c457600080fd5b5061038f6107d3366004612c6e565b6118a4565b3480156107e457600080fd5b5061038f6107f3366004612c6e565b61195d565b34801561080457600080fd5b5061038f610813366004612e0a565b61197c565b34801561082457600080fd5b5061038f610833366004612e0a565b611a5b565b34801561084457600080fd5b5060d454610858906001600160c01b031681565b6040516001600160c01b039091168152602001610399565b34801561087c57600080fd5b5061037361088b366004612c6e565b611b78565b34801561089c57600080fd5b5061038f611bff565b3480156108b157600080fd5b5061038f60d55481565b3480156108c757600080fd5b5061038f6108d6366004612c6e565b611cd1565b3480156108e757600080fd5b5061038f6108f6366004612d09565b611cf1565b34801561090757600080fd5b50610373610916366004612e5b565b611d13565b34801561092757600080fd5b50610373610936366004612ec8565b611d5e565b34801561094757600080fd5b5061038f610956366004612d09565b6001600160a01b031660009081526004602052604090205490565b34801561097d57600080fd5b5061038f61098c366004612d48565b600560209081526000928352604080842090915290825290205481565b3480156109b557600080fd5b5060d35461064a90600160401b900463ffffffff1681565b3480156109d957600080fd5b5061038f6109e8366004612c6e565b611fa2565b3480156109f957600080fd5b50610373610a08366004612c6e565b611fad565b348015610a1957600080fd5b50610373610a28366004612d09565b6120dc565b348015610a3957600080fd5b50610373610a48366004612f39565b612152565b60d55460d45460d354600092916001600160c01b03169063ffffffff600160401b820481169116428211610a9757610a8e6001600160c01b03841685612fc5565b94505050505090565b6000610aa963ffffffff831684612fdd565b610ab963ffffffff841642612fdd565b610acc906001600160c01b038716612ff4565b610ad69190613029565b9050610ae28186612fc5565b9550505050505090565b600080610b1e83604051602001610b03919061303d565b604051602081830303815290604052805190602001206121dd565b90506001600160a01b038116610b705760405162461bcd60e51b815260206004820152601260248201527110dbdb9d1c9858dd081b9bdd08199bdd5b9960721b60448201526064015b60405180910390fd5b92915050565b60008054610b8390613075565b80601f0160208091040260200160405190810160405280929190818152602001828054610baf90613075565b8015610bfc5780601f10610bd157610100808354040283529160200191610bfc565b820191906000526020600020905b815481529060010190602001808311610bdf57829003601f168201915b505050505081565b6003546000908015610c2857610c23610c1b610a4d565b84908361224b565b610c2a565b825b9392505050565b3360008181526005602090815260408083206001600160a01b038716808552925280832085905551919290917f8c5be1e5ebec7d5bd14f71427d1e84f3dd0314c0f7b2291e5b200ac8c7c3b92590610c8c9086815260200190565b60405180910390a350600192915050565b6003546000908015610c2857610c2381610cb5610a4d565b85919061226a565b6000610cc88261129f565b905080600003610d085760405162461bcd60e51b815260206004820152600b60248201526a5a45524f5f41535345545360a81b6044820152606401610b67565b610d128183612298565b610d1c33836122b3565b6040805182815260208101849052339182918291600080516020613314833981519152910160405180910390a4600954604051632e1a7d4d60e01b8152600481018390526001600160a01b0390911690632e1a7d4d90602401600060405180830381600087803b158015610d8f57600080fd5b505af1158015610da3573d6000803e3d6000fd5b50610db4925033915083905061231d565b919050565b6001600160a01b03831660009081526005602090815260408083203384529091528120546000198114610e1557610df08382612fdd565b6001600160a01b03861660009081526005602090815260408083203384529091529020555b6001600160a01b03851660009081526004602052604081208054859290610e3d908490612fdd565b90915550506001600160a01b038085166000818152600460205260409081902080548701905551909187169060008051602061337b83398151915290610e869087815260200190565b60405180910390a3506001949350505050565b60006006544614610eb157610eac61236e565b905090565b5060075490565b6001600160a01b037f0000000000000000000000000000000000000000000000000000000000000000163003610f005760405162461bcd60e51b8152600401610b67906130af565b7f00000000000000000000000000000000000000000000000000000000000000006001600160a01b0316610f49600080516020613334833981519152546001600160a01b031690565b6001600160a01b031614610f6f5760405162461bcd60e51b8152600401610b67906130fb565b610f7881612408565b60408051600080825260208201909252610f9491839190612410565b50565b34610fa28284612fc5565b81141580610fb1575060d65483115b15610fcf5760405163cd1738ed60e01b815260040160405180910390fd5b8260d66000828254610fe19190612fdd565b909155505060095460408051630d0e30db60e41b815290516001600160a01b039092169163d0e30db0918491600480830192600092919082900301818588803b15801561102d57600080fd5b505af1158015611041573d6000803e3d6000fd5b505060408051878152602081018790523394507f20277ab4ddef2939170aab69c4e3bd7132b4eff8e276e9cebe259bd0c1618bc0935001905060405180910390a2505050565b600a54600160a81b900460ff16158080156110af5750600a546001600160a01b90910460ff16105b806110d05750303b1580156110d05750600a54600160a01b900460ff166001145b6111335760405162461bcd60e51b815260206004820152602e60248201527f496e697469616c697a61626c653a20636f6e747261637420697320616c72656160448201526d191e481a5b9a5d1a585b1a5e995960921b6064820152608401610b67565b600a805460ff60a01b1916600160a01b179055801561116057600a805460ff60a81b1916600160a81b1790555b6111be826040518060400160405280601d81526020017f476f476f506f6f6c204c6971756964205374616b696e6720546f6b656e000000815250604051806040016040528060068152602001650cece82ac82b60d31b815250612152565b600a80546001600160a01b0319166001600160a01b0385161790556111e161257b565b6111e96125ac565b60d3805467ffffffff0000000019166612750000000000179081905563ffffffff640100000000909104168061121e426125d5565b6112289190613147565b611232919061316a565b60d360086101000a81548163ffffffff021916908363ffffffff160217905550801561129a57600a805460ff60a81b19169055604051600181527f7f26b83ff96e1f2b6a682f133852f6798a09c465da95921460cefb38474024989060200160405180910390a15b505050565b6000610b7082610c04565b6001600160a01b037f00000000000000000000000000000000000000000000000000000000000000001630036112f25760405162461bcd60e51b8152600401610b67906130af565b7f00000000000000000000000000000000000000000000000000000000000000006001600160a01b031661133b600080516020613334833981519152546001600160a01b031690565b6001600160a01b0316146113615760405162461bcd60e51b8152600401610b67906130fb565b61136a82612408565b61137682826001612410565b5050565b6000306001600160a01b037f0000000000000000000000000000000000000000000000000000000000000000161461141a5760405162461bcd60e51b815260206004820152603860248201527f555550535570677261646561626c653a206d757374206e6f742062652063616c60448201527f6c6564207468726f7567682064656c656761746563616c6c00000000000000006064820152608401610b67565b5060008051602061333483398151915290565b600061143883611fa2565b9050806000036114785760405162461bcd60e51b815260206004820152600b60248201526a5a45524f5f53484152455360a81b6044820152606401610b67565b600954611490906001600160a01b03163330866125e8565b61149a8282612672565b60408051848152602081018390526001600160a01b0384169133917fdcbc1c05240f31ff3ad067ef1ee35ce4997762752e3a095284754544f4c709d7910160405180910390a3610b7083826126c4565b6114f26126e4565b6114fc600061273e565b565b60d4546001600160c01b03166000611515426125d5565b60d35490915063ffffffff600160401b9091048116908216101561154c5760405163127d33e760e21b815260040160405180910390fd5b60d55460d6546009546040516370a0823160e01b81523060048201526000916001600160c01b03871691859185916001600160a01b03909116906370a0823190602401602060405180830381865afa1580156115ac573d6000803e3d6000fd5b505050506040513d601f19601f820116820180604052508101906115d09190613196565b6115da9190612fc5565b6115e49190612fdd565b6115ee9190612fdd565b90506116036001600160c01b03861684612fc5565b60d55560d35460009061162490640100000000900463ffffffff16866131af565b905061162f82612790565b60d480546001600160c01b0319166001600160c01b039290921691909117905560d3805463ffffffff8781166bffffffff00000000ffffffff1990921691909117600160401b918416918202179091556040518381527f456468d0d5c249d1e9c2eb03d20f2a6627334ac8667838011f1df0013816f1cf9060200160405180910390a2505050505050565b6000610eac611bff565b60006116cf8361195d565b6009549091506116ea906001600160a01b03163330846125e8565b6116f48284612672565b60408051828152602081018590526001600160a01b0384169133917fdcbc1c05240f31ff3ad067ef1ee35ce4997762752e3a095284754544f4c709d7910160405180910390a3610b7081846126c4565b60018054610b8390613075565b60003461175d81611fa2565b91508160000361178057604051639811e0c760e01b815260040160405180910390fd5b600960009054906101000a90046001600160a01b03166001600160a01b031663d0e30db0826040518263ffffffff1660e01b81526004016000604051808303818588803b1580156117d057600080fd5b505af11580156117e4573d6000803e3d6000fd5b50505050506117f33383612672565b6040805182815260208101849052339182917fdcbc1c05240f31ff3ad067ef1ee35ce4997762752e3a095284754544f4c709d7910160405180910390a361183a81836126c4565b5090565b3360009081526004602052604081208054839190839061185f908490612fdd565b90915550506001600160a01b0383166000818152600460205260409081902080548501905551339060008051602061337b83398151915290610c8c9086815260200190565b60006118af82610c9d565b90506118bb8282612298565b6118c533826122b3565b6040805183815260208101839052339182918291600080516020613314833981519152910160405180910390a4600954604051632e1a7d4d60e01b8152600481018490526001600160a01b0390911690632e1a7d4d90602401600060405180830381600087803b15801561193857600080fd5b505af115801561194c573d6000803e3d6000fd5b50610db4925033915084905061231d565b6003546000908015610c2857610c23611974610a4d565b84908361226a565b600061198784610c9d565b9050336001600160a01b038316146119f7576001600160a01b038216600090815260056020908152604080832033845290915290205460001981146119f5576119d08282612fdd565b6001600160a01b03841660009081526005602090815260408083203384529091529020555b505b611a018482612298565b611a0b82826122b3565b60408051858152602081018390526001600160a01b0380851692908616913391600080516020613314833981519152910160405180910390a4600954610c2a906001600160a01b031684866127a2565b6000336001600160a01b03831614611acb576001600160a01b03821660009081526005602090815260408083203384529091529020546000198114611ac957611aa48582612fdd565b6001600160a01b03841660009081526005602090815260408083203384529091529020555b505b611ad48461129f565b905080600003611b145760405162461bcd60e51b815260206004820152600b60248201526a5a45524f5f41535345545360a81b6044820152606401610b67565b611b1e8185612298565b611b2882856122b3565b60408051828152602081018690526001600160a01b0380851692908616913391600080516020613314833981519152910160405180910390a4600954610c2a906001600160a01b031684836127a2565b670de0b6b3a7640000811115611bc25760405162461bcd60e51b815260206004820152600f60248201526e0a882a48e8aa8bea89e9ebe90928e9608b1b6044820152606401610b67565b60d781905560405181815233907f95bc4480b51f4860106d42850bcae222cf3303fb2b7d433e896205e0ebefe3699060200160405180910390a250565b600080611c2e6040518060400160405280600b81526020016a50726f746f636f6c44414f60a81b815250610aec565b90506000816001600160a01b0316635ad174eb6040518163ffffffff1660e01b8152600401602060405180830381865afa158015611c70573d6000803e3d6000fd5b505050506040513d601f19601f82011682018060405250810190611c949190613196565b90506000611ca0610a4d565b90506000611cb78284670de0b6b3a764000061224b565b60d654909150611cc78284612fdd565b610a8e9190612fdd565b6003546000908015610c2857610c2381611ce9610a4d565b85919061224b565b6001600160a01b038116600090815260046020526040812054610b7090610c04565b8251611d26906000906020860190612a80565b508151611d3a906001906020850190612a80565b506002805460ff191660ff831617905546600655611d5661236e565b600755505050565b42841015611dae5760405162461bcd60e51b815260206004820152601760248201527f5045524d49545f444541444c494e455f455850495245440000000000000000006044820152606401610b67565b60006001611dba610e99565b6001600160a01b038a811660008181526008602090815260409182902080546001810190915582517f6e71edae12b1b97f4d1f60370fef10105fa2faae0126114a169c64845d6126c98184015280840194909452938d166060840152608083018c905260a083019390935260c08083018b90528151808403909101815260e08301909152805192019190912061190160f01b6101008301526101028201929092526101228101919091526101420160408051601f198184030181528282528051602091820120600084529083018083525260ff871690820152606081018590526080810184905260a0016020604051602081039080840390855afa158015611ec6573d6000803e3d6000fd5b5050604051601f1901519150506001600160a01b03811615801590611efc5750876001600160a01b0316816001600160a01b0316145b611f395760405162461bcd60e51b815260206004820152600e60248201526d24a72b20a624a22fa9a4a3a722a960911b6044820152606401610b67565b6001600160a01b0390811660009081526005602090815260408083208a8516808552908352928190208990555188815291928a16917f8c5be1e5ebec7d5bd14f71427d1e84f3dd0314c0f7b2291e5b200ac8c7c3b925910160405180910390a350505050505050565b6000610b7082611cd1565b611fb5611bff565b811115611fd5576040516366a7cc9160e11b815260040160405180910390fd5b8060d66000828254611fe79190612fc5565b909155505060405181815233907fe08c86221c085c9dac4aa33459f344d0a1e7066a05a972ad91a3ac22e9d2c70c9060200160405180910390a2600954604051632e1a7d4d60e01b8152600481018390526001600160a01b0390911690632e1a7d4d90602401600060405180830381600087803b15801561206757600080fd5b505af115801561207b573d6000803e3d6000fd5b505050506000339050806001600160a01b031663ffe09241836040518263ffffffff1660e01b81526004016000604051808303818588803b1580156120bf57600080fd5b505af11580156120d3573d6000803e3d6000fd5b50505050505050565b6120e46126e4565b6001600160a01b0381166121495760405162461bcd60e51b815260206004820152602660248201527f4f776e61626c653a206e6577206f776e657220697320746865207a65726f206160448201526564647265737360d01b6064820152608401610b67565b610f948161273e565b6121b98282856001600160a01b031663313ce5676040518163ffffffff1660e01b8152600401602060405180830381865afa158015612195573d6000803e3d6000fd5b505050506040513d601f19601f8201168201806040525081019061091691906131d7565b5050600980546001600160a01b0319166001600160a01b0392909216919091179055565b600a546040516321f8a72160e01b8152600481018390526000916001600160a01b0316906321f8a72190602401602060405180830381865afa158015612227573d6000803e3d6000fd5b505050506040513d601f19601f82011682018060405250810190610b7091906131f4565b82820281151584158583048514171661226357600080fd5b0492915050565b82820281151584158583048514171661228257600080fd5b6001826001830304018115150290509392505050565b8160d560008282546122aa9190612fdd565b90915550505050565b6001600160a01b038216600090815260046020526040812080548392906122db908490612fdd565b90915550506003805482900390556040518181526000906001600160a01b0384169060008051602061337b833981519152906020015b60405180910390a35050565b600080600080600085875af190508061129a5760405162461bcd60e51b815260206004820152601360248201527211551217d514905394d1915497d19052531151606a1b6044820152606401610b67565b60007f8b73c3c69bb8fe3d512ecc4cf759cc79239f7b179b0ffacaa9a75d522b39400f60006040516123a09190613211565b6040805191829003822060208301939093528101919091527fc89efdaa54c0f20c7adf612882df0950f5a951637e0307cdcb4c672f298b8bc660608201524660808201523060a082015260c00160405160208183030381529060405280519060200120905090565b610f946126e4565b7f4910fdfa16fed3260ed0e7147f7cc6da11a60208b5b9406d12a635614ffd91435460ff16156124435761129a83612820565b826001600160a01b03166352d1902d6040518163ffffffff1660e01b8152600401602060405180830381865afa92505050801561249d575060408051601f3d908101601f1916820190925261249a91810190613196565b60015b6125005760405162461bcd60e51b815260206004820152602e60248201527f45524331393637557067726164653a206e657720696d706c656d656e7461746960448201526d6f6e206973206e6f74205555505360901b6064820152608401610b67565b600080516020613334833981519152811461256f5760405162461bcd60e51b815260206004820152602960248201527f45524331393637557067726164653a20756e737570706f727465642070726f786044820152681a58589b195555525160ba1b6064820152608401610b67565b5061129a8383836128bc565b600a54600160a81b900460ff166125a45760405162461bcd60e51b8152600401610b67906132ac565b6114fc6128e1565b600a54600160a81b900460ff166114fc5760405162461bcd60e51b8152600401610b67906132ac565b6000640100000000821061183a57600080fd5b60006040516323b872dd60e01b81528460048201528360248201528260448201526020600060648360008a5af13d15601f3d116001600051141617169150508061266b5760405162461bcd60e51b81526020600482015260146024820152731514905394d1915497d19493d357d1905253115160621b6044820152606401610b67565b5050505050565b80600360008282546126849190612fc5565b90915550506001600160a01b03821660008181526004602090815260408083208054860190555184815260008051602061337b8339815191529101612311565b8160d560008282546126d69190612fc5565b909155506113769050828282565b60a1546001600160a01b031633146114fc5760405162461bcd60e51b815260206004820181905260248201527f4f776e61626c653a2063616c6c6572206973206e6f7420746865206f776e65726044820152606401610b67565b60a180546001600160a01b038381166001600160a01b0319831681179093556040519116919082907f8be0079c531659141344cd1fd0a4f28419497f9722a3daafe3b4186f6b6457e090600090a35050565b6000600160c01b821061183a57600080fd5b600060405163a9059cbb60e01b8152836004820152826024820152602060006044836000895af13d15601f3d116001600051141617169150508061281a5760405162461bcd60e51b815260206004820152600f60248201526e1514905394d1915497d19052531151608a1b6044820152606401610b67565b50505050565b6001600160a01b0381163b61288d5760405162461bcd60e51b815260206004820152602d60248201527f455243313936373a206e657720696d706c656d656e746174696f6e206973206e60448201526c1bdd08184818dbdb9d1c9858dd609a1b6064820152608401610b67565b60008051602061333483398151915280546001600160a01b0319166001600160a01b0392909216919091179055565b6128c583612913565b6000825111806128d25750805b1561129a5761281a8383612953565b600a54600160a81b900460ff1661290a5760405162461bcd60e51b8152600401610b67906132ac565b6114fc3361273e565b61291c81612820565b6040516001600160a01b038216907fbc7cd75a20ee27fd9adebab32041f755214dbc6bffa90cc0225b39da2e5c2d3b90600090a250565b60606001600160a01b0383163b6129bb5760405162461bcd60e51b815260206004820152602660248201527f416464726573733a2064656c65676174652063616c6c20746f206e6f6e2d636f6044820152651b9d1c9858dd60d21b6064820152608401610b67565b600080846001600160a01b0316846040516129d691906132f7565b600060405180830381855af49150503d8060008114612a11576040519150601f19603f3d011682016040523d82523d6000602084013e612a16565b606091505b5091509150612a3e828260405180606001604052806027815260200161335460279139612a47565b95945050505050565b60608315612a56575081610c2a565b825115612a665782518084602001fd5b8160405162461bcd60e51b8152600401610b679190612c3b565b828054612a8c90613075565b90600052602060002090601f016020900481019282612aae5760008555612af4565b82601f10612ac757805160ff1916838001178555612af4565b82800160010185558215612af4579182015b82811115612af4578251825591602001919060010190612ad9565b5061183a9291505b8082111561183a5760008155600101612afc565b634e487b7160e01b600052600160045260246000fd5b634e487b7160e01b600052604160045260246000fd5b600067ffffffffffffffff80841115612b5757612b57612b26565b604051601f8501601f19908116603f01168101908282118183101715612b7f57612b7f612b26565b81604052809350858152868686011115612b9857600080fd5b858560208301376000602087830101525050509392505050565b600082601f830112612bc357600080fd5b610c2a83833560208501612b3c565b600060208284031215612be457600080fd5b813567ffffffffffffffff811115612bfb57600080fd5b612c0784828501612bb2565b949350505050565b60005b83811015612c2a578181015183820152602001612c12565b8381111561281a5750506000910152565b6020815260008251806020840152612c5a816040850160208701612c0f565b601f01601f19169190910160400192915050565b600060208284031215612c8057600080fd5b5035919050565b6001600160a01b0381168114610f9457600080fd5b60008060408385031215612caf57600080fd5b8235612cba81612c87565b946020939093013593505050565b600080600060608486031215612cdd57600080fd5b8335612ce881612c87565b92506020840135612cf881612c87565b929592945050506040919091013590565b600060208284031215612d1b57600080fd5b8135610c2a81612c87565b60008060408385031215612d3957600080fd5b50508035926020909101359150565b60008060408385031215612d5b57600080fd5b8235612d6681612c87565b91506020830135612d7681612c87565b809150509250929050565b60008060408385031215612d9457600080fd5b8235612d9f81612c87565b9150602083013567ffffffffffffffff811115612dbb57600080fd5b8301601f81018513612dcc57600080fd5b612ddb85823560208401612b3c565b9150509250929050565b60008060408385031215612df857600080fd5b823591506020830135612d7681612c87565b600080600060608486031215612e1f57600080fd5b833592506020840135612e3181612c87565b91506040840135612e4181612c87565b809150509250925092565b60ff81168114610f9457600080fd5b600080600060608486031215612e7057600080fd5b833567ffffffffffffffff80821115612e8857600080fd5b612e9487838801612bb2565b94506020860135915080821115612eaa57600080fd5b50612eb786828701612bb2565b9250506040840135612e4181612e4c565b600080600080600080600060e0888a031215612ee357600080fd5b8735612eee81612c87565b96506020880135612efe81612c87565b955060408801359450606088013593506080880135612f1c81612e4c565b9699959850939692959460a0840135945060c09093013592915050565b600080600060608486031215612f4e57600080fd5b8335612f5981612c87565b9250602084013567ffffffffffffffff80821115612f7657600080fd5b612f8287838801612bb2565b93506040860135915080821115612f9857600080fd5b50612fa586828701612bb2565b9150509250925092565b634e487b7160e01b600052601160045260246000fd5b60008219821115612fd857612fd8612faf565b500190565b600082821015612fef57612fef612faf565b500390565b600081600019048311821515161561300e5761300e612faf565b500290565b634e487b7160e01b600052601260045260246000fd5b60008261303857613038613013565b500490565b6f636f6e74726163742e6164647265737360801b815260008251613068816010850160208701612c0f565b9190910160100192915050565b600181811c9082168061308957607f821691505b6020821081036130a957634e487b7160e01b600052602260045260246000fd5b50919050565b6020808252602c908201527f46756e6374696f6e206d7573742062652063616c6c6564207468726f7567682060408201526b19195b1959d85d1958d85b1b60a21b606082015260800190565b6020808252602c908201527f46756e6374696f6e206d7573742062652063616c6c6564207468726f7567682060408201526b6163746976652070726f787960a01b606082015260800190565b600063ffffffff8084168061315e5761315e613013565b92169190910492915050565b600063ffffffff8083168185168183048111821515161561318d5761318d612faf565b02949350505050565b6000602082840312156131a857600080fd5b5051919050565b600063ffffffff8083168185168083038211156131ce576131ce612faf565b01949350505050565b6000602082840312156131e957600080fd5b8151610c2a81612e4c565b60006020828403121561320657600080fd5b8151610c2a81612c87565b600080835481600182811c91508083168061322d57607f831692505b6020808410820361324c57634e487b7160e01b86526022600452602486fd5b81801561326057600181146132715761329e565b60ff1986168952848901965061329e565b60008a81526020902060005b868110156132965781548b82015290850190830161327d565b505084890196505b509498975050505050505050565b6020808252602b908201527f496e697469616c697a61626c653a20636f6e7472616374206973206e6f74206960408201526a6e697469616c697a696e6760a81b606082015260800190565b60008251613309818460208701612c0f565b919091019291505056fefbde797d201c681b91056529119e0b02407c7bb96a4a2c75c01fc9667232c8db360894a13ba1a3210667c828492db98dca3e2076cc3735a920a3ca505d382bbc416464726573733a206c6f772d6c6576656c2064656c65676174652063616c6c206661696c6564ddf252ad1be2c89b69c2b068fc378daa952ba7f163c4a11628f55a4df523b3efa2646970667358221220d7d0fa4671890298f2915371b6388f27d202bce155279370bd62a48554c00a8d64736f6c634300080d0033",
  "linkReferences": {},
  "deployedLinkReferences": {}
}