{
  "_format": "hh-sol-artifact-1",
  "contractName": "TokenggAVAX",
  "sourceName": "contracts/contract/tokens/TokenggAVAX.sol",
  "abi": [
    {
      "inputs": [],
      "stateMutability": "nonpayable",
      "type": "constructor"
    },
    {
      "inputs": [],
      "name": "ContractNotFound",
      "type": "error"
    },
    {
      "inputs": [],
      "name": "ContractPaused",
      "type": "error"
    },
    {
      "inputs": [],
      "name": "InvalidOrOutdatedContract",
      "type": "error"
    },
    {
      "inputs": [],
      "name": "InvalidStakingDeposit",
      "type": "error"
    },
    {
      "inputs": [],
      "name": "MustBeGuardian",
      "type": "error"
    },
    {
      "inputs": [],
      "name": "MustBeGuardianOrValidContract",
      "type": "error"
    },
    {
      "inputs": [],
      "name": "MustBeMultisig",
      "type": "error"
    },
    {
      "inputs": [],
      "name": "SyncError",
      "type": "error"
    },
    {
      "inputs": [],
      "name": "WithdrawAmountTooLarge",
      "type": "error"
    },
    {
      "inputs": [],
      "name": "ZeroAssets",
      "type": "error"
    },
    {
      "inputs": [],
      "name": "ZeroShares",
      "type": "error"
    },
    {
      "anonymous": false,
      "inputs": [
        {
          "indexed": false,
          "internalType": "address",
          "name": "previousAdmin",
          "type": "address"
        },
        {
          "indexed": false,
          "internalType": "address",
          "name": "newAdmin",
          "type": "address"
        }
      ],
      "name": "AdminChanged",
      "type": "event"
    },
    {
      "anonymous": false,
      "inputs": [
        {
          "indexed": true,
          "internalType": "address",
          "name": "owner",
          "type": "address"
        },
        {
          "indexed": true,
          "internalType": "address",
          "name": "spender",
          "type": "address"
        },
        {
          "indexed": false,
          "internalType": "uint256",
          "name": "amount",
          "type": "uint256"
        }
      ],
      "name": "Approval",
      "type": "event"
    },
    {
      "anonymous": false,
      "inputs": [
        {
          "indexed": true,
          "internalType": "address",
          "name": "beacon",
          "type": "address"
        }
      ],
      "name": "BeaconUpgraded",
      "type": "event"
    },
    {
      "anonymous": false,
      "inputs": [
        {
          "indexed": true,
          "internalType": "address",
          "name": "caller",
          "type": "address"
        },
        {
          "indexed": true,
          "internalType": "address",
          "name": "owner",
          "type": "address"
        },
        {
          "indexed": false,
          "internalType": "uint256",
          "name": "assets",
          "type": "uint256"
        },
        {
          "indexed": false,
          "internalType": "uint256",
          "name": "shares",
          "type": "uint256"
        }
      ],
      "name": "Deposit",
      "type": "event"
    },
    {
      "anonymous": false,
      "inputs": [
        {
          "indexed": true,
          "internalType": "address",
          "name": "caller",
          "type": "address"
        },
        {
          "indexed": false,
          "internalType": "uint256",
          "name": "baseAmt",
          "type": "uint256"
        },
        {
          "indexed": false,
          "internalType": "uint256",
          "name": "rewardsAmt",
          "type": "uint256"
        }
      ],
      "name": "DepositedFromStaking",
      "type": "event"
    },
    {
      "anonymous": false,
      "inputs": [
        {
          "indexed": false,
          "internalType": "uint8",
          "name": "version",
          "type": "uint8"
        }
      ],
      "name": "Initialized",
      "type": "event"
    },
    {
      "anonymous": false,
      "inputs": [
        {
          "indexed": true,
          "internalType": "uint256",
          "name": "cycleEnd",
          "type": "uint256"
        },
        {
          "indexed": false,
          "internalType": "uint256",
          "name": "rewardsAmount",
          "type": "uint256"
        }
      ],
      "name": "NewRewardsCycle",
      "type": "event"
    },
    {
      "anonymous": false,
      "inputs": [
        {
          "indexed": true,
          "internalType": "address",
          "name": "previousOwner",
          "type": "address"
        },
        {
          "indexed": true,
          "internalType": "address",
          "name": "newOwner",
          "type": "address"
        }
      ],
      "name": "OwnershipTransferred",
      "type": "event"
    },
    {
      "anonymous": false,
      "inputs": [
        {
          "indexed": true,
          "internalType": "address",
          "name": "from",
          "type": "address"
        },
        {
          "indexed": true,
          "internalType": "address",
          "name": "to",
          "type": "address"
        },
        {
          "indexed": false,
          "internalType": "uint256",
          "name": "amount",
          "type": "uint256"
        }
      ],
      "name": "Transfer",
      "type": "event"
    },
    {
      "anonymous": false,
      "inputs": [
        {
          "indexed": true,
          "internalType": "address",
          "name": "implementation",
          "type": "address"
        }
      ],
      "name": "Upgraded",
      "type": "event"
    },
    {
      "anonymous": false,
      "inputs": [
        {
          "indexed": true,
          "internalType": "address",
          "name": "caller",
          "type": "address"
        },
        {
          "indexed": true,
          "internalType": "address",
          "name": "receiver",
          "type": "address"
        },
        {
          "indexed": true,
          "internalType": "address",
          "name": "owner",
          "type": "address"
        },
        {
          "indexed": false,
          "internalType": "uint256",
          "name": "assets",
          "type": "uint256"
        },
        {
          "indexed": false,
          "internalType": "uint256",
          "name": "shares",
          "type": "uint256"
        }
      ],
      "name": "Withdraw",
      "type": "event"
    },
    {
      "anonymous": false,
      "inputs": [
        {
          "indexed": true,
          "internalType": "address",
          "name": "caller",
          "type": "address"
        },
        {
          "indexed": false,
          "internalType": "uint256",
          "name": "assets",
          "type": "uint256"
        }
      ],
      "name": "WithdrawnForStaking",
      "type": "event"
    },
    {
      "inputs": [],
      "name": "DOMAIN_SEPARATOR",
      "outputs": [
        {
          "internalType": "bytes32",
          "name": "",
          "type": "bytes32"
        }
      ],
      "stateMutability": "view",
      "type": "function"
    },
    {
      "inputs": [
        {
          "internalType": "string",
          "name": "_name",
          "type": "string"
        },
        {
          "internalType": "string",
          "name": "_symbol",
          "type": "string"
        },
        {
          "internalType": "uint8",
          "name": "_decimals",
          "type": "uint8"
        }
      ],
      "name": "__ERC20Upgradeable_init",
      "outputs": [],
      "stateMutability": "nonpayable",
      "type": "function"
    },
    {
      "inputs": [
        {
          "internalType": "contract ERC20",
          "name": "_asset",
          "type": "address"
        },
        {
          "internalType": "string",
          "name": "_name",
          "type": "string"
        },
        {
          "internalType": "string",
          "name": "_symbol",
          "type": "string"
        }
      ],
      "name": "__ERC4626Upgradeable_init",
      "outputs": [],
      "stateMutability": "nonpayable",
      "type": "function"
    },
    {
      "inputs": [
        {
          "internalType": "address",
          "name": "",
          "type": "address"
        },
        {
          "internalType": "address",
          "name": "",
          "type": "address"
        }
      ],
      "name": "allowance",
      "outputs": [
        {
          "internalType": "uint256",
          "name": "",
          "type": "uint256"
        }
      ],
      "stateMutability": "view",
      "type": "function"
    },
    {
      "inputs": [],
      "name": "amountAvailableForStaking",
      "outputs": [
        {
          "internalType": "uint256",
          "name": "",
          "type": "uint256"
        }
      ],
      "stateMutability": "view",
      "type": "function"
    },
    {
      "inputs": [
        {
          "internalType": "address",
          "name": "spender",
          "type": "address"
        },
        {
          "internalType": "uint256",
          "name": "amount",
          "type": "uint256"
        }
      ],
      "name": "approve",
      "outputs": [
        {
          "internalType": "bool",
          "name": "",
          "type": "bool"
        }
      ],
      "stateMutability": "nonpayable",
      "type": "function"
    },
    {
      "inputs": [],
      "name": "asset",
      "outputs": [
        {
          "internalType": "contract ERC20",
          "name": "",
          "type": "address"
        }
      ],
      "stateMutability": "view",
      "type": "function"
    },
    {
      "inputs": [
        {
          "internalType": "address",
          "name": "",
          "type": "address"
        }
      ],
      "name": "balanceOf",
      "outputs": [
        {
          "internalType": "uint256",
          "name": "",
          "type": "uint256"
        }
      ],
      "stateMutability": "view",
      "type": "function"
    },
    {
      "inputs": [
        {
          "internalType": "uint256",
          "name": "shares",
          "type": "uint256"
        }
      ],
      "name": "convertToAssets",
      "outputs": [
        {
          "internalType": "uint256",
          "name": "",
          "type": "uint256"
        }
      ],
      "stateMutability": "view",
      "type": "function"
    },
    {
      "inputs": [
        {
          "internalType": "uint256",
          "name": "assets",
          "type": "uint256"
        }
      ],
      "name": "convertToShares",
      "outputs": [
        {
          "internalType": "uint256",
          "name": "",
          "type": "uint256"
        }
      ],
      "stateMutability": "view",
      "type": "function"
    },
    {
      "inputs": [],
      "name": "decimals",
      "outputs": [
        {
          "internalType": "uint8",
          "name": "",
          "type": "uint8"
        }
      ],
      "stateMutability": "view",
      "type": "function"
    },
    {
      "inputs": [
        {
          "internalType": "uint256",
          "name": "assets",
          "type": "uint256"
        },
        {
          "internalType": "address",
          "name": "receiver",
          "type": "address"
        }
      ],
      "name": "deposit",
      "outputs": [
        {
          "internalType": "uint256",
          "name": "shares",
          "type": "uint256"
        }
      ],
      "stateMutability": "nonpayable",
      "type": "function"
    },
    {
      "inputs": [],
      "name": "depositAVAX",
      "outputs": [
        {
          "internalType": "uint256",
          "name": "shares",
          "type": "uint256"
        }
      ],
      "stateMutability": "payable",
      "type": "function"
    },
    {
      "inputs": [
        {
          "internalType": "uint256",
          "name": "baseAmt",
          "type": "uint256"
        },
        {
          "internalType": "uint256",
          "name": "rewardAmt",
          "type": "uint256"
        }
      ],
      "name": "depositFromStaking",
      "outputs": [],
      "stateMutability": "payable",
      "type": "function"
    },
    {
      "inputs": [
        {
          "internalType": "string",
          "name": "contractName",
          "type": "string"
        }
      ],
      "name": "getContractAddress",
      "outputs": [
        {
          "internalType": "address",
          "name": "",
          "type": "address"
        }
      ],
      "stateMutability": "view",
      "type": "function"
    },
    {
      "inputs": [
        {
          "internalType": "contract Storage",
          "name": "storageAddress",
          "type": "address"
        },
        {
          "internalType": "contract ERC20",
          "name": "asset",
          "type": "address"
        }
      ],
      "name": "initialize",
      "outputs": [],
      "stateMutability": "nonpayable",
      "type": "function"
    },
    {
      "inputs": [],
      "name": "lastRewardsAmt",
      "outputs": [
        {
          "internalType": "uint192",
          "name": "",
          "type": "uint192"
        }
      ],
      "stateMutability": "view",
      "type": "function"
    },
    {
      "inputs": [],
      "name": "lastSync",
      "outputs": [
        {
          "internalType": "uint32",
          "name": "",
          "type": "uint32"
        }
      ],
      "stateMutability": "view",
      "type": "function"
    },
    {
      "inputs": [
        {
          "internalType": "address",
          "name": "",
          "type": "address"
        }
      ],
      "name": "maxDeposit",
      "outputs": [
        {
          "internalType": "uint256",
          "name": "",
          "type": "uint256"
        }
      ],
      "stateMutability": "view",
      "type": "function"
    },
    {
      "inputs": [
        {
          "internalType": "address",
          "name": "",
          "type": "address"
        }
      ],
      "name": "maxMint",
      "outputs": [
        {
          "internalType": "uint256",
          "name": "",
          "type": "uint256"
        }
      ],
      "stateMutability": "view",
      "type": "function"
    },
    {
      "inputs": [
        {
          "internalType": "address",
          "name": "owner",
          "type": "address"
        }
      ],
      "name": "maxRedeem",
      "outputs": [
        {
          "internalType": "uint256",
          "name": "",
          "type": "uint256"
        }
      ],
      "stateMutability": "view",
      "type": "function"
    },
    {
      "inputs": [
        {
          "internalType": "address",
          "name": "owner",
          "type": "address"
        }
      ],
      "name": "maxWithdraw",
      "outputs": [
        {
          "internalType": "uint256",
          "name": "",
          "type": "uint256"
        }
      ],
      "stateMutability": "view",
      "type": "function"
    },
    {
      "inputs": [
        {
          "internalType": "uint256",
          "name": "shares",
          "type": "uint256"
        },
        {
          "internalType": "address",
          "name": "receiver",
          "type": "address"
        }
      ],
      "name": "mint",
      "outputs": [
        {
          "internalType": "uint256",
          "name": "assets",
          "type": "uint256"
        }
      ],
      "stateMutability": "nonpayable",
      "type": "function"
    },
    {
      "inputs": [],
      "name": "name",
      "outputs": [
        {
          "internalType": "string",
          "name": "",
          "type": "string"
        }
      ],
      "stateMutability": "view",
      "type": "function"
    },
    {
      "inputs": [
        {
          "internalType": "address",
          "name": "",
          "type": "address"
        }
      ],
      "name": "nonces",
      "outputs": [
        {
          "internalType": "uint256",
          "name": "",
          "type": "uint256"
        }
      ],
      "stateMutability": "view",
      "type": "function"
    },
    {
      "inputs": [],
      "name": "owner",
      "outputs": [
        {
          "internalType": "address",
          "name": "",
          "type": "address"
        }
      ],
      "stateMutability": "view",
      "type": "function"
    },
    {
      "inputs": [
        {
          "internalType": "address",
          "name": "owner",
          "type": "address"
        },
        {
          "internalType": "address",
          "name": "spender",
          "type": "address"
        },
        {
          "internalType": "uint256",
          "name": "value",
          "type": "uint256"
        },
        {
          "internalType": "uint256",
          "name": "deadline",
          "type": "uint256"
        },
        {
          "internalType": "uint8",
          "name": "v",
          "type": "uint8"
        },
        {
          "internalType": "bytes32",
          "name": "r",
          "type": "bytes32"
        },
        {
          "internalType": "bytes32",
          "name": "s",
          "type": "bytes32"
        }
      ],
      "name": "permit",
      "outputs": [],
      "stateMutability": "nonpayable",
      "type": "function"
    },
    {
      "inputs": [
        {
          "internalType": "uint256",
          "name": "assets",
          "type": "uint256"
        }
      ],
      "name": "previewDeposit",
      "outputs": [
        {
          "internalType": "uint256",
          "name": "",
          "type": "uint256"
        }
      ],
      "stateMutability": "view",
      "type": "function"
    },
    {
      "inputs": [
        {
          "internalType": "uint256",
          "name": "shares",
          "type": "uint256"
        }
      ],
      "name": "previewMint",
      "outputs": [
        {
          "internalType": "uint256",
          "name": "",
          "type": "uint256"
        }
      ],
      "stateMutability": "view",
      "type": "function"
    },
    {
      "inputs": [
        {
          "internalType": "uint256",
          "name": "shares",
          "type": "uint256"
        }
      ],
      "name": "previewRedeem",
      "outputs": [
        {
          "internalType": "uint256",
          "name": "",
          "type": "uint256"
        }
      ],
      "stateMutability": "view",
      "type": "function"
    },
    {
      "inputs": [
        {
          "internalType": "uint256",
          "name": "assets",
          "type": "uint256"
        }
      ],
      "name": "previewWithdraw",
      "outputs": [
        {
          "internalType": "uint256",
          "name": "",
          "type": "uint256"
        }
      ],
      "stateMutability": "view",
      "type": "function"
    },
    {
      "inputs": [],
      "name": "proxiableUUID",
      "outputs": [
        {
          "internalType": "bytes32",
          "name": "",
          "type": "bytes32"
        }
      ],
      "stateMutability": "view",
      "type": "function"
    },
    {
      "inputs": [
        {
          "internalType": "uint256",
          "name": "shares",
          "type": "uint256"
        },
        {
          "internalType": "address",
          "name": "receiver",
          "type": "address"
        },
        {
          "internalType": "address",
          "name": "owner",
          "type": "address"
        }
      ],
      "name": "redeem",
      "outputs": [
        {
          "internalType": "uint256",
          "name": "assets",
          "type": "uint256"
        }
      ],
      "stateMutability": "nonpayable",
      "type": "function"
    },
    {
      "inputs": [
        {
          "internalType": "uint256",
          "name": "shares",
          "type": "uint256"
        }
      ],
      "name": "redeemAVAX",
      "outputs": [
        {
          "internalType": "uint256",
          "name": "assets",
          "type": "uint256"
        }
      ],
      "stateMutability": "nonpayable",
      "type": "function"
    },
    {
      "inputs": [],
      "name": "renounceOwnership",
      "outputs": [],
      "stateMutability": "nonpayable",
      "type": "function"
    },
    {
      "inputs": [],
      "name": "rewardsCycleEnd",
      "outputs": [
        {
          "internalType": "uint32",
          "name": "",
          "type": "uint32"
        }
      ],
      "stateMutability": "view",
      "type": "function"
    },
    {
      "inputs": [],
      "name": "rewardsCycleLength",
      "outputs": [
        {
          "internalType": "uint32",
          "name": "",
          "type": "uint32"
        }
      ],
      "stateMutability": "view",
      "type": "function"
    },
    {
      "inputs": [],
      "name": "stakingTotalAssets",
      "outputs": [
        {
          "internalType": "uint256",
          "name": "",
          "type": "uint256"
        }
      ],
      "stateMutability": "view",
      "type": "function"
    },
    {
      "inputs": [],
      "name": "symbol",
      "outputs": [
        {
          "internalType": "string",
          "name": "",
          "type": "string"
        }
      ],
      "stateMutability": "view",
      "type": "function"
    },
    {
      "inputs": [],
      "name": "syncRewards",
      "outputs": [],
      "stateMutability": "nonpayable",
      "type": "function"
    },
    {
      "inputs": [],
      "name": "totalAssets",
      "outputs": [
        {
          "internalType": "uint256",
          "name": "",
          "type": "uint256"
        }
      ],
      "stateMutability": "view",
      "type": "function"
    },
    {
      "inputs": [],
      "name": "totalReleasedAssets",
      "outputs": [
        {
          "internalType": "uint256",
          "name": "",
          "type": "uint256"
        }
      ],
      "stateMutability": "view",
      "type": "function"
    },
    {
      "inputs": [],
      "name": "totalSupply",
      "outputs": [
        {
          "internalType": "uint256",
          "name": "",
          "type": "uint256"
        }
      ],
      "stateMutability": "view",
      "type": "function"
    },
    {
      "inputs": [
        {
          "internalType": "address",
          "name": "to",
          "type": "address"
        },
        {
          "internalType": "uint256",
          "name": "amount",
          "type": "uint256"
        }
      ],
      "name": "transfer",
      "outputs": [
        {
          "internalType": "bool",
          "name": "",
          "type": "bool"
        }
      ],
      "stateMutability": "nonpayable",
      "type": "function"
    },
    {
      "inputs": [
        {
          "internalType": "address",
          "name": "from",
          "type": "address"
        },
        {
          "internalType": "address",
          "name": "to",
          "type": "address"
        },
        {
          "internalType": "uint256",
          "name": "amount",
          "type": "uint256"
        }
      ],
      "name": "transferFrom",
      "outputs": [
        {
          "internalType": "bool",
          "name": "",
          "type": "bool"
        }
      ],
      "stateMutability": "nonpayable",
      "type": "function"
    },
    {
      "inputs": [
        {
          "internalType": "address",
          "name": "newOwner",
          "type": "address"
        }
      ],
      "name": "transferOwnership",
      "outputs": [],
      "stateMutability": "nonpayable",
      "type": "function"
    },
    {
      "inputs": [
        {
          "internalType": "address",
          "name": "newImplementation",
          "type": "address"
        }
      ],
      "name": "upgradeTo",
      "outputs": [],
      "stateMutability": "nonpayable",
      "type": "function"
    },
    {
      "inputs": [
        {
          "internalType": "address",
          "name": "newImplementation",
          "type": "address"
        },
        {
          "internalType": "bytes",
          "name": "data",
          "type": "bytes"
        }
      ],
      "name": "upgradeToAndCall",
      "outputs": [],
      "stateMutability": "payable",
      "type": "function"
    },
    {
      "inputs": [],
      "name": "version",
      "outputs": [
        {
          "internalType": "uint8",
          "name": "",
          "type": "uint8"
        }
      ],
      "stateMutability": "view",
      "type": "function"
    },
    {
      "inputs": [
        {
          "internalType": "uint256",
          "name": "assets",
          "type": "uint256"
        },
        {
          "internalType": "address",
          "name": "receiver",
          "type": "address"
        },
        {
          "internalType": "address",
          "name": "owner",
          "type": "address"
        }
      ],
      "name": "withdraw",
      "outputs": [
        {
          "internalType": "uint256",
          "name": "shares",
          "type": "uint256"
        }
      ],
      "stateMutability": "nonpayable",
      "type": "function"
    },
    {
      "inputs": [
        {
          "internalType": "uint256",
          "name": "assets",
          "type": "uint256"
        }
      ],
      "name": "withdrawAVAX",
      "outputs": [
        {
          "internalType": "uint256",
          "name": "shares",
          "type": "uint256"
        }
      ],
      "stateMutability": "nonpayable",
      "type": "function"
    },
    {
      "inputs": [
        {
          "internalType": "uint256",
          "name": "assets",
          "type": "uint256"
        }
      ],
      "name": "withdrawForStaking",
      "outputs": [],
      "stateMutability": "nonpayable",
      "type": "function"
    },
    {
      "stateMutability": "payable",
      "type": "receive"
    }
  ],
  "bytecode": "0x60a0604052306080523480156200001557600080fd5b506200002062000026565b620000f5565b600a54600160a81b900460ff1615620000955760405162461bcd60e51b815260206004820152602760248201527f496e697469616c697a61626c653a20636f6e747261637420697320696e697469604482015266616c697a696e6760c81b606482015260840160405180910390fd5b600a5460ff600160a01b90910481161015620000f357600a805460ff60a01b191660ff60a01b17905560405160ff81527f7f26b83ff96e1f2b6a682f133852f6798a09c465da95921460cefb38474024989060200160405180910390a15b565b608051613a6b6200012d60003960008181610eaa01528181610f34015281816113c70152818161144c01526115360152613a6b6000f3fe6080604052600436106103435760003560e01c806372c0c211116101b0578063beff2bb5116100ec578063d905777e11610095578063ef8b30f71161006f578063ef8b30f714610976578063efe441d914610996578063f2fde38b146109b6578063fb926f5d146109d657600080fd5b8063d905777e146108df578063dd62ed3e14610915578063e7ff69f11461094d57600080fd5b8063ce96cb77116100c6578063ce96cb771461087f578063d26eea991461089f578063d505accf146108bf57600080fd5b8063beff2bb514610849578063c63d75b614610545578063c6e6f5921461085f57600080fd5b8063a9059cbb11610159578063b460af9411610133578063b460af94146107bc578063ba087652146107dc578063bb60d8a7146107fc578063be13733c1461083457600080fd5b8063a9059cbb1461075c578063aeb5cd5e1461077c578063b3d7f6b91461079c57600080fd5b806394bf804d1161018a57806394bf804d1461071f57806395d89b411461073f578063a0d065c31461075457600080fd5b806372c0c211146106bf5780637ecebe00146106d45780638da5cb5b1461070157600080fd5b806338d52e0f1161027f57806352d1902d116102285780636e553f65116102025780636e553f65146106385780636fcf5e5f1461065857806370a082311461067d578063715018a6146106aa57600080fd5b806352d1902d146105d057806354fd4d50146105e55780636917516b1461060657600080fd5b80634cdad506116102595780634cdad506146105875780634f1ef286146105a75780634ff8a081146105ba57600080fd5b806338d52e0f14610525578063402d267d14610545578063485cc9551461056757600080fd5b80631685a089116102ec578063313ce567116102c6578063313ce567146104b15780633644e515146104dd5780633659cfe6146104f2578063383dcbc41461051257600080fd5b80631685a0891461045b57806318160ddd1461047b57806323b872dd1461049157600080fd5b806307a2d13a1161031d57806307a2d13a146103eb578063095ea7b31461040b5780630a28a4771461043b57600080fd5b806301e1d1141461036957806304433bbc1461039157806306fdde03146103c957600080fd5b36610364576009546001600160a01b031633146103625761036261316e565b005b600080fd5b34801561037557600080fd5b5061037e6109f6565b6040519081526020015b60405180910390f35b34801561039d57600080fd5b506103b16103ac366004613251565b610a9c565b6040516001600160a01b039091168152602001610388565b3480156103d557600080fd5b506103de610afd565b60405161038891906132aa565b3480156103f757600080fd5b5061037e6104063660046132dd565b610b8b565b34801561041757600080fd5b5061042b61042636600461330b565b610bb8565b6040519015158152602001610388565b34801561044757600080fd5b5061037e6104563660046132dd565b610c24565b34801561046757600080fd5b5061037e6104763660046132dd565b610c44565b34801561048757600080fd5b5061037e60035481565b34801561049d57600080fd5b5061042b6104ac366004613337565b610d8f565b3480156104bd57600080fd5b506002546104cb9060ff1681565b60405160ff9091168152602001610388565b3480156104e957600080fd5b5061037e610e81565b3480156104fe57600080fd5b5061036261050d366004613378565b610ea0565b610362610520366004613395565b611020565b34801561053157600080fd5b506009546103b1906001600160a01b031681565b34801561055157600080fd5b5061037e610560366004613378565b5060001990565b34801561057357600080fd5b506103626105823660046133b7565b61117f565b34801561059357600080fd5b5061037e6105a23660046132dd565b6113b2565b6103626105b53660046133f0565b6113bd565b3480156105c657600080fd5b5061037e60d65481565b3480156105dc57600080fd5b5061037e611529565b3480156105f157600080fd5b506009546104cb90600160a01b900460ff1681565b34801561061257600080fd5b5060d3546106239063ffffffff1681565b60405163ffffffff9091168152602001610388565b34801561064457600080fd5b5061037e610653366004613454565b6115ee565b34801561066457600080fd5b5060d35461062390640100000000900463ffffffff1681565b34801561068957600080fd5b5061037e610698366004613378565b60046020526000908152604090205481565b3480156106b657600080fd5b50610362611642565b3480156106cb57600080fd5b50610362611656565b3480156106e057600080fd5b5061037e6106ef366004613378565b60086020526000908152604090205481565b34801561070d57600080fd5b5060a1546001600160a01b03166103b1565b34801561072b57600080fd5b5061037e61073a366004613454565b611828565b34801561074b57600080fd5b506103de611872565b61037e61187f565b34801561076857600080fd5b5061042b61077736600461330b565b6119ab565b34801561078857600080fd5b5061037e6107973660046132dd565b611a23565b3480156107a857600080fd5b5061037e6107b73660046132dd565b611b2c565b3480156107c857600080fd5b5061037e6107d7366004613479565b611b4b565b3480156107e857600080fd5b5061037e6107f7366004613479565b611b9f565b34801561080857600080fd5b5060d45461081c906001600160c01b031681565b6040516001600160c01b039091168152602001610388565b34801561084057600080fd5b5061037e611bea565b34801561085557600080fd5b5061037e60d55481565b34801561086b57600080fd5b5061037e61087a3660046132dd565b611cce565b34801561088b57600080fd5b5061037e61089a366004613378565b611cee565b3480156108ab57600080fd5b506103626108ba3660046134ca565b611d10565b3480156108cb57600080fd5b506103626108da366004613537565b611d4d565b3480156108eb57600080fd5b5061037e6108fa366004613378565b6001600160a01b031660009081526004602052604090205490565b34801561092157600080fd5b5061037e6109303660046133b7565b600560209081526000928352604080842090915290825290205481565b34801561095957600080fd5b5060d3546106239068010000000000000000900463ffffffff1681565b34801561098257600080fd5b5061037e6109913660046132dd565b611fa0565b3480156109a257600080fd5b506103626109b13660046132dd565b611fab565b3480156109c257600080fd5b506103626109d1366004613378565b61214a565b3480156109e257600080fd5b506103626109f13660046135a8565b6121d7565b60d55460d45460d354600092916001600160c01b03169063ffffffff68010000000000000000820481169116428211610a4557610a3c6001600160c01b03841685613634565b94505050505090565b6000610a518284613647565b63ffffffff168263ffffffff1642610a699190613664565b610a7c906001600160c01b038716613677565b610a86919061368e565b9050610a928186613634565b9550505050505090565b600080610ace83604051602001610ab391906136b0565b60405160208183030381529060405280519060200120612262565b90506001600160a01b038116610af757604051633b56498960e21b815260040160405180910390fd5b92915050565b60008054610b0a906136f5565b80601f0160208091040260200160405190810160405280929190818152602001828054610b36906136f5565b8015610b835780601f10610b5857610100808354040283529160200191610b83565b820191906000526020600020905b815481529060010190602001808311610b6657829003601f168201915b505050505081565b6003546000908015610baf57610baa610ba26109f6565b8490836122d0565b610bb1565b825b9392505050565b3360008181526005602090815260408083206001600160a01b038716808552925280832085905551919290917f8c5be1e5ebec7d5bd14f71427d1e84f3dd0314c0f7b2291e5b200ac8c7c3b92590610c139086815260200190565b60405180910390a350600192915050565b6003546000908015610baf57610baa81610c3c6109f6565b8591906122ee565b600080610c5030612314565b9050610c8181604051602001610c669190613729565b604051602081830303815290604052805190602001206123a9565b15610c9f5760405163ab35696f60e01b815260040160405180910390fd5b610ca8836113b2565b915081600003610ccb57604051630cb65c7760e21b815260040160405180910390fd5b610cd58284612417565b610cdf3384612432565b60408051838152602081018590523391829182917ffbde797d201c681b91056529119e0b02407c7bb96a4a2c75c01fc9667232c8db910160405180910390a4600954604051632e1a7d4d60e01b8152600481018490526001600160a01b0390911690632e1a7d4d90602401600060405180830381600087803b158015610d6457600080fd5b505af1158015610d78573d6000803e3d6000fd5b50610d8992503391508490506124ae565b50919050565b6001600160a01b03831660009081526005602090815260408083203384529091528120546000198114610deb57610dc68382613664565b6001600160a01b03861660009081526005602090815260408083203384529091529020555b6001600160a01b03851660009081526004602052604081208054859290610e13908490613664565b90915550506001600160a01b03808516600081815260046020526040908190208054870190555190918716907fddf252ad1be2c89b69c2b068fc378daa952ba7f163c4a11628f55a4df523b3ef90610e6e9087815260200190565b60405180910390a3506001949350505050565b60006006544614610e9957610e94612509565b905090565b5060075490565b6001600160a01b037f0000000000000000000000000000000000000000000000000000000000000000163003610f325760405162461bcd60e51b815260206004820152602c60248201527f46756e6374696f6e206d7573742062652063616c6c6564207468726f7567682060448201526b19195b1959d85d1958d85b1b60a21b60648201526084015b60405180910390fd5b7f00000000000000000000000000000000000000000000000000000000000000006001600160a01b0316610f8d7f360894a13ba1a3210667c828492db98dca3e2076cc3735a920a3ca505d382bbc546001600160a01b031690565b6001600160a01b031614610ff85760405162461bcd60e51b815260206004820152602c60248201527f46756e6374696f6e206d7573742062652063616c6c6564207468726f7567682060448201526b6163746976652070726f787960a01b6064820152608401610f29565b611001816125a3565b6040805160008082526020820190925261101d918391906125ab565b50565b6040518060400160405280600f81526020016e26b4b734b837b7b626b0b730b3b2b960891b8152503361105d82604051602001610ab391906136b0565b6001600160a01b0316816001600160a01b03161461108e57604051631eee95db60e11b815260040160405180910390fd5b346110998486613634565b811415806110a8575060d65485115b156110c65760405163263481ed60e21b815260040160405180910390fd5b604080518681526020810186905233917fc427d2d659d7dba18f3b7dc230a5b3eeaf5775bdda96b5018efceed241e06e0e910160405180910390a28460d660008282546111139190613664565b909155505060095460408051630d0e30db60e41b815290516001600160a01b039092169163d0e30db0918491600480830192600092919082900301818588803b15801561115f57600080fd5b505af1158015611173573d6000803e3d6000fd5b50505050505050505050565b600a54600160a81b900460ff16158080156111a75750600a546001600160a01b90910460ff16105b806111c85750303b1580156111c85750600a54600160a01b900460ff166001145b61123a5760405162461bcd60e51b815260206004820152602e60248201527f496e697469616c697a61626c653a20636f6e747261637420697320616c72656160448201527f647920696e697469616c697a65640000000000000000000000000000000000006064820152608401610f29565b600a80547fffffffffffffffffffffff00ffffffffffffffffffffffffffffffffffffffff16600160a01b179055801561128257600a805460ff60a81b1916600160a81b1790555b6112f7826040518060400160405280601d81526020017f476f476f506f6f6c204c6971756964205374616b696e6720546f6b656e0000008152506040518060400160405280600681526020017f67674156415800000000000000000000000000000000000000000000000000008152506121d7565b600a80546001600160a01b0319166001600160a01b03851617905561131a61274b565b6113226127c0565b60d3805467ffffffff00000000191666127500000000001790556113454261282d565b60d360086101000a81548163ffffffff021916908363ffffffff16021790555080156113ad57600a805460ff60a81b19169055604051600181527f7f26b83ff96e1f2b6a682f133852f6798a09c465da95921460cefb38474024989060200160405180910390a15b505050565b6000610af782610b8b565b6001600160a01b037f000000000000000000000000000000000000000000000000000000000000000016300361144a5760405162461bcd60e51b815260206004820152602c60248201527f46756e6374696f6e206d7573742062652063616c6c6564207468726f7567682060448201526b19195b1959d85d1958d85b1b60a21b6064820152608401610f29565b7f00000000000000000000000000000000000000000000000000000000000000006001600160a01b03166114a57f360894a13ba1a3210667c828492db98dca3e2076cc3735a920a3ca505d382bbc546001600160a01b031690565b6001600160a01b0316146115105760405162461bcd60e51b815260206004820152602c60248201527f46756e6374696f6e206d7573742062652063616c6c6564207468726f7567682060448201526b6163746976652070726f787960a01b6064820152608401610f29565b611519826125a3565b611525828260016125ab565b5050565b6000306001600160a01b037f000000000000000000000000000000000000000000000000000000000000000016146115c95760405162461bcd60e51b815260206004820152603860248201527f555550535570677261646561626c653a206d757374206e6f742062652063616c60448201527f6c6564207468726f7567682064656c656761746563616c6c00000000000000006064820152608401610f29565b507f360894a13ba1a3210667c828492db98dca3e2076cc3735a920a3ca505d382bbc90565b6000806115fa30612314565b905061161081604051602001610c669190613729565b1561162e5760405163ab35696f60e01b815260040160405180910390fd5b6116388484612844565b91505b5092915050565b61164a612913565b611654600061296d565b565b60006116614261282d565b60d35490915063ffffffff680100000000000000009091048116908216101561169d5760405163127d33e760e21b815260040160405180910390fd5b60d45460d55460d6546009546040516370a0823160e01b81523060048201526001600160c01b03909416936000918591859185916001600160a01b03909116906370a0823190602401602060405180830381865afa158015611703573d6000803e3d6000fd5b505050506040513d601f19601f82011682018060405250810190611727919061376e565b6117319190613634565b61173b9190613664565b6117459190613664565b60d35490915060009061176690640100000000900463ffffffff1687613787565b9050611771826129bf565b60d480546001600160c01b039283167fffffffffffffffff00000000000000000000000000000000000000000000000090911617905560d3805463ffffffff84811668010000000000000000026bffffffff00000000ffffffff19909216908a16171790556117e290861685613634565b60d55560405182815263ffffffff8216907f456468d0d5c249d1e9c2eb03d20f2a6627334ac8667838011f1df0013816f1cf9060200160405180910390a2505050505050565b60008061183430612314565b905061184a81604051602001610c669190613729565b156118685760405163ab35696f60e01b815260040160405180910390fd5b61163884846129e6565b60018054610b0a906136f5565b60008061188b30612314565b90506118a181604051602001610c669190613729565b156118bf5760405163ab35696f60e01b815260040160405180910390fd5b346118c981611fa0565b9250826000036118ec57604051639811e0c760e01b815260040160405180910390fd5b6040805182815260208101859052339182917fdcbc1c05240f31ff3ad067ef1ee35ce4997762752e3a095284754544f4c709d7910160405180910390a3600960009054906101000a90046001600160a01b03166001600160a01b031663d0e30db0826040518263ffffffff1660e01b81526004016000604051808303818588803b15801561197957600080fd5b505af115801561198d573d6000803e3d6000fd5b505050505061199c3384612a66565b6119a68184612aca565b505090565b336000908152600460205260408120805483919083906119cc908490613664565b90915550506001600160a01b038316600081815260046020526040908190208054850190555133907fddf252ad1be2c89b69c2b068fc378daa952ba7f163c4a11628f55a4df523b3ef90610c139086815260200190565b600080611a2f30612314565b9050611a4581604051602001610c669190613729565b15611a635760405163ab35696f60e01b815260040160405180910390fd5b611a6c83610c24565b9150611a788383612417565b611a823383612432565b60408051848152602081018490523391829182917ffbde797d201c681b91056529119e0b02407c7bb96a4a2c75c01fc9667232c8db910160405180910390a4600954604051632e1a7d4d60e01b8152600481018590526001600160a01b0390911690632e1a7d4d90602401600060405180830381600087803b158015611b0757600080fd5b505af1158015611b1b573d6000803e3d6000fd5b50610d8992503391508590506124ae565b6003546000908015610baf57610baa611b436109f6565b8490836122ee565b600080611b5730612314565b9050611b6d81604051602001610c669190613729565b15611b8b5760405163ab35696f60e01b815260040160405180910390fd5b611b96858585612adc565b95945050505050565b600080611bab30612314565b9050611bc181604051602001610c669190613729565b15611bdf5760405163ab35696f60e01b815260040160405180910390fd5b611b96858585612bcd565b600080611c2b6040518060400160405280600b81526020017f50726f746f636f6c44414f000000000000000000000000000000000000000000815250610a9c565b90506000816001600160a01b0316635ad174eb6040518163ffffffff1660e01b8152600401602060405180830381865afa158015611c6d573d6000803e3d6000fd5b505050506040513d601f19601f82011682018060405250810190611c91919061376e565b90506000611c9d6109f6565b90506000611cb48284670de0b6b3a76400006122d0565b60d654909150611cc48284613664565b610a3c9190613664565b6003546000908015610baf57610baa81611ce66109f6565b8591906122d0565b6001600160a01b038116600090815260046020526040812054610af790610b8b565b6000611d1c84826137f2565b506001611d2983826137f2565b506002805460ff191660ff831617905546600655611d45612509565b600755505050565b42841015611d9d5760405162461bcd60e51b815260206004820152601760248201527f5045524d49545f444541444c494e455f455850495245440000000000000000006044820152606401610f29565b60006001611da9610e81565b6001600160a01b038a811660008181526008602090815260409182902080546001810190915582517f6e71edae12b1b97f4d1f60370fef10105fa2faae0126114a169c64845d6126c98184015280840194909452938d166060840152608083018c905260a083019390935260c08083018b90528151808403909101815260e08301909152805192019190912061190160f01b6101008301526101028201929092526101228101919091526101420160408051601f198184030181528282528051602091820120600084529083018083525260ff871690820152606081018590526080810184905260a0016020604051602081039080840390855afa158015611eb5573d6000803e3d6000fd5b5050604051601f1901519150506001600160a01b03811615801590611eeb5750876001600160a01b0316816001600160a01b0316145b611f375760405162461bcd60e51b815260206004820152600e60248201527f494e56414c49445f5349474e45520000000000000000000000000000000000006044820152606401610f29565b6001600160a01b0390811660009081526005602090815260408083208a8516808552908352928190208990555188815291928a16917f8c5be1e5ebec7d5bd14f71427d1e84f3dd0314c0f7b2291e5b200ac8c7c3b925910160405180910390a350505050505050565b6000610af782611cce565b6040518060400160405280600f81526020016e26b4b734b837b7b626b0b730b3b2b960891b81525033611fe882604051602001610ab391906136b0565b6001600160a01b0316816001600160a01b03161461201957604051631eee95db60e11b815260040160405180910390fd5b612021611bea565b831115612041576040516366a7cc9160e11b815260040160405180910390fd5b60405183815233907f14438a8606c512fda07a1e9dfefc371418ed542946338bfa1c87788e903b4d689060200160405180910390a28260d660008282546120889190613634565b9091555050600954604051632e1a7d4d60e01b8152600481018590526001600160a01b0390911690632e1a7d4d90602401600060405180830381600087803b1580156120d357600080fd5b505af11580156120e7573d6000803e3d6000fd5b505050506000339050806001600160a01b031663ffe09241856040518263ffffffff1660e01b81526004016000604051808303818588803b15801561212b57600080fd5b505af115801561213f573d6000803e3d6000fd5b505050505050505050565b612152612913565b6001600160a01b0381166121ce5760405162461bcd60e51b815260206004820152602660248201527f4f776e61626c653a206e6577206f776e657220697320746865207a65726f206160448201527f64647265737300000000000000000000000000000000000000000000000000006064820152608401610f29565b61101d8161296d565b61223e8282856001600160a01b031663313ce5676040518163ffffffff1660e01b8152600401602060405180830381865afa15801561221a573d6000803e3d6000fd5b505050506040513d601f19601f820116820180604052508101906108ba91906138b2565b5050600980546001600160a01b0319166001600160a01b0392909216919091179055565b600a546040516321f8a72160e01b8152600481018390526000916001600160a01b0316906321f8a72190602401602060405180830381865afa1580156122ac573d6000803e3d6000fd5b505050506040513d601f19601f82011682018060405250810190610af791906138cf565b60008260001904841183021582026122e757600080fd5b5091020490565b600082600019048411830215820261230557600080fd5b50910281810615159190040190565b606060006123858360405160200161236a91907f636f6e74726163742e6e616d6500000000000000000000000000000000000000815260609190911b6bffffffffffffffffffffffff1916600d82015260210190565b60405160208183030381529060405280519060200120612d0e565b90508051600003610af757604051633b56498960e21b815260040160405180910390fd5b600a54604051633d70e7e560e11b8152600481018390526000916001600160a01b031690637ae1cfca90602401602060405180830381865afa1580156123f3573d6000803e3d6000fd5b505050506040513d601f19601f82011682018060405250810190610af791906138ec565b8160d560008282546124299190613664565b90915550505050565b6001600160a01b0382166000908152600460205260408120805483929061245a908490613664565b90915550506003805482900390556040518181526000906001600160a01b038416907fddf252ad1be2c89b69c2b068fc378daa952ba7f163c4a11628f55a4df523b3ef906020015b60405180910390a35050565b600080600080600085875af19050806113ad5760405162461bcd60e51b815260206004820152601360248201527f4554485f5452414e534645525f4641494c4544000000000000000000000000006044820152606401610f29565b60007f8b73c3c69bb8fe3d512ecc4cf759cc79239f7b179b0ffacaa9a75d522b39400f600060405161253b919061390e565b6040805191829003822060208301939093528101919091527fc89efdaa54c0f20c7adf612882df0950f5a951637e0307cdcb4c672f298b8bc660608201524660808201523060a082015260c00160405160208183030381529060405280519060200120905090565b61101d612913565b7f4910fdfa16fed3260ed0e7147f7cc6da11a60208b5b9406d12a635614ffd91435460ff16156125de576113ad83612d80565b826001600160a01b03166352d1902d6040518163ffffffff1660e01b8152600401602060405180830381865afa925050508015612638575060408051601f3d908101601f191682019092526126359181019061376e565b60015b6126aa5760405162461bcd60e51b815260206004820152602e60248201527f45524331393637557067726164653a206e657720696d706c656d656e7461746960448201527f6f6e206973206e6f7420555550530000000000000000000000000000000000006064820152608401610f29565b7f360894a13ba1a3210667c828492db98dca3e2076cc3735a920a3ca505d382bbc811461273f5760405162461bcd60e51b815260206004820152602960248201527f45524331393637557067726164653a20756e737570706f727465642070726f7860448201527f6961626c655555494400000000000000000000000000000000000000000000006064820152608401610f29565b506113ad838383612e3e565b600a54600160a81b900460ff166127b85760405162461bcd60e51b815260206004820152602b60248201527f496e697469616c697a61626c653a20636f6e7472616374206973206e6f74206960448201526a6e697469616c697a696e6760a81b6064820152608401610f29565b611654612e69565b600a54600160a81b900460ff166116545760405162461bcd60e51b815260206004820152602b60248201527f496e697469616c697a61626c653a20636f6e7472616374206973206e6f74206960448201526a6e697469616c697a696e6760a81b6064820152608401610f29565b6000640100000000821061284057600080fd5b5090565b600061284f83611fa0565b9050806000036128a15760405162461bcd60e51b815260206004820152600b60248201527f5a45524f5f5348415245530000000000000000000000000000000000000000006044820152606401610f29565b6009546128b9906001600160a01b0316333086612edf565b6128c38282612a66565b60408051848152602081018390526001600160a01b0384169133917fdcbc1c05240f31ff3ad067ef1ee35ce4997762752e3a095284754544f4c709d7910160405180910390a3610af78382612aca565b60a1546001600160a01b031633146116545760405162461bcd60e51b815260206004820181905260248201527f4f776e61626c653a2063616c6c6572206973206e6f7420746865206f776e65726044820152606401610f29565b60a180546001600160a01b038381166001600160a01b0319831681179093556040519116919082907f8be0079c531659141344cd1fd0a4f28419497f9722a3daafe3b4186f6b6457e090600090a35050565b60007801000000000000000000000000000000000000000000000000821061284057600080fd5b60006129f183611b2c565b600954909150612a0c906001600160a01b0316333084612edf565b612a168284612a66565b60408051828152602081018590526001600160a01b0384169133917fdcbc1c05240f31ff3ad067ef1ee35ce4997762752e3a095284754544f4c709d7910160405180910390a3610af78184612aca565b8060036000828254612a789190613634565b90915550506001600160a01b0382166000818152600460209081526040808320805486019055518481527fddf252ad1be2c89b69c2b068fc378daa952ba7f163c4a11628f55a4df523b3ef91016124a2565b8160d560008282546124299190613634565b6000612ae784610c24565b9050336001600160a01b03831614612b57576001600160a01b03821660009081526005602090815260408083203384529091529020546000198114612b5557612b308282613664565b6001600160a01b03841660009081526005602090815260408083203384529091529020555b505b612b618482612417565b612b6b8282612432565b60408051858152602081018390526001600160a01b03808516929086169133917ffbde797d201c681b91056529119e0b02407c7bb96a4a2c75c01fc9667232c8db910160405180910390a4600954610bb1906001600160a01b03168486612f72565b6000336001600160a01b03831614612c3d576001600160a01b03821660009081526005602090815260408083203384529091529020546000198114612c3b57612c168582613664565b6001600160a01b03841660009081526005602090815260408083203384529091529020555b505b612c46846113b2565b905080600003612c985760405162461bcd60e51b815260206004820152600b60248201527f5a45524f5f4153534554530000000000000000000000000000000000000000006044820152606401610f29565b612ca28185612417565b612cac8285612432565b60408051828152602081018690526001600160a01b03808516929086169133917ffbde797d201c681b91056529119e0b02407c7bb96a4a2c75c01fc9667232c8db910160405180910390a4600954610bb1906001600160a01b03168483612f72565b600a54604051634c373c8d60e11b8152600481018390526060916001600160a01b03169063986e791a90602401600060405180830381865afa158015612d58573d6000803e3d6000fd5b505050506040513d6000823e601f3d908101601f19168201604052610af79190810190613984565b6001600160a01b0381163b612dfd5760405162461bcd60e51b815260206004820152602d60248201527f455243313936373a206e657720696d706c656d656e746174696f6e206973206e60448201527f6f74206120636f6e7472616374000000000000000000000000000000000000006064820152608401610f29565b7f360894a13ba1a3210667c828492db98dca3e2076cc3735a920a3ca505d382bbc80546001600160a01b0319166001600160a01b0392909216919091179055565b612e4783612ff8565b600082511180612e545750805b156113ad57612e638383613038565b50505050565b600a54600160a81b900460ff16612ed65760405162461bcd60e51b815260206004820152602b60248201527f496e697469616c697a61626c653a20636f6e7472616374206973206e6f74206960448201526a6e697469616c697a696e6760a81b6064820152608401610f29565b6116543361296d565b60006040516323b872dd60e01b81528460048201528360248201528260448201526020600060648360008a5af13d15601f3d1160016000511416171691505080612f6b5760405162461bcd60e51b815260206004820152601460248201527f5452414e534645525f46524f4d5f4641494c45440000000000000000000000006044820152606401610f29565b5050505050565b600060405163a9059cbb60e01b8152836004820152826024820152602060006044836000895af13d15601f3d1160016000511416171691505080612e635760405162461bcd60e51b815260206004820152600f60248201527f5452414e534645525f4641494c454400000000000000000000000000000000006044820152606401610f29565b61300181612d80565b6040516001600160a01b038216907fbc7cd75a20ee27fd9adebab32041f755214dbc6bffa90cc0225b39da2e5c2d3b90600090a250565b60606001600160a01b0383163b6130b75760405162461bcd60e51b815260206004820152602660248201527f416464726573733a2064656c65676174652063616c6c20746f206e6f6e2d636f60448201527f6e747261637400000000000000000000000000000000000000000000000000006064820152608401610f29565b600080846001600160a01b0316846040516130d291906139f2565b600060405180830381855af49150503d806000811461310d576040519150601f19603f3d011682016040523d82523d6000602084013e613112565b606091505b5091509150611b968282604051806060016040528060278152602001613a0f6027913960608315613144575081610bb1565b8251156131545782518084602001fd5b8160405162461bcd60e51b8152600401610f2991906132aa565b634e487b7160e01b600052600160045260246000fd5b634e487b7160e01b600052604160045260246000fd5b604051601f8201601f1916810167ffffffffffffffff811182821017156131c3576131c3613184565b604052919050565b600067ffffffffffffffff8211156131e5576131e5613184565b50601f01601f191660200190565b6000613206613201846131cb565b61319a565b905082815283838301111561321a57600080fd5b828260208301376000602084830101529392505050565b600082601f83011261324257600080fd5b610bb1838335602085016131f3565b60006020828403121561326357600080fd5b813567ffffffffffffffff81111561327a57600080fd5b61163884828501613231565b60005b838110156132a1578181015183820152602001613289565b50506000910152565b60208152600082518060208401526132c9816040850160208701613286565b601f01601f19169190910160400192915050565b6000602082840312156132ef57600080fd5b5035919050565b6001600160a01b038116811461101d57600080fd5b6000806040838503121561331e57600080fd5b8235613329816132f6565b946020939093013593505050565b60008060006060848603121561334c57600080fd5b8335613357816132f6565b92506020840135613367816132f6565b929592945050506040919091013590565b60006020828403121561338a57600080fd5b8135610bb1816132f6565b600080604083850312156133a857600080fd5b50508035926020909101359150565b600080604083850312156133ca57600080fd5b82356133d5816132f6565b915060208301356133e5816132f6565b809150509250929050565b6000806040838503121561340357600080fd5b823561340e816132f6565b9150602083013567ffffffffffffffff81111561342a57600080fd5b8301601f8101851361343b57600080fd5b61344a858235602084016131f3565b9150509250929050565b6000806040838503121561346757600080fd5b8235915060208301356133e5816132f6565b60008060006060848603121561348e57600080fd5b8335925060208401356134a0816132f6565b915060408401356134b0816132f6565b809150509250925092565b60ff8116811461101d57600080fd5b6000806000606084860312156134df57600080fd5b833567ffffffffffffffff808211156134f757600080fd5b61350387838801613231565b9450602086013591508082111561351957600080fd5b5061352686828701613231565b92505060408401356134b0816134bb565b600080600080600080600060e0888a03121561355257600080fd5b873561355d816132f6565b9650602088013561356d816132f6565b95506040880135945060608801359350608088013561358b816134bb565b9699959850939692959460a0840135945060c09093013592915050565b6000806000606084860312156135bd57600080fd5b83356135c8816132f6565b9250602084013567ffffffffffffffff808211156135e557600080fd5b6135f187838801613231565b9350604086013591508082111561360757600080fd5b5061361486828701613231565b9150509250925092565b634e487b7160e01b600052601160045260246000fd5b80820180821115610af757610af761361e565b63ffffffff82811682821603908082111561163b5761163b61361e565b81810381811115610af757610af761361e565b8082028115828204841417610af757610af761361e565b6000826136ab57634e487b7160e01b600052601260045260246000fd5b500490565b7f636f6e74726163742e61646472657373000000000000000000000000000000008152600082516136e8816010850160208701613286565b9190910160100192915050565b600181811c9082168061370957607f821691505b602082108103610d8957634e487b7160e01b600052602260045260246000fd5b7f636f6e74726163742e706175736564000000000000000000000000000000000081526000825161376181600f850160208701613286565b91909101600f0192915050565b60006020828403121561378057600080fd5b5051919050565b63ffffffff81811683821601908082111561163b5761163b61361e565b601f8211156113ad57600081815260208120601f850160051c810160208610156137cb5750805b601f850160051c820191505b818110156137ea578281556001016137d7565b505050505050565b815167ffffffffffffffff81111561380c5761380c613184565b6138208161381a84546136f5565b846137a4565b602080601f831160018114613855576000841561383d5750858301515b600019600386901b1c1916600185901b1785556137ea565b600085815260208120601f198616915b8281101561388457888601518255948401946001909101908401613865565b50858210156138a25787850151600019600388901b60f8161c191681555b5050505050600190811b01905550565b6000602082840312156138c457600080fd5b8151610bb1816134bb565b6000602082840312156138e157600080fd5b8151610bb1816132f6565b6000602082840312156138fe57600080fd5b81518015158114610bb157600080fd5b600080835461391c816136f5565b60018281168015613934576001811461394957613978565b60ff1984168752821515830287019450613978565b8760005260208060002060005b8581101561396f5781548a820152908401908201613956565b50505082870194505b50929695505050505050565b60006020828403121561399657600080fd5b815167ffffffffffffffff8111156139ad57600080fd5b8201601f810184136139be57600080fd5b80516139cc613201826131cb565b8181528560208385010111156139e157600080fd5b611b96826020830160208601613286565b60008251613a04818460208701613286565b919091019291505056fe416464726573733a206c6f772d6c6576656c2064656c65676174652063616c6c206661696c6564a2646970667358221220177b4c3b77180acae76dad49716f83c53a8167485536efc6e3802c211a986b7264736f6c63430008110033",
  "linkReferences": {},
  "deployedLinkReferences": {}
}